:10800000180B0120E5A80000A35C0100D1A8000026
:10801000D1A80000D1A80000D1A80000D1A800007C
:10802000000000000000000000000000E9AA0000BD
:10803000D1A800000000000041AA0000D1A8000063
:1080400025AD000025AD000025AD000025AD0000E8
:1080500025AD000025AD000025AD000025AD0000D8
:1080600025AD000025AD000025AD000025AD0000C8
:1080700025AD000025AD000025AD000025AD0000B8
:1080800025AD000025AD000025AD000025AD0000A8
:1080900025AD000025AD000025AD000025AD000098
:1080A00025AD000025AD000025AD000025AD000088
:1080B00025AD000025AD000025AD000025AD000078
:1080C00025AD000025AD000025AD000025AD000068
:1080D00025AD000025AD000025AD000025AD000058
:1080E00025AD000025AD000025AD000025AD000048
:1080F00025AD000025AD000025AD000025AD000038
:1081000025AD000025AD000025AD000025AD000027
:1081100025AD000025AD000025AD000025AD000017
:1081200025AD000025AD000025AD000025AD000007
:1081300025AD000025AD000025AD000025AD0000F7
:0481400025AD000069
:04814400FFFFFFFF3B
:1081480081F0004102E000BF83F0004330B54FEA00
:1081580041044FEA430594EA050F08BF90EA020F6D
:108168001FBF54EA000C55EA020C7FEA645C7FEA00
:10817800655C00F0E2804FEA5454D4EB5555B8BF23
:108188006D420CDD2C4480EA020281EA030382EA94
:10819800000083EA010180EA020281EA0303362D26
:1081A80088BF30BD11F0004F4FEA01314FF4801CF9
:1081B8004CEA113102D0404261EB410113F0004F0B
:1081C8004FEA03334CEA133302D0524263EB4303C2
:1081D80094EA050F00F0A780A4F10104D5F1200E60
:1081E8000DDB02FA0EFC22FA05F2801841F10001BB
:1081F80003FA0EF2801843FA05F359410EE0A5F18F
:1082080020050EF1200E012A03FA0EFC28BF4CF0BF
:10821800020C43FA05F3C01851EBE37101F0004575
:1082280007D54FF0000EDCF1000C7EEB00006EEB82
:108238000101B1F5801F1BD3B1F5001F0CD349080C
:108248005FEA30004FEA3C0C04F101044FEA445263
:1082580012F5800F80F09A80BCF1004F08BF5FEAEA
:10826800500C50F1000041EB045141EA050130BDCA
:108278005FEA4C0C404141EB0101013C28BFB1F5DC
:10828800801FE9D291F0000F04BF01460020B1FA27
:1082980081F308BF2033A3F10B03B3F120020CDAFA
:1082A8000C3208DD02F1140CC2F10C0201FA0CF0D8
:1082B80021FA02F10CE002F11402D8BFC2F1200C3D
:1082C80001FA02F120FA0CFCDCBF41EA0C019040F3
:1082D800E41AA2BF01EB0451294330BD6FEA04043C
:1082E8001F3C1CDA0C340EDC04F11404C4F1200227
:1082F80020FA04F001FA02F340EA030021FA04F339
:1083080045EA030130BDC4F10C04C4F1200220FA8F
:1083180002F001FA04F340EA0300294630BD21FACD
:1083280004F0294630BD94F0000F83F4801306BF93
:1083380081F480110134013D4EE77FEA645C18BF87
:108348007FEA655C29D094EA050F08BF90EA020F1E
:1083580005D054EA000C04BF1946104630BD91EA16
:10836800030F1EBF0021002030BD5FEA545C05D119
:108378004000494128BF41F0004130BD14F5800458
:108388003CBF01F5801130BD01F0004545F0FE41CC
:1083980041F470014FF0000030BD7FEA645C1ABF01
:1083A800194610467FEA655C1CBF0B46024650EA38
:1083B800013406BF52EA033591EA030F41F4002164
:1083C80030BD00BF90F0000F04BF0021704730B5EA
:1083D8004FF4806404F132044FF000054FF00001BF
:1083E80050E700BF90F0000F04BF0021704730B580
:1083F8004FF4806404F1320410F0004548BF404255
:108408004FF000013EE700BF42004FEAE2014FEAA9
:1084180031014FEA02701FBF12F07F4393F07F4F84
:1084280081F06051704732F07F4208BF704793F087
:108438007F4F04BF41F40021704730B54FF460749A
:1084480001F0004521F000411CE700BF50EA01029D
:1084580008BF704730B54FF000050AE050EA010246
:1084680008BF704730B511F0004502D5404261EBB6
:1084780041014FF4806404F132045FEA915C3FF4F7
:10848800D8AE4FF003025FEADC0C18BF03325FEA94
:10849800DC0C18BF033202EBDC02C2F1200300FA45
:1084A80003FC20FA02F001FA03FE40EA0E0021FA6A
:1084B80002F11444BDE600BF70B54FF0FF0C4CF458
:1084C800E06C1CEA11541DBF1CEA135594EA0C0F0A
:1084D80095EA0C0F00F0DEF82C4481EA030621EA45
:1084E8004C5123EA4C5350EA013518BF52EA033580
:1084F80041F4801143F4801338D0A0FB02CE4FF032
:108508000005E1FB02E506F00042E0FB03E54FF061
:108518000006E1FB03569CF0000F18BF4EF0010E59
:10852800A4F1FF04B6F5007F64F5407404D25FEA55
:108538004E0E6D4146EB060642EAC62141EA555108
:108548004FEAC52040EA5E504FEACE2EB4F1FD0C4A
:1085580088BFBCF5E06F1ED8BEF1004F08BF5FEAC8
:10856800500E50F1000041EB045170BD06F000467A
:1085780046EA010140EA020081EA0301B4EB5C0427
:10858800C2BFD4EB0C0541EA045170BD41F480111F
:108598004FF0000E013C00F3AB8014F1360FDEBF44
:1085A800002001F0004170BDC4F10004203C35DA20
:1085B8000C341BDC04F11404C4F1200500FA05F3A3
:1085C80020FA04F001FA05F240EA020001F0004244
:1085D80021F0004110EBD37021FA04F642EB0601BA
:1085E8005EEA430E08BF20EAD37070BDC4F10C04E4
:1085F800C4F1200500FA04F320FA05F001FA04F2A8
:1086080040EA020001F0004110EBD37041F1000193
:108618005EEA430E08BF20EAD37070BDC4F120059E
:1086280000FA05F24EEA020E20FA04F301FA05F206
:1086380043EA020321FA04F001F0004121FA04F2AE
:1086480020EA020000EBD3705EEA430E08BF20EA7E
:10865800D37070BD94F0000F0FD101F000464000B8
:1086680041EB010111F4801F08BF013CF7D041EA3A
:10867800060195F0000F18BF704703F0004652003E
:1086880043EB030313F4801F08BF013DF7D043EA0F
:108698000603704794EA0C0F0CEA135518BF95EAC5
:1086A8000C0F0CD050EA410618BF52EA4306D1D14C
:1086B80081EA030101F000414FF0000070BD50EA6B
:1086C800410606BF1046194652EA430619D094EAF5
:1086D8000C0F02D150EA013613D195EA0C0F05D1DF
:1086E80052EA03361CBF104619460AD181EA030133
:1086F80001F0004141F0FE4141F470014FF00000EB
:1087080070BD41F0FE4141F4780170BD70B54FF085
:10871800FF0C4CF4E06C1CEA11541DBF1CEA135505
:1087280094EA0C0F95EA0C0F00F0A7F8A4EB0504E7
:1087380081EA030E52EA03354FEA013100F08880DE
:108748004FEA03334FF0805545EA131343EA1263A7
:108758004FEA022245EA111545EA10654FEA00265C
:108768000EF000419D4208BF964244F1FD0404F515
:10877800407402D25B084FEA3202B61A65EB030571
:108788005B084FEA32024FF480104FF4002CB6EB2E
:10879800020E75EB030E22BFB61A754640EA0C00AE
:1087A8005B084FEA3202B6EB020E75EB030E22BFEE
:1087B800B61A754640EA5C005B084FEA3202B6EB2F
:1087C800020E75EB030E22BFB61A754640EA9C00EE
:1087D8005B084FEA3202B6EB020E75EB030E22BFBE
:1087E800B61A754640EADC0055EA060E18D04FEA7C
:1087F800051545EA16754FEA06164FEAC30343EA1C
:1088080052734FEAC2025FEA1C1CC0D111F4801FE8
:108818000BD141EA00014FF000004FF0004CB6E7E1
:1088280011F4801F04BF01430020B4F1FD0C88BF80
:10883800BCF5E06F3FF6AFAEB5EB030C04BFB6EB8B
:10884800020C5FEA500C50F1000041EB045170BD7E
:108858000EF0004E4EEA113114EB5C04C2BFD4EBAB
:108868000C0541EA045170BD41F480114FF0000E2F
:10887800013C90E645EA060E8DE60CEA135594EAAB
:108888000C0F08BF95EA0C0F3FF43BAF94EA0C0FAE
:108898000AD150EA01347FF434AF95EA0C0F7FF423
:1088A80025AF104619462CE795EA0C0F06D152EA77
:1088B80003353FF4FDAE1046194622E750EA41065B
:1088C80018BF52EA43067FF4C5AE50EA41047FF46C
:1088D8000DAF52EA43057FF4EBAE12E74FEA4102CF
:1088E800B2F1E04324BFB3F5001CDCF1FE5C0DD906
:1088F80001F0004C4FEAC0024CEA5070B2F1004F50
:1089080040EB830008BF20F00100704711F0804F52
:1089180021D113F13872BCBF01F00040704741F417
:1089280080114FEA5252C2F11802C2F1200C10FA1B
:108938000CF320FA02F018BF40F001004FEAC123FF
:108948004FEAD32303FA0CFC40EA0C0023FA02F3A3
:108958004FEA4303CCE77FEA625307D150EA013379
:108968001EBF4FF0FE4040F44000704701F0004049
:1089780040F0FE4040F40000704700BF53B94AB9C8
:10898800002908BF00281CBF4FF0FF314FF0FF300F
:1089980000F00CB8ADF1080C6DE904CE00F008F851
:1089A800DDF804E0DDE9022304B07047704700BF3A
:1089B8002DE9F04786468C460846089E15467446BB
:1089C8001946002B40F0C1808542B2FA82F245D99F
:1089D8004AB1C2F1200300FA02FC954094402EFAF5
:1089E80003F343EA0C0C4FEA154EA8B2230CBCFB68
:1089F800FEF80EFB18CC08FB00F943EA0C43994536
:108A080028D9EB1808F1FF3704D2994502D9A8F103
:108A180002072B44A3EB0903A4B2B3FBFEFC0EFB35
:108A28001C330CFB00F044EA0344A04214D92C196F
:108A38000CF1FF3304D2A04202D9ACF102032C445A
:108A4800241A43EA07401EB1D440002334607360FF
:108A5800BDE8F0874746DDE76346F1E792BB431B75
:108A680001214FEA154EAFB2200CB3FBFEFC0EFB02
:108A78001C330CFB07F840EA0343984561D9EB180F
:108A88000CF1FF3004D2984502D9ACF102002B4416
:108A9800A3EB0803A4B2B3FBFEFC0EFB1C330CFBD8
:108AA80007F744EA0344A7424DD92C190CF1FF33C8
:108AB80004D2A74202D9ACF102032C44E41B43EAD6
:108AC8000040C0E7C2F120039540944020FA03F12A
:108AD8002EFA03F34FEA154E9040AFB20343B1FBB1
:108AE800FEFC0EFB1C10190C0CFB07F841EA0041B8
:108AF800884522D969180CF1FF3004D2884502D97B
:108B0800ACF102002944A1EB08019BB2B1FBFEFCC9
:108B18000EFB1C110CFB07F743EA01439F420ED9D9
:108B2800EB180CF1FF3104D29F4202D9ACF10201DB
:108B38002B44DB1B41EA004193E76046E3E76146CB
:108B4800F7E76046A4E76346B8E7834206D916B953
:108B5800002108467CE7C6E900E0F9E7B3FA83F7A5
:108B68008FB9834201D3724508D8BEEB020460EB8B
:108B7800030301209C461EB9002169E73846FAE73D
:108B8800C6E9004CF8E7C7F1200CBB400EFA07F520
:108B980022FA0CF42EFA0CF1BA401C4320FA0CF31A
:108BA800B8404FEA144901431FFA84FEB3FBF9F8B1
:108BB80009FB18300B0C08FB0EFA43EA00439A45F0
:108BC80040D9E31808F1FF3004D29A4502D9A8F138
:108BD80002002344A3EB0A0389B2B3FBF9F809FBAB
:108BE800183308FB0EFE41EA03418E452CD9611863
:108BF80008F1FF3304D28E4502D9A8F102032144BB
:108C080043EA0040A1EB0E01A0FB02984145CE4685
:108C1800434602D306D14D4504D20138B9EB020EC2
:108C280068EB0403002EA7D0B5EB0E0261EB03013D
:108C380001FA0CFC22FA07F3F9404CEA0303C6E9EF
:108C4800003199E74046C5E74346D9E710F8012BBC
:108C580011F8013B012A28BF9A42F7D0D01A704771
:108C6800034611F8012B03F8012B002AF9D17047AC
:108C7800034613F8012B002AFBD1181A0138704754
:108C8800F0B52DED028B002504238BB00E46074668
:108C9800CDE908550593002800F0CC80002900F0A4
:108CA800C980062108A80DF09EFD044678B1664BE0
:108CB8000390CDE9015301222B46284663490095CC
:108CC8000DF0E9FE20460BB0BDEC028BF0BD01466D
:108CD80008AA38460DF062FD044670B15C4B03905B
:108CE800CDE901532B4600950122184657490DF04E
:108CF800D2FE08A80DF0A1FDE4E7012104AA08A806
:108D08000DF04DFE044610B1524B0390E8E7049B6A
:108D1800DBB1042B22D0052B0CBF0923FF233370B2
:108D2800032105AB06AA08A80DF065FE0546B8B1F3
:108D3800494B03900293002301221846CDE90033E2
:108D480042490DF0A8FE2C46D3E7DFED447A002314
:108D5800C6ED017A3370C6ED027ACAE70723DEE76B
:108D6800059B002BF1D028336B4403F8100C014607
:108D7800022206A80BF058F93378C0B2092B0AD1A1
:108D88000F2828D96FF01504354B0394029300235C
:108D9800CDE90033A8E70F28F4D8072B23D19FED9E
:108DA800318A314B33F81000D8B1FFF71BFB24A3ED
:108DB800D3E90023FFF780FBFFF790FD04217060E3
:108DC80005AB06AA08A805910DF015FE054668B181
:108DD800264B0390AEE7264B9FED268A33F810000A
:108DE800E2E72548EAE76FF07F04CDE7059B02221A
:108DF80028336B44014603F8100C06A80BF014F94D
:108E0800C2B20F2A0DD91D4B0392CDE9015301229D
:108E18002B4628460D4900950DF03DFE6FF01504D0
:108E280067E70132D2B207EE902AF8EEE77A67EEEA
:108E3800887A90E76FF0150444E700BFAFF300802D
:108E48007B14AE47E17A24402CAE010074910100F6
:108E580055AE01007EAE0100A0AE0100000000008A
:108E6800CCAE01000AD7A33F509B0100F0AE010031
:108E7800309B01000AD723400AD7A3401BAF01004B
:108E88002DE9F0472DED028B04469FED498B4A4EA4
:108E980084B04FF02003EFF3118783F31288BFF3F8
:108EA8006F8FD4F8F8508DB9022104F588700FF04F
:108EB800B6F9002843D100238DED008B3946029383
:108EC80004F580723D480AF015FDE2E7D4F8FC206D
:108ED8002B689542C4F8F83008BFC4F8FC30D4F8C1
:108EE800103143F00203C4F81031EB6823F0040397
:108EF80043F00103EB606B6887F31188BFF36F8F52
:108F0800284698474FF02003EFF3118983F312881E
:108F1800BFF36F8FEB68990723F0010219D4EA6059
:108F2800D4F8103123F00203C4F8103189F3118802
:108F3800BFF36F8FDB05ACD40AF03AFCA9E704F560
:108F480084750022012128460FF0B9FA0028F8D1CB
:108F5800B1E7306823F00303EB600028E0D0002776
:108F6800BA46D0F800800028DAD042680146954217
:108F78000BD1016897B972683160824200D1716083
:108F880040F808AB0AF0C8F83946B8F1000F0BD022
:108F9800D8F8002040460F469046E4E739607268EA
:108FA800824208BF7760EBE74246F3E7AFF3008001
:108FB800FFFFFFFFFFFFFFFF4CD70020D3EC00208F
:108FC80001287FB5024604D003280ED007B05DF80B
:108FD80004FBE821154808F08FFF0028F6D1144853
:108FE80007B05DF804EB0AF097B853200FF05BFC6C
:108FF8000346059040B90F4A0F49CDE90102009098
:1090080001220CF0AAF9E1E70222532108F074FFCB
:1090180018B105980FF040FCD8E700220023074854
:1090280005A909F0DBFE0028F3D1CFE768C90020C5
:10903800C0C80020769B01005491010060C8002040
:109048002DE9F0430025454B87B0032228464449C3
:109058000293CDE900552B460CF07FF903F004F993
:10906800044670B13F4B0390CDE9015301222B46D2
:1090780028463B4900950CF070F9204607B0BDE83A
:10908800F0831F2005F0B6F8064628B1364BCDE927
:1090980001430094234609E0344809F0E5F9054600
:1090A800B0B1334B0096CDE901633346184601222F
:1090B8002B490CF052F92F4B012202930023284927
:1090C8001846CDE900330CF048F94FF0FF34D4E7E7
:1090D8001F2009F029F9044628B1274BCDE901538F
:1090E80000952B46E2E7012009F078F948B1234BB7
:1090F8000222CDE9014320462346194900940CF089
:109108002CF9012009F088F848B11D4B022202937E
:10911800002313491846CDE900330CF01EF900204E
:1091280009F030F9044628B1164B02930023CDE923
:109138000033BBE709F0CAF8054608B1124BA6E7A9
:10914800012009F095F8044608B1104BC6E708F06D
:10915800F3FF0646F0B10E4B99E700BF999B01005B
:1091680054910100AE9B0100DD9B0100C98F0000F6
:10917800059C0100FD9C0100269C0100439C010008
:109188006A9C0100869C0100AB9C0100C89C010000
:10919800E89C01000FF0D5F94FF47A74A0FB043273
:1091A80004FB01218F4FDB0B43EA4143C90BC7E99D
:1091B80000318D4DDFF89082DFF890924FF0FF3349
:1091C8004FF0FF32022188480AF000FDEB6803F4F3
:1091D800FE13B3F5004F40F0C38028690022002336
:1091E80009F0C0FF0446002840F0BA8040460AF063
:1091F800B7FD48460AF0B4FDDFF854C223462246BC
:1092080021464FF00C0E6446BCF8520068B19CF839
:109218005C00013110F0020F1CBF0132D2B200070E
:1092280048BF0133C9B248BFDBB2BEF1010E0CF131
:109238000C0CE9D16D480AF093FD94F850301807EA
:1092480002D56B480AF09EFD94F85030D90602D535
:1092580068480AF097FD94F850305A0702D56648D6
:109268000AF090FD65480AF08DFD94F85030DB0750
:1092780040F193800FF065F94FF47A72A0FB020376
:1092880002FB0131D4E90023C00B40EA4140C90B7D
:10929800C7E900015A480AF063FDD4E90223594896
:1092A8000AF05EFD2069FFF7AFF802460B46564804
:1092B8000AF056FD6069FFF7A7F802460B465348C7
:1092C8000AF04EFDE069FFF79FF802460B4650484A
:1092D8000AF046FD206AFFF797F802460B464D480C
:1092E8000AF03EFDE06AFFF78FF802460B464A484F
:1092F8000AF036FD94F8373094F83620A18E4748A6
:109308000AF02EFDA38F4648009394F83A3094F85B
:10931800392094F838100AF023FD206CFFF774F810
:1093280002460B463F480AF01BFD606CFFF76CF8DD
:1093380002460B463C480AF013FDA06CFFF764F8A0
:1093480002460B4639480AF00BFDE06CFFF75CF863
:1093580002460B4636480AF003FD36480AF012FD6D
:109368002B6A03F4FE13B3F5802F0DD1686A00222F
:10937800002305A909F08AFD30B905992E480AF09D
:10938800EFFC05980FF088FAEB686FF39433EB6005
:109398002B6A6FF394332B6210E70FF0D2F84FF477
:1093A8007A72A0FB020302FB0131C30B43EA41437B
:1093B800D7E90002C90B181A61EB020100234FF428
:1093C8007A72FFF7DBFA01461C480AF0C9FC1C4A0E
:1093D800731CDEB203F00303D15C1A480AF0C0FC28
:1093E800BBE700BF60C9002080C500202D9D01009B
:1093F800559D0100739D0100929D0100BC9D0100D7
:10940800E09D0100F79D01000E9E0100279E0100CE
:10941800409E01005B9E0100769E0100919E010026
:10942800B19E0100D69E0100ED9E0100049F01003F
:109438001B9F01005E9F01008AAB0100329F010063
:109448006E9F01004E9F0100219D0100289D010093
:1094580068C900202DE9F04F91B0009302F0040391
:109468000293C2F3C2030133840705460E46DDF8B2
:1094780068900392059340F0BB81041D30B1072921
:1094880009D86FF01B0011B0BDE8F08F01F0070696
:10949800341DC6F10806009B4FF000084FF0040A7F
:1094A800591E4FF0FF3347460193C3465346CDF844
:1094B80010800DB1009820600598002800F3E8801E
:1094C8009848009A824203D397488242C0F0E080CD
:1094D800039AA4EB050E92074FEA9E0000F1038160
:1094E8000F2F00F2B180002D00F0058107F1400236
:1094F8000DEB020C019A0CF8200C0CF8102C0498B7
:1095080001300490E7E07A285DD84B280ED8472828
:1095180059D829282DD8252852D054D820287AD08F
:109528002338D0F1000B4BEB000B74E04C382E289D
:1095380049D8DFE800F07048484848484848484853
:1095480048484B484848484848484859484B4B5968
:109558005959704B6D487048184B184848827F4BD2
:1095680048484B487F0000204FF0000B4FF0040A9A
:1095780038E001222A38C0B202FA00F010EA0E0FD1
:1095880049D110F0625C2FD110EA020B43D060463B
:10959800013C5444B4FBFAF40AFB04F4002D61D0F6
:1095A800A3EB050CA4446645FFF46BAF002868D113
:1095B800042B47D159F8043B2360042304342AE0E0
:1095C800019A013A01924FF0000B24E011F8010CC6
:1095D8006C2834D1002011F8023C83466C2BC5D18D
:1095E8004FF0080A5346D3E709F1070929F007099C
:1095F800073424F00704F9E802AB35B10698204493
:10960800B0423FF63EAFC4E900AB4FF0000B083460
:109618004FF0080A534611F8010F002878D0BBF123
:10962800000F7FF470AF2528F5D14FF0010B019B97
:10963800013301934FF0040AECE7584694E7002001
:109648008346A5E7082B02D06FF015001BE709F148
:10965800070929F00709B9EC027B84ED007B082390
:109668000834D8E768B9042B02D109F10409A4E742
:10967800082BE9D109F1070929F0070909F10809B7
:10968800EDE705980138059059F8040B009010E7AC
:10969800039A900720D54FF0010CA4EB050E4FEA72
:1096A8009E00BEF5007FCFD20F2FCDD8F5B107F1C0
:1096B80040020DEB020E019AC0B20EF8200C0EF813
:1096C800102CBCF1000F3FF41AAF60F07F000EF8C9
:1096D800200C08F101080137C5F108024FF6DA7EBF
:1096E8000434069297E74FF0000CDAE7BCF1000F5C
:1096F80001D00136EFE7029A0236002AEBD1009832
:10970800CDE90631FFF7B4FADDE906310644E2E7B0
:10971800631BB3F5806F97D245B9A6F10804E0182A
:10972800B1E600BF188E010034BC0100029A9B0804
:1097380028602B709DF81030C2B1EB7085F802805C
:10974800B8F1000F05D0002208A8C5F1010C974216
:109758000ED14FF0000AC5F101030DF12009019364
:109768000DF1300B574512D1601B8CE66B70E5E7A5
:1097780010F8013B190608D504EB0C0E764503F0EA
:109788007F03FFF47EAE04F8013B0132DFE7B8F156
:10979800000F03D099F90020002A17DB029BD3B1F0
:1097A8001AF80B2004F8012B0022019B981820447A
:1097B8008642FFF466AE99F80000009904F8010BA0
:1097C800204603920FF03CFA039A14440AF1010A66
:1097D80009F10109C6E799F8002055F822300093ED
:1097E800029B009845F82230FFF742FA421CDCE75A
:1097F8006FF00D0047E600BF014B1860704700BFCF
:10980800A8C5002080B505460E46174698460AF0BA
:109818006BF803460FF0F2FA0446DFF81890424658
:1098280049F8003039463046A84754F8090001F095
:10983800D3F800BF0800000070B500254FF0FF33D3
:109848004FF0FF32174809F0B9FB174BD3E8AF2F99
:1098580082B10135042D03F12803F7D10FF0CEFAB8
:1098680017224FF0FF35114B1A500E4809F068FBCC
:10987800284670BD28246C43D3E8EF0F0130C3E8B5
:10988800E10F0029F8D10A4E331932515A6004F118
:109898000C0030440EF02EFC04F1200030440EF091
:1098A80032FEE2E7E8C70020E8CE00200C00000006
:1098B800E0CE002010B40446104628225443094B39
:1098C8001A191951506048B1C2683AB10C3423448E
:1098D80040F205125DF8044B0CF03BB85DF8044B00
:1098E800704700BFE0CE00202823434330B50D4920
:1098F80008330B44D3E8AF2F92B1541ED3E8EF5F7F
:10990800954204D1C3E8EC4FBCF1000FF6D1F1D178
:10991800012A05D12823584300230A180B50536005
:1099280030BD00BFE0CE00202DE9F047058B04468E
:109938002807904611D4022905F0070540F0CD808C
:1099480020460CF015F878B10138218B042811D87D
:10995800DFE800F0C3106D85950001290CBF45F0C4
:10996800100545F02005258388F31188BFF36F8F14
:10997800BDE8F08701F0070AAA4500F0A680002795
:10998800B9463E46A368002B00F0BD8041F00801AF
:10999800218388F31188BFF36F8FA168002900F035
:1099A800BB800D68002900F0B78033465246204638
:1099B800D1F80480C047002D76D02B6829461D4673
:1099C800F0E701F007035A1F012A1BD8002221F0F3
:1099D8000701062B276889B2C4E9002209D13B4652
:1099E80003E0628B013262831B68002BF9D141F0DE
:1099F8000201204621830BF0BBFF00287BD041F0F9
:109A0800200177E0042B0AD121F0070189B2204612
:109A180021830BF0ADFF10B141F020012183218B90
:109A280001F0070AAA4550D00027B946AAE72369DA
:109A380021F0070141F00601062DD3F8009021839B
:109A48002DD1B9F1000F40D041F00801218388F3EE
:109A58001188BFF36F8F20463949C84729E021F0A4
:109A68000701236941F0040189B2042DD3F8049059
:109A78002183E6D000274FF0040A3E4682E721F012
:109A88000701236941F0050189B2052DD3F8089033
:109A98002183D6D000274FF0050A3E4672E70027FB
:109AA8004FF0060A3E466DE72B4687E7B9F1000FEF
:109AB800D1D14FF02003EFF3118883F31288BFF35D
:109AC8006F8F238B23F008032383258BEA062ED57B
:109AD80025F01003238305F007056669218B002E06
:109AE800BFF66FAF00232768C4E9003321F00701F0
:109AF80041F001012183218B4FF0000901F0070A91
:109B0800AA457FF43FAF002F9BD041F00801218385
:109B180088F31188BFF36F8F002FC7D03D6839468F
:109B28003346524620460BF04FFF2F46F4E7AB066C
:109B38007FF51AAF25F02003238305F00705FFE61C
:109B4800FD5901002DE9F84F81462F480F460BF0CB
:109B5800FDFF064670B92D4C0546A0464FF0010B97
:109B6800DFF8ACA0544507D3B9F1000F02D04FF08D
:109B7800010AE5B9BDE8F88F237B73B12368DB6878
:109B88000BB12046984723681B6943B963680422D0
:109B98002046196800F0C4F801361034E2E7204680
:109BA80098470028F2D00BFA06F31D43F4E7A946BC
:109BB80095FAA5F4B4FA84F40AFA04F3260108EB3A
:109BC80004146FEA030B25EA0305237B63B158F8F5
:109BD80006301B6993B94644736804222046196805
:109BE80009EA0B0900F09CF8002DE1D127B14FF4E8
:109BF800A470002109F05EFE4D46BAE7204698475A
:109C08000028F1D1E7E700BF88CF0020BC91010010
:109C1800CC910100014B53F820007047D894010003
:109C280008B5034608462BB1044A136000F07CFAD5
:109C3800002008BD6FF01500FBE700BFACC5002091
:109C48000023054A4FF400411370044A0448136086
:109C5800044A1360FFF7E4BF6AD7002080CF0020D2
:109C6800515B010084CF002070B50B4D297841B9B4
:109C78000120FFF767FF094C094EB44202D30123C4
:109C88002B7070BD63685B791BB1236820469B68A5
:109C980098471034F1E700BF6AD70020BC91010053
:109CA800CC91010010B5044606480BF04FFF3CB1BB
:109CB800054BD3E8EF1F0139C3E8E21F002AF8D1AA
:109CC80010BD00BF80CF002084CF002070B50A4BA4
:109CD80005461B689847094C094EA860B44200D352
:109CE80070BD63685B7923B12368294620461B68E9
:109CF80098471034F2E700BFACC50020BC910100C2
:109D0800CC910100044A054B9B1AB1EBD30F34BF29
:109D180052F83100002070472C910100BC910100DD
:109D2800084B10B4C31A44681B11013323714368EC
:109D38009A7101224368196043685A715DF8044BAF
:109D48000BF022BFBC9101002DE9F04F85B002AFA6
:109D58000446D7E90EA90E46934698463D6BBAF1DC
:109D6800000F33D0C7F80490CDF800901021534667
:109D780000207A6BFFF76EFB0146154A04F00704D2
:109D88000BF0070BE40044EA8B1402EA4122144367
:109D980044EA055417350D4425F00705ADEB050DCC
:109DA80002ADBAF1000F07D0CDF8009053467A6B98
:109DB80005F11000FFF74EFB434622463146284680
:109DC8000BF0E5FE0C37BD46BDE8F08F5146D4E7F1
:109DD80000FE0F000EB403B503AB53F8042B014685
:109DE8000448019301F0D2F902B05DF804EB03B026
:109DF800704700BFC95B0100CA0605D48B064CBF7B
:109E080002490349FFF7E6BF704700BF6EB701007C
:109E18006DB701002DE9F04F8BB09B46DDE9187650
:109E28009DF8543004460593DDE916930693059B87
:109E38000D460892002B00F0878006F00103099375
:109E480006F0080307930BF0A0FE06F0020A02468C
:109E5800002849D020468449FFF7BCFF8046BAF164
:109E6800000F08D016F0440F40D12A4620467F49FB
:109E7800FFF7B0FF8044099B5BB17D4B059A2046F4
:109E880053F822207B4B7C49002A08BF1A46FFF76B
:109E9800A1FF079B002B55D0784B059A204653F815
:109EA80022207749FFF796FF0546089B2BB11A46F3
:109EB80020467449FFF78EFF0544BBF1000F05D01B
:109EC8005A4620467049FFF785FF05444544B9F1D5
:109ED800000F48D1002F4ED1F30700F1BF80314663
:109EE8002046FFF789FFB3E08046B8E7674B18685C
:109EF8000028BFD0664B4FF47A7E1B684FF461622E
:109F0800B5FBF3F5B5FBF0F300FB13550EFB05F5B8
:109F1800B3FBF2FAB5FBF0FC3C2102FB1A3200FB62
:109F28001C55B2FBF1F30EFB05F5B5FBF0F501FB93
:109F3800132220460092CDE901C552465549FFF744
:109F480049FF97E7079DB0E7BBF1010F06D1B9F1CB
:109F5800000F64D1002F7BD000250CE0B9F1000F71
:109F6800F8D04D485CE04D484B4622464C490BF032
:109F780003FA002F68D0DFF83891DFF838A1102FE6
:109F880031462046B8464FF0000B28BF4FF0100866
:109F9800FFF732FF5D4545DC069B514620461A789F
:109FA800FFF718FF4FF0010B1BF0070F03D14946CD
:109FB8002046FFF70FFFD8453BD9069B5146204660
:109FC80013F80B20FFF706FF0BF1010BBBF1100F85
:109FD800EAD14FF0000B20463249FFF7FBFE5A4604
:109FE800069B20469A5CA2F120015F2928BF2E22F9
:109FF8002D49FFF7EFFE0BF1010BBBF1100F1DD040
:10A008001BF0070F03D149462046FFF7E3FED8456A
:10A018005A46E5D849462046FFF7DCFEEBE71F48DD
:10A02800059DA1E749462046FFF7D4FE0BF1010B39
:10A03800B0E720461D49FFF7CDFEC5E7069BB7EB05
:10A048000807434406939AD1059B002B7FF444AF3D
:10A0580020460BB0BDE8F04F0BF0DBBD2046054AAB
:10A068000549FFF7B7FE3AE7A19F0100A59F010048
:10A07800E89401009C9F01008AAB0100FC94010058
:10A08800CA9F0100D09F0100D49F010090CF0020FB
:10A098008CCF0020AE9F0100E55B0100C95B010089
:10A0A80095B10000E39F0100CDAC0100DF9F0100E6
:10A0B800E19F0100D99F01002DE9F0410F884B680D
:10A0C80005460C4690468E6886B0C7F382175BB18A
:10A0D800144A9B1A43F3CF01002920DB2078C0F3F0
:10A0E800C200FFF70FFE0346214651F8102B608887
:10A0F800C2F34A22002A01EB020408BF0021002211
:10A10800C0F30B10CDE90408CDE902142846314606
:10A1180001970092FFF77EFE06B0BDE8F0810023AC
:10A12800E2E700BF2C91010000210123064A90427A
:10A1380006D8064A01B901231360054B1860704719
:10A14800012140085B00F2E740420F008CCF00205D
:10A1580090CF0020F8B50D460446064F4618B44285
:10A1680001D12846F8BD14F8011BBB6801485B689B
:10A178009847F4E7008F0100014B03600020704707
:10A18800449501002DE9F04780460D468CB0002922
:10A1980066D000248B68012205934B6820460493FF
:10A1A8000B6833490393334BCDE9004402932346AC
:10A1B8000BF05FFD6B69012205932B692046049320
:10A1C800EB682B4903932C4B0094CDE901432346BC
:10A1D8000BF04FFDEB6901220393284B2046CDE994
:10A1E80001432349234600940BF043FD2F4626469E
:10A1F800DFF894A0DFF87890FB6A01220A93E31C49
:10A208000993BB6A49460893A31C07937B6A1037D6
:10A218000693631C05933B69CDE9016ACDE90343C5
:10A2280000230096184604340BF023FD102CE3D1CC
:10A238002B6E01220393124B0D49CDE901630023D4
:10A24800009618460BF015FDAB69012203930D4BE0
:10A258000749CDE901630023009618460BF009FD74
:10A26800294640460CB0BDE8F04708F033BB00BFB4
:10A27800A49101001FA001004EA001007DA00100D3
:10A28800CFA00100DEA001008CA0010030BFFFF7C5
:10A29800FDBF00BF124B134A2DE9F041D518013D0F
:10A2A800B5FBF3F5DFF848805D430F4B074608EB35
:10A2B8000304013CB4FBF3F403FB04540E1B3046C7
:10A2C8000A490EF0BDFC701942460021083E0EF006
:10A2D800C4FCC7F8A86004F10800BDE8F08100BF1D
:10A2E80001000000000000000400000010920100BE
:10A2F80008000000044B99689869884203D0034914
:10A308004FF080520A60704720D7002004ED00E02B
:10A31800F0B50024414B85B00293074623460E460C
:10A3280001222046CDE900443D490BF0BDFC3D4BE0
:10A338009B6ADD066FD53C4B2046CDE901430122DF
:10A348002346374900940BF0AFFC1120354B9B6A2C
:10A358001C070AD5354B01220293002330491846C1
:10A36800CDE900330BF0A0FC12202E4DAB6A990703
:10A378001FD500242E4B0122029320462346CDE907
:10A38800004427490BF090FC6B6BAA6A12060FD5A4
:10A398000393284B0122CDE9014320462346204957
:10A3A80000940BF081FC1FB1AB6A23F08003AB6211
:10A3B80013201C4B9B6ADD070AD51F4B0122029311
:10A3C800002317491846CDE900330BF06DFC142023
:10A3D800144B9B6A9C060AD5184B01220293002352
:10A3E8000F491846CDE900330BF05EFC15200D4BE4
:10A3F8009A6AD10658BF9A6A9A6A920642BF5A6AFE
:10A4080022F400525A629A6A42F0FF029A620023CA
:10A41800337005B0F0BD102098E700BF0CA1010013
:10A42800A491010000ED00E022A1010055A1010066
:10A4380068A1010080A1010096A10100B5A1010059
:10A44800F0B50024434B85B00293074623460E46D9
:10A4580001222046CDE900443F490BF025FC3F4B43
:10A468009B6ADB0465D53E4B2046CDE901430122BA
:10A478002346394900940BF017FC1720374B9B6A89
:10A488001D050AD5374B012202930023324918468D
:10A49800CDE900330BF008FC1820304DAB6A9C0561
:10A4A8001FD50024304B012220460293CDE90044F9
:10A4B800234629490BF0F8FBAB6BAA6A10040FD5A9
:10A4C80003932A4B0122CDE9014320462346224922
:10A4D80000940BF0E9FB1FB1AB6A23F40043AB62B5
:10A4E80019201E4B9B6A59050AD5214B012202935C
:10A4F800002319491846CDE900330BF0D5FB1A2083
:10A50800164A936A13F4807315D01A4B01220293EA
:10A51800002311491846CDE900330BF0C5FB1B2079
:10A528000E4A936A43F47F4393620023337005B065
:10A53800F0BD1620A2E7926A9204F1D50E4A184699
:10A54800CDE901320449012200930BF0ADFB1C2038
:10A55800E6E700BFE4A10100A491010000ED00E0DE
:10A56800FAA1010055A101000BA2010024A20100DB
:10A5780039A2010054A20100B5A101001FB50024B1
:10A588003E4B3F490293012223462046CDE9004431
:10A598000BF08AFB3B4B9B6A99016DD53A4B2046E1
:10A5A800CDE9014301222346354900940BF07CFB99
:10A5B8001E20344B9B6ADA010AD5344B01220293E0
:10A5C80000232F491846CDE900330BF06DFB1F20FF
:10A5D8002C4B9B6ADB020AD52D4B012202930023E8
:10A5E80027491846CDE900330BF05EFB0220254BC6
:10A5F8009B6A1C030AD5274B01220293002320499A
:10A608001846CDE900330BF04FFB21201D4B9B6A08
:10A6180059030AD5204B01220293002318491846F2
:10A62800CDE900330BF040FB2220164B9B6A9A03BE
:10A638000AD51A4B01220293002311491846CDE985
:10A6480000330BF031FB23200E4B9B6ADB030AD54A
:10A65800134B01220293002309491846CDE9003320
:10A668000BF022FB2420074A936A6FEA03436FEA40
:10A678001343936204B010BD1D209AE76CA2010039
:10A68800A491010000ED00E084A2010097A201005E
:10A69800B1A20100DBA20100F9A201001EA3010082
:10A6A80038A301002DE9F043754B0546D3F8048023
:10A6B800894614460026A3B0C8F3080786F3118814
:10A6C800BFF36F8F02F07F43B3F17F4F25D112F0B4
:10A6D800010322D1510603D422070DD401260DE02F
:10A6E800684A1846CDE901326749012200930BF008
:10A6F800DBFA14F0040400D04D4600264FF00009A0
:10A70800FB1E8DF81F90092B00F2A080DFE803F0F4
:10A71800079498909E9E9E9E9E9C3546EEE75B4BC6
:10A728000122CDE90193002357491846544FCDF82B
:10A7380000900BF0B9FA8DF81F90FC6A14F002042F
:10A7480005D0534BCDE90193CDF8009006E0FB6AA4
:10A75800002B0BDA4F4B0094CDE901430023012273
:10A76800184649490BF0A0FA002430E0FB6A5B0068
:10A77800FAD5494B0122CDE90143204623464249F7
:10A7880000940BF091FA7B69AA6943F480737B61AA
:10A79800BFF34F8FBFF36F8F7B6932F8022C23F41E
:10A7A80080737B61BFF34F8FBFF36F8F4DF60273DA
:10A7B8009A4226D12B6820460393384B0094CDE962
:10A7C80001430122234630490BF06EFA2C689DF8AC
:10A7D8001F309BB96822294608A80EF031FA0F9B52
:10A7E800002E47D0C3F3080222B96FEA53236FEA59
:10A7F80043230F93204608A9FFF7C4FC23B0BDE804
:10A80800F083BB6ADBB22BB101200DF11F01FFF70A
:10A818007FFD0FE0BB6A13F47F4F05D001200DF1D7
:10A828001F01FFF70DFE05E0BB6AB3F5803F9BD320
:10A83800FFF7A4FE0446CAE700200DF11F01E6E772
:10A8480000200DF11F01ECE7154B7BE7154A18F4C2
:10A85800F87F154B18BF1346103FCDE90337134B4C
:10A8680001220293002308491846CDE900330BF072
:10A878001BFA79E723F4FF7323F00103B9E700BF5C
:10A8880000ED00E091A30100A4910100B4A3010030
:10A89800CBA30100ECA30100FAA3010019A4010055
:10A8A80035A4010078A3010063A3010059A40100A5
:10A8B800044B5A6942F010025A615A6942F48062A4
:10A8C8005A61704700ED00E0EFF30880EFF309816B
:10A8D80001B57246FFF7E6FE01BD00BF002015492D
:10A8E8000870002080F31488BFF36F8F002080F376
:10A8F8000A8880F30B8800F095FC00200E49086058
:10A90800BFF34F8F0D4880F3088800F03FF82020F0
:10A9180080F311880A484FF40061401880F30988D1
:10A92800EFF314800221084380F31488BFF36F8F7C
:10A9380000F02CF9D2EC002094ED00E0180B012077
:10A94800D8F10020BFF34F8F0549064BCA6802F4BF
:10A95800E0621343CB60BFF34F8F00BFFDE700BF3A
:10A9680000ED00E00400FA05002318460649D1F876
:10A978009020C2F30722934200DB7047C1F8983059
:10A98800C1F8A0000133F6E700ED00E010B572B69B
:10A99800002484F31388FFF7E7FF23464FF0FF30C6
:10A9A8000C4A03F120010133102B42F82100F8D1A1
:10A9B80000234FF0FF30074A03F160010133102BE9
:10A9C80042F82100F8D162B6BFF34F8FBFF36F8F03
:10A9D80010BD00BF00E100E0084B9B6883420BD12B
:10A9E800EFF3058343B1064B5A6842F080525A6030
:10A9F8005A6A22F400425A620DF040BD20D7002066
:10AA080000ED00E06FF00A01094A9368C3F8B0103E
:10AA18000849C3F8AC004B6843F080534B600023EF
:10AA280083F31188BFF36F8F9368D3F8B000704732
:10AA380020D7002000ED00E026498A6882F8F5E07A
:10AA48004FF030001044EFF3098C80E8F01F1EF03F
:10AA5800100F03D102F1B40080EC108A202080F39B
:10AA68001288BFF36F8F1C4F4FF000668A698A60A7
:10AA78003E604FF0A80414192068184C206092F921
:10AA8800F5E0D2F8AC000023C2F8AC3080F31188AE
:10AA98001EF0100F03D00023E1EE103A03E002F19C
:10AAA800B40090EC108AEFF3148323F0040383F3CB
:10AAB8001488BFF36F8F02F1300090E8F01F8CF319
:10AAC800098802F1000004B50BF030F9BDE8044034
:10AAD8007047000020D7002004ED00E0C0CF002020
:10AAE8001EF0040F0CBFEFF30880EFF309808169B3
:10AAF80011F8021C0229FFD001B50BF0CAF801BDFC
:10AB080040B2002807DB01234109034A00F01F0077
:10AB1800834042F82130704700E100E040B200284D
:10AB28000CDB01220649430900F01F008240203354
:10AB380041F82320BFF34F8FBFF36F8F704700BFDB
:10AB480000E100E0054B420953F82220012300F000
:10AB58001F0003FA00F01040704700BF00E100E05A
:10AB680040B2002801F10101ACBF00F16040064B82
:10AB78004FEA4111C9B2ABBF00F5614000F00F00C8
:10AB880080F800131954704714ED00E0144A08B512
:10AB9800144B22F07F029A60BFF34F8FBFF36F8F81
:10ABA800D3F8882022F47002C3F88820D3F88820CC
:10ABB80042F4A002C3F888204FF04042C3F8342280
:10ABC800BFF34F8FBFF36F8F0023E1EE103A07F00A
:10ABD80027FF08F0A1FE00F095F807F06FFF00BF0F
:10ABE8000080000000ED00E042F8203C009B0D4989
:10ABF80042F81C3C019B21F0010142F8183C029BE1
:10AC080042F8081C42F8143C4FF0807342F8043CA8
:10AC18000023C0F8AC304FF43C43203A0265C0F83A
:10AC2800F43070470D980000114B9B6883421BD18C
:10AC3800EFF30580C0B94FF02002EFF3118182F3E2
:10AC48001288BFF36F8F1A7B22F002021A73EFF398
:10AC5800148323F0040383F31488BFF36F8F81F305
:10AC68001188BFF36F8F70476FF01500704700BFF2
:10AC780020D700200023E1EE103AEFF3148323F0ED
:10AC8800040383F31488BFF36F8FBFF36F8F0B4BED
:10AC9800D0F8A84098600A4B1C60D0F8983083F32D
:10ACA8000B88104681F30988002163B681F3118867
:10ACB800BFF36F8F00220023FEF7A4FD20D70020EA
:10ACC800C0CF0020014910220A60704710ED00E053
:10ACD80072B6404080F31188BFF36F8FBFF34F8F78
:10ACE80030BF62B6BFF36F8F704700BF72B649407E
:10ACF80081F31188BFF34F8F20BF80F3118862B6AC
:10AD0800704700BF002320210348C2180133412B9C
:10AD180082F80013F9D1704700E100E001B5EFF3C4
:10AD28000580A0F110004FEAC0000449014409C998
:10AD38009847BDE80140024908470000148F010008
:10AD4800FDA200001FB5094C094A23460121094804
:10AD580000F018F900230393074B0121E41A01A816
:10AD68000193029400F018F904B010BD000004200B
:10AD780080C500204495010060C9002010B50C7AF8
:10AD88000B6804F01F0223F01F031A43CB68640901
:10AD980023F01F03054943EA440343F00103C1F8C4
:10ADA8009800C1F89C20C1F8A03010BD00ED00E06B
:10ADB8000F281FB504460FD9094B039002930023AF
:10ADC80001221846CDE9003306490AF0BDFF6FF0AD
:10ADD8001504204604B010BDFFF7D0FFF9E700BF07
:10ADE80070A40100849101002DE9F04F89461446B2
:10ADF80006464FF00008544D89B0C8452DDAD6F8FC
:10AE080004A0BAF1000F4AD0BAF11F0F17D91AF0EF
:10AE18001F0F14D1D6F800B01BF01F0F0FD15846E2
:10AE28000AF089FF07460AEB0B0001380AF083FF96
:10AE3800874216D06FF01507444B039702E0444B46
:10AE4800CDF80C800293002301221846CDE9003387
:10AE580040490AF079FF6FF01504204609B0BDE8B3
:10AE6800F08F17F1160FE7D0BC42E5DDC5F89870F2
:10AE7800D5F89C10C5F89870D5F8A03021F01F01BE
:10AE880043F01F0BD6E900321A44994202F1FF3A07
:10AE98001DD1D34507D13146F8B20AF065FF08F154
:10AEA80001080C36A9E73146C5F89870D5F89C30EA
:10AEB80022F01F0203F01F031343C5F89C30E0B2D1
:10AEC8000AF052FF10F1160FC5D0441CE7E7C5F889
:10AED8009870D5F8A020013B23F01F0302F01F0251
:10AEE8001343D3453146E0B2C5F8A030E8D00AF0A4
:10AEF8003BFF10F1160FAED0C5F89870D5F89C201E
:10AF08009DF818300BF1FF3B62F304038DF81830FD
:10AF1800D5F8A0309DF818205B0863F347128DF828
:10AF28001820D6E900321344049323F01F035B442E
:10AF3800A3EB0A03013023F01F0304A9C0B207934F
:10AF4800FFF736FFBEE700BF00ED00E0B9A401003F
:10AF580096A40100849101000522044BC3F89420B3
:10AF6800BFF34F8FBFF36F8F704700BF00ED00E056
:10AF7800BFF35F8F0022024BC3F89420704700BFD5
:10AF880000ED00E010B5034C2278FFF72DFF20708C
:10AF980010BD00BF6CD700202DE9F74F294D8A4618
:10AFA80006464FF00008AB46274FD0451BDAD6F8C7
:10AFB8000490B9F1000F3FD03168084601910AF0BA
:10AFC800BAFE0199044609EB010001380AF0B3FE04
:10AFD80084424FF014021D4B08D002FB08F36FF0B7
:10AFE80015024BF8032003B0BDE8F08F14F1160FDB
:10AFF8002C60F8D01978A142F5DD02FB08B0C7F83B
:10B008009840C7F89840D7F89C4000F10801007BA9
:10B0180064F304000871D7F8A0000C79400860F3C5
:10B0280047140C71D7F89C1021F01F016960D7F8FC
:10B03800A01021F01F01296108F1010814350C3610
:10B04800B3E700BFC4CF002000ED00E06CD70020BC
:10B05800F0B53D4D8BB02C68102C71D80020FFF74F
:10B0680087FF3A4B3A4AC3F8C02084420DD1394D84
:10B0780005A82C70FFF780F800240646364FA64234
:10B088000AD1FFF769FF002058E0696801EB001159
:10B09800FFF774FE0130E8E70599200101EB04137E
:10B0A800DA683A40B2F5001F22D0B2F5800F2CD0F2
:10B0B800B2F5801F36D15A689B680958013B22F0C7
:10B0C8001F0003440120844623F01F0340EA4C106C
:10B0D800CDE906218DF8200006A928780993FFF705
:10B0E80067FE002828DB2B78013401332B70C6E774
:10B0F8005A689B680958013B22F01F0003444FF02F
:10B10800020C012023F01F03E0E75A689B680958E6
:10B11800013B22F01F0003444FF0000C062023F0EF
:10B128001F03D3E70D4B0122029300230C49184655
:10B13800CDE900330AF008FE6FF015000BB0F0BD42
:10B148004FF0FF30FAE700BF5095010000ED00E036
:10B15800AAFF44006CD700200000F0FFDCA4010027
:10B168008491010008B5024B1B689847002008BD70
:10B17800D8CF0020034B044A1860937843F00203A9
:10B1880093707047D8CF0020B8C50020F0B587B0BD
:10B1980007460E4614460021102268461D460DF04B
:10B1A8005CFD02238DF80230054B2A46214668468D
:10B1B800CDE90476019309F037F807B0F0BD00BF78
:10B1C800A35D010008B504480AF009F9404080F37E
:10B1D80011884FF0020002DF0DA5010008B50649ED
:10B1E800064821F00701C1F1005202F580220AF059
:10B1F80058FB002008BD00BF47190120DCCF002004
:10B208000122024B0020C3F84025704700900340FC
:10B2180020B1034B800143F001031847704700BF7A
:10B228004092010004F00CBB2DE9F04105460E46A2
:10B238001746104CDFF84480444508D30DF0DEFD76
:10B248006A220D4B1A504FF0FF30BDE8F081236899
:10B25800AB4200D063B93A4631462846A3689847BE
:10B2680030B13A4631462846E368BDE8F041184710
:10B278001034E1E71C9101000C0000002C91010042
:10B28800014B1860704700BFE8CF00202DE9FF414F
:10B298004FF0FF324FF0FF3323480AF0BDFD234C37
:10B2A800234F244EDFF89880BC4205D31E4804B0D3
:10B2B800BDE8F0410AF0CEBD23681B689D6865B102
:10B2C8002B6853B104F110000CF014FF04F12400B2
:10B2D8000CF010FF20462B68984700232046C4E94D
:10B2E80001332373CDE901338DF80C300AF019FED0
:10B2F80038B1336808215A1C326001A8424608F068
:10B3080061FD9DF8043043B90B4A01A81368591C24
:10B3180011600821094A08F055FD204601A90AF0E4
:10B328000DFE3834C0E700BF24C80020F0C8002054
:10B3380028C90020F0CF0020ECCF00204DA5010047
:10B3480046A5010038B5074C074DAC4200D338BDBF
:10B35800032120460AF069FD10B920460AF0BBFD1A
:10B368003834F2E7F0C8002028C90020084B70B52F
:10B37800C31A0D4607499B10044659434022064804
:10B388000AF00FFE2B4601462046BDE870401847DC
:10B3980008D00020B76DDBB6C48E0100402373B51A
:10B3A8000B4C0093041B0B460D460A49A41061433D
:10B3B8000646094A09480AF020FE011E05DA304609
:10B3C8002B4602B0BDE87040184702B070BD00BF00
:10B3D80008D00020B76DDBB66D600100C48E010097
:10B3E80070B50022012104460520FFF7B9FB0F487C
:10B3F80004F0CEFA0E4B984215D104F0D9FA26691A
:10B408000C4930460AF005FB00280BDB01253564A2
:10B418002469084904F11C000AF0FBFA002801DB42
:10B428000020E56470BD6FF00400FBE775B4000010
:10B438000000AD0B7C95010001460C2300224B4314
:10B4480070B50848C41840331844D4E90E56A263AE
:10B458000AF094FD2DB132462B46BDE870400248F3
:10B46800184770BD08D00020C48E010010B1012813
:10B4780004D07047034B1B6C5B0701D1FFF7DCBF9F
:10B48800704700BF08D0002008B54FF02003EFF345
:10B49800118183F31288BFF36F8F114A136843F049
:10B4A80002001060DA0708D481F31188BFF36F8FA8
:10B4B800BDE80840012004F08FBA0A4BD3F80C24E9
:10B4C800D3F80C34DB07EFD507480AF057FD81F3B2
:10B4D8001188BFF36F8FBDE808400020FFF7ACBFAD
:10B4E80058D000200050004048D000207FB50022EE
:10B4F8000123CDE9022304ABCDE90433094A6B46A5
:10B50800CDF800D0CDF804D00AF0A5FD002805DB61
:10B518004FF480420023684607F024FE07B05DF828
:10B5280004FB00BF8D60010010B54FF02003EFF35E
:10B53800118483F31288BFF36F8F074A136823F0CF
:10B548000201DB07116002D401200BF02BFB84F30E
:10B558001188BFF36F8F10BD58D000202DE9F0413E
:10B56800012207463549D1E8EF3FC1E8E02F00281E
:10B57800F9D133B9324933484B60CB608A600AF05D
:10B588005BFA7B1E012B28D8012F06D12E4BD3F84E
:10B598001C3403F00303022B1FD00CF08DFD05466D
:10B5A800E8B92A4B1B78D3B102220646264BC3F8CA
:10B5B8000823254CDFF89880D4F81824D4F81834D8
:10B5C800D20316D503F00303022B01D0012F10D1AB
:10B5D80075B386F31188BFF36F8FBDE8F0814FF024
:10B5E8002003EFF3118683F31288BFF36F8F0125D1
:10B5F800DFE7C5B13046FFF779FBD4F81835DBB281
:10B60800012BD9D1D4F80421002AD5D00022C4F8BE
:10B618000421D4F804210222C4F818252022C8F8ED
:10B628008021A360C8E70021212008F043F9E4E75E
:10B638000222054BC3F80423CFE700BF04D0002043
:10B64800F4CF002024D0002000500040D2EC00208D
:10B6580000E100E008B507480CF09CFC38B106484A
:10B66800FFF788FD0448FEF7C7F8002008BD6FF013
:10B678001200FBE7008F010085B600000A2838B5E4
:10B688000446074D04D1AB680D2128465B689847EE
:10B69800AB6803485B68E1B29847204638BD00BFF5
:10B6A800008F010038B545682B69B3B110352846BD
:10B6B80004F0CAFD044680B90146284604F084FD1A
:10B6C800084B98420BD122462846074904F052FD00
:10B6D800224605213120FFF743FA002038BD6FF0DC
:10B6E8000400FBE70000AD0BF5B60000430970B598
:10B6F80007D10B4B596821B101250C68094E8540CB
:10B7080001B970BD8A682A4002D030464B68984714
:10B718001CB1236821461C46F2E72346FAE700BF1E
:10B728005CD00020D88E01002DE9F04340F20635A8
:10B738004668D00648BF0320337B02EA050558BF98
:10B74800C2F3401087B001F01F07B5F5837F144698
:10B7580047EA43178DF8030041D00FD8062D18D0BB
:10B7680007D8B5B1022D3CD06FF0150007B0BDE881
:10B77800F083B5F5807FF7D101250AE040F2022277
:10B78800954230D0B5F5407F2FD0B5F5007FEBD18D
:10B79800022522032BD5012372688B4093603269FE
:10B7A80062BB07F01F037F0975D13D4A84F48031DD
:10B7B80002EB8302D2F80032C1F30041C4F34044E3
:10B7C80023F4E16344EA410423F007031C4344EAF9
:10B7D800800444EA0524C2F800420020C6E7072591
:10B7E800D7E70425D5E70525D3E70325D1E7630384
:10B7F80041BF012372688B40D360D0E710363946C9
:10B8080030460DF1020204F0C3FC14F4403F8046B8
:10B818000CD1394630460BF063FA224B9845DCD1FF
:10B8280030469DF8021004F01DFDD6E74FF00009E0
:10B8380001AB3946304603AACDE90439CDE901996F
:10B84800CDF80C9004F002FB164B98428CD114F4FE
:10B85800003315D09DF8033084F48034C4F30044D9
:10B868008DF80E3039464B46304603AA8DF80C50F9
:10B878008DF80D4004F0E6FB0A4B9842CDD073E7F3
:10B88800CDE9043339460DF10303304603AA039387
:10B8980004F0DCFAF0E7803352F82330FFDE00BF13
:10B8A800002584400000AD0BF0B5406801F01F048E
:10B8B800057B87B044EA45140569002D5FD0B2F5D1
:10B8C800001F00F1100506D1214628460BF00AFAA0
:10B8D800002007B0F0BD0027B2F5800F01AE019738
:10B8E800776037D1B3F1007F14BF052304238DF8A7
:10B8F80004300023CDE904630393836823FA01F13C
:10B9080011F0010118D1B2F1A07F15D104F01F0385
:10B91800620903F1800338D11D4A52F82330DB074E
:10B928000AD40DF1030632462146284604F030FCBD
:10B93800184B984219D002962146284603AA04F0CB
:10B9480085FA154B98421DD101222146284604F05C
:10B95800A1FCBDE7B3F1C06F05D0B3F1007F14BF00
:10B9680001230223C3E70323C1E73146284604F035
:10B9780085FC094B9842DED06FF00B00A9E76FF009
:10B988008500A6E76FF01500A3E751F82330FFDE26
:10B99800002584400400AD0B0000AD0B2DE9F043F9
:10B9A800594D5A4E5A4F00EB8101814202D1002075
:10B9B800BDE8F083046814F4805FC4F3432C04F0FA
:10B9C8007F0340F08F807F2B4FEA144408BF4FF06D
:10B9D800FF3315F80CC0192C00F28780DFE804F05B
:10B9E8000D13191C1F251C85858585366185858560
:10B9F80085858585858564797C7FC2F80C355C1CD6
:10BA08005CD10430D1E7C2F814355C1CF9D00024AD
:10BA18005DE0C2F80835F2E7C2F81035F5E75C1CBE
:10BA2800C2F80835EDD0002404E05C1CC2F80C35DF
:10BA3800E7D001245FEA531E5AD14FF00108DFF81E
:10BA4800CCE008FA03F9CEF80C900AE0C2F8083501
:10BA5800BCF1000FD9D15C1CD3D000244FF0060CE8
:10BA6800A046D0F8009009F4005EBEF1000F1CBF9C
:10BA78004FF00008012403F01F0E5B093ED106EBCE
:10BA88008E0EDEF80032C9F3C1193B4043EA890340
:10BA980043EA0C2343EA080343EA4403CEF800329E
:10BAA800AFE7C2F80C35D3E7C2F86035B3F1FF3F12
:10BAB8000468A6D0C4F38034002CBAD05C091AD12B
:10BAC8000124DFF848E004FA03F8CEF80880A0461D
:10BAD800C7E7C2F86435E9E7C2F86835E6E7C2F8AF
:10BAE8006C35E3E76FF0150062E76FF085005FE7FC
:10BAF8000023DB60FFDE00239B60FBE700230EF1E1
:10BB0800800E53F82E30F5E78CA5010000258440FF
:10BB1800F0F8FCFF7FB50BAB05930393054B0122AF
:10BB2800029300231846CDE90033FEF70DF907B05C
:10BB38005DF804FB94A501002DE9F04306464FF09B
:10BB4800000887B0002201210820FFF709F8082023
:10BB5800FEF7D6FF776835693C684146C4F800852A
:10BB68002E60D7F80C9005AA48460AF0EDFA00288E
:10BB780038DB059BD9F8002019791868FFF70EFF04
:10BB880000282FDB6B7A3169012B03D0032B27D1D7
:10BB98004FF01008AB7A032B22D195F80BC0BCF1FB
:10BBA800000F02D0BCF1010F1AD12A7A12B1022A71
:10BBB80016D10E226B687068B3F5164F006800F056
:10BBC80081802DD8B3F5165F7FD016D8B3F5966F60
:10BBD8007DD00AD8B3F5967F7CD0B3F5167F7CD09C
:10BBE8006FF0850007B0BDE8F083B3F5166F77D026
:10BBF800B3F5965FF4D15F4B3EE0B3F5E14F72D0F9
:10BC080007D8B3F5615F70D0B3F5964FE8D15A4BBA
:10BC180032E047F6122E7345E2D14FF400032BE0D1
:10BC2800B3F5613F63D013D8B3F5963F62D009D816
:10BC38004DF6C02E73455FD0B3F5614FD0D14FF4A8
:10BC48006B0319E0B3F5E13FCAD14FF0EB7313E092
:10BC5800B3F5612F53D009D8DFF83CE1734551D0D3
:10BC6800B3F5E12FBCD14FF0E86305E0DFF82CE134
:10BC78007345B5D14FF08053C0F82435736848EA4E
:10BC88000C081B6842EA0802C3F86C250B1DD5E9AD
:10BC9800010183E803007B68990742D505F11C0080
:10BCA80003F028FF354B98422FD0354B01220293E1
:10BCB800002334491846CDE90033FFF72BFF6FF016
:10BCC80004008FE74FF41D03D6E72F4BD4E74FF45A
:10BCD8009E23D1E74FF4A033CEE74FF41C33CBE7D4
:10BCE8004FF41D23C8E7294BC6E7294BC4E74FF09B
:10BCF8006C73C1E7274BBFE74FF46503BCE74FF010
:10BD08007063B9E74FF08063B6E7287F04F10C024F
:10BD180004F590710AF03FFF01202B7F984003F053
:10BD2800D9FD0823C4F800353B7A53B9C4F810315B
:10BD3800D4F81031AB69C4F834350123C4F8383568
:10BD480023607B6800209A075CBF4FF48073C4F8B7
:10BD580004337B68DB0644BF4FF48003C4F8043324
:10BD68006B69C4F844350123C4F84805A360E3604F
:10BD780038E700BF00B0130000A04E000000AD0B74
:10BD880094A50100B49101000050270000C075007F
:10BD980000F03A0000903A0190D0030040420F00B2
:10BDA800F8B504460D4607690CF086F9B0B9214B81
:10BDB8001B789BB1642660680AF0A0FA00BB0120DA
:10BDC8000AF0E7FE013EF6D10021212007F072FDBE
:10BDD800F0E781F31188BFF36F8FF5E74FF0200389
:10BDE800EFF3118183F31288BFF36F8F60680E46FB
:10BDF8000AF084FA90B981F31188BFF36F8FEDE7E9
:10BE08004FF02003EFF3118183F31288BFF36F8F94
:10BE180060680E460AF072FA0028DAD07B690122BF
:10BE28001D70204679690AF0A9F986F31188BFF3D5
:10BE38006F8FF8BDD2EC00200123834070B5DC433E
:10BE48000B4AD2E8EF1F01EA0405C2E8E65F002EBC
:10BE5800F7D14FF4803282400648C0F80823BFF378
:10BE68005F8FBFF36F8F0B4214BF0120002070BD9E
:10BE78006CD000200050014070B40E4922F07F467B
:10BE8800D1E90034D01AC31844F10004C1E90034E0
:10BE9800A6F50013B3F5400F09D2074B1B681A0A21
:10BEA8001B069C19054B42F10005C3E9004570BC0F
:10BEB80007F008BE60CA002070D0002068CA0020C1
:10BEC800D9B101230D4A8340D2E8EFCF4CEA030CE5
:10BED800C2E8E1CF0029F7D14FF48033084A834004
:10BEE800C2F80433074BD3E8AF3FC340DB0742BF78
:10BEF8004FF40012044BC3F8002170476CD00020A7
:10BF08000050014068D0002000E100E00D4B1868A7
:10BF1800010A0006BFF35F8F0B4BD3F804351818DE
:10BF280041F10001B3F5801F0AD2084BD3E9002381
:10BF3800904271EB030303D210F1807041F10001CC
:10BF4800704700BF70D000200050014068CA002030
:10BF58002DE9F04F85B016461F4604469DF840A0CF
:10BF6800FFF76AFF0190FFF7D1FFB04271EB0703BB
:10BF780052D23B4B301A67EB0101984271F1000134
:10BF88004DD2384B03EB0413D3E902239F4208BF79
:10BF9800964258D04FF48038334908FA04F82046BE
:10BFA80026F07F4BC1F848830AF052FA4FF0030994
:10BFB800584604F15005AD00ADB205F1804504F5D1
:10BFC800A87305F5A8350293029A20F07F4341F83B
:10BFD8002230C1F84483D1F80435244AC01A033802
:10BFE80020F07F4090422ED9286868B1D1F80435F6
:10BFF800A3EB0B0020F07F40B0F5000F039322D98C
:10C0080020460AF025FA039BBAF1000F07D109EB85
:10C01800030009F10109D7E7BAF1000F09D06FF061
:10C02800150520460199FFF74BFF284605B0BDE8E6
:10C03800F08F01230E4AA340D2E8EF0F1843C2E85D
:10C04800E10F0029F8D107490E982301C8500F9B2A
:10C0580001EB04120025C2E902675360E1E700BF63
:10C068000100800050CA002000500140FDFF7F0001
:10C0780068D000207FB500254FF0FF304FF0FF312A
:10C08800194C1A4B0226C4F80833C4F84833184B25
:10C09800C4F80855C3E902014FF480334FF4001285
:10C0A800C4F80433134B0121C4F804631520C3F802
:10C0B80080212A46FEF754FD1520FEF721FD0123B5
:10C0C8000D4AA360236013600C4B0D4A0093284669
:10C0D8000023CDE90155FFF73BFF3046FFF73EFA55
:10C0E800284604B070BD00BF0050014003000F0097
:10C0F80050CA002000E100E06CD0002081BE0000A2
:10C10800FFFF7F002DE9F7432E4BD3F80423900758
:10C118000BD5D3F8042142B10022C3F804212A4ADE
:10C12800D3F80431136801331360264AD2F8043374
:10C13800D90327D5254BD3E8EF1F21F00100C3E829
:10C14800E40F002CF7D1CB0702D4D2F84031CBB1A1
:10C1580000251C4CC4F84051D4F84031FFF7D6FEF6
:10C168004FF02003EFF3118283F31288BFF36F8F30
:10C17800174BD3E90267B042B94106D282F311885E
:10C18800BFF36F8F03B0BDE8F0834FF0FF38D3E9FA
:10C1980000104FF0FF391D60C3E902894FF4803366
:10C1A800C4F84833C4F84051D4F8403182F31188B8
:10C1B800BFF36F8F0029E5D0009032463B462846F2
:10C1C8008847DFE70050014070D0002068D0002089
:10C1D80050CA002030B5431C124C85B005D08442AB
:10C1E800A8BF0446012CB8BF0124FFF78FFE0E4BF1
:10C1F8000C4DD3E90013401AB0F5000F0FD22218E6
:10C20800AA4228BF2A46002052180849CDE9010051
:10C21800009143F10003FFF79BFE05B030BD2A46AD
:10C22800F1E700BFFFFF7F0060CA002081BE000069
:10C2380008B5FFF76BFE024B1B68C01A08BD00BFAC
:10C2480060CA002070B50546054C064EB44200D3BE
:10C2580070BDD4E90031284698470834F6E700BF96
:10C268001CBC01001CBC01007FB5002201212A2052
:10C27800FEF776FC0E4806F027FA044650B10D4B3F
:10C2880003900293002301221846CDE900330A499E
:10C298000AF0EEF8094D0A4EB54202D3204604B022
:10C2A80070BDD5E90031204698470835F4E700BF4E
:10C2B80078960100CDA501009C9101001CBC0100ED
:10C2C8002CBC0100F0B50F4B01461A680E4B0B252C
:10C2D800002618461F46B84201D3013D04D118462E
:10C2E800013A19605A60F0BD04688C42FBD03CB139
:10C2F8004468141BA642BCBF034626460830EAE73A
:10C308000346ECE730D100203CD100200020054B4B
:10C31800C3E90000044BD3E8EF2FC3E8E10F00297D
:10C32800F9D1704734D1002030D100202DE9F04FE9
:10C3380089B005460E460BF026FE20B96FF06D0059
:10C3480009B0BDE8F08F0CF0FCF833680446002B08
:10C358000F4604D107F02CFA6FF00A00F0E7BCBFD3
:10C368004FF0FF3333600122002101A80BF047FF93
:10C37800E84607954FF02003EFF3118B83F31288FB
:10C38800BFF36F8F0CF03AFDDFF82CA1DFF82C918A
:10C398005AF80000FFF796FFD9F8003042689A4231
:10C3A8006FD10023434D00936B68002B70D1C5E912
:10C3B80000888BF31188BFF36F8F33685A1C6CD0D9
:10C3C8004FF4004E40F2E730002123EAE37C4FF4BB
:10C3D8007A720023CCFB0E01FCF7D0FA02460B461A
:10C3E80001A806F0BFFE4FF02003EFF3118B83F393
:10C3F8001288BFF36F8F00222B685BB1434556D17B
:10C408000099002A4DD16A6829609A4200D1696072
:10C41800002300930CF0F2FC5AF80000FFF752FFDB
:10C42800D9F8003043608BF31188BFF36F8F0BF09E
:10C43800AAFD002882D035686B1C27D00CF081F843
:10C448004FF47A7EA0FB0E320EFB0121A4FB0E42B4
:10C458000EFB0722DB0BE40B43EA414344EA424468
:10C468001B1B4FEAD1314FEAE57C61EBD231ED1A63
:10C478006CEB010CBCF1000FB8BF002535602DB97D
:10C488006AE743608BF31188BFF36F8F002057E78B
:10C49800C3F80080C5F804808BE74FF0FF321346DD
:10C4A8009EE711606968994208BF6A60B0E71A465A
:10C4B8001B68A2E734D100200800000030D100201A
:10C4C800024600B50CF09AFC014B1A505DF804FBCB
:10C4D8000C00000030B404682CB10D4B9C4202D310
:10C4E800A8339C420BD30B4C2378062B0BD85D1C2E
:10C4F8002570074C03EB430304EBC3030360006898
:10C5080030BC0BF07CBE6FF00B0030BC704700BF36
:10C5180088D0002090D7002002682AB1094B9A429F
:10C5280002D314339A4206D3074B1A7832B9012240
:10C538001A70044B036000680BF0DCBD6FF00B0051
:10C54800704700BF74D000208FD7002038B505464B
:10C558000A4BD3E8EF1F0131C3E8E21F002AF8D1E4
:10C56800074B1C6804B938BDE369AB4201D005B17B
:10C5780013B9201D06F0D0FD2468F3E730D1002060
:10C5880034D1002001460022002301480BF06DBD84
:10C598008CD10020014601480BF071BD8CD10020E0
:10C5A80001460022002301480BF05FBDA0D1002006
:10C5B800014601480BF063BDA0D1002008B54FF437
:10C5C8008062064906480BF004FDBDE808404FF4B8
:10C5D8000252044904480BF0FCBC00BF91D700206C
:10C5E8008CD10020E8840020A0D1002010B5044B95
:10C5F8001C6804B910BD201D06F08EFD2468F8E7FC
:10C6080034D1002070B50546054C064EB44200D31F
:10C6180070BDD4E90031284698470834F6E700BFD2
:10C6280014BC01001CBC010008B5024804F0BAFAA9
:10C63800002008BD0DC60000292800F099800ADCFA
:10C6480001284FD0062800F09580002800F08E8041
:10C658004FF0FF307047B0F58D7F04D0B0F5007F04
:10C66800F6D11E2948E04B1E142BF1D801A050F832
:10C6780023F000BFD3C60000D3C60000D3C6000015
:10C68800D3C60000D3C60000D3C6000059C60000B8
:10C6980059C6000059C6000059C6000059C6000016
:10C6A800D3C60000D3C60000D9C60000DDC600000E
:10C6B80059C6000059C60000D1C60000E1C60000F6
:10C6C800E5C60000E9C600000E2100201160704791
:10C6D8000F21FAE71021F8E71121F6E71221F4E714
:10C6E8001321F2E736293FDC202907DC1429ECD096
:10C6F80038DC0229E9D00429E7D0A9E7A1F1210310
:10C70800152BA5D801A050F823F000BFD3C6000010
:10C71800D3C6000059C6000059C6000059C600001B
:10C7280059C6000059C60000D3C6000059C600000B
:10C7380059C6000059C6000059C6000059C6000075
:10C7480059C6000059C6000059C6000059C6000065
:10C75800D3C60000D3C60000D3C60000D3C600006D
:10C76800D3C600001529C7E73D29C5E71F29C3E738
:10C778002029C1E73729BFE74FF0FF32064B0020D9
:10C788001A609A611A639A641A669A67C3F89020C5
:10C79800C3F8A820704700BFB8D100202DE9F041A8
:10C7A8001446002286B001290D461E46CDE9042212
:10C7B800DDF83080076803D1192C12D15F2307E018
:10C7C8002146284603AAFFF737FF002824DA6D23FD
:10C7D8000CF014FB144A13504FF0FF3006B0BDE8BC
:10C7E800F0812146284603AAFFF726FF0028EEDB42
:10C7F800143C012C07D836B14FF008083268B368EA
:10C808000492059304AE334629463846039ACDF878
:10C81800008004F07BFFE1E7B5F58D7FF3D10C2CA8
:10C8280008BF4FF00408EEE70C0000002DE9F041C6
:10C838001C46002386B00F461546CDE9043308236D
:10C848000668294638460DEB0302DDF8308003936D
:10C85800FFF7F2FE00280ADA0CF0D0FA6D224FF04A
:10C86800FF361A4B1A50304606B0BDE8F081012F4A
:10C878001DD1A5F11403012B19D803AA04AB304626
:10C8880000923946029A05F06DF806460028EAD16A
:10C89800012FE8D1042D0DD120680028E3D0FFF73F
:10C8A8000FFE0CF0ABFA094B1B582360DBE742463E
:10C8B8002346E4E7143D012DD5D8049BC4E9003094
:10C8C800059BA3601023C8F80030CCE70C000000DB
:10C8D8000B490346087880B90A49097839B1A2F5A5
:10C8E800807102290AD9A2F58872012A06D9013B6A
:10C8F800022B8CBF0020012070470020704700BF2A
:10C9080012DC002011DC0020034610B51C680B88DF
:10C918000846012B86B00DD14A88ADF80030ADF835
:10C9280002204B6808226946019320460AF074FDEC
:10C9380006B010BD022B04D1694609F015FE162277
:10C94800F3E70CF05BFA6A22024B1A504FF0FF3003
:10C95800EEE700BF0C00000070B400231825016842
:10C96800084C05FB03F2A658B14206D1B0F90610EF
:10C978000832A01870BC07F085B90133082BF0D134
:10C9880070BC7047B8D100202DE9F04F14460E4610
:10C9980000218BB00546202202A81F4601910CF009
:10C9A8005CF95CB163680293E3680493A36803933A
:10C9B80023690593E36903B1089302AC4FF0FF3292
:10C9C8004FF0FF33344809F005FE31462246284629
:10C9D80001AB04F07DFB064648B9804681464FF01E
:10C9E800180A019D38604DB901980AF0F7FB2A48EA
:10C9F80009F0F2FD30460BB0BDE8F08F50200BF087
:10CA080052FF0446002840D0C0F80090C0F81C909F
:10CA18002B684360AB68C3606B688360EB68036135
:10CA2800D5F804B0BBF1010F14D108200BF03BFF7F
:10CA3800A06138B3082363616B695A88A0F800B015
:10CA480042805B684360B8F1000F21D13C60A0468A
:10CA5800ED69C8E7BBF1020F09D00BF01DFF6FF0BD
:10CA68000506386809F060FD00233B60BCE7182024
:10CA78000BF019FFA06128B1C4F814A0696909F086
:10CA880060FDE0E720460BF007FF6FF00906E8E7D6
:10CA9800C8F80040DBE700BFFCC700202DE9F043E1
:10CAA80089B00546D0E900900E4617469846109C76
:10CAB80008B109F091FDA4B9CDE9004443463A46CE
:10CAC800314648460AF0BFFD0446686828B14FF071
:10CAD800FF324FF0FF3309F07DFD204609B0BDE875
:10CAE800F0832388012B0BD1ADF808306368628886
:10CAF8000393082301936B44ADF80A200093DDE704
:10CB0800022B07D102A9204609F02EFD1623CDE9F4
:10CB18000013D3E70CF072F96A22024B4FF0FF348E
:10CB28001A50D2E70C0000002DE9F347074690465B
:10CB38000C4679B300231A46C868834235D1802A47
:10CB480072D800254FF0FF324FF0FF33394809F013
:10CB580041FDA946384EE3689D422DD3002635464F
:10CB6800DFF8D4A0B14511DD85B963683846019373
:10CB78002368A9EB060200930AEB06014346FFF778
:10CB88008DFF051EEEDD2E44B145EEDC294809F087
:10CB980023FD06E00CF032F916224FF0FF35274B43
:10CBA8001A50284602B0BDE8F087A16801EBC3011E
:10CBB800496801330A44C0E7A36806EB090003EBA0
:10CBC800C50253F8351052680CF03AF8A3684FEADA
:10CBD800C50A53445B6801359944BCE7A3684FEA2A
:10CBE800C60A03EBC6035B683BB14FF00009A368B4
:10CBF80003EB0A025268914504D30136E3689E426A
:10CC0800ECD3CEE753F80A106368494401932368CC
:10CC180038460093A2EB09024346FFF73FFF011E87
:10CC280005DB89440D44E2E700263546E6E70D4674
:10CC3800B7E700BF38C8002091DB00200C000000D7
:10CC48004FF0FF324FF0FF3370B505460B4809F03F
:10CC5800C1FC002318200A4A00FB03F156588C181F
:10CC6800013605D15550054809F0B6FC204670BD7F
:10CC78000133082BF0D10024F5E700BFD4C700200A
:10CC8800B8D1002038B5094D04464FF0FF32284688
:10CC98004FF0FF3309F09EFC00234FF0FF32C4E948
:10CCA80000232846BDE8384009F096BCD4C70020C8
:10CCB8002DE9F04389B007460C461546FCF7BCFD44
:10CCC8000646002E38681EDB04B315B32B6801AA8C
:10CCD800082B18BF16230DF10809019349460AF0DD
:10CCE80015FCB0F100080BDBFFF7AAFF074698B95F
:10CCF8000CF084F80C221E4B1A50404604F0D4FC69
:10CD08003046FCF7F1FD4FF0FF3618E02246A14609
:10CD1800E4E72A46A946E1E764B15DB1B9F8003015
:10CD2800012B10D108222A60BDF80A202380039B1A
:10CD380062806360394630460E4AFCF7BBFD3046D8
:10CD480009B0BDE8F083022B06D1182320462B60DA
:10CD580002A909F0F6FBEDE70CF050F88622044B27
:10CD68001A50404604F0A0FC3846FFF78BFFC7E78F
:10CD78000C000000AC96010010B50446094B0A4AA5
:10CD8800186003680948DA61FEF77AFA23680C33F9
:10CD9800D3E8EF1F41F00801C3E8E21F002AF7D1EA
:10CDA80010BD00BFB4D10020CDCE0000A496010074
:10CDB800F0B5A1F58173046887B0032B58D8DFE874
:10CDC80003F002417A540127D2E9016113683B4A12
:10CDD800B3F904300492ADF814308DF81670336846
:10CDE800994205D10CF00AF80C22354B1A5014E080
:10CDF80000F1080528460BF032FD2B460022394683
:10CE080030680BF002FD0823204600933C22394687
:10CE180004AB04F07BFC044610B14FF0FF340EE085
:10CE2800336814333360CDE90200284602AA03A907
:10CE38000BF01AFD039B002B18BF6FF077042046F8
:10CE480007B0F0BDD2E90042136814331360002321
:10CE5800CDE9033303AA04A908300BF005FD049BB0
:10CE68000BB1039BE3800024E9E713684360FAE70A
:10CE7800032913D0042919D1126832F4804304D04D
:10CE88000BF0BCFF16210E4B195004212046C2F3AB
:10CE9800803207B0BDE8F0400AF03FBE20460022CD
:10CEA8000AF03BFE840304F48044C8E70BF0A6FFB5
:10CEB8001622034B9AE76FF05E04C0E761C90000D1
:10CEC8000C0000002DE9F0410D1E0746904612DACD
:10CED80006F036FC1C4E012333704246384625F0D6
:10CEE8004041FEF7A1F900233370044606F03CFCEC
:10CEF8002046BDE8F0816B0003D506F021FC134EF7
:10CF0800E9E7FCF799FC041E09DB29464246384646
:10CF18000AF082F9051E05DA2046FCF7E5FC4FF019
:10CF2800FF34E5E7FFF78CFE014640B90BF066FFDA
:10CF38000C22074B1A50284604F0B6FBECE72046B3
:10CF4800044AFCF7B7FCD3E712DC002011DC002010
:10CF58000C000000AC9601007FB50BAB0593039362
:10CF6800054B0122029300231846CDE90033FCF754
:10CF7800EBFE07B05DF804FB10A601007FB543681F
:10CF880001220493036806490393064B0293002386
:10CF98001846CDE90033FFF7DFFF07B05DF804FB63
:10CFA8009C91010010A601001FB5094803F0F4FD8B
:10CFB80050B1084B03900293002301221846CDE993
:10CFC8000033054909F07EFB002005B05DF804FB3D
:10CFD800E5CF000039A60100349101002DE9FF4199
:10CFE800054600261E4CDFF89080444518D3A6B1AC
:10CFF8002846FBF73DFE0022411D002319480BF08F
:10D0080034F80446F0B9184B0222CDE90103174958
:10D0180003460395009009F055FB04B0BDE8F08184
:10D02800277AFA070AD4216819B128460BF0D4FCEC
:10D0380020B1BB0704D52846636898470C34D4E769
:10D048000126FBE729460430FBF70AFE214608487B
:10D058000BF0CAF8074804B0BDE8F04106F004B97F
:10D068003CC70020C0C7002066A60100349101001B
:10D07800D8C8002008C600209CC700202DE9F84326
:10D08800134E144FDFF8548000220023304606F078
:10D098000FF80546B8B9BDE8F883237ADA070AD449
:10D0A8009B0708D4216819B148460BF095FC10B1CC
:10D0B8004846636898470C34BC42EED3294640463C
:10D0C8000AF0DDFFE0E7044C05F10409F4E700BFCE
:10D0D800D8C800209CC700203CC70020C0C700203B
:10D0E800024883681B6A03B118477047008F010024
:10D0F8001FB5074B03900293002301211A461846D7
:10D10800CDE9003309F0EDFA05B05DF804FB00BF86
:10D118008AAB01001FB50F4B4FF4805118460E4AD9
:10D1280003F0AAFD00280ADA0C4B039002930023AF
:10D1380001221846CDE90033094909F0D2FA054819
:10D14800FFF7D6FF0022074B1A7005B05DF804EB15
:10D15800FFF7C6BF14DC00208AAB01009DA60100C2
:10D168002C91010014EC0020F0B5044687B08368C8
:10D17800DB6B03B19847A368DB6AC3B9504E514DC6
:10D188003378C3B9A3681B692BB1012220460DF17E
:10D198001701984778B19DF81730082B01D07F2BDD
:10D1A8000BD12B68002BEBD0013B2B60E8E7204626
:10D1B80098470028E2D107B0F0BD43480278002A1A
:10D1C80051D10A2B23D00D2B0ED0002B4BD13F4A27
:10D1D80012786AB13E4A1846CDE901323D49022229
:10D1E800009309F07EFACBE7384A1278012A30D149
:10D1F80000223449384B0F680A601946DA55027024
:10D2080013F8012B202A4BD8002AF9D1B8E72F4A66
:10D218001778022FECD02B49032F0A6813D12E4F11
:10D228006AB107EB020C1CF801CCBCF10D0FDFD082
:10D23800501CB0F5805F1BD2BB540860A0E73B7060
:10D2480001230B609CE7501CB0F5805F10D2224F81
:10D25800F2E71C4A1068411CB1F5805F08D21E4FE6
:10D2680011603B548CE72F68791CB1F5805F0BD3B4
:10D2780003931A4B01220293002316491846CDE95D
:10D28800003309F02EFA7BE7DFF84CC0222B0CF8AC
:10D29800073029607FF474AF82F0010202706FE7F3
:10D2A8000B78002B3FF46CAF0D4883685B6A03B1C1
:10D2B800984701230B490C4833700AF0E0FF5FE7F9
:10D2C80014EC002078D2002013DC002015EC00209C
:10D2D800C3A601002C91010014DC0020EFA6010078
:10D2E800008F01007CD2002070CA00202DE9F04395
:10D2F8000124454B87B01C7044480AF04BFE034696
:10D30800D0B9434A4349CDE901020090224609F0C9
:10D31800E8F96FF0120303933F4B012202930023B5
:10D328003C491846CDE9003309F0DBF96FF00D09E7
:10D33800484607B0BDE8F0830BF003F94FF47A7262
:10D34800A0FB020302FB0133304EC00BB768DFF8C5
:10D35800E48040EA4345BB68B3B13046984781460C
:10D36800A0B93B6C002B49D12C492D480AF06AFF23
:10D3780000234FF4806200932A490A232A4805F0C3
:10D3880079FFFFF7ADFED3E76FF057090BF0D9F837
:10D398004FF47A74A0FB040204FB0122C40B44EA94
:10D3A8004244641BB4F5FA7F4FF00003CDF80C90AB
:10D3B8000BD91E4A1846CDE90132009301221549BE
:10D3C80009F08FF96FF00403A5E703221846CDE9A9
:10D3D80001381049009309F084F9B4682369002BD7
:10D3E800FCD0012230460DF1170198470028F5D1ED
:10D3F80000214FF4A47006F05DFAACE702460C4930
:10D4080002489847B0E700BF15EC0020008F0100E4
:10D418000FA701002C91010090A701001DD1000069
:10D428007CD20020D8ED002070CA002025A701007A
:10D4380071D100005BA70100A0F12C03DBB2112B16
:10D448009DBF0348D84000F001000020704700BF8E
:10D4580001400200F8B505460024094E56F8047B41
:10D468003846FBF705FC3946024628460BF086FA93
:10D4780020B10134042CF1D10020F8BD0120FCE7D3
:10D48800EC9601002DE9F0430468A3B023788046A8
:10D498000F4616460094002B00F0DD806F4B1B787A
:10D4A800062B1BD10021621C009210781346A0F1B4
:10D4B8006105192D02F101020ED9A0F14105192DBE
:10D4C8000AD95F2808D001B1009322463946304670
:10D4D8001B1B09F0EAF950E00121E6E7013B082BA4
:10D4E8004BD8DFE803F06C5162AA0E4A1F470500CB
:10D4F80022460021134612F8010B0028E3D001212F
:10D50800F8E72046002102780346A2F13005092DEC
:10D5180000F1010004D922F02002413A052AD2D8AC
:10D528000121F0E7684609F002F900220098037823
:10D53800054623F020014139192900F1010013D9CA
:10D54800303B092B10D902B100952B1B22463946D6
:10D55800304609F0AAF92B783D2B07D16B783F2B81
:10D568000BD10235009508E00122E0E73F2B04D1FA
:10D578000135F7E7304609F06EF90020009BC8F83E
:10D58800003023B0BDE8F08325462A78104609F01C
:10D59800C5F82B46013508B9002AF6D12246394686
:10D5A80030461B1B09F081F9DCE725462A782B4613
:10D5B800222A05F10105F1D0002AF7D1EEE720462D
:10D5C8000A2201A906F030FD0124019B0290009374
:10D5D800009B1878292825D020B303F10109FFF70B
:10D5E8002BFFCDF8009008B9254619E00A2201A9B9
:10D5F800484606F019FD22AB651C03EB840444F889
:10D60800800C4846FBF734FBDDF804900446484696
:10D61800FBF72EFB844206D0202DCDF8009002D0D7
:10D628002C46D5E72546AB003946304602AA09F014
:10D638005FF9009B013300939FE70A22204602A965
:10D6480006F062FC0B4602990246009130463946C4
:10D6580009F016F991E74FF0FF3092E717EC002038
:10D668002DE9F04107460468DFF8A48100293DD17F
:10D67800207809F047F85F4E054660B30623052277
:10D6880020465D4933700BF079F9F8B10522204640
:10D698005A490BF073F9C8B10B22204658490BF0D0
:10D6A8006DF998B10A22204656490BF067F968B11E
:10D6B8000B22204654490BF061F938B10722204665
:10D6C80052490BF05BF9B0FA80F56D0988F8005003
:10D6D80000203C6048E098F8003053B9204609F033
:10D6E80034F8002842D007233370F1E798F8003067
:10D6F8001BB102223F4B1A70EAE700293DDD2246A2
:10D70800157816462846013209F008F80028F7D19E
:10D718003046FBF7ADFA03282AD92B46A5F161025A
:10D72800192A98BFA5F12003412B21D17378A3F1C1
:10D738006102192A98BF203B542B19D1B378A3F161
:10D748006102192A14D92B2B09D0252B10D1F37873
:10D75800A3F16102192A98BF203B582B08D009224F
:10D768006FF00100234B1A70BDE8F0810223BBE77C
:10D77800207808F0C7FF002839D12278A2F12B03BE
:10D78800DBB20E2B18D847F6E57121FA03F3DB0755
:10D7980019D4104608F0C2FF10B316490B78042BB1
:10D7A8001BD12246144612F8010B08F0B7FF0028D7
:10D7B800F8D105230B708BE7222A07D103220D4BE2
:10D7C80001341A7084E704220A4B94E7282AE0D12E
:10D7D8000122084B14441A707AE7082B3FF478AFFB
:10D7E8001046FFF729FE10B10822024B83E74FF0DD
:10D7F800FF30B9E717EC0020BAA70100C0A7010065
:10D80800C6A70100D2A70100DDA70100E9A7010012
:10D8180016EC00202DE9F347894616461F46804638
:10D82800002800F09780002A00F094805368002BAD
:10D8380000F090800024104608F0E8FF4246336864
:10D84800CDF804809F4228BF1F46444B1C70444BB0
:10D858001C701146087808F061FF2546013204461D
:10D868000028F6D105B101910025019A1378002B03
:10D8780050D0AF424ED9202B02D0093B042B01D8FF
:10D8880001320192294601A8FFF7EAFE431C41D064
:10D89800023008BF00253246294601A808BFCDF846
:10D8A8000480FFF7EFFD013034D0019A1078FFF7BC
:10D8B800C3FDB0B1507808F031FF78B10135BD42F1
:10D8C80041D0294601A8FFF7CBFE013022D03246CD
:10D8D800294601A8FFF7D6FD01301BD0019B013373
:10D8E8000193019A107808F019FF38B301321178C2
:10D8F80092460846013208F011FF0028F7D139B1E5
:10D90800084608F0FFFE18B95046FFF7A3FDA8B176
:10D91800CDF804A0019DC4B92B78CBB12846FFF7F8
:10D9280099FD002814BF00206FF00A00B9F1000F1C
:10D9380001D0C9F8005002B0BDE8F0870135BD42FA
:10D9480008BF012491E70446E4E76FF00600EDE71D
:10D958002046EBE76FF01500EDE700BF17EC00205D
:10D9680016EC00201FB5104803F022F9044670B1E8
:10D978000E4B012202930023CDE900330390184691
:10D988000B4909F070F86FF00D0004B010BD09489C
:10D9980003F00EF90028F8D0074B0222CDE9014325
:10D9A800039023460094EAE714A801001FA8010089
:10D9B80074910100F2AD010055A8010010B50446AC
:10D9C80096B00021482204A80BF047F9204606A982
:10D9D80001F0A8FB60B10A4B0390029300230122D7
:10D9E8001846CDE90033074909F03DF816B010BDD7
:10D9F8000B2304A88DF8103000F068FCF6E700BF90
:10DA08008BA801007491010010B5044696B000215E
:10DA1800482204A80BF021F9204606A901F010FBC2
:10DA280060B1144B03900293002301221846CDE9FC
:10DA38000033114909F017F816B010BD9DF81830D9
:10DA48005A1E032A01D9072BF6D1DDE90821A2F5D0
:10DA58009C53083B0B4308D00A4308D00A2304A868
:10DA68008DF8103000F032FCE6E70823F7E70923C9
:10DA7800F5E700BFBBA801007491010030B5A9B05B
:10DA880000214822054604A80BF0E7F800F016FC30
:10DA98000146B8B9474C2378032B48D9482216A821
:10DAA8000BF0DBF8607890B130210AF000FF0446F3
:10DAB80070B9414BCDE90143012223463F49009407
:10DAC80008F0D1FF3E4805F027FB29B030BD0446D9
