:10800000D05B0220C91A0100E51301005D1A0100CE
:108010005D1A01005D1A01005D1A01005D1A010080
:10802000000000000000000000000000591D0100D9
:108030005D1A010000000000111D01005D1A010021
:108040004521010045210100452101004521010094
:108050004521010045210100452101004521010084
:108060004521010045210100452101004521010074
:108070004521010045210100452101004521010064
:108080004521010045210100452101004521010054
:108090004521010045210100452101004521010044
:1080A0004521010045210100452101004521010034
:1080B0004521010045210100452101004521010024
:1080C0004521010045210100452101004521010014
:1080D0004521010045210100452101004521010004
:1080E00045210100452101004521010045210100F4
:1080F00045210100452101004521010045210100E4
:1081000045210100452101004521010045210100D3
:1081100045210100452101004521010045210100C3
:1081200045210100452101004521010045210100B3
:1081300045210100452101004521010045210100A3
:0481400045210100D4
:1081480081F0004102E000BF83F0004330B54FEA00
:1081580041044FEA430594EA050F08BF90EA020F6D
:108168001FBF54EA000C55EA020C7FEA645C7FEA00
:10817800655C00F0E2804FEA5454D4EB5555B8BF23
:108188006D420CDD2C4480EA020281EA030382EA94
:10819800000083EA010180EA020281EA0303362D26
:1081A80088BF30BD11F0004F4FEA01314FF4801CF9
:1081B8004CEA113102D0404261EB410113F0004F0B
:1081C8004FEA03334CEA133302D0524263EB4303C2
:1081D80094EA050F00F0A780A4F10104D5F1200E60
:1081E8000DDB02FA0EFC22FA05F2801841F10001BB
:1081F80003FA0EF2801843FA05F359410EE0A5F18F
:1082080020050EF1200E012A03FA0EFC28BF4CF0BF
:10821800020C43FA05F3C01851EBE37101F0004575
:1082280007D54FF0000EDCF1000C7EEB00006EEB82
:108238000101B1F5801F1BD3B1F5001F0CD349080C
:108248005FEA30004FEA3C0C04F101044FEA445263
:1082580012F5800F80F09A80BCF1004F08BF5FEAEA
:10826800500C50F1000041EB045141EA050130BDCA
:108278005FEA4C0C404141EB0101013C28BFB1F5DC
:10828800801FE9D291F0000F04BF01460020B1FA27
:1082980081F308BF2033A3F10B03B3F120020CDAFA
:1082A8000C3208DD02F1140CC2F10C0201FA0CF0D8
:1082B80021FA02F10CE002F11402D8BFC2F1200C3D
:1082C80001FA02F120FA0CFCDCBF41EA0C019040F3
:1082D800E41AA2BF01EB0451294330BD6FEA04043C
:1082E8001F3C1CDA0C340EDC04F11404C4F1200227
:1082F80020FA04F001FA02F340EA030021FA04F339
:1083080045EA030130BDC4F10C04C4F1200220FA8F
:1083180002F001FA04F340EA0300294630BD21FACD
:1083280004F0294630BD94F0000F83F4801306BF93
:1083380081F480110134013D4EE77FEA645C18BF87
:108348007FEA655C29D094EA050F08BF90EA020F1E
:1083580005D054EA000C04BF1946104630BD91EA16
:10836800030F1EBF0021002030BD5FEA545C05D119
:108378004000494128BF41F0004130BD14F5800458
:108388003CBF01F5801130BD01F0004545F0FE41CC
:1083980041F470014FF0000030BD7FEA645C1ABF01
:1083A800194610467FEA655C1CBF0B46024650EA38
:1083B800013406BF52EA033591EA030F41F4002164
:1083C80030BD00BF90F0000F04BF0021704730B5EA
:1083D8004FF4806404F132044FF000054FF00001BF
:1083E80050E700BF90F0000F04BF0021704730B580
:1083F8004FF4806404F1320410F0004548BF404255
:108408004FF000013EE700BF42004FEAE2014FEAA9
:1084180031014FEA02701FBF12F07F4393F07F4F84
:1084280081F06051704732F07F4208BF704793F087
:108438007F4F04BF41F40021704730B54FF460749A
:1084480001F0004521F000411CE700BF50EA01029D
:1084580008BF704730B54FF000050AE050EA010246
:1084680008BF704730B511F0004502D5404261EBB6
:1084780041014FF4806404F132045FEA915C3FF4F7
:10848800D8AE4FF003025FEADC0C18BF03325FEA94
:10849800DC0C18BF033202EBDC02C2F1200300FA45
:1084A80003FC20FA02F001FA03FE40EA0E0021FA6A
:1084B80002F11444BDE600BF70B54FF0FF0C4CF458
:1084C800E06C1CEA11541DBF1CEA135594EA0C0F0A
:1084D80095EA0C0F00F0DEF82C4481EA030621EA45
:1084E8004C5123EA4C5350EA013518BF52EA033580
:1084F80041F4801143F4801338D0A0FB02CE4FF032
:108508000005E1FB02E506F00042E0FB03E54FF061
:108518000006E1FB03569CF0000F18BF4EF0010E59
:10852800A4F1FF04B6F5007F64F5407404D25FEA55
:108538004E0E6D4146EB060642EAC62141EA555108
:108548004FEAC52040EA5E504FEACE2EB4F1FD0C4A
:1085580088BFBCF5E06F1ED8BEF1004F08BF5FEAC8
:10856800500E50F1000041EB045170BD06F000467A
:1085780046EA010140EA020081EA0301B4EB5C0427
:10858800C2BFD4EB0C0541EA045170BD41F480111F
:108598004FF0000E013C00F3AB8014F1360FDEBF44
:1085A800002001F0004170BDC4F10004203C35DA20
:1085B8000C341BDC04F11404C4F1200500FA05F3A3
:1085C80020FA04F001FA05F240EA020001F0004244
:1085D80021F0004110EBD37021FA04F642EB0601BA
:1085E8005EEA430E08BF20EAD37070BDC4F10C04E4
:1085F800C4F1200500FA04F320FA05F001FA04F2A8
:1086080040EA020001F0004110EBD37041F1000193
:108618005EEA430E08BF20EAD37070BDC4F120059E
:1086280000FA05F24EEA020E20FA04F301FA05F206
:1086380043EA020321FA04F001F0004121FA04F2AE
:1086480020EA020000EBD3705EEA430E08BF20EA7E
:10865800D37070BD94F0000F0FD101F000464000B8
:1086680041EB010111F4801F08BF013CF7D041EA3A
:10867800060195F0000F18BF704703F0004652003E
:1086880043EB030313F4801F08BF013DF7D043EA0F
:108698000603704794EA0C0F0CEA135518BF95EAC5
:1086A8000C0F0CD050EA410618BF52EA4306D1D14C
:1086B80081EA030101F000414FF0000070BD50EA6B
:1086C800410606BF1046194652EA430619D094EAF5
:1086D8000C0F02D150EA013613D195EA0C0F05D1DF
:1086E80052EA03361CBF104619460AD181EA030133
:1086F80001F0004141F0FE4141F470014FF00000EB
:1087080070BD41F0FE4141F4780170BD70B54FF085
:10871800FF0C4CF4E06C1CEA11541DBF1CEA135505
:1087280094EA0C0F95EA0C0F00F0A7F8A4EB0504E7
:1087380081EA030E52EA03354FEA013100F08880DE
:108748004FEA03334FF0805545EA131343EA1263A7
:108758004FEA022245EA111545EA10654FEA00265C
:108768000EF000419D4208BF964244F1FD0404F515
:10877800407402D25B084FEA3202B61A65EB030571
:108788005B084FEA32024FF480104FF4002CB6EB2E
:10879800020E75EB030E22BFB61A754640EA0C00AE
:1087A8005B084FEA3202B6EB020E75EB030E22BFEE
:1087B800B61A754640EA5C005B084FEA3202B6EB2F
:1087C800020E75EB030E22BFB61A754640EA9C00EE
:1087D8005B084FEA3202B6EB020E75EB030E22BFBE
:1087E800B61A754640EADC0055EA060E18D04FEA7C
:1087F800051545EA16754FEA06164FEAC30343EA1C
:1088080052734FEAC2025FEA1C1CC0D111F4801FE8
:108818000BD141EA00014FF000004FF0004CB6E7E1
:1088280011F4801F04BF01430020B4F1FD0C88BF80
:10883800BCF5E06F3FF6AFAEB5EB030C04BFB6EB8B
:10884800020C5FEA500C50F1000041EB045170BD7E
:108858000EF0004E4EEA113114EB5C04C2BFD4EBAB
:108868000C0541EA045170BD41F480114FF0000E2F
:10887800013C90E645EA060E8DE60CEA135594EAAB
:108888000C0F08BF95EA0C0F3FF43BAF94EA0C0FAE
:108898000AD150EA01347FF434AF95EA0C0F7FF423
:1088A80025AF104619462CE795EA0C0F06D152EA77
:1088B80003353FF4FDAE1046194622E750EA41065B
:1088C80018BF52EA43067FF4C5AE50EA41047FF46C
:1088D8000DAF52EA43057FF4EBAE12E74FF0FF3CD1
:1088E80006E000BF4FF0010C02E000BF4FF0010CA2
:1088F8004DF804CD4FEA410C7FEA6C5C4FEA430C1B
:1089080018BF7FEA6C5C1BD001B050EA410C0CBF69
:1089180052EA430C91EA030F02BF90EA020F0020CB
:10892800704710F1000F91EA030F58BF994208BF32
:1089380090422CBFD8176FEAE37040F001007047EF
:108948004FEA410C7FEA6C5C02D150EA013C07D146
:108958004FEA430C7FEA6C5CD6D152EA033CD3D091
:108968005DF8040B704700BF8446104662468C468B
:108978001946634600E000BF01B5FFF7B7FF0028BE
:1089880048BF10F1000F01BD4DF808EDFFF7F4FFE7
:108998000CBF012000205DF808FB00BF4DF808ED72
:1089A800FFF7EAFF34BF012000205DF808FB00BF95
:1089B8004DF808EDFFF7E0FF94BF012000205DF8B7
:1089C80008FB00BF4DF808EDFFF7CEFF94BF01206C
:1089D80000205DF808FB00BF4DF808EDFFF7C4FF65
:1089E80034BF012000205DF808FB00BF4FEA410CAE
:1089F8007FEA6C5C02D150EA013C0AD14FEA430C91
:108A08007FEA6C5C02D152EA033C02D14FF00000CD
:108A180070474FF0010070474FEA410212F500120B
:108A280015D211D56FF47873B3EB625212D94FEAAD
:108A3800C12343F0004343EA505311F0004F23FA97
:108A480002F018BF404270474FF00000704750EAEC
:108A5800013005D111F0004008BF6FF000407047A9
:108A68004FF00000704700BF7BB972B90029BEBF44
:108A780000204FF0004106E008BF00281CBF6FF03F
:108A880000414FF0FF3000F057B8ADF1080C6DE928
:108A980004CE002909DB002B1ADB00F061F8DDF8B1
:108AA80004E0DDE9022304B07047404261EB410174
:108AB800002B1BDB00F054F8DDF804E0DDE90223AD
:108AC80004B0404261EB4101524263EB43037047FB
:108AD800524263EB430300F043F8DDF804E0DDE9BC
:108AE800022304B0404261EB41017047524263EBFC
:108AF800430300F035F8DDF804E0DDE9022304B0B3
:108B0800524263EB4303704753B94AB9002908BF7F
:108B180000281CBF4FF0FF314FF0FF3000F00CB8B9
:108B2800ADF1080C6DE904CE00F01AF8DDF804E0A8
:108B3800DDE9022304B07047704700BF10F8012B2D
:108B480011F8013B012A28BF9A42F7D0D01A704782
:108B5800034613F8012B002AFBD1181A0138704775
:108B68002DE9F04786468C460846089E1546744609
:108B78001946002B40F0C1808542B2FA82F245D9ED
:108B88004AB1C2F1200300FA02FC954094402EFA43
:108B980003F343EA0C0C4FEA154EA8B2230CBCFBB6
:108BA800FEF80EFB18CC08FB00F943EA0C43994584
:108BB80028D9EB1808F1FF3704D2994502D9A8F152
:108BC80002072B44A3EB0903A4B2B3FBFEFC0EFB84
:108BD8001C330CFB00F044EA0344A04214D92C19BE
:108BE8000CF1FF3304D2A04202D9ACF102032C44A9
:108BF800241A43EA07401EB1D4400023346073604E
:108C0800BDE8F0874746DDE76346F1E792BB431BC3
:108C180001214FEA154EAFB2200CB3FBFEFC0EFB50
:108C28001C330CFB07F840EA0343984561D9EB185D
:108C38000CF1FF3004D2984502D9ACF102002B4464
:108C4800A3EB0803A4B2B3FBFEFC0EFB1C330CFB26
:108C580007F744EA0344A7424DD92C190CF1FF3316
:108C680004D2A74202D9ACF102032C44E41B43EA24
:108C78000040C0E7C2F120039540944020FA03F178
:108C88002EFA03F34FEA154E9040AFB20343B1FBFF
:108C9800FEFC0EFB1C10190C0CFB07F841EA004106
:108CA800884522D969180CF1FF3004D2884502D9C9
:108CB800ACF102002944A1EB08019BB2B1FBFEFC18
:108CC8000EFB1C110CFB07F743EA01439F420ED928
:108CD800EB180CF1FF3104D29F4202D9ACF102012A
:108CE8002B44DB1B41EA004193E76046E3E761461A
:108CF800F7E76046A4E76346B8E7834206D916B9A2
:108D0800002108467CE7C6E900E0F9E7B3FA83F7F3
:108D18008FB9834201D3724508D8BEEB020460EBD9
:108D2800030301209C461EB9002169E73846FAE78B
:108D3800C6E9004CF8E7C7F1200CBB400EFA07F56E
:108D480022FA0CF42EFA0CF1BA401C4320FA0CF368
:108D5800B8404FEA144901431FFA84FEB3FBF9F8FF
:108D680009FB18300B0C08FB0EFA43EA00439A453E
:108D780040D9E31808F1FF3004D29A4502D9A8F186
:108D880002002344A3EB0A0389B2B3FBF9F809FBF9
:108D9800183308FB0EFE41EA03418E452CD96118B1
:108DA80008F1FF3304D28E4502D9A8F10203214409
:108DB80043EA0040A1EB0E01A0FB02984145CE46D4
:108DC800434602D306D14D4504D20138B9EB020E11
:108DD80068EB0403002EA7D0B5EB0E0261EB03018C
:108DE80001FA0CFC22FA07F3F9404CEA0303C6E93E
:108DF800003199E74046C5E74346D9E7000000003F
:108E080070B52F4B82B001281B6801934FF0000307
:108E180049D12C4B8A680D469A4244D819F0FAFF7A
:108E280004460E4619F0F6FFE20B274C42EA46428A
:108E3800A2FB04C22B68F60BA3FB043104FB062239
:108E48006E68AD6804FB06115B1941EBE571B3EB85
:108E58000C0361EB0201C0F30E02A2FB0424D20B47
:108E680042EA4442981A61F1000113A3D3E90023AE
:108E7800FFF7FAFDEFF31184202383F31288BFF381
:108E88006F8F124BC3E900019A6084F31188BFF316
:108E98006F8F00200A4B1A68019B5A404FF000035D
:108EA80008D102B070BD09F03FFD162303604FF0F2
:108EB800FF30EFE719F0D8FD00CA9A3B0000000028
:108EC800D0DB0220FFC99A3B00CA9A3BA0DE0020F3
:108ED80000B5094B83B01B6801934FF00003064BA4
:108EE8001A68019B5A404FF0000302D103B05DF8A5
:108EF80004FB19F0B9FD00BFD0DB02202DE9F041D9
:108F0800002698B01C4B054614460F4620223146D1
:108F180006A81B6817934FF000031DF019F92022CB
:108F280031460FA80E961DF013F902232246394642
:108F38008DF8143006A82B0C6DBA8DF81530043452
:108F48000DF11408ADF816501DF0F5F80EAB3246C9
:108F58000A4801A9CDE90334CDE9018414F098FF4A
:108F6800054B1A68179B5A404FF0000302D118B0FE
:108F7800BDE8F08119F078FDD0DB022078C9002027
:108F8800F0B5002699B01C4B044615460F46202222
:108F9800314606A81B6817934FF000031DF0D8F858
:108FA800202231460FA80E961DF0D2F803238DF823
:108FB80014302B1D02930493230C8DF8153005AB48
:108FC8003246019301A90EAB0C4864BA0393ADF87D
:108FD800164014F05DFF2A4638460FA91DF0ABF87D
:108FE800054B1A68179B5A404FF0000301D119B07E
:108FF800F0BD19F039FD00BFD0DB022078C9002090
:109008002DE9F0438BB0AB4B02AF1B68FB614FF00F
:1090180000030B780D468046092B06D8DFE803F0DD
:10902800162027620505056B05740321A24AA3488B
:1090380007F060FA9F4B1A68FB695A404FF000032B
:1090480040F0D0812437BD46BDE8F083CC69002CC0
:1090580063D0012123469A4A984807F04BFAE9E77A
:10906800CB690321974A954807F044FAE2E7486933
:10907800CB6903210090944A904807F071FA6E6911
:10908800B6F5006F73D9DFF8449206E0C0F250815C
:10909800361BB6F5006F40F25A8149464046A6F5A0
:1090A80000620CF02FFA041EF0D12B7B012B00F08C
:1090B80085816FF0040401212346854A7F4807F023
:1090C80019FA7E480321834A07F0E0F940460CF07C
:1090D8006FF80028AED0012103467F4A774807F091
:1090E80009FAA7E7CB69002B5BD001217B4A7348BB
:1090F80007F000FA9EE7CB69002B59D00121784A86
:109108006E4807F0F7F995E7CB69002B92D001215B
:10911800744A6A4807F0EEF98CE70321724A6748F7
:1091280007F0B4F9714A07F10C037B6007CA83E8BA
:1091380007006F4B6D468AB0BB6002AB12204FF43C
:1091480000711A46D86119846A4E6B496B485E6192
:10915800986142F8101F4FF413512346574807F0FF
:1091680039FA4046AD46391D0CF06EF862E74FF00B
:1091780000093246404655490CF0DEF92B7B04467F
:10918800E8B9012B00F02581B9F1000F1DD06B69FA
:109198004FF4006401215A4A4848009407F0E0F966
:1091A80048E78B880321574A444807F0A3F941E769
:1091B8008B880321544A414807F09CF93AE7012B70
:1091C80000F00681002CC0F2BD80D5F81490E84666
:1091D80009F1080323F00703ADEB030D3B4C02AB89
:1091E80021464A4618461CF0A6FF00268AB002A966
:1091F80000F809600A46C861444B45480B6248615B
:10920800444B4548886142F8103F4FF42351334698
:109218002A4807F0DFF92268FE763A83120CC54621
:109228003E4907F11800BA76FFF788FC0646002881
:1092380000F0B9800022236807F11800190CB976EC
:109248003B833749FA76FFF779FC002800F0A280C3
:109258000022236807F11800190CB9763B833149BD
:10926800FA76FFF76BFC002800F08B800022236859
:1092780007F11800190CB9763B832B49FA76FFF7EA
:109288005DFC00286FD0294B22689A4262D0274B98
:1092980022689A427FF4CEAE44F24F63A2889A4283
:1092A8007FF4C8AEA379462B7FF4C4AE002010F03B
:1092B800ABFCBFE6D0DB0220B06D0200C069020043
:1092C800486B0200A86B0200C86B020014E900207A
:1092D800DC6C0200FC6C02001C6D0200386D0200A0
:1092E800686D0200986D0200606B0200E06A02007F
:1092F8000100D204786B020004000001946B0200A4
:10930800E86B0200506D0200806D0200000201034C
:10931800386C020004000002406C0200506C02002D
:10932800686C0200846C0200AC6C02004C4544314D
:109338002B7B012B06D12B8B404607F10C01BB81FF
:109348000BF0F4FE14F17A0F7FF4B5AE1FE76FF05F
:1093580079090EE744F64F63A2889A4297D1002014
:1093680010F03AFC66E603211F4A204807F08EF801
:109378006A691F491F481CF0DEFE01221E4B1A7045
:1093880081E71E4A0321194807F080F801221C4B87
:109398001A706BE71B4A0321144807F077F801227B
:1093A800194B1A7054E70321184A104807F06EF851
:1093B8000122174B17491A700E703BE72B8B40465A
:1093C80007F10C01BB816FF004040BF0AFFE72E6ED
:1093D80081462B8B404607F10C01BB814C460BF0B4
:1093E800A5FEEFE619F040FBB06C0200C069020070
:1093F80014E900209CE5012042F50120886C020058
:1094080044F501206C6C020043F50120546C020005
:1094180045F501206ECB00202DE9F04188B01025DC
:109428001E4C1F4E00AF2468FC614FF00004044638
:10943800C7E904237E603973BD600421384609F00A
:10944800F7FDBB7E3A68E84623F003038AB0BB7693
:109458003A836B464FF400711A4612489E61586170
:10946800DD611984104B42F8103F00234FF413516B
:109478000E4807F0AFF82046C546391D0BF0DAFD57
:10948800064B1A68FB695A404FF0000303D1203796
:10949800BD46BDE8F08119F0E7FA00BFD0DB022035
:1094A800D06D0200E46D020004000001C0690200F2
:1094B8002DE9F04188B014251E4C1F4E00AF2468DA
:1094C800FC614FF000040446C7E904237E60397349
:1094D800BD600421384609F0ABFDBB7E3A68E8461A
:1094E80023F003038AB0BB763A836B464FF40071CE
:1094F8001A4612489E615861DD611984104B42F882
:10950800103F00234FF413510E4807F063F820462C
:10951800C546391D0BF08EFD064B1A68FB695A408B
:109528004FF0000303D12037BD46BDE8F08119F0A4
:109538009BFA00BFD0DB0220FC6D0200E46D020044
:1095480004000001C069020070B51824174D184EB8
:1095580088B02D6807954FF00005029405461C4613
:10956800019604928DF80C1005930421684609F0C1
:109578005FFD9DF81A30009823F003032246314618
:10958800ADF818000B488DF81A3002F001FF284694
:1095980001A90BF04FFD054B1A68079B5A404FF085
:1095A800000301D108B070BD19F05EFAD0DB0220CB
:1095B800146E0200306E02002DE9F04FA1B00124B4
:1095C8005D4B02AF1B687B674FF0000306460BF04C
:1095D8008DFC5422002107F108001CF0B9FD002180
:1095E800564807F108023B1DC7E9044409F0C8FBC7
:1095F8008346002840F089807C68002C47D04FF0D3
:10960800080ADFF83C91DFF83C8115E06D468AB026
:1096180002AB4FF0180C1A460520C3E90591C3E9BF
:1096280007AC42F8100F00234FF42151404606F0D2
:10963800D1FF2468AD464CB3A1690829E6D1DFF80B
:109648000881E36941465B68404C07F15C05C8F84E
:10965800043041F8044B10232A46012009F05AFB34
:109668006C4688B002AB4FF400711A4699833849AA
:109678009D615961374B42F8103F00234FF4E65182
:10968800304806F0A7FFA5467C6804E07C68DFF850
:10969800B88007F15C05204609F05AFB2E4B1721CC
:1096A80028462E4AC6F83480B36415F0F1FB00282A
:1096B80039D187F86B000F231421294A29480095CE
:1096C8001AF03AFC2748284CF062FFF741FA0421C7
:1096D8004FF40063002286F85E102449B365F164F4
:1096E8002349F463C6E91431224B306386F82420F9
:1096F800B363114B1A687B6F5A404FF0000319D1BE
:1097080058467C37BD46BDE8F08F1B4A03462146C4
:109718000C4806F0EFFE194A21460A4806F0B6FE44
:109728006FF0090BE5E701210346154A054806F0E5
:10973800E1FEC7E719F098F9D0DB0220446E020079
:10974800BC6E0200C0690200FCE800200100075B53
:10975800A46E02000300000109900000E06E020000
:109768000C6F0200E8E8002068C9002014F9002006
:1097780014F1002070C90020646E02007C6E0200A3
:10978800E86E020000B50E4B83B01B6801934FF0E2
:10979800000390F8243073B9806A012208601846E3
:1097A8008A80074B1A68019B5A404FF0000305D185
:1097B80003B05DF804FB6FF08500F2E719F054F987
:1097C800D0DB022010B50C460B4B82B00146224676
:1097D8000A481B6801934FF0000305F0EFF8064BA9
:1097E8001A68019B5A404FF0000302D1204602B08C
:1097F80010BD19F039F900BFD0DB02206CF501204B
:10980800F0B5224B8DB01B680B934FF00003064652
:109818000D4619F0FFFA86460B464FEA4E174FEAF7
:10982800431CB7EB0E074CEADE6C6CEB030CBC0078
:109838004FEA8C0C14EB0E044CEA977C43EB0C03B8
:10984800DB0043EA5473C4F3103444EA4344DB0BAB
:109858000F4A202103A80094019302F0BDFD021EC7
:1098680003DD0C4803A905F0A9F8324629460A4841
:1098780007F0F0F9054B1A680B9B5A404FF00003AC
:1098880001D10DB0F0BD19F0EFF800BFD0DB022018
:10989800486F02006CF501207C6F020010B5124B76
:1098A800124C1A68124982B0A242096801914FF01D
:1098B80000010CD041F22402002118461CF048FC9B
:1098C8004FF4805200F12401C0E900410262084BC4
:1098D8001A68019B5A404FF0000302D1002002B0E1
:1098E80010BD19F0C1F800BF68F5012052474F4C70
:1098F800D0DB022000B50B4B83B01B6801934FF0FF
:109908000003084B0A461968019B59404FF00003B1
:1099180006D10146044803B05DF804EB05F0A2B88F
:1099280019F0A2F8D0DB02206CF5012030B52248EE
:10993800224D234B85B01B6803934FF00003A862A8
:1099480016F0BEFC70B34FF47821A86A29606A4605
:109958000CF070FF0446F0B90423019A2846AA8146
:10996800EB8105F073FC044670B90321154A1648CB
:1099780006F08CFD124B1A68039B5A404FF0000307
:1099880018D1204605B030BD012103460F4A0E48C4
:1099980006F0B0FDEEE7012103460D4A0A4806F03D
:1099A800A9FDE7E701210B4A074806F06FFD6FF0B4
:1099B8001204DFE719F058F894670200A8010120A3
:1099C800D0DB0220DC6F0200F8690200C46F0200DD
:1099D800A46F02008C6F020010B586468C460D49B4
:1099E80084B0096803914FF0000102230DF10602CB
:1099F80071460948ADF806C005F0A8FE054B1A687F
:109A0800039B5A404FF0000301D104B010BD19F078
:109A18002BF800BFD0DB0220A8010120844600B546
:109A28000A460C4983B00223096801914FF00001EE
:109A38000948614606F050F8064B1A68019B5A40DF
:109A48004FF0000304D100EAE07003B05DF804FBB6
:109A580019F00AF8D0DB0220A801012000B50C4B50
:109A680083B0B0F5A07F1B6801934FF0000302D1CB
:109A78000122084B1A70064B1A68019B5A404FF096
:109A8800000302D103B05DF804FB18F0EDFF00BF3E
:109A9800D0DB022040F50120B0B582B0274B00AFE3
:109AA8001B687B604FF0000303782BB3032B19D19D
:109AB800027A234B23496C4688B0012A08BF19460D
:109AC8006B464FF400701A4699611F4D1F495D613E
:109AD800988342F8101F00234FF4E6511C4806F003
:109AE80079FDA546154B1A687B685A404FF000036C
:109AF80022D10837BD46B0BD037A012B1AD0052BF9
:109B0800F0D114496C4688B06B464FF400701A4681
:109B18009961114D0D495D61988342F8101F00232A
:109B28004FF4E6510A4806F055FDA5460B4817F0D4
:109B380021FAD7E70A49E5E718F096FFD0DB0220BB
:109B480034700200407002006070020003000001DF
:109B5800C06902002070020048700200DCCC0020BE
:109B6800087002004FF001104AF6CD3130B5284A8E
:109B7800284C294D294B83B02D6801954FF00005DD
:109B880023601388264D23820133138004F5005384
:109B9800A5606060598242F214030321214A2248D9
:109BA80006F0A8FC002140F6CD4018F069FD04231A
:109BB80003211E4A1C4806F09DFC002140F6CD40BA
:109BC80018F05EFD42F21403224601211848FFF7FF
:109BD80023FC184B186040B90F4B1A68019B5A4078
:109BE8004FF0000311D103B030BD0B4B1A68019B35
:109BF8005A404FF0000308D1034603210E4A0A4891
:109C080003B0BDE8304006F075BC18F02DFF00BF6A
:109C180032F5012088BE0120D0DB0220EFBE010111
:109C28009E98346870700200C06902008870020053
:109C3800A4DE0120E0010120947002002DE9F04F1C
:109C4800284B83B01B6801934FF000034FF0010CC1
:109C58000646254F254CDFF89890DFF898801DE0E0
:109C68004AF6CD3BDFF890E042F214030021234886
:109C7800AEF500520CF10105C4F80090A4F804C038
:109C8800E680C4F80880A4F810A0AEF812B0FFF778
:109C9800C3FB1B4BADB2186090B9AC466645B7F82C
:109CA80000A0DDD20F4B0AF1010AA7F800A01A683C
:109CB800019B5A404FF0000312D103B0BDE8F08F6A
:109CC800084B1A68019B5A404FF0000308D103461D
:109CD80003210C4A0C4803B0BDE8F04F06F00ABC5B
:109CE80018F0C2FED0DB022032F5012088BE012028
:109CF800EFBE01019E98346888DE0120A4DE0120B1
:109D0800E001012094700200C069020000B5194BFF
:109D180083B001291B6801934FF000030DD002297D
:109D280001D1830717D4134B1A68019B5A404FF08F
:109D380000031DD103B05DF804FBC207F3D50D4B3A
:109D48001A68019B5A404FF0000311D103B05DF827
:109D580004EBFFF707BF074B1A68019B5A404FF007
:109D6800000305D1052003B05DF804EBFFF766BFDB
:109D780018F07AFED0DB022000222DE9F04FBE4B0E
:109D8800BE491B6889B0096807914FF000019342EA
:109D9800BB49BC4CB8BF03F2FF330A602260C3F36F
:109DA8008F22B94BDFF8E4B219780023012904BFE8
:109DB80002F1010C1FFA8CF2CBF80030002A00F0F7
:109DC80097810125DFF8C8A2DFF8C8C20AF5805ECE
:109DD8000EF1120ECDE904CE0292AF4BAF4ACAF88B
:109DE8000030029BAAF80450AAF806304AF6CD3390
:109DF8005382AB4B01351B680129CAF80830049B14
:109E0800ADB21B88AAF8103000F0A2800026A54F3A
:109E1800DFF89482DFF8949203950A223946DBF83A
:109E28000000FFF7ADF83B8908215BBA38469DB2C0
:109E380001F0ACFA8542A8F8000067D02368013326
:109E480023604FF4A470002118F01AFC23681E2B1D
:109E5800E3D94FF44D70002118F012FC23683C2B15
:109E6800DBD940F20B70002118F00AFC2368502B54
:109E7800D3D940F26760002118F002FC2368642BF4
:109E8800CBD9002248F208037D4922600A680132D2
:109E98000A6006F608020AEB4202538006F60842F8
:109EA8000AEB420253800AEB46025382A2F81238A8
:109EB800012133464A467E4806F01CFBDBF8003099
:109EC80001360A33B6B2CBF80030B6F5806FA4D1AC
:109ED800039D0021774E42F214036D4A76483160A3
:109EE800FFF79AFA3060002840F0A480644B6B4A70
:109EF8001B6853820321714A6D4806F0FBFA029BE6
:109F08009D4200F2A780604B197866E7DBF80030C5
:109F1800B7F804C006F608010A330AEB4101F888CD
:109F28009CFA9CFCA1F802C03A8806F60841CBF8D6
:109F380000307B880AEB410140BA52BA5BBA4880CC
:109F48000AEB460101364A82A1F81238B6B2BCE7DC
:109F580000234D4A13705A4B1F881E88BFB2C6F59E
:109F68008066B6B20321574A514806F08FFA03219A
:109F78003B46554A4E48009606F0F2FACEB94FF4E1
:109F88000062524952481CF0D6F84FF40062514919
:109F980051481CF0D0F8059E4FF4006230464F49F6
:109FA8001CF0C9F84FF400624D49B0181CF0C3F812
:109FB8008FE7464B4FEA460903EB47014A464448B8
:109FC8001CF0B9F8434B4FEA4708444F03EB08012C
:109FD8004A4641481CF0AFF84A4607EB0801414899
:109FE8001CF0A9F83E4B4A4603EB08013E481CF01A
:109FF800A2F8364B06F1090019464FEA40094246D5
:10A008000AEB40001CF097F809F500604246314918
:10A0180050441CF090F809F58050394642465044A7
:10A028001CF089F809F5C05042462D4950441CF0EF
:10A0380082F84EE7114B1A68079B5A404FF000030D
:10A0480059D103460321294A194809B0BDE8F04F00
:10A0580006F050BADDF810C0BCF800300133ACF897
:10A068000030064B1A68079B5A404FF0000342D154
:10A0780009B0BDE8F08F00BF3C220120D0DB0220F0
:10A0880030DF012034DF01203EF5012034020120B9
:10A0980088BE012032F50120EFBE010188DE0120D3
:10A0A8002CDF0120E401012034F50120EC700200CE
:10A0B800C0690200E0010120A4DE0120087102004D
:10A0C80036F50120B0700200D47002003C1A01205D
:10A0D8009ABE01203C1201209AC601203C0A0120A8
:10A0E8003C0201209ACE01209AD6012094700200E9
:10A0F800DFF808C0B0E718F0B7FC00BF32F5012060
:10A1080010B5144B82B01B6801934FF00003002375
:10A11800114A023801EB430C92F800E030F9024F83
:10A128000133042B2CF83E40F4D113780133DBB211
:10A1380013701378042B04BF00231370054B1A689F
:10A14800019B5A404FF0000301D102B010BD18F036
:10A158008BFC00BFD0DB022041F501202DE9F04146
:10A168004FF0640C0F68D2F8008050F82770324C1A
:10A1780087FB077E82B0B8EB0707246801944FF08D
:10A188000004176057682D4E67EB0E0757600F687D
:10A198002B4C40F82730D2E90007C3FB0307C2E97C
:10A1A80000070B68274D0133A6FB037040090CFB21
:10A1B80010330B60D2E900301A0D42EA0032C2F3C4
:10A1C8001301C3F313020A44C0F31321C7170A4447
:10A1D80002EB107207F021010A44A6FB0261C908CC
:10A1E80001EB810101EB810127F01707521A3A446C
:10A1F8009B1A03FB04F460EBE27005FB0040A3FB31
:10A208000535401902D5033340F100009B0843EAA5
:10A218008070FEF7E7F81AF06BFDFEF7FDFB064BC2
:10A228001A68019B5A404FF0000302D102B0BDE802
:10A23800F08118F019FC00BFD0DB02201F85EB511C
:10A24800F5285C8F295C8FC201224FF0000C10B5F5
:10A258001548164B82B0164C006801904FF000006C
:10A268004FF4806113481A70A4F800C001F0FAF89E
:10A278004FF48061104801F0F5F84FF480610F4801
:10A2880001F0F0F8084B1A68019B5A404FF00003A0
:10A2980007D14FF480610A4802B0BDE8104001F0D0
:10A2A800E1B818F0E1FB00BFD0DB02203EF5012049
:10A2B8002CF501203C1A01203C1201203C0A012007
:10A2C8003C020120F0B58FB02B4B00AF00201B687B
:10A2D8007B634FF0000311F0D1F8284A1060002882
:10A2E80040D1384611F074F80446A8BBD7E90001FC
:10A2F8004FF47A720023FEF7B7FB03460A46204E56
:10A3080007F1100107F10800C7E90232336008F0CD
:10A318006DFB07F1100008F01FFB6D4688B06B4617
:10A328004FF4007C1A461749A3F81CC0C3E905106E
:10A33800154942F8101F4FF4E6512346134806F01A
:10A3480049F9AD460C4B1A687B6B5A404FF0000335
:10A358000FD13C37BD46F0BD01210D4A0B4806F030
:10A3680095F8EFE7012103460A4A084806F0C2F8C3
:10A37800B7E718F079FB00BFD0DB0220E00101202D
:10A388002CDF01206871020003000001C06902008F
:10A3980054710200307102002DE9F041564B82B031
:10A3A8001B6801934FF000030321544A544806F0F8
:10A3B8006DF80321534A524806F068F80DF096FBF1
:10A3C800514C2060002879D10321504A4C4806F0AE
:10A3D8005DF84F4810F008FA0546206000285CD167
:10A3E8004FF0FF324FF0FF334A4816F0FBFD0321D0
:10A3F800494A434806F04AF801200FF0EDFB256072
:10A4080046480FF0DDFA002860D10321444A3C4851
:10A4180006F03CF81E23434E3046A6F85C30FFF7A2
:10A42800CBF82060002857D13F4DDFF80081344F2A
:10A438000AE030460AF084FD03462060D8B10121C5
:10A4480038463B4A06F056F82B685A1C2A60002BFF
:10A45800EFD03C2342460321384606F04BF8002152
:10A468004FF4F01018F00CF930460AF069FD034675
:10A4780020600028E3D12F492A48FFF783F920609C
:10A48800002830D101201C4B1A68019B5A404FF01C
:10A4980000032FD102B0BDE8F08101210346264A0E
:10A4A800174806F027F823682360002BA8D001215D
:10A4B800224A134805F0EAFF0020E4E70121034699
:10A4C8001F4A0F4806F016F82368EDE701211D4AD8
:10A4D8000B4805F0DBFF98E7012103461A4A0848B4
:10A4E80006F008F8E8E701210346184A044806F090
:10A4F80001F8E1E718F0B8FAD0DB02208071020019
:10A50800C069020094710200E0010120E4710200B8
:10A51800A19A0000DCCC00202C720200159D0000DE
:10A5280094720200A4DE0120DC010120D072020036
:10A53800F07202009CDE01200072020048720200E4
:10A54800B071020068720200A87202000C73020067
:10A558002DE9F04389B0AD4B02AF1B687B614FF02A
:10A5680000030321AA4AAB4805F090FFAA480AF065
:10A5780047FF01210246A94808F0B2FBA84C002871
:10A58800206048DBA4480AF0E7FE206010B110F113
:10A598000B0F4BD1A14DB5F90600C2072FD4030705
:10A5A8004BD410F020054ED19E4B1E78012E70D052
:10A5B8009D4B1A78012A4CD09C4B1D78012D00F038
:10A5C800A9819B4B1D78012D00F0F380994D2B78C4
:10A5D800022B75D0012B00F08180974B1A78012A45
:10A5E80000F09A800120894B1A687B695A404FF025
:10A5F800000340F08D811C37BD46BDE8F0838648D6
:10A608000AF042FF2060002840F09480B5F9060067
:10A618000307C6D511E008F087F903680121874AC6
:10A628007C4805F067FF4FF0FF30DCE70121034667
:10A63800834A784805F05EFFF5E70121814A7548AD
:10A6480005F024FFEFE701217F4A724805F01EFF5D
:10A65800E9E700221A7003217C4A6E4805F016FFCC
:10A668007B4E7C4DDFF8B0810BE040232A46002169
:10A678004046FEF769FF206040F6CD40002117F004
:10A68800FFFF40212846FFF735F930600028ECD15C
:10A6980092E71D700321704A5E4805F0F7FEBB1D66
:10A6A80000936E496E483B1DBA1C19F079FC0328CB
:10A6B800804646D003216B4A564805F0E7FE77E707
:10A6C800694A0321534805F0E1FE684A13680133DB
:10A6D800022B136000F0F2802B787BE7022603211F
:10A6E800634A4C4805F0D2FE624A07F1080307CADC
:10A6F80003C3110C23F8022B19702E7003215E4A34
:10A70800444805F0C3FE0A230021434807F1080224
:10A71800FEF7CEFE206060E700221A70FFF7D2FD38
:10A72800564B1B680321564A3A4805F0E3FEFFF7EB
:10A7380023FB57E701210346524A364805F0DAFE63
:10A7480071E7E9468AB07888B988FA8802ABC3E924
:10A7580006011A6205211A464B48586142F8101F33
:10A768004FF423512B462B4805F034FF474BF9880B
:10A77800CD4628461980FFF72FF9454A4146254816
:10A7880005F084FE7988434B30461980FFF724F999
:10A79800414A41461F4805F079FEB9883F4B0220DF
:10A7A8001980FFF719F93E4A41461A4805F06EFE2E
:10A7B800FEE600221A7003213A4A164805F066FEA2
:10A7C80015480AF0F5FC43B2002B71D100214FF473
:10A7D800004017F055FF0321334A0E4805F056FE96
:10A7E800042010F065F800214FF4004017F048FFEE
:10A7F80003212E4A074805F049FE0DF0BDF9002156
:10A808004FF4803017F03CFF0DE700BFD0DB02208B
:10A8180024730200C0690200A4DE01209CDE01202E
:10A82800E001012042F5012043F5012045F5012012
:10A8380044F501206ECB00203DF501205473020041
:10A848006873020098730200A07302006874020023
:10A858009CE60120A0E60120AC730200B873020058
:10A868009CE501205074020028750200D8010120DF
:10A8780044750200A4750200607502002CDF0120F7
:10A888008075020080730200C873020068CB002044
:10A89800E87302006CCB0020107402006ACB002021
:10A8A8003074020010750200C4740200E0740200E3
:10A8B8003C4A29463C4805F01DFE87E73B480AF01C
:10A8C80077FC43B2F3B900214FF4004017F0D8FEEB
:10A8D8000321374A344805F0D9FD04200FF0E8FF7A
:10A8E80000214FF4004017F0CBFE0321314A2E48D7
:10A8F80005F0CCFD0DF040F900214FF4004017F0B1
:10A90800BFFE90E60121274A274805F0F3FDDAE764
:10A9180018F0AAF800221A700321274A224805F0E5
:10A92800B5FD00214FF4004017F0AAFE0321234A89
:10A938001D4805F0ABFD1D480AF03AFC43B253BB75
:10A9480000214FF4004017F09BFE0321184A1648D7
:10A9580005F09CFD04200FF0ABFF00214FF40040F0
:10A9680017F08EFE0321134A0F4805F08FFD0DF0F6
:10A9780003F900214FF4C03017F082FE0321104A7A
:10A98800094805F083FD4FF4C030002117F078FE28
:10A99800012003F0CDFB034A2946034805F0AAFD30
:10A9A800CEE700BF1C6D0200C0690200A4DE0120D2
:10A9B800C4740200E074020088740200A4740200E7
:10A9C800F87402002DE9F04FAC4BA3B01B6821933B
:10A9D8004FF0000300214FF4804017F051FE03218F
:10A9E800A74AA84805F052FD002140F6CD4017F0CF
:10A9F80047FE002206210F2007F026FA00214FF417
:10AA0800804017F03DFE03219F4A9E4805F03EFD19
:10AA1800002140F6CD4017F033FE00240125052122
:10AA280004224FF602739948CDE91644CDE914255E
:10AA380018901391ADF85D302246234613A9944827
:10AA4800CDE9194413F0B8F9002140F6CD4017F0CC
:10AA580017FE03218F4A8B4805F018FD00214FF49B
:10AA6800804017F00DFE4FF440734FF4C062072189
:10AA78008948ADF844300E908848894B10908DF87D
:10AA88004610ADF83C2010A9864A0EA8129313F080
:10AA98006BFB0EA813F0F8FB4FF4FA710EA813F035
:10AAA8000BFC2B460246214600950EA813F02AFC03
:10AAB80000214FF4804017F0E3FD0EF031FF00282D
:10AAC80040F01884DFF8E0B1584615F0F9FB00288B
:10AAD80000F00A84DBF80840584674492368984710
:10AAE80073495846236898477249584623689847D7
:10AAF80071495846236898472368002458466F4987
:10AB080098476F4A6F4B1DAE1480CDE91B440FCB9D
:10AB180086E80F00FEF70AFF002140F6CD4017F047
:10AB2800AFFD20466849FEF779FF002840F0CF8343
:10AB3800DFF898A101205146FEF770FF002840F089
:10AB4800BA8302206249FEF769FF002840F0A78314
:10AB5800BAF8003003215F4A4A4805F0CBFC5C4B49
:10AB68001B8803215C4A474805F0C4FC564B1B88E8
:10AB780003215A4A434805F0BDFC00214FF4004028
:10AB880017F07EFD0321564A3E4805F07FFC03215D
:10AB9800544A3C4805F07AFC0321534A394805F0E9
:10ABA80075FCFFF7F9FB0321504A364805F06EFCA7
:10ABB800FFF7CEFC4E4B18700130F9D100224D4BF7
:10ABC8001A6003214C4A2F4805F060FC03214B4AC8
:10ABD8002C4805F05BFC0321494A2A4805F056FC3D
:10ABE8000321484A274805F051FC002140F6CD4092
:10ABF80017F046FD0EA813F025FB002140F6CD40C6
:10AC080017F03EFD0321404A1E4805F03FFCC825C9
:10AC18003E4CDFF8FC80244FDFF8F8902378002BB7
:10AC2800FCD02378012B00F0D482013DADB2002D79
:10AC3800F4D1BDF974300993BDF978300A93BDF9A0
:10AC48007C300B93BDF980300C930321324A0D48B8
:10AC580005F01CFC314B1D80314B1D600321314A2E
:10AC6800084805F013FCFFF7EFFA03212E4A0548C0
:10AC780005F00CFCDFF8B4806BE000BFD0DB0220ED
:10AC8800B0750200C0690200C475020000127A00A3
:10AC980078C90020D075020000F000400024F400BC
:10ACA800E4750200659A00008067020014790200CA
:10ACB8000C79020004790200FC780200F4780200A2
:10ACC80030F50120EC6A020068CB00206CCB002034
:10ACD8006ACB002094760200AC760200C0760200AF
:10ACE800E476020004770200247702003877020035
:10ACF8003CF50120DC010120587702006C77020046
:10AD08008C770200A8770200B877020040F501208E
:10AD18001C7902001F85EB51CC7702002CF501202D
:10AD28003C220120DC770200F47702008CE5012048
:10AD3800BAF80030D8F800209A4200F39280D8F888
:10AD480008209342C0F28D80B54B1B78012B00F090
:10AD580016822378012BEBD100232370DBF808300F
:10AD6800B0495B68B0489847B048B149FFF7C8F99F
:10AD7800AF4A1BA802F1080532F9021BB2F90630E6
:10AD88000B44B2F90E101944B2F916305B1848BFDB
:10AD980003339B10AA4220F8023BEDD1099ABDF972
:10ADA8006C30DFF890929B1AA349A44AA448C9F8CA
:10ADB8000030FFF7D3F90A9ABDF96E30A14F9B1AFC
:10ADC8009D49A14AC8F80000A0483B60FFF7C6F9B2
:10ADD8000B9ABDF970309E4E9B1A97499D4AC8F848
:10ADE80004009D483360FFF7B9F90C9ABDF9723039
:10ADF8009A4D9B1A90499A4AC8F8080099482B60BE
:10AE0800FFF7ACF92B4632463946C8F80C004846DD
:10AE180000F0EEFA944BB9F900C01B88B7F90000AE
:10AE2800B3F5806FB6F90010B5F9002080F01782ED
:10AE38008E4D25F813C08E4D25F813008D4820F847
:10AE480013108D4921F8132001339BB2864A1380D1
:10AE58008A4A1380BAF80030D8F800209A427FF75F
:10AE68006EAF0321864A874805F044FB864B1B7862
:10AE7800012B00F00882814B0D931B889BB2039332
:10AE8800824A834D136000236A4ADFF808A20792BA
:10AE98006C4A814E05926E4A804F06926F4ADFF8DF
:10AEA800989104927E4A2B6013807E4A137023780F
:10AEB800012BFCD100232370DBF8083059495B686B
:10AEC8005948984759485A49FFF71AF9584A1BA848
:10AED80032F9021BB2F906300B44B2F90E101944CC
:10AEE800B2F916305B1848BF03339B10524520F85F
:10AEF800023BEDD1099ABDF96C3049469B1A079A75
:10AF08004F4813604D4AFFF729F90A9ABDF96E3088
:10AF1800C8F8000005989B1A036049464A4A4B48FE
:10AF2800FFF71CF90B9ABDF97030DDF818C09B1AB1
:10AF38004946484AC8F804004748CCF80030FFF7AB
:10AF48000DF90C9ABDF9723049469B1A049AC8F853
:10AF5800080013604348424AFFF700F93F4B3C4A58
:10AF68003849C8F80C00334800F042FA002213466A
:10AF7800DDF818E00799DEF80000DDF810E0D1F8F8
:10AF880000C0DEF800E00599CDF820E04FEA2C2E4D
:10AF98006EF3070209686CF30F224FEA202C6CF35A
:10AFA800070360F30F23081260F3174261F31F626F
:10AFB800089932600A1262F3174361F31F6330463F
:10AFC8000821736000F0E2F903460A223B8031460B
:10AFD8005BBA28683381FDF791FF039B2B4A013345
:10AFE8009BB203932B680A332B60136801331360F9
:10AFF8002D4BD8F800201B889A4280F22181D8F87E
:10B008000820934240F31C8125490A88013292B2F4
:10B018000A80264909888A4240F2158148E000BF23
:10B028003DF501201C7902008067020080BE0120E6
:10B038000CDF012048DF012038DF0120A0CD0020EF
:10B04800FCE3012044DF012098CD00206CE20120C0
:10B0580040DF012090CD0020DCE001203CDF012012
:10B0680088CD00204CDF01202CF501203C1A01205E
:10B078003C1201203C0A01203C02012036F5012047
:10B0880014780200C06902003EF501203C2201202C
:10B098003802012014DF01200C02012034F50120C0
:10B0A8002EF501203FF501206ACB002068CB002057
:10B0B800944A00919448032105F052FA012246F679
:10B0C800781392490A70039A9A4207D9904A032141
:10B0D8008D4805F0DBF901238C4A13700EA813F094
:10B0E8007FF84FF47A788B4C0821204600F04EF90F
:10B0F80003460A2293FA93FC214628683B80A6F867
:10B1080008C0FDF7FBFE2B6808F1FF380A331FFA69
:10B1180088F82B60B8F1000FE6D17F4B1B78012B24
:10B128000D9B00F0A9801A8892B27C4B7C4C7D481C
:10B138007D4903EB42021DE0B8F5806F28BF4FF050
:10B148000008DFF8E8C17A4F7A4E7B4D3CF818C00A
:10B1580037F8187036F8186035F8185008F10108F3
:10B1680023F802CB24F8027B20F8026B21F8025B5B
:10B178001FFA88F89A42DFD10123704A137000221F
:10B188006F4B1A7003216F4A5F4805F07FF9FFF78C
:10B1980003F9FFF7DDF96C4B18700130F9D16B4AF0
:10B1A8000321594805F072F969480AF001F8694A1B
:10B1B8000346106000286CD10321674A524805F005
:10B1C80065F94FF40040002117F05AFA012002F007
:10B1D800AFFF00232370DBF8083041465B68384630
:10B1E80098475E495E48FEF78BFF1BA908465B4AF5
:10B1F80002F1080C32F902EBB2F906307344B2F9E5
:10B208000EE09E44B2F9163013EB0E0348BF033329
:10B218009B10944520F8023BECD1324621A81368D4
:10B2280003EB430C31F9023B03EBCC0389FB03EC42
:10B23800DB17C3EBEC0342F8043B9042EFD1F4E494
:10B248000023484A138046F67813039A9A423FF639
:10B258003DAF2E4B1B78012B7FF429AE3EE701232F
:10B268002D4D2B70314DA5F800C0314D2880314847
:10B27800018031490A80E9E5B3F800804FF4806223
:10B288001FFA88F851E74FF48063374A03930D9209
:10B29800F6E50121354A1C4805F02CF98CE72321F5
:10B2A800334B02201980FEF797FB0321314A1648D9
:10B2B80005F0ECF84CE437210120AAF80010FEF75D
:10B2C8008BFB03212C4A104805F0E0F839E441F2E1
:10B2D80070712A4B20461980FEF77EFB0321284A0D
:10B2E800094805F0D3F823E40121264A064805F069
:10B2F800CDF8FEE7244A2946034805F0C7F8FFF7CA
:10B30800E1BB00BF2C780200C06902003FF50120B4
:10B31800487802000C0201203EF5012070970120B8
:10B328005049012060700120402201203C1A012070
:10B338003C1201203C0A01203C0201203DF501207D
:10B348006ECB0020647802003CF501208078020072
:10B35800A4DE0120E0010120D07802000CDF0120EA
:10B3680080BE01202EF5012036F50120A8780200C4
:10B378006ACB0020747602005476020068CB002065
:10B388002C7602001C760200F475020000B5174BFB
:10B3980083B01B6801934FF0000311B3024641F2DA
:10B3A800210C4FF6FF7002EB010E082312F8011B67
:10B3B80080EA0120010403F1FF3354BF40008CEA06
:10B3C800400013F0FF0380B2F4D17245EDD1074B72
:10B3D8001A68019B5A404FF0000305D103B05DF88D
:10B3E80004FB4FF6FF70F2E717F03EFBD0DB0220BC
:10B3F80030B547F6EE75194C83B0246801944FF0C8
:10B4080000040468AC4202DC154DAC4200DA056069
:10B4180047F6EE740868A04202DC114CA04200DA3C
:10B428000C6047F6EE701168814202DC0C488142DC
:10B4380000DA106047F6EE711A688A4202DC0849A1
:10B448008A4200DA1960054B1A68019B5A404FF08E
:10B45800000301D103B030BD17F006FBD0DB02209A
:10B468001280FFFF00B50B4B83B01B6801934FF0B0
:10B478000003084B4A001968019B59404FF000032C
:10B4880005D1002103B05DF804EB1AF061BE17F096
:10B49800EBFA00BFD0DB022000B5144B83B01B6869
:10B4A80001934FF00003AAB1531E114A01F1FF3C6A
:10B4B80001EB030E1CF8013F58400309D35C00015F
:10B4C800C0B243401909505C1B01DBB2F44580EA65
:10B4D8000300EFD1054B1A68019B5A404FF0000357
:10B4E80002D103B05DF804FB17F0BEFAD0DB0220EE
:10B4F8003079020010B5224B82B01B6801934FF0DF
:10B508000003836800EBC10CB3F5004F0CD3DCF8E3
:10B518000C30994225D0DCF80810043200EBC10445
:10B5280040F82230E3600BE0BCF80630994218D0AE
:10B53800BCF80410043200EBC10440F82230E38068
:10B54800826800EBC300B2F5004F2CBF8160818098
:10B558000B4B1A68019B5A404FF000030ED102B002
:10B5680010BD01210024C36802F1040C01FA02F2A3
:10B5780023EA0203C36040F82C40E9E717F074FAA5
:10B58800D0DB022070B58668224B541A82B0B6F51B
:10B59800004F1B6801934FF000034FEA440500EB8E
:10B5A800C103A1EB020126D35E685D6001EB560181
:10B5B80086684D00B6F5004F00EBC2032CBF5D60F6
:10B5C8005D808568B5F5004F2CBF40F8324020F803
:10B5D80032408468B4F5004F13D35B6802EB530321
:10B5E80040F833100B4B1A68019B5A404FF0000388
:10B5F8000DD102B070BDB3F802C05D8001EB5C01F3
:10B60800D6E75B8802EB530220F83210EAE717F01E
:10B618002BFA00BFD0DB022010B5204B82B01B688C
:10B6280001934FF00003836800EBC101B3F5004FAD
:10B6380000EBC20C1AD3DCF804304C685B0803EB4F
:10B6480054035C004C608168B1F5004F1CD3DCF8F2
:10B65800041002EB510240F83230104B1A68019B7B
:10B668005A404FF0000316D102B010BD4B88BCF809
:10B6780002E05B0803EB5E034FEA430EA1F802E029
:10B688008168B1F5004FE2D2BCF8021002EB51021A
:10B6980020F83230E1E717F0E7F900BFD0DB0220ED
:10B6A80000B51A4B83B01B6801934FF00003836801
:10B6B80000EBC102B3F5004F16D201235288DA40DD
:10B6C8000132D21A114BB2FA82F2D3F800C0019BB0
:10B6D80093EA0C0C4FF0000316D1C2F11F0203B01D
:10B6E8005DF804EBFFF706BF52685208012A01D043
:10B6F8000223E5E7054B1A68019B5A404FF0000307
:10B7080002D103B05DF804FB17F0AEF9D0DB0220DC
:10B7180030B584682F4B83B0B4F5004F1B68019394
:10B728004FF0000300EBC10229D2012553885B08C2
:10B7380001335B1BB3FA83F3C3F11F0300EB830CE4
:10B74800DCF810500DBB01259D40C368B4F5004FCF
:10B7580043EA0503C360CCF810102CBF91609180B8
:10B768008368B3F5004F2CBFD160D180194B1A689C
:10B77800019B5A404FF0000329D103B030BD5368F4
:10B788005B08012BF2D00225D2E7B4F5004F00EB9D
:10B79800C50C2BBFDCF80830BCF8043093609380EC
:10B7A800846800EBC303B4F5004F2CBFD560D58087
:10B7B8008268B2F5004F2CBFD960D9808368B3F591
:10B7C800004F2CBFCCF80810ACF80410CEE717F0E7
:10B7D8004BF900BFD0DB0220F0B5364B83B01B68B5
:10B7E80001934FF0000383680446B3F5004F0D46FC
:10B7F8004FEAC10600EBC1071CD3796805EB51017C
:10B8080000EBC1035B68D80739D5A159691A04EB65
:10B81800C1035B68DB071CD5264B1A68019B5A409D
:10B828004FF0000344D12946204603B0BDE8F0405C
:10B83800FFF76EBF798805EB510100EBC1035B8808
:10B84800DA071CD5A15B691A04EBC1035B88DB0727
:10B85800E2D42046FFF724FFA3682A46B3F5004F39
:10B868002CBFA159A15B2046691AFFF7D5FEA36832
:10B87800B3F5004F2CBFA359A35BED1ACCE72046C4
:10B88800FFF70EFFA3682946B3F5004F2CBF7A686F
:10B898007A88204605EB5202FFF7BEFEA368B3F58F
:10B8A800004FB2D2A15B691A04EBC1035B88CEE7F3
:10B8B80017F0DAF8D0DB02202DE9F0418668284B32
:10B8C800B6F5004F82B01B6801934FF0000334BFF8
:10B8D8000B4601F1FF33B3FA83F3C3F11F0200EB08
:10B8E80082073D69A5B12C464FF0030CB6F5004F11
:10B8F80000EBC40E1FD3DEF80480B1EB580F29D932
:10B90800DEF80C40BCF1010C3C6101D0A542EDD140
:10B918004FF0FF34C268C3F120039C40144012D199
:10B928000F4B1A68019B5A404FF0000316D120466E
:10B9380002B0BDE8F081BEF80280B1EB580F09D91A
:10B94800BEF80640DEE794FAA4F2B2FA82F2131DBA
:10B9580050F823402146FFF7CDFDE1E717F084F8C2
:10B96800D0DB022000B51C4B83B01B6801934FF05D
:10B97800000329B300688368B3F5004F15D2043972
:10B98800091A21F0070303445A88C90822F0010262
:10B998005A80114B1A68019B5A404FF0000319D185
:10B9A80003B05DF804EBFFF717BF0839091A21F057
:10B9B800070303445A68C90822F001025A60E8E7FD
:10B9C800054B1A68019B5A404FF0000302D103B09F
:10B9D8005DF804FB17F048F8D0DB0220F0B52B4BDC
:10B9E80083B01B6801934FF000030568002937D026
:10B9F800AB68B3EBD10F33D9B3F5004F34BF042391
:10BA08000823CC1D1C44E40828462146FFF754FFB0
:10BA180030B3AB68C600B3F5004F05EBC00717D3CA
:10BA28007B68B4EB530F1DD343F001037B60AB6815
:10BA3800B3F5004F34BF042308231E44A819134B41
:10BA48001A68019B5A404FF000031DD103B0F0BDA6
:10BA58007B88B4EB530F05D343F001037B80E6E703
:10BA68000020ECE70444014622462846FFF78AFDF9
:10BA780021462846FFF74CFEAB68B3F5004F01D2CC
:10BA88007B88E9E77B68CFE716F0EEFFD0DB022082
:10BA98002DE9F041574B066801F1FF3882B018EAEA
:10BAA800010814461B6801934FF000030D46B26865
:10BAB80067D0B2F5004F2CBF082104216B422B4000
:10BAC8008B424546984628BF0B46002C6DD0B2EBFA
:10BAD800D40F6AD9B2F5004F34BF04220822E11D01
:10BAE8002944C91A11443046C908FFF7E5FE07463C
:10BAF80000285AD0B16808EBC003B1F5004F34BF35
:10BB0800042208221344334405F1FF321344B3FBE3
:10BB1800F5F303FB05F534BF6FF003036FF007037C
:10BB2800A5EB08052C4407342B449B1B24F0070481
:10BB3800A41BB0EBD30F4FEAE4044FEAD30836D383
:10BB4800B1F5004F06EBC80712D37B6808EB530228
:10BB580094423CD343F001037B60264B1A68019B57
:10BB68005A404FF0000343D1284602B0BDE8F081A7
:10BB78007B8808EB5302944229D343F001037B806E
:10BB8800EBE7B2F5004F34BF0423082399429CD851
:10BB9800184B1A68019B5A404FF0000328D12146E0
:10BBA80002B0BDE8F041FFF719BF0025D5E701460F
:10BBB80042463046FFF7E6FC39463046FFF7A8FD17
:10BBC800B16806EBC807B1F5004FD1D3BDE74146D0
:10BBD80022463046FFF7D6FC21463046FFF798FD4F
:10BBE800B368B3F5004F01D27B88C6E77B68B1E73D
:10BBF80016F03AFFD0DB0220B2F5802FF0B52CBF4B
:10BC080008240424151B0D44073121F0070425F0EE
:10BC180007052D1BEF08B5F5802F34BF3A4607F10D
:10BC2800FF32B2FA82F2304B83B01B6801934FF0B7
:10BC380000030023C2F12406B6000736C2F1200231
:10BC48000460F6080021C4E90273920004F11000B0
:10BC58001AF07EFA7300BA1BB5F5802F4FEA42003E
:10BC680004EBC60143F0010332D363600023236071
:10BC78004860A368B3F5004F2CBF44F8366024F839
:10BC88003660A1686319B1F5004F4FF000012CBF71
:10BC980059605980A368B3F5004F2CBF62516253B5
:10BCA800A26804EBC703B2F5004F16D35A6842F0F6
:10BCB80001025A600C4B1A68019B5A404FF000036E
:10BCC80010D13146204603B0BDE8F040FFF720BD53
:10BCD8006380002323804880CBE75A8842F0010222
:10BCE8005A80E7E716F0C0FED0DB02202DE9F047C6
:10BCF800224C82B0246801944FF0000483B3994623
:10BD08001C785D78DB78A40004EB430499F80230D2
:10BD180007461C440E4690464C447DB14FF0000A3D
:10BD280014F8013B0AF1010A204649F82340FCF7C0
:10BD38000FFF554500F101000444F1D10F49D9F82E
:10BD480004200868019948404FF0000109F10803F0
:10BD580012D141463846B44602B0BDE8F0476047C4
:10BD6800064B1A68019B5A404FF0000304D16FF04C
:10BD7800150002B0BDE8F08716F076FED0DB022091
:10BD8800024600B5194B83B01B6801934FF00003BE
:10BD980012F8013B8BB14FF0000C6046F8B16145D9
:10BDA80016D0A3F1400EBEF13A0F18D800200CF1BE
:10BDB800010C12F8013B002BF0D100200B4B1A6844
:10BDC800019B5A404FF000030ED103B05DF804FB0D
:10BDD800702BF3D0A3F1400EBEF13A0FEDD9252B0D
:10BDE80008BF80F00100E4E716F03EFED0DB022039
:10BDF8002DE9F04F9DB000AFD7F89860B64C7E6340
:10BE08002468FC664FF00004D7F89C40C7E9073265
:10BE180083787C61C6F3C00405468846D7F8A0A09D
:10BE2800FC627B6489B90478467803EB8404044493
:10BE38004EB101342046FCF78BFE08F101080130B1
:10BE480046450444F5D1A4EB0508EB783B647B6CCC
:10BE5800002B00F009817B6B13F00103FB6300F0FA
:10BE680003812B786A687B607A6205EB830B9A0002
:10BE78003B6C3A61002B40F057813B6A002B00F085
:10BE880061814FF000097B6B7E6C03F00203BB639A
:10BE980007F14C007C6C594622461AF04CF90BEB22
:10BEA80004033B633B6C002B57D03B6C3A6B4FEA67
:10BEB800430A0AF1020B9344941C7A6BC7E9028A7D
:10BEC80002F00402854BD7F82C80BA611AE0844A44
:10BED80090421FD2B8F1000F40F01981FA6B002A86
:10BEE80040F00081BA6952B109F1280207F148010E
:10BEF800511809F1010901F814AC5FFA89F9023403
:10BF0800A34525D014F801AC14F8021C55F82A00F2
:10BF18009842DCD2B8F1000F40F0EE80BA6B002AEC
:10BF280040F0E08009F1010007F1700252FA80F058
:10BF380007F1480C09F128020234944409F1020976
:10BF4800A3450CF8141C5FFA89F900F814ACD9D190
:10BF5800D7E9028A3B6B53443B6395F801A0BA6B5F
:10BF68000AEB0603DBB2002A40F0DC804FEA5902F4
:10BF7800F96B002940F0D480796B11F0040F14BFDD
:10BF880049460021A970EA702846FA693969D7F844
:10BF980020B06B70D847041E6FDB00237868D7F891
:10BFA80040C060F30703786C6AF30F2360F317430C
:10BFB800D7F81CA06CF31F63494652462B6007F163
:10BFC8005C00D847B0F10009C0F24A81786C3B693F
:10BFD800A8EB0001D7F840C0C91A5246386BA1EB4C
:10BFE8004C01D847B0F1000846DBA144C844002EF4
:10BFF80000F04281C7E910654FF000095C467D6991
:10C0080017E035F819B0A0470028C0F2278180440E
:10C01800BBF1000F21D0594630465246A0470028B0
:10C02800C0F21C813B6C09F101099945804400F07C
:10C03800238107F14C0313F809307A6C012152F877
:10C04800236087F84B30524607F14B00002DD8D1BA
:10C05800A0470028C0F2028180443046FCF778FDF2
:10C06800431C1FFA83FBD6E73B6C9BB93B6A1BB1A9
:10C0780041462846FA6998474446174B1A68FB6EAA
:10C088005A404FF0000340F0078120467437BD4600
:10C09800BDE8F08F7B6B13F00203BB63E6D02B780F
:10C0A8006A687B607A6205EB830B9A003B6A3A61A7
:10C0B800002B00F0E8807A6B02F00103FB637B6CD5
:10C0C800002B00F0C580520740F1C2809946002637
:10C0D80007F15C00DEE600BFD0DB02204466020008
:10C0E800DC9D020006F1280207F1480151180136CB
:10C0F80001F824ACF6B202E7786AC7E90A31FFF71B
:10C108003FFED7E90A3100283FF408AFF7E6786A1E
:10C11800FB62FFF735FEFB6A00283FF4DFAEEEE670
:10C1280000212FE7002223E77B6B13F00203BB6398
:10C138003FF4A3AE3B6A2BB14FF000097E6C07F1C8
:10C148004C00A7E644464FF00009D7F844805E4605
:10C15800D844A3467C6916F8013B55F82300FCF740
:10C16800F7FC01302CB1CA4584BF24F8190009F145
:10C17800010946458344EED17B6B3A6C5C4603F07B
:10C188000503002A3FF479AF002B3B6C7A6B06EB72
:10C19800430B0CBF022301233B63404B02F0020117
:10C1A80002F00102A846C7F834A0FD6A9A46023692
:10C1B80079643A640EE03A4A934213D2002D51D181
:10C1C8003A6C9AB93B6BE41A5E4506F102033FF4F8
:10C1D80054AF1E4616F8013C16F8021C58F82330D6
:10C1E8005345E8D28DB97A6C002AEDD01846FCF791
:10C1F800AFFC7A693AB17B6B4B4504D9431C22F8F2
:10C20800193009F101090444DEE7786AC7E90E31FB
:10C21800FFF7B6FDD7E90E310028E4D0C7F83CD0C7
:10C228008AB06B46D9614FF400717A6A19849A61B1
:10C238001A461C4959611C4B42F8103F00234FF421
:10C2480012511A4804F0C6F9023CD7F83CD0BBE7B3
:10C2580000267B6CB1465B443B6326E604460CE74C
:10C268004C460AE7786AC7E90E31FFF789FDD7E936
:10C278000E310028A4D0D1E70021FA6908463B6AAC
:10C2880044469847F9E67E6C7B6B4446D7F8209085
:10C298005E4403F0050377E716F0E6FB4466020008
:10C2A800DC9D02004079020004000001D869020008
:10C2B80000B5094B83B01B6801934FF00003064B90
:10C2C8001A68019B5A404FF0000303D1002003B0C5
:10C2D8005DF804FB16F0C8FBD0DB022000B50A4B62
:10C2E80083B01B6801934FF00003074B1A68019B4A
:10C2F8005A404FF0000305D1044B1B6803B05DF8AA
:10C3080004EB184716F0B0FBD0DB022080C90020F0
:10C3180010B5114B0C6882B01B6801934FF00003F5
:10C328008B685CB14A689A4208DD013A9A4214BFA8
:10C3380084464FF0000C04F803C08B6801338B600F
:10C34800054B1A68019B5A404FF0000301D102B017
:10C3580010BD16F089FB00BFD0DB022000B50A4BE8
:10C3680083B01B6801934FF00003084B1860064B1D
:10C378001A68019B5A404FF0000302D103B05DF8E0
:10C3880004FB16F071FB00BFD0DB022080C900203F
:10C398000FB4002100B50E4A85B006AB12680392AF
:10C3A8004FF0000253F8042B0A480091029300F062
:10C3B8002BFA074B1A68039B5A404FF0000304D12D
:10C3C80005B05DF804EB04B0704716F04DFB00BFF4
:10C3D800D0DB0220E5C200000CB470B5002504468D
:10C3E8000E4688B0114A0CAB126807924FF0000253
:10C3F80053F8042B0E4804A9009503930596069557
:10C40800049400F001FADDE905309842074BB8BF03
:10C4180025541A68079B5A404FF0000304D108B00E
:10C42800BDE8704002B0704716F01EFBD0DB02205A
:10C4380019C3000000B50446064883B0006801909F
:10C448004FF00000084611461A46A04716F05CF95E
:10C4580005F0C8FBD0DB022000B5094B83B01B6890
:10C4680001934FF00003064B1A68019B5A404FF0A6
:10C47800000303D1002003B05DF804FB16F0F4FAC2
:10C48800D0DB022000B50C4B83B01B6801934FF042
:10C49800000306F049FA16230360074B1A68019B4C
:10C4A8005A404FF0000304D14FF0FF3003B05DF85D
:10C4B80004FB16F0D9FA00BFD0DB022000B50B4B05
:10C4C80083B01B6801934FF00003084B08461146E0
:10C4D8001A68019B5A404FF0000304D103B05DF87D
:10C4E80004EB06F09BB916F0BFFA00BFD0DB0220C0
:10C4F8000CB4034600B5084683B00C4904AA096881
:10C5080001914FF0000152F8041BDB680092984734
:10C51800064B1A68019B5A404FF0000304D103B040
:10C528005DF804EB02B0704716F09EFAD0DB0220EB
:10C5380010B51B4B82B00F281B6801934FF0000306
:10C5480025D8184C00EB40034FEA031E4FEA400C75
:10C5580004EB0313D3E8AF3FCBB1A4F1080303EB1B
:10C568000E0464680C6022B10EF10C0E03EB0E0190
:10C57800116084444FEA0C1C53F80C00084B1A68ED
:10C58800019B5A404FF0000307D102B010BD06F0DE
:10C59800CBF9092303600020F0E716F065FA00BF25
:10C5A800D0DB022088C5002070B5254B82B01B68FF
:10C5B80001934FF0000300242546224E4FF0FF322E
:10C5C8004FF0FF33204814F0EBFA06F108010B197D
:10C5D800D3E8AF2FBAB10135102D04F13004F6D1EC
:10C5E80006F0A2F917234FF0FF350360164814F040
:10C5F80065FB134B1A68019B5A404FF000031CD18E
:10C60800284602B070BDD3E8EF1F0131C3E8E21F2E
:10C61800002AF8D10020002105EB450306EB03139F
:10C62800C3E9000104F10C00304414F09DFA04F150
:10C638002000304415F076F8D8E716F015FA00BF58
:10C64800D0DB022080C5002048CC002030B5194C32
:10C6580083B0246801944FF000041446164D00EB93
:10C66800400C05EB0C124FEA0C1CD36245F80C1079
:10C678005460A4B1E36893B10E4B1A68019B5A4009
:10C688004FF0000314D140F2051220460CF10C0CB7
:10C6980005EB0C0303B0BDE83040FFF729BF054B9D
:10C6A8001A68019B5A404FF0000301D103B030BD16
:10C6B80016F0DAF9D0DB022080C5002030B5184B1F
:10C6C80083B01B6801934FF0000300EB400315494A
:10C6D8001B0108334FEA400C0B44D3E8AF2F62B17B
:10C6E80002F1FF3ED3E8EF4F944203D1C3E8E5EFF0
:10C6F800002DF7D1F1D1012A08D0094B1A68019B06
:10C708005A404FF0000309D103B030BD0022002386
:10C71800844401EB0C11C1E90023EEE716F0A4F9FB
:10C72800D0DB022080C500202DE9F04F9846344F19
:10C73800D378344C17F8039083B06F2B2468019496
:10C748004FF00004924606460C460C9D09F003097A
:10C7580042D03CD903F0F703702B3AD00A27BB46E6
:10C768000AE03033BE42DBB274F100042B7019D3F7
:10C77800454517D906460C463A4600233046214619
:10C78800FCF7C2F9092A05F1FF35D3B2E9D9B9F1A5
:10C79800010F0CBF37335733BE42DBB274F10004CC
:10C7A8002B70E5D29AF800309B0605D5BBF1080F2F
:10C7B80015D0BBF1100F19D0124B1A68019B5A40C3
:10C7C8004FF0000319D1284603B0BDE8F08F582B6D
:10C7D800C4D11027BB46CFE70827BB46CCE79AF859
:10C7E800023043F008038AF80230E5E79AF802308D
:10C7F80043F010038AF80230DEE716F035F900BF7F
:10C80800659C0200D0DB02202DE9F04F1C468346D0
:10C818008A4B107899B01B6817934FF0000388B1C2
:10C828009246884600275D46252816D04146A847E7
:10C83800002807DB01370AF1010A9AF800000028EE
:10C84800F2D138467D4B1A68179B5A404FF00003C7
:10C8580041F0AF8019B0BDE8F08F00239AF80120AD
:10C86800CDE90A33252ACDE90C33CDE90E3300F0A2
:10C87800E9801E469E469B4699460AF1010CA2F1A4
:10C88800200110290AD8DFE801F0D00909CE0909EA
:10C898000909090909D609D30909CA002BB19DF864
:10C8A800303043F040038DF830302EB19DF83030F1
:10C8B80043F020038DF83030BEF1000F05D09DF80D
:10C8C800303043F010038DF83030BBF1000F05D045
:10C8D8009DF8303043F008038DF83030B9F1000F7F
:10C8E80005D09DF8303043F004038DF830309DF8C2
:10C8F800303003F04401442900F064829DF8303060
:10C908002A2A43F080038DF8303000F03E824C4EE6
:10C918001046B35C61465B0748BF002316D511F883
:10C92800012F303816F802E003EB83031EF0040FE2
:10C9380000EB43031046F2D18C4507D09DF8300038
:10C948000D93DB0F63F341008DF830002E2A0CBFE6
:10C95800012000209DF8313060F341038DF831301B
:10C9680026D14A782A2A00F06982354E1046B35CEF
:10C97800013113F0040308BF18460ED0002311F844
:10C98800012F303816F802C003EB83031CF0040FA4
:10C9980000EB43031046F2D1D80F0E939DF83030C8
:10C9A8001E46C3F34003184360F341068DF8306018
:10C9B800A2F14C034E1C2E2B00F24982DFE813F043
:10C9C8005C04470247024702470247024702470200
:10C9D8004702470247024702470247024702470207
:10C9E80047024702470247024702470247024702F7
:10C9F80047024702470247026B0447025A044702AC
:10CA08004A044702470247024702470247024702D1
:10CA18004804470247024702470247023B040123F2
:10CA28001CF8012F2BE70126FAE74FF0010EF7E774
:10CA38004FF00109F4E74FF0010BF1E7D0DB0220DA
:10CA4800659C020019461A469C461E468DF833001E
:10CA58000AF102099DF930E09DF83000BEF1000F9F
:10CA68000590ACBF4FF0FF300D980490002A00F0FD
:10CA78000481224652F804BBBBF1000F039207DA87
:10CA88004FF0FF3B9DF831206FF341028DF83120C4
:10CA98000022042E0D920E9200F0FD80059A012EC0
:10CAA80002F00302029200F02A81022E00F078813F
:10CAB800032E04D1039B53F8042B0A920393029B81
:10CAC800002B40F007819DF833E0AEF12503532B8E
:10CAD80056D8DFE813F021045500550055005500DD
:10CAE8005500550055005500550055005500550096
:10CAF8005500550055005500550055005500550086
:10CB080055005500550055005500550055001B02AD
:10CB18005500550055001B021B021B02550055000D
:10CB28005500550055005500550055005500550055
:10CB38005500550055005500550055006B0055002F
:10CB480055005500550055005500550055001B026D
:10CB58005500830158001B021B021B025500580098
:10CB68005500550055005500F0036B00180455009A
:10CB780055000B0455006B00550055006B001F60F5
:10CB8800CA46039C59E6059B1C074EBF2B23C3F3DB
:10CB980000135B010293DDE90A23002B06DA5242F7
:10CBA80063EB43030B932D230A9202930DF159066D
:10CBB800009610AB0CAADDE90A01FFF7B5FD0446A3
:10CBC800BBF1000F0BDB9DF830306FF386138DF847
:10CBD8003030331B9B4502D9ABEB03030D93002C7C
:10CBE800CED0DDF834A0331B52460DF159019DF823
:10CBF80032600591029901B1013316F010010691D6
:10CC080000F0F7800233134416F040021CBF0E995F
:10CC18005B180499002940F38F80CB1A04939DF880
:10CC280030305807C3F3800600F18680590640F17A
:10CC3800F7820298002800F07F8441460292A847B4
:10CC48000028FFF6FFAD049B029A002B07F10107AD
:10CC580003F1FF3C40F37884029630260794E346BC
:10CC68006446049203E0621E002C5ED014464146DE
:10CC78003046A8470028F6DAE4E500221CF0020F47
:10CC880014BFDDF838B04FF0FF3B042E03940D922B
:10CC98000E927FF403AF9DF83120930707D49DF9D6
:10CCA8003120002AACBF4FF0060B4FF00D0B059A50
:10CCB80002F003020292039A073222F00702D2E935
:10CCC8000034CDE90A3402F108030393029B002BD8
:10CCD8003FF4F9AED1457FF653AF002441461AF828
:10CCE800010BA8470028FFF6ADADCA4504F10104C1
:10CCF800F4D1002C2046FFF6A5AD274440E7CA1E14
:10CD0800042A00F28986DFE812F05A0205000500BD
:10CD1800EA00EA00039B073323F007031846F0E80C
:10CD28000223CDE90A230390C9E64FF0FF33013708
:10CD3800079C049A5F440493029838B141460292D2
:10CD4800A8470028FFF67EAD029A0137002A59D07D
:10CD58009DF931302078002BC0F239826A4E335C5D
:10CD68005B0758BF234640F1B083A34608E09BF811
:10CD780001000BF10103325C510740F1A1839B468E
:10CD88004146A8470028F2DA5CE59DF831300CF1FD
:10CD9800010143F001038DF831309CF80120D5E5FD
:10CDA800CA1E042A00F22C8601A454F822F000BFFF
:10CDB800FBD100001DCD00001DCD000097D1000063
:10CDC80097D100006FF386138DF8303096E5002375
:10CDD8000B93029B0392002B7FF47CAF0A9B0DF10F
:10CDE80041028DF840300123059210AC0022924692
:10CDF800029216F0080106913FF405AF00210133B5
:10CE0800069100E79DF83230DA0600F101821B072F
:10CE180000F1FE81069B002B40F0C881BAF1000F9B
:10CE2800C8BFBA4404DC26E30137574500F0248321
:10CE380041463020A8470028F6DA03E59DF831304E
:10CE4800023143F004038DF831300A78B0E50E461C
:10CE58009DF83000C0F34000782A8DF8332006F1A1
:10CE680001091AD86D2A00F29982692A15D8572A19
:10CE780040F261820121A2F15803DBB201FA03F307
:10CE880013F4624F40F05E8240F60106334240F0F0
:10CE9800948513F4043F40F0AE829DF830309DF83D
:10CEA80031C043F00103CCF3C3018DF830300026C4
:10CEB8000B469DF830201CF0010F60F341028DF8FD
:10CEC80030200CF004023FF4C5AD54F8040B0028E0
:10CED8000490C0F284829DF830000590C6E5DDF824
:10CEE8000CC0012B5CF8044B22464FEAE474CDE9F0
:10CEF8000A24CDF80CC07FF4E2AD53B242F3C0125D
:10CF08000A930B92DBE500BF659C0200DDE90A127B
:10CF1800002AC0F26183059B180700F1D883C3F388
:10CF280000135B010293C2F30A5A40F2FF73C2F383
:10CF38001302BAF1000F40F00B83BEF1460F00F068
:10CF48007484D30243EA5153069353EAC1234FEA48
:10CF5800C12000F09383120352EA11524FEA0133C1
:10CF680000F11A85DB185241002A0AF1FF3AF9DA72
:10CF7800AAF2FE318C1C42F0004280F209854FF083
:10CF8800000A5B0843EAC2735208B2F1333F08460D
:10CF980001F10101F5D2811C9C00900040EA9370D8
:10CFA800E31842EB0002881C0AF1FF3AE9DB00298A
:10CFB80024DD4FF03336B44606970233A3FB06044C
:10CFC80042F100021CEB0003A2FB063246EB040709
:10CFD800C01844EB0204C01944F100041B1901F104
:10CFE800FF310AF1010A42F10002DB185241002A1E
:10CFF80001F1FF31F9DA0029DFDC069FC1F10404F1
:10D008001C3123FA04F002FA01F1A4F1200322FAF8
:10D0180003F308431843BEF1670F22FA04F306939B
:10D0280000F00A83BEF1470F00F00683BEF1660FD9
:10D0380000F0F68300220BF101030792102B1E4625
:10D04800A8BF1026013E002B00F0A9844FF0006213
:10D058004FF033340023A4461146CDE908A75B08F6
:10D0680043EAC173A3FB042749081CEB0203A1FB95
:10D07800043144EB070AD21847EB010712EB0A0206
:10D0880047F10007DB1906F1FF3641F10001771C73
:10D09800E5D1DDE908A70A4606991B1841EB02020B
:10D0A800B2F1805F80F063830599BEF1660F01F0ED
:10D0B800200400F00F839100980041EA9371C3188F
:10D0C80042EB0101C1F3C362DB1802F130024941AE
:10D0D800302A8DF8402018BF0AF1FF3A002C40F0A2
:10D0E8003983BBF1000F40F3EE832E228DF84120E7
:10D0F8004FF00F0C10A821F0704206900DF142017C
:10D10800084601EB0C0401E0A04211D096009900FA
:10D1180046EA9376CB1842EB0602DB185241110F10
:10D128003031BBF1010B00F8011B22F07042EBD14A
:10D138000590079BCDF838B06BB10022059B0E9285
:10D1480013F8012C1946302A03F1FF33F8D02E2AA0
:10D1580008BF194605910EF0DF03452B00F0058244
:10D16800DDF834A0BAF1000F40F3828201220021D9
:10D178009DF8323062F386138DF83230059B5246A3
:10D18800197006999DF832600C465B1A32E54FF02B
:10D19800000C039C54F8042B022BCDE90A2C03D174
:10D1A800002392B20A920B93039488E441469DF8B7
:10D1B8003300A8470028FFF645AB01372EE6039A4F
:10D1C80052F8043B0A93DB1703920B9377E4702819
:10D1D80000F0DC83264606E0707806F1010A702824
:10D1E80000F0928156464146A8470028F4DAFFF736
:10D1F80029BB9DF83330039A632B039B02F1040289
:10D208001B680A933FF4E3AD002303920B9356E4A3
:10D2180041463020A8470028FFF614AB0137F9E54E
:10D22800049B002BC8BF202603F1FF3C3FF716AD37
:10D23800CDF810C080E506229DF831309DF8300009
:10D2480062F3C6038DF831304A78C0F3400003E634
:10D258000722F1E74A789DF830006C2AC0F34000B5
:10D2680000F0AF8103219DF8313061F3C6038DF8DA
:10D278003130F1E50522DFE7BDF83030012023F435
:10D28800F04323F0020343F4804343F002034A7857
:10D29800ADF83030E0E54A789DF83000682AC0F3F0
:10D2A800400000F0848102219DF8313061F3C6030B
:10D2B8008DF83130D0E50A9B07293FF661AC01A211
:10D2C80052F821F087CB00003BD3000037D3000091
:10D2D80087CB0000EDD20000EDD2000087CB000024
:10D2E80087CB0000FA171F605A6049E4BBF1000FB2
:10D2F8000A9C80F268812046FBF72AFC23180593D4
:10D30800059B1B1B72E50A98002840F06881C04AFB
:10D3180005230592541F69E541462520A8470028A2
:10D32800FFF690AACA46039C0137FFF786BA1F800A
:10D3380026E41F7024E4412A04D0A2F14503022BFD
:10D348003FF6ABAD02F0DF02A2F14102B2FA82F27F
:10D3580004269DF831309DF83210520962F3C71344
:10D3680066F302011A068DF832108DF831305FFA33
:10D3780083FC00F1DC800CF07803182B00F09D8111
:10D388001CF0380FCCF3C30105D09DF8303043F0C2
:10D3980001038DF830300B4604268AE501236E3AE6
:10D3A800D2B2934040F2824213424DD113F0240F7F
:10D3B80038D1D9077FF571AD03269DF832209DF845
:10D3C80031C066F302020CF07803CCF3C301402BA2
:10D3D80008BF40F001008DF832200B4669E504983B
:10D3E800404204909DF8300040F004008DF8300071
:10D3F8000590FFF73BBB9DF832309DF831C061F3D3
:10D4080002038DF832300CF07803402BCCF3C301C3
:10D4180005D19DF8303043F001038DF830300B46CC
:10D42800012646E503269DF832209DF831C066F3B3
:10D4380002021CF0780FCCF3C30118BF40F00100C2
:10D448000B468DF8322034E502269DF831C09DF850
:10D4580032300CF0780266F30203402A8DF832303D
:10D4680005D19DF8303043F001038DF83030CCF30E
:10D47800C3010B461DE5BA460026059F07E0414655
:10D4880014F8010BA8470028FFF6DCA90136A742CB
:10D49800F5D8002E3046FFF6D5A95644049B002B3C
:10D4A80040F35582049F374403E00136BE423FF4FF
:10D4B80067AB41462020A8470028F6DAFFF7C2B933
:10D4C800C4F101023A440BEB02079DF832209206A0
:10D4D80040F1938118782E2800F07481325C51074E
:10D4E80058BF9A4614D51C469B4607E0607804F15D
:10D4F800010A335C5B0740F1548154464146A84712
:10D508000028F3DAFFF79EB9C4F101033B44F7188A
:10D518000E9C002C78DD3C4402E00137A74274D011
:10D5280041463020A8470028F7DAFFF78BB9CCF33B
:10D53800C3010B460120BCE4049B002BC8BF302666
:10D5480003F1FF3C3FF78AABCDF810C0FFF7FEBBF5
:10D558009A4500F09181D202BEF1460F08BF4FF004
:10D56800660E42EA5152CB0202E5059BBAF1000F62
:10D5780083F800E0B4BF2D232B230599B8BFCAF167
:10D58800000ABAF1630F4B7000F310810231214B8E
:10D59800A3FB0A23DB0803EB8302AAEB4202303326
:10D5A8000B7002F130034B708B1C0593D8E50122F8
:10D5B8009DF831308E1C62F3C6038DF831308A78BD
:10D5C8004AE40422F4E75946204618F077FE002C76
:10D5D8007FF494AEFFF7D4BA2D230293A3E40DF1A0
:10D5E800590610AB002100960CAAFFF79DF8BDF86C
:10D5F8003230044603F0EF0343F4F04343F01003E2
:10D60800ADF83230FFF7DCBA3C460026059F0BE048
:10D618000D7A0200CDCCCCCC41461AF8010BA847B4
:10D628000028FFF60FA901365745F5D8002E3046D9
:10D63800FFF608A9264431E71AF1030F25DAAEF1FF
:10D648000203BBF1000F5FFA83FE7FF7F3AC059A84
:10D658000BF1FF33920600F148811A1E18BF012210
:10D6680007925E46102EA8BF10269B46013EEDE4A9
:10D678000E9A002AD4BF0022012278E5BEF1670F76
:10D6880003D0BEF1470F7FF4D1ACD345D7DB059B60
:10D69800ABEB0A0213F0200F5B4640F07381111EBA
:10D6A80018BF012193460791002B4FF0660EBFF675
:10D6B800C5AC00234FF00062EEE400236FF3C60C04
:10D6C8008DF831C019465FFA8CFCFFF7F2BB2B23AB
:10D6D800029328E4BAF1000F40F3B48050460DF1EC
:10D6E800400CCDF818C0AAF11006099797009900C8
:10D6F800C91847EA937742EB070749187F413A0F61
:10D7080030320B465146BAF1010A8CF8002027F056
:10D71800704267460CF1010C00F01C81B245E5D15E
:10D72800CDF814C04FF0000C0897099F0D96002CF7
:10D7380040F01A81BBF1000F40F321812E20089997
:10D74800059C02312070BCF1000F00F0FD804FF005
:10D75800000AD5E42E22BBF1000F8DF841203FF7D7
:10D76800C7AC0DF14203059310AB0693E1E45B08E7
:10D7780043EAC2734FEA520C4FF03332A3FB02362E
:10D78800D418ACFB021442EB06025B1846EB040605
:10D798009B1846F100068B190AF1010A44F10002B0
:10D7A80082E45B460137FF1A2744B1E66422A94B9D
:10D7B800A3FB0A135B0902FB13AA059A3033937083
:10D7C800D11CE4E641460293A8470028FFF63AA890
:10D7D800029BBAF1000F07F1010703F1010479DD9B
:10D7E8009B46BA4402E00137574572D04146302083
:10D7F800A8470028F7DAFFF725B8BAF1000FC8BF25
:10D808009B460AF1FF3404DCD5E0621E002C6FD081
:10D81800144641463020A8470028F6DAFFF712B828
:10D82800002307930AEB0B033EE7D30243EA515365
:10D83800069353EAC1234FEAC120F1D04FF0660E98
:10D84800FFF789BB30218DF84010002C56D02E21CF
:10D858008DF84110BAF1000F6BD0BBF1000F56DC08
:10D868000DF14203059310AB0693079BCDF838B032
:10D87800002B7FF462AC73E477480EF10103DBB24E
:10D88800C35C0A4303F0030327D1012B0BBF4923D1
:10D8980069234E216E210CBF462266228DF8422054
:10D8A80000228DF840309DF830308DF841106FF32C
:10D8B80086130DF143018DF830309246032305910C
:10D8C80010ACFFF797B90DF14103059310AB069320
:10D8D8002FE45B465878234600E6012B15BF6E23DC
:10D8E8004E23612141211A46D8E700220792B8E663
:10D8F800BA44AAEB04075B469246EBE5BBF1000F7E
:10D9080051DD2E218DF84110BAF1000F14D0CAF163
:10D9180000015945A8BF594600290D91ABEB010BF1
:10D92800D4BF002101219DF8320061F345108DF824
:10D938003200BBF1000F93DD10A84FF0100C0DF171
:10D9480042010690FFF7DCBBE24605918DE73746BA
:10D95800FFF716B9C0F10F00CDF814C00897564666
:10D96800099F00EB010CE1E62E200899059CBBF10C
:10D97800000F01F1020120703FF7E5AE05914FF06D
:10D98800000A72E79346002207928DE6A246BFE599
:10D998004FF0000AFFF70BBB3049FFF7F0BA4FF022
:10D9A8000062FFF779BB0DF14103059310AB0693B5
:10D9B8005BE715F059F8A2468CE502219DF8323054
:10D9C80061F302039DF831108DF8323001F07806CA
:10D9D800402E8C4605D19DF8303043F001038DF878
:10D9E8003030C1F3C301632A0B4606D1002E18BF9D
:10D9F80040F001000226FFF75CBA0226FFF759BA89
:10DA0800039C012B54F8042B1CD10023D2B20A9298
:10DA180003940B93FFF753B8DDF80CC0012B5CF8A7
:10DA2800044B4FEAE4720B920A9422460ED0022B62
:10DA380004D123B244F3C0340A930B94CDF80CC03C
:10DA4800FFF73DB84FF0000CFFF7A6BBCDF80CC0B0
:10DA5800FFF753BA1F85EB51649C020002FCFFFFDD
:10DA680070B51E4B82B01B6801934FF00003046829
:10DA7800C2698B0043F0020342F82430026903684C
:10DA8800D507046A0B4419D4A34200D31B1BC568ED
:10DA98004668AB4203600DD031448C4298BF091BE5
:10DAA8000E4B41601A68019B5A404FF0000313D196
:10DAB80002B070BD42F008020261EDE7C668013CA1
:10DAC8002340B3424568036002D142F00802026174
:10DAD8004B1904EA0301E3E714F0C6FFD0DB022088
