:0200000290006C
:100000003DB8F39600000000000200002C820000C2
:1000100000000000000000000000000000000000E0
:10002000FFFFFFFFFFFFFFFFFFFFFFFFFFFFFFFFE0
:10003000FFFFFFFFFFFFFFFFFFFFFFFFFFFFFFFFD0
:10004000FFFFFFFFFFFFFFFFFFFFFFFFFFFFFFFFC0
:10005000FFFFFFFFFFFFFFFFFFFFFFFFFFFFFFFFB0
:10006000FFFFFFFFFFFFFFFFFFFFFFFFFFFFFFFFA0
:10007000FFFFFFFFFFFFFFFFFFFFFFFFFFFFFFFF90
:10008000FFFFFFFFFFFFFFFFFFFFFFFFFFFFFFFF80
:10009000FFFFFFFFFFFFFFFFFFFFFFFFFFFFFFFF70
:1000A000FFFFFFFFFFFFFFFFFFFFFFFFFFFFFFFF60
:1000B000FFFFFFFFFFFFFFFFFFFFFFFFFFFFFFFF50
:1000C000FFFFFFFFFFFFFFFFFFFFFFFFFFFFFFFF40
:1000D000FFFFFFFFFFFFFFFFFFFFFFFFFFFFFFFF30
:1000E000FFFFFFFFFFFFFFFFFFFFFFFFFFFFFFFF20
:1000F000FFFFFFFFFFFFFFFFFFFFFFFFFFFFFFFF10
:10010000FFFFFFFFFFFFFFFFFFFFFFFFFFFFFFFFFF
:10011000FFFFFFFFFFFFFFFFFFFFFFFFFFFFFFFFEF
:10012000FFFFFFFFFFFFFFFFFFFFFFFFFFFFFFFFDF
:10013000FFFFFFFFFFFFFFFFFFFFFFFFFFFFFFFFCF
:10014000FFFFFFFFFFFFFFFFFFFFFFFFFFFFFFFFBF
:10015000FFFFFFFFFFFFFFFFFFFFFFFFFFFFFFFFAF
:10016000FFFFFFFFFFFFFFFFFFFFFFFFFFFFFFFF9F
:10017000FFFFFFFFFFFFFFFFFFFFFFFFFFFFFFFF8F
:10018000FFFFFFFFFFFFFFFFFFFFFFFFFFFFFFFF7F
:10019000FFFFFFFFFFFFFFFFFFFFFFFFFFFFFFFF6F
:1001A000FFFFFFFFFFFFFFFFFFFFFFFFFFFFFFFF5F
:1001B000FFFFFFFFFFFFFFFFFFFFFFFFFFFFFFFF4F
:1001C000FFFFFFFFFFFFFFFFFFFFFFFFFFFFFFFF3F
:1001D000FFFFFFFFFFFFFFFFFFFFFFFFFFFFFFFF2F
:1001E000FFFFFFFFFFFFFFFFFFFFFFFFFFFFFFFF1F
:1001F000FFFFFFFFFFFFFFFFFFFFFFFFFFFFFFFF0F
:100200005048002065A80000D7EB000051A800006E
:1002100051A8000051A8000051A8000051A80000FA
:100220000000000000000000000000002DA90000F8
:1002300051A800000000000051A8000051A80000D3
:10024000CDAA0000CDAA0000CDAA0000CDAA0000D2
:10025000CDAA0000CDAA0000CDAA0000CDAA0000C2
:10026000CDAA0000CDAA0000CDAA0000CDAA0000B2
:10027000CDAA0000CDAA0000CDAA0000CDAA0000A2
:10028000CDAA0000CDAA0000CDAA0000CDAA000092
:10029000CDAA0000CDAA0000CDAA0000CDAA000082
:1002A000CDAA0000CDAA0000CDAA0000CDAA000072
:1002B000CDAA0000CDAA0000CDAA0000CDAA000062
:1002C000CDAA0000CDAA0000CDAA0000CDAA000052
:1002D000CDAA0000CDAA0000CDAA0000CDAA000042
:1002E000CDAA0000CDAA0000CDAA0000CDAA000032
:1002F000CDAA0000CDAA0000CDAA0000CDAA000022
:10030000CDAA0000CDAA0000CDAA0000CDAA000011
:10031000CDAA0000CDAA0000CDAA0000CDAA000001
:10032000CDAA0000CDAA0000CDAA0000CDAA0000F1
:10033000CDAA0000CDAA0000CDAA0000CDAA0000E1
:10034000CDAA000000000000000000000000000036
:10035000000000000000000000000000000000009D
:10036000000000000000000000000000000000008D
:10037000000000000000000000000000000000007D
:10038000000000000000000000000000000000006D
:10039000000000000000000000000000000000005D
:1003A000000000000000000000000000000000004D
:1003B000000000000000000000000000000000003D
:1003C000000000000000000000000000000000002D
:1003D000000000000000000000000000000000001D
:1003E000000000000000000000000000000000000D
:1003F00000000000000000000000000000000000FD
:10040000DEE61E284CBBCE8F025B00003C000000E5
:100410007A810000010000000082000000820000DC
:10042000FFFF02910000000000000000000000003B
:1004300000000000000000000000000053B94AB9AD
:10044000002908BF00281CBF4FF0FF314FF0FF30DC
:1004500000F00CB8ADF1080C6DE904CE00F008F81E
:10046000DDF804E0DDE9022304B07047704700BF07
:100470002DE9F04786468C460846089E1546744688
:100480001946002B40F0C1808542B2FA82F245D96C
:100490004AB1C2F1200300FA02FC954094402EFAC2
:1004A00003F343EA0C0C4FEA154EA8B2230CBCFB35
:1004B000FEF80EFB18CC08FB00F943EA0C43994503
:1004C00028D9EB1808F1FF3704D2994502D9A8F1D1
:1004D00002072B44A3EB0903A4B2B3FBFEFC0EFB03
:1004E0001C330CFB00F044EA0344A04214D92C193D
:1004F0000CF1FF3304D2A04202D9ACF102032C4428
:10050000241A43EA07401EB1D440002334607360CC
:10051000BDE8F0874746DDE76346F1E792BB431B42
:1005200001214FEA154EAFB2200CB3FBFEFC0EFBCF
:100530001C330CFB07F840EA0343984561D9EB18DC
:100540000CF1FF3004D2984502D9ACF102002B44E3
:10055000A3EB0803A4B2B3FBFEFC0EFB1C330CFBA5
:1005600007F744EA0344A7424DD92C190CF1FF3395
:1005700004D2A74202D9ACF102032C44E41B43EAA3
:100580000040C0E7C2F120039540944020FA03F1F7
:100590002EFA03F34FEA154E9040AFB20343B1FB7E
:1005A000FEFC0EFB1C10190C0CFB07F841EA004185
:1005B000884522D969180CF1FF3004D2884502D948
:1005C000ACF102002944A1EB08019BB2B1FBFEFC97
:1005D0000EFB1C110CFB07F743EA01439F420ED9A7
:1005E000EB180CF1FF3104D29F4202D9ACF10201A9
:1005F0002B44DB1B41EA004193E76046E3E7614699
:10060000F7E76046A4E76346B8E7834206D916B920
:10061000002108467CE7C6E900E0F9E7B3FA83F772
:100620008FB9834201D3724508D8BEEB020460EB58
:10063000030301209C461EB9002169E73846FAE70A
:10064000C6E9004CF8E7C7F1200CBB400EFA07F5ED
:1006500022FA0CF42EFA0CF1BA401C4320FA0CF3E7
:10066000B8404FEA144901431FFA84FEB3FBF9F87E
:1006700009FB18300B0C08FB0EFA43EA00439A45BD
:1006800040D9E31808F1FF3004D29A4502D9A8F105
:1006900002002344A3EB0A0389B2B3FBF9F809FB78
:1006A000183308FB0EFE41EA03418E452CD9611830
:1006B00008F1FF3304D28E4502D9A8F10203214488
:1006C00043EA0040A1EB0E01A0FB02984145CE4653
:1006D000434602D306D14D4504D20138B9EB020E90
:1006E00068EB0403002EA7D0B5EB0E0261EB03010B
:1006F00001FA0CFC22FA07F3F9404CEA0303C6E9BD
:10070000003199E74046C5E74346D9E7F0B5354B98
:10071000354A4921C3F800263448C3F8042685B079
:10072000C3F80826C3F80C26C3F81026C3F814260D
:10073000C3F81826C3F81C2606F0C4F905F0E4FD3A
:1007400000F094FA054601A800F078FF0446284618
:1007500000F09CFA264B1B68A34205D04521254892
:1007600006F0B0F905F0C4FE039A4921224806F0CC
:10077000A9F94921214806F0A5F94FF400314FF4B9
:10078000004003F067F9044620B145211C4806F0FB
:1007900099F9FEE769469DF8080000F035F8009BDE
:1007A000039D1D44019B1E8903F03CF9AF1901F024
:1007B00009FB01F0D9FA01F0F3FA84F30B8884F312
:1007C0000A88AB5983F3088884F31488BFF36F8FCA
:1007D000BFF36F8F7B68984745210A4806F072F98E
:1007E000FEE700BF008001503546526EFCFB000062
:1007F0000800002015FC000038FC000067FC000029
:100800008CFC0000BFFC0000024608B538B105486A
:100810000023452106F056F96FF0150008BD086069
:10082000FCE700BFE2FC000021B1012908D06FF015
:100830001500704748B10128054818BFFF207047D0
:10084000022834BF1420FF2070470D20704700BFDE
:10085000080000002DE9F04F864FDDB01446DDE9B9
:1008600068891D46DDF8A8B13E6801F047FA01220B
:10087000814B3CA8C3F8002504F064FCB8F1000FDC
:1008800007D0B9F1000F04DD4A4641463CA806F006
:1008900014F84FF0000823896289D4F80CA013449F
:1008A0009A44C24558D80FA93CA804F0BDFC0022C8
:1008B000714BC3F80025C3F80025BBF1000F04D02D
:1008C000202258460FA906F0A8F900232A460093D3
:1008D00021464FF6FF7309A805F017FD0390002885
:1008E0004BD128460E9C00F0ABF9844245D84FF01E
:1008F000FF34DFF88CB1DFF880910DF11E0307AAF9
:1009000008A909A805F04FFD002836DB40F0A880B3
:10091000BDF81EA0BAF1100F38D1BDF81C80B8F197
:10092000200F2AD14346284608993CAA06F0D8F859
:1009300018BB00F09BF9424682463CA90FA800F084
:1009400025F98046504600F0A1F94C4B1B68434501
:1009500013D101230393D0E7679BAAEB08099945BC
:1009600028BF994641464B462846669A06F0B8F895
:1009700028B10022404BC3F800253E6873E04A4688
:1009800066993CA805F099FFC8448AE7BAF1010FBF
:100990003FD1BDF81C30202BEFD8284608993CAA3F
:1009A00006F09EF804460028E7D19DF81C30202B65
:1009B00004930AD8DBF80030DFF8C8800593059B64
:1009C0009C4205DB0023C9F800354FF0FF3494E763
:1009D00001F094F9C9F800A51FA804F0B3FBD8F8FA
:1009E00004201FA8126858F8081B05F066FF17A915
:1009F0001FA804F019FC0022C9F80025049A3CA99C
:100A000017A806F0FAF810B9C9F8000575E701341F
:100A1000D5E7BAF1220F7FF470AF631C3FF46DAFDE
:100A2000DBF80030A342D0DDBDF81C30802BA4D809
:100A3000284608993CAA06F053F800289DD100F0FA
:100A400015F9E4B280462021BDF81C303CAA009480
:100A50000FA800F019F80646404600F017F9B4E771
:100A6000039B002B89D000F009F930465DB0BDE84A
:100A7000F08F00BF04000020000084500800002018
:100A8000C8F70000CCF700002DE9F04796B01646F5
:100A90001D469DF87820384B074653F8321003EB7B
:100AA000C2035B6801911868DFF8DC8001443023E1
:100AB00002AA01A8D8F8009005F08DFE002851D1B7
:100AC000DDE901431C44214606AB03AA01A805F059
:100AD000AAFE002846D1049A072A43D1274905983F
:100AE00006F08BF800283DD1079A082A3AD124490C
:100AF000089806F082F8A8BB214602AA01A805F0D2
:100B00007EFE78BBDDE901A30AEB0302944229D102
:100B1000412B27D135443023294603AA02A8029647
:100B200005F059FEE0B9DDE9023213449D4217D3C6
:100B30002A4602A906A805F082FC88B92A4602A91D
:100B40000EA805F07CFC58B99AF80030042B07D1A8
:100B50002023384606AA0AF1010101F0E7F838B16E
:100B6000D8F8009000F08AF8484616B0BDE8F08743
:100B7000044BD3F80090F5E7CCF7000011FD00001E
:100B800008FD0000080000200400002070B5094B9B
:100B900004461D680023934205D1074B1D6800F0F1
:100BA0006DF8284670BDE65CC85C8642F7D101331B
:100BB000F1E700BF04000020080000200B7868B1B6
:100BC000012806D0FF2B14BF4FF0FF304FF4C07048
:100BD0007047054A934203D0142BF4E70D2BFAE734
:100BE0004FF4C070704700BF080000001FB50C46EE
:100BF000A8B1012815D11048C0B2214601F08CFCE3
:100C000050B92068102381686A46103905F068FFE2
:100C100048B1206805F063FF4FF0FF300AE00D2077
:100C2000EBE7FF20E9E710226846044905F0E5FFFD
:100C30000028EED104B010BD08000000ECFB00005D
:100C400013B5044605F02CFC6A460146204605F023
:100C500042FB30B10448452105F034FF002002B0CA
:100C600010BD0098FBE700BF19FD0000024B18689B
:100C7000421C1A60704700BFD8010020024A136866
:100C8000013B1360704700BFD8010020034B1B6875
:100C9000834201D005F02CBC704700BFD801002072
:100CA0000346802213B5084693F8B8100192C1B1EB
:100CB000012903D0FF2804D0012010E00F4A904200
:100CC00011D1582404FB013204FB0133526A03F1B1
:100CD000280401A901F048FC08B9019B236002B077
:100CE00010BD0D28ECE71428E6D1582404FB01328E
:100CF00004FB0133126D03F15404EAE7080000001D
:100D000038B590F8B8300446F3B1012B06D0FF2176
:100D1000FFF7C6FFD0B10125284638BD0D49FFF7C2
:100D2000BFFF0028F7D114212046FFF7B9FF054681
:100D300070B9582294F8B83002FB0343186A05F0E2
:100D40000FFFC4F8B400E7E70D21E8E7FF21EBE768
:100D50000925E1E7080000002DE9F04F4A4B8DB06E
:100D6000044690F8B8000D461E68FFF75DFD0AA91D
:100D7000C0B201F0D1FB28B1FFF780FF30460DB0C3
:100D8000BDE8F08F94F8B8B029465846FFF74CFDFF
:100D90004FF02C080BA9C0B208FB05F801F0BCFB12
:100DA00000284ED04FF0580A2C230AFB0BF703FB08
:100DB000057704EB0709D9F8106016F0100655D135
:100DC000FFF754FF0A9B94F8B81006900993089116
:100DD000FFF74CFF07904FF480701AFB0B820190D5
:100DE0002A48CDE90366099B08990296009022449F
:100DF0003046FFF72FFD06460798FFF747FFFFF73E
:100E00003DFF0698FFF742FF214BE2590A989A42AC
:100E10000CD1D9F80C20B9F808309B1806D282689A
:100E2000934203D21B4B1B68B34226D04DB382685A
:100E3000002105F07FFE184A4521184805F042FEC2
:100E400019E00B9805F093FE06460B9805F047FE57
:100E5000582394F8B82013FB028323445A1E03330B
:100E600012F8011FB1429DD19A42F9D11DB120461D
:100E70000A9905F0D8FB0A4B1E680A9805F02FFE68
:100E80007AE7084AD8E700BF04000020481700208E
:100E90003DB8F396080000205CFD000066FD0000F0
:100EA0000000002054FD00007FB50D4600210446DF
:100EB00090F8B8202846CDE9021105F0A5FB60B3F3
:100EC00058235A431C4EA358B34203D1204603AAC9
:100ED00005F042FB582294F8B83002FB0343DB6A6A
:100EE000B34204D10121204602AA05F035FBDDE919
:100EF0000232934288BF0393039BAB60039A294657
:100F0000204600F0D5FD0D4B1A68002A03DD57215D
:100F10000B4805F0D7FD04B070BD104601A9FFF7DE
:100F200065FE019805F1080105F0C5FAAB68019866
:100F3000039305F0D4FDE1E73DB8F3969816002041
:100F40008EFD00007FB590F8B83006460D468BB395
:100F5000012B1A4818BFFF2001A9C0B201F0DCFA2A
:100F600050BB019805F09CFAD6F8B4100446284608
:100F700005F0D0FB0444019805F0F2FD0646019807
:100F800005F0F5FD082201460DEB020005F050FECC
:100F90002B7921468DF808300198334602AA05F0D6
:100FA000B4FD041E019818BF012405F098FD2046E9
:100FB00004B070BD0D20CFE70124F8E70800000061
:100FC0002DE9F84F884691469A460026DFF870B022
:100FD000194C1A4D0B9B9E4201D300200FE00B9B36
:100FE00040469F1BB7F5806F28BF4FF48067144AB7
:100FF0003B4606EB0A0105F073FD10B10120BDE888
:10100000F88F0A993B465A464846711805F07DFD0F
:101010000028F3D1C4F800563E44C4F80456C4F87E
:101020000856C4F80C56C4F81056C4F81456C4F840
:101030001856C4F81C56CDE7008001503546526E54
:10104000DC1100202DE9F04F4FF0000A04460E4657
:10105000574693B0BAF1010F84F8B8A006D9002F13
:1010600000F0E08100202C25582758E104EB0A020B
:1010700092F8B950002D49D14FF058094FF02C0B80
:1010800009FB0A42A84B03EB8A21A84B516203EBF0
:101090008A21116529465046FFF7C6FB202394F8A4
:1010A000B810804619FB01310BFB0511C0B2214479
:1010B00001F032FA48B1534642464521CDE900508D
:1010C0009B4805F0FFFC05F013FA4FF001087DB1D5
:1010D0002046FFF715FE054660B90022204611465E
:1010E00005F019FAC0B1572194F8B820914823E0CF
:1010F0004546CFE7802257218F4805F0E3FC94F85E
:10110000B830012D234483F8B080E6D194F8B8308C
:1011100001335FFA83FA9DE7204605F00EFB68B1C4
:1011200008A805F068FA0146204600F0A1FA60B16F
:10113000572194F8B820814805F0C4FC012294F8A6
:10114000B830234483F8B020E0E708A805F05CFA43
:1011500080F0010108AA2046C9B205F0DCF9024678
:101160000028C0D108A805F04FFA054600284CD148
:1011700094F8B8305BBB204608A9FFF795FE94F8B9
:10118000B8009DF82730221882F8B030033B012BBD
:1011900008D800F0D1FA28B1FF2294F8B8302344DF
:1011A00083F8B0209DF8273094F8B800023B022B5A
:1011B0001ED800F0A5FAD8B1FF2294F8B830234425
:1011C00083F8B02045215E4805F07CFCFEE794F8EA
:1011D000B020042A04BF012284F8B020012BCAD019
:1011E00094F8B130042BC6D1012384F8B130C2E7A2
:1011F00094F8B830234493F8B030FF2BE2D00021AC
:10120000204608AA05F087F998E79DF82730012BBA
:1012100066D1582194F8B830059201FB0343494A3E
:10122000D96AD86C91423FD1998E042305AA1944FA
:1012300005F056FC014608B34FF0050994F8B830A4
:10124000234483F8B09094F8B83073B1E21892F860
:10125000B020012A3FF45AAF042A0DD094F8B020F0
:10126000042A02D1012284F8B020234493F8B0303C
:10127000023B022B3FF64AAF2F4647E794F8B800EF
:10128000FFF7D2FA0CA9C0B201F046F90028D3D179
:101290000C99059A4B68934203D889680B449A428B
:1012A00002D94FF00109C9E794F8B80002F0B6FC82
:1012B000831E022B8146C1D8FFF7D8FC012180464E
:1012C0002046FFF749FD82464046FFF7DFFC1E4BF4
:1012D0001B689A45B2D01D4B1B689A45ACD1E0E71C
:1012E000FFF7C4FC012180462046FFF735FD81460B
:1012F0004046FFF7CBFC144B1B68994518BF0522ED
:1013000094F8B83008BF9DF82720234483F8B02014
:1013100099E7231893F8B920D2B10130C0B201285F
:1013200084F8B800F5D97DE0DC090020DC0100205C
:10133000BDFD00004CFE00000AFE000078FE00002B
:10134000A2FE00003DB8F396080000200000002037
:1013500093F8B08008F0FB08B8F1010818BF4FF00F
:1013600001084146FFF760FA03A9C0B201F0D4F8C2
:10137000002840F08B80012305FB08F894F8B81092
:10138000039A17FB01810093214440230CA804F029
:10139000BCFF804600287BD100230DF10A0204A97E
:1013A0000CA805F000F800283CDB03987DD1BDF8BF
:1013B0000A300C2B77D1049905AA05F091FB00287F
:1013C0007CD19DF81430012B7BD8E21892F8B02024
:1013D0007B43023A022A8CBF0022012205FB023322
:1013E0002344197D9DF818209142D5D80AD3597D00
:1013F0009DF819209142CFD804D3DA8ABDF81A306B
:101400009A42C9D294F8B8300398234493F8B02094
:10141000012A39D0023A012A02D8012283F8B020E9
:1014200005F05DFB0022FF25012A84F8B8204BD986
:1014300000237E4DDFF800827D4F0C93012B84F852
:10144000B83040F28A800C9B022B01D005F050F896
:1014500094F8B930002B40F0CC80582505FB0342AE
:1014600084F8B830106A04F034FF307194F8B83062
:1014700005FB03431B6A5B68B36094F8B83003FB59
:1014800005453560694B84E00422C7E70398C7E748
:10149000039805F024FBB8F1030FC3D140F2011308
:1014A000A4F8B030BEE74FF00308039805F017FB2F
:1014B000B8F1000FEFD194F8B8002EE74FF0010813
:1014C000F3E74FF00708F0E7A11891F8B930002BC7
:1014D0003ED108A805F08FF891F8B030042B8DF8B4
:1014E000273005D8012B09D825D081F8B05022E04B
:1014F000052BFAD1104600F01FF912E0204608A98A
:10150000FFF7D2FC94F8B800231893F8B030DA1E35
:10151000012A0ED800F010F920B994F8B80000F0B4
:10152000EFF840B1FF2294F8B830234483F8B0209C
:1015300001E0022BF1D094F8B830234493F8B03096
:10154000FF2B05D145213B4805F0BCFA04F0D0FF44
:1015500094F8B8200132D2B266E7234493F8B92058
:101560008DF814209DF8141001F0FF0239B10C9B86
:1015700001330C9394F8B8300133DBB25EE793F893
:10158000B030012B07D01146204604F0C4FF10B143
:10159000294B1D681AE094F8B830012BE7D0FFF70B
:1015A00065FB002182462046FFF7D6FB8146504668
:1015B000FFF76CFB2B68994506D1D8F800309945A8
:1015C00002D03B689945D2D1D8F8005010220021B2
:1015D00008A805F02DFB58260023012B84F8B8300D
:1015E0000FD9FFF74BFB284613B0BDE8F08F01235E
:1015F00033E794F8BA30002BF9D0022384F8B830DE
:1016000040E7E21892F8B9205AB906FB0343D86CB8
:1016100005F065FA94F8B83006FB0343186A05F044
:101620005EFA94F8B8300133DBB2D6E70800002048
:1016300000000020A2FE00000400002070B50B4E48
:101640000446BC220021304605F0F2FAFFF70EFBFB
:10165000214605463046FFF7F5FC04462846FFF7CD
:1016600015FBFFF70BFB204670BD00BFDC1500200B
:1016700073B50D46064600F05BF90446E86090B38A
:10168000022837D196F8B83083B3012B1B4818BF16
:10169000FF2001A9C0B200F03FFF68BB2A463146D7
:1016A000019800F0DFF80446D0B9019805F012FD6A
:1016B000012301460DF10302019805F011FA0446D9
:1016C000B0B9012201980DF1030105F017FD10B129
:1016D00001238DF803309DF8033003F00F03EB7105
:1016E000019805F0FCF9204602B070BD0D20D0E74E
:1016F0000124F5E70724F6E70124F4E708000000D9
:1017000013B588B1012811D10A48C0B201A900F06F
:1017100003FF68B9019805F088FD0446019805F0BB
:10172000DEF9204602B010BD0D20EFE7FF20EDE707
:101730000124F6E7080000001FB5D8B101281BD12D
:101740001048C0B201A900F0E7FEC8B9019802A98B
:1017500002F00EFA044688B99DF80B30032B03D132
:10176000019805F030FD0446019805F0B8F92046CF
:1017700004B010BD0D20E5E7FF20E3E70124F3E707
:101780000124F4E7080000002DE9F74306460C4663
:1017900090461D460BB900272FE0184604F034FF91
:1017A0000028F8D1694696F8B800FFF71FFA0098AC
:1017B00038B90124009805F092F9204603B0BDE83D
:1017C000F08301A904F077FE0028F2D1009805F01B
:1017D00086F93046019904F08EFF582296F8B83009
:1017E00002FB03635B6A5F686B79012B23D1002CDA
:1017F000D1D12B68834298BF0027214696F8B800C4
:10180000FFF712F86946C0B200F086FE0028D0D17A
:10181000202342463946009805F062F90446002824
:10182000C7D1002DC6D0D8F800400D4BE41A18BF20
:101830004FF0FF34BEE7022BADD12B68012B05D949
:101840008342A8D8B4FA84F46409A4E7A3D1002C95
:10185000D3D0012C9FD12C79023C18BF01249AE7E8
:101860003DB8F3962DE9F04F0C460746014685B08A
:1018700094F8B8001646FFF7A1F9051E51DB38466B
:10188000D4F8B44004F00CFE5FFA84F94FF0000A7B
:101890004FF0010B4FF0FF346B1E09FB03089DB99D
:1018A000BAF1010F03DD4521204805F00BF9631C57
:1018B00006D07F2C2ADC40F2011301343460B3805F
:1018C000284605B0BDE8F08F6B1E0093414601230A
:1018D00038460DF10F0205F003F9031E019322DBD8
:1018E000012238460DF10F0105F008FC019B40B1C3
:1018F0005B4501D00AF1010A9B46009DA8EB09084F
:10190000CDE7B4F1FF3F08BF2C46F5E70223803C4A
:101910007371631004F001040133013433603471D6
:10192000CEE70725CCE70125CAE700BFAEFE0000E1
:1019300010B590F8B84088B0002C4ED0012C2D483E
:1019400018BFFF2004A905F04BFC9DF81020012AC8
:1019500045D0294B2949032A08BF0B469DF813207F
:10196000274802929DF81220492101929DF81120EA
:101970000092244A05F0A6F8012C8CBFFF20142009
:1019800006A905F02DFC9DF81820012A29D01A4B34
:101990001A49032A08BF0B469DF81B2049210292D1
:1019A0009DF81A20164801929DF819200092164AB7
:1019B00005F088F89DF81030012B14D19DF81230F5
:1019C000032B10D19DF81830012B0CD00F48492162
:1019D00005F078F8022008B010BD0D20B2E70C4BDE
:1019E000BCE70B4BD8E70B48492105F06BF800200A
:1019F000F1E700BF08000000D1FE0000DAFE0000A1
:101A0000EEFE0000E0FE00002FFF00003FFF0000A0
:101A1000D5FE00005EFF000070B54B6814461E4AFC
:101A200003F0FF23934206460D4686B02FD10B6884
:101A3000012B2CD1204604A902F09AF89DF8102021
:101A4000012A26D0154B1649032A08BF0B469DF8DC
:101A50001320492102929DF81220124801929DF80C
:101A600011200092104A05F02DF89DF81030032B3C
:101A70000DD12146304604F0D6FD204605F0A3FBEB
:101A80002046A96804F025FD204602F051F806B072
:101A900070BD064BDBE700BF00010004D1FE000073
:101AA000DAFE0000EEFE00002FFF0000D5FE000071
:101AB0002DE9F04F04461646582789B00D46854853
:101AC000492104F0FFFF3146204604F014FE94F84B
:101AD000B830834607FB03435B6A28465E6804F020
:101AE00093FD10B3D4F8B40004F0D5FC94F8B830EA
:101AF00007FB03439F6A0023013F3344834201D223
:101B0000013FFAE7BB4510D35721734804F0DAFFD1
:101B100007FB06F357210BFB0662704804F0D2FF67
:101B20000123EB7109B0BDE8F08F94F8B83006A935
:101B3000D3B1012B12D0FF2000F0EEFCFF2007A94B
:101B400000F0EAFC29462046079AFFF765FF6B790B
:101B5000012B58D15F46DFF88CA14EE06048C0B23F
:101B600000F0DAFC1420EAE70D20F9E72A68C2F158
:101B700001035B449F423FD8582194F8B830012AB2
:101B800001FB03435B6A196853F8370003EBC70393
:101B900053F8083CA0EB0109A3EB0103049311D116
:101BA000079B0393EB68022B08D04146204604F0C4
:101BB0003AFD2A464146204604F079FD2046039925
:101BC00004F031FD32464946404604F02AFD049BAC
:101BD000424641462046CDE90096FFF7F1F92946F5
:101BE0002046FFF7AFF92B6801332B6020B1DAF8FC
:101BF00000300133CAF80030013FDDF81880002FB3
:101C0000B4D101232B60022301276B71BB45DDF8A2
:101C1000189006D2484604F062FF079804F05FFF70
:101C200080E72B689F4252D3582394F8B820DDF800
:101C30001CA003FB0242516AFB0051F83700126DF1
:101C400004900868083BC9580390D0581368A0EB6B
:101C500003082B79012B38D1039B3246C91A484619
:101C6000059104F0DEFC059943464A460091204662
:101C700051460196FFF7A4F929462046FFF762F97D
:101C800002232B7118B1174A1368013313603246CF
:101C90004146504604F0C5FCDDE9032349469B1A42
:101CA00020465246CDE90086FFF78AF929462046AC
:101CB000FFF748F92B6801332B6001232B7130B1FA
:101CC000084A13680133136001E0022BDFD00137AB
:101CD0009CE700BF75FF00009EFF0000CDFF0000E5
:101CE00008000000981600200A4619B1024B002196
:101CF0001B681847704700BF0C00002070B5094DE5
:101D00002B780BB1002070BD0126074CC4F800658C
:101D100003F0BAFA18B92E70C4F80005F2E74FF0D4
:101D2000FF30F0E748180020000084502DE9F04112
:101D3000ACB01F4606460C461546FFF7DFFF0123F1
:101D4000DFF820802A46C8F8003521463346009740
:101D500003A805F087FB0023C8F800352CB0BDE8C8
:101D6000F08100BF00008450BFF36F8F72B6002374
:101D70004FF0FF30094A03F120010133102B42F8E4
:101D80002100F8D100234FF0FF30044A03F1600135
:101D90000133102B42F82100F8D1704700E100E038
:101DA000002318460649D1F89020C2F30722934237
:101DB00000DB7047C1F89830C1F8A0000133F6E7A6
:101DC00000ED00E038B501224FF0FF3400251A4B3A
:101DD00029465A60C3F84843C3F8084303F58053C3
:101DE0005A60C3F84843C3F80843A3F55043C3F807
:101DF00000558022C3F80843104804F019FF8022E0
:101E000029460F4804F014FF0E4B8022C3F80055FA
:101E10002946C3F808430C4804F00AFF80222946EB
:101E20000A4804F005FF0A4BC3F808454FF0502359
:101E3000C3F8084338BD00BF004001508080005007
:101E400080810050009000508090005080910050A0
:101E500000700150014B1B68184700BF10000020A4
:101E6000014B1860704700BF1000002007B50B46FB
:101E7000002102460091034800F014F903B05DF818
:101E800004FB00BF559E00002DE9F047058B04467A
:101E90002807904611D4022905F0070540F0CD80AF
:101EA000204604F034FD78B10138218B042811D884
:101EB000DFE800F0C3106D85950001290CBF45F0E7
:101EC000100545F02005258388F31188BFF36F8F37
:101ED000BDE8F08701F0070AAA4500F0A6800027B8
:101EE000B9463E46A368002B00F0BD8041F00801D2
:101EF000218388F31188BFF36F8FA168002900F058
:101F0000BB800D68002900F0B7803346524620465A
:101F1000D1F80480C047002D76D02B6829461D4695
:101F2000F0E701F007035A1F012A1BD8002221F015
:101F30000701062B276889B2C4E9002209D13B4674
:101F400003E0628B013262831B68002BF9D141F000
:101F500002012046218304F0DAFC00287BD041F006
:101F6000200177E0042B0AD121F0070189B2204635
:101F7000218304F0CCFC10B141F020012183218B9E
:101F800001F0070AAA4550D00027B946AAE72369FD
:101F900021F0070141F00601062DD3F800902183BE
:101FA0002DD1B9F1000F40D041F00801218388F311
:101FB0001188BFF36F8F20463949C84729E021F0C7
:101FC0000701236941F0040189B2042DD3F804907C
:101FD0002183E6D000274FF0040A3E4682E721F035
:101FE0000701236941F0050189B2052DD3F8089056
:101FF0002183D6D000274FF0050A3E4672E700271E
:102000004FF0060A3E466DE72B4687E7B9F1000F11
:10201000D1D14FF02003EFF3118883F31288BFF37F
:102020006F8F238B23F008032383258BEA062ED59D
:1020300025F01003238305F007056669218B002E28
:10204000BFF66FAF00232768C4E9003321F0070112
:1020500041F001012183218B4FF0000901F0070AB3
:10206000AA457FF43FAF002F9BD041F008012183A8
:1020700088F31188BFF36F8F002FC7D03D683946B2
:1020800033465246204604F06EFC2F46F4E7AB067A
:102090007FF51AAF25F02003238305F00705FFE63F
:1020A00093E900002DE9F04F82464FF000098DB012
:1020B0001D46531E01910393039B58785C1C2528F1
:1020C00019D100204FF0FF381E4644460346023621
:1020D000029031780396392955D81F2914D8002940
:1020E00000F0EF8101992520D04701993078D04741
:1020F00009F10209E0E7002800F0E3810199D047E7
:1021000009F101090394D7E7A1F12002192AE9D8BE
:1021100001A757F822F000BF81A10000E5A0000050
:10212000E5A0000081A10000E5A0000001A20000E0
:10213000E5A00000E5A00000E5A00000E5A000008B
:102140004DA2000081A10000E5A0000061A20000F6
:102150000DA20000E5A000001BA200003BA20000B1
:102160003BA200003BA200003BA200003BA20000FB
:102170003BA200003BA200003BA200003BA20000EB
:1021800008460136A5E7582900F0EB80A1F163026B
:10219000D7B2172FA6D8172AA4D801A757F822F02C
:1021A00009A4000087A20000E5A00000E5A000004F
:1021B000E5A0000067A2000087A20000E5A00000E3
:1021C000E5A0000067A20000E5A00000E5A0000077
:1021D000E5A000003DA30000E5A00000E5A0000090
:1021E000DDA30000E5A0000087A20000E5A000003C
:1021F000E5A000003DA30000E5A0000067A20000EC
:1022000025200199D04709F1010955E7029A4FF0BD
:10221000000802F0FE020292B3E7002C0DDAB8F1DA
:10222000000F0DDA029A002A00F043810A2224EA04
:10223000E47402FB0414303CA3E7B8F1000FF5DBB3
:102240000A2202FB0812A2F130089AE7B8F1000F47
:1022500055F8042B80F22F81002A80F22E815442FF
:10226000022202928DE7682903D1682B06D1482308
:1022700087E76C2902D16C2B00F02181002B7FF4C1
:1022800031AF0B467DE77A2B06D1752955F8046BE3
:1022900014D14FF0000B0CE06C2BF6D04C2BF4D18A
:1022A000073525F00703752903F10805D3E9006B0D
:1022B00006D120283BD1854F013C09E04FEAE67B5F
:1022C000BBF1000FF5DA7642814F6BEB4B0B013C13
:1022D0000DF12D03059300230493304659460A223D
:1022E0000023FEF7ABF8059BB446303203F8012D0E
:1022F0005A460593049BBCF10A0F8B4672F100020B
:1023000003F1FF3106460491E7D2C3F1010B3033EC
:102310000DEB0306B8F1000FA6F104066DDA029B7F
:10232000D9077DD4A8EB0B03A4EB0B0413E02B28F7
:102330000ABF684F684F04F1FF34C9E770290FD115
:1023400055F8042B0023FAB96FF004034FF0050B86
:10235000614F624E053C029A920770D4A04666E037
:1023600078216C2B03D1002355F8042B08E04C2B6B
:10237000F9D1073525F007031D465B6855F8082B92
:10238000232825D1880621D5554F023C002601F08F
:102390006001A1F1390B0DF12D0E02F00F01092999
:1023A00088BF594430310EF8011D102A4FEA12112E
:1023B00041EA03714FEA131C73F1000306F1FF3089
:1023C00008D2C6F1010B06F13003A1E7454FDCE767
:1023D000414FDBE706460A466346DEE755F8046BE5
:1023E000304604F003FCB8F1000F834602DB4045A1
:1023F000A8BFC3464FF00008374FA8EB0B03002BD4
:1024000092DDA4EB0804A6E755F8043B4FF0010B5E
:102410008DF81830304F4FF0FF33013C06AE9AE78D
:10242000A046EAE7029320200199D047029BB8F129
:102430000108F7D524EAE472013C9144A41AB84695
:1024400006E0049302920199D047029A049B9046B9
:10245000424612F8010B0028F3D11A46013A15D56D
:10246000002BACBFC7EB03077F425B46013B15D592
:10247000BBF1000FA8BF5F4426464F44013E14D570
:10248000002CA8BF3F1907EB080915E60493029238
:1024900030200199D047049B029ADFE7029301990B
:1024A00016F8010BD047029BE0E701992020D047A6
:1024B000E4E70122D5E6904663E6144661E64C2344
:1024C0005FE648460DB0BDE8F08F00BF5B0001003D
:1024D000590001005D000100450101006500010097
:1024E0005F00010062000100044608B54FF02002C1
:1024F000EFF3118382F31288BFF36F8F01F092FA2A
:10250000204600F0DFF9034804F0F4F900F0B8FACF
:10251000FCE700BF6B00010070B5114B0D461C6855
:10252000DCB1104B196800238B4202DB6FF0010015
:1025300070BD224612F8106B864202D01446013359
:10254000F2E7E06810B96FF01200F1E704F065FF00
:102550000028F8D000202C60EAE76FF00C00E7E7D5
:1025600014000020D8F7000070B588B005460C466E
:10257000C0B269461646FFF7CFFF00281BDB009864
:10258000C8B143682268029383680195CDE9033698
:102590000023CDE906230593C56804F0A0FA6DB1C8
:1025A0002846084901AA04F061FC079808B9059B70
:1025B000236008B070BD6FF01500FAE76FF01200ED
:1025C000F7E700BF7DEB0000014802F00DBB00BF44
:1025D0004CF9000030BFFFF7FDBF00BF704700BFE0
:1025E000154B9A6A12F0007F9A6A14BF1E201D20B4
:1025F00012F0807F9A6A18BF1F2012F4801F9A6A17
:1026000018BF022012F4002F9A6A18BF212012F47A
:10261000802F9A6A18BF222012F4003F9A6A18BFCE
:10262000232012F4803F9A6A18BF24206FEA0242E6
:102630006FEA12429A62704700ED00E010B5194B44
:102640000246986A9C6A10F4805F14BF1720162017
:1026500014F4006F9C6A18BF1820A40509D5986B64
:10266000986A000404D51AB19A6A22F400429A6268
:1026700019200C4B9A6A12F4806F9A6A18BF1A20BC
:10268000D2050CD49B6A13F4005F18BF1C20054AC6
:10269000936A43F47F43936200230B7010BD1B20A9
:1026A000F5E700BF00ED00E010B51C4B0246986A4C
:1026B0009C6A10F0100F14BF1120102014F0080FA6
:1026C0009C6A18BF1220A40709D5586B986A0006A7
:1026D00004D51AB19A6A22F080029A6213200F4B35
:1026E0009A6A12F0010F9A6A18BF142012F0200F94
:1026F0009A6A18BF1520D40658BF9B6A074B9A6A7E
:10270000920642BF5A6A22F400525A629A6A42F012
:10271000FF029A6200230B7010BD00BF00ED00E0C5
:1027200070B5444B06465B6800258AB0C3F30803C6
:1027300085F31188BFF36F8F02F07F40B0F17F4FB8
:1027400011D102F00C0008280DD010074CBF0E4626
:1027500001250022033B8DF80720032B05D8DFE875
:1027600003F01E5C60592E46F3E700249DF8073005
:102770009BB92022314602A804F04FFA099B002D94
:1027800053D0C3F3080222B96FEA53236FEA4323FD
:102790000993204602A904F018FA0AB070BD254B2F
:1027A000DA6A9107E1D4DA6A002ADEDBDA6A5200DB
:1027B000DBD55A69B16942F480725A61BFF34F8F19
:1027C000BFF36F8F5A6931F8021C22F480725A618C
:1027D000BFF34F8FBFF36F8F4DF60272914209D056
:1027E0009A6AD2B242B101200DF10701FFF75CFFF6
:1027F0000446BBE73468B9E79A6A12F47F4F05D004
:1028000001200DF10701FFF719FFF1E79B6AB3F50E
:10281000803FAAD3FFF7E4FEEAE700200DF10701AD
:10282000E4E700200DF10701EDE723F4FF7323F047
:102830000103ADE700ED00E0044B5A6942F01002DD
:102840005A615A6942F480625A61704700ED00E0B3
:10285000EFF30880EFF3098101B57246FFF760FFDF
:1028600001BD00BF002080F31488BFF36F8F0020EC
:1028700080F30A8880F30B8800F054F900200E4999
:102880000860BFF34F8F0D4880F3088800F02CF8E4
:10289000202080F311880A484FF40061401880F32B
:1028A0000988EFF314800221084380F31488BFF3F2
:1028B0006F8F00F091F8000094ED00E05048002088
:1028C00050180020BFF34F8F0549064BCA6802F429
:1028D000E0621343CB60BFF34F8F00BFFDE700BF43
:1028E00000ED00E00400FA0572B6002383F31388BC
:1028F0004FF0FF300C4A03F120010133102B42F856
:102900002100F8D100234FF0FF30074A03F16001A6
:102910000133102B42F82100F8D162B6BFF34F8F7C
:10292000BFF36F8F704700BF00E100E01EF0040F9F
:102930000CBFEFF30880EFF30980816911F8021CE6
:102940000229FFD001B504F042F901BD40B20028D0
:1029500007DB01234109034A00F01F00834042F8CE
:102960002130704700E100E040B200280CDB01227A
:102970000649430900F01F008240203341F823201C
:10298000BFF34F8FBFF36F8F704700BF00E100E0D0
:10299000054B420953F82220012300F01F0003FADF
:1029A00000F01040704700BF00E100E040B2002896
:1029B00001F10101ACBF00F16040064B4FEA41114B
:1029C000C9B2ABBF00F5614000F00F0080F8001302
:1029D0001954704714ED00E0144A08B5144B22F066
:1029E0007F029A60BFF34F8FBFF36F8FD3F88820B9
:1029F00022F47002C3F88820D3F8882042F4A002A1
:102A0000C3F888204FF04042C3F83422BFF34F8F01
:102A1000BFF36F8F0023E1EE103A01F08BFF01F05E
:102A2000CDFF00F047F801F091FF00BF00820000E9
:102A300000ED00E00446084611461A460023E1EE88
:102A4000103A83F30B880A4B2025A3F5205686F312
:102A50000B8883F3098863B64FF0000383F3118872
:102A6000BFF36F8FA04785F31188BFF36F8FFEE729
:102A700050480020014910220A60704710ED00E024
:102A800072B6404080F31188BFF36F8FBFF34F8F52
:102A900030BF62B6BFF36F8F704700BF72B6494058
:102AA00081F31188BFF34F8F20BF80F3118862B686
:102AB000704700BF002320210348C2180133412B77
:102AC00082F80013F9D1704700E100E001B5EFF39F
:102AD0000580A0F110004FEAC0000449014409C973
:102AE0009847BDE8014002490847000080F5000012
:102AF000DDA50000014B1860704700BF18000020E2
:102B00000122024B0020C3F840257047009003507B
:102B100020B1034B800143F001031847704700BF09
:102B2000C0F7000001F042B9084B70B5C31A0D465A
:102B300007499B10044659434022064804F0A0F878
:102B40002B4601462046BDE870401847B0160020CD
:102B5000B76DDBB61CF50000402373B50B4C00933A
:102B6000041B0B460D460A49A41061430646094A58
:102B7000094804F0B1F8011E05DA30462B4602B0D0
:102B8000BDE87040184702B070BD00BFB01600200D
:102B9000B76DDBB649ED00001CF5000010B54FF035
:102BA0002003EFF3118483F31288BFF36F8F074A7A
:102BB000136823F00201DB07116002D4012004F046
:102BC000C0FB84F31188BFF36F8F10BD0017002086
:102BD00070B50022012104460520FFF7E7FE0F48EB
:102BE00001F00EFA0E4B984215D101F019FA266940
:102BF0000C49304603F0DCFE00280BDB0125356470
:102C00002469084904F11C0003F0D2FE002801DB0E
:102C10000020E56470BD6FF00400FBE75DAC0000D0
:102C20000000AD0B54F9000001460C2300224B4379
:102C300070B50848C41840331844D4E90E56A2634E
:102C400004F00BF82DB132462B46BDE87040024827
:102C5000184770BDB01600201CF5000010B1012807
:102C600004D07047034B1B6C5B0701D1FFF7DCBF3F
:102C7000704700BFB016002008B54FF02003EFF3F7
:102C8000118183F31288BFF36F8F124A136843F0E8
:102C900002001060DA0708D481F31188BFF36F8F48
:102CA000BDE80840012001F0CFB94FF05023D3F820
:102CB0000C24D3F80C34DB07EED5074803F0CDFF26
:102CC00081F31188BFF36F8FBDE808400020FFF744
:102CD000ABBF00BF00170020F01600202DE9F8431D
:102CE000012207463449D1E8EF3FC1E8E02F002830
:102CF000F9D133B9314932484B60CB608A6003F077
:102D00006AFE7B1E012B2DD8012F07D14FF05023D7
:102D1000D3F81C3403F00303022B23D004F09CFBF4
:102D2000054608BB274B1B78F3B14FF05023022216
:102D30000646C3F808234FF050244FF00008DFF890
:102D40008890D4F81824D4F81834D20316D503F098
:102D50000303022B01D0012F10D13DB386F311885C
:102D6000BFF36F8FBDE8F8834FF02003EFF31186B8
:102D700083F31288BFF36F8F0125DCE73046FFF73E
:102D80008DFED4F81835DBB2012BDAD1D4F804214A
:102D9000002AD6D0C4F80481D4F804210222C4F851
:102DA00018252022C9F88021A360CAE74FF05023DC
:102DB0000222C3F80423D5E7AC1600209C1600209D
:102DC000CC1600204D18002000E100E008B50748AF
:102DD00004F023FB38B10648FFF78CFE0448FFF7E8
:102DE0003FF8002008BD6FF01200FBE758F5000027
:102DF000F5AD00000A2838B50446074D04D1AB688C
:102E00000D2128465B689847AB6803485B68E1B2D0
:102E10009847204638BD00BF58F50000024B0B60B4
:102E200001231360704700BF04170020004870475B
:102E3000A8F9000010B504F0E8FA034C206004F093
:102E4000E1FA6060002010BD04170020F8B50E46BE
:102E50001946304617461D4603F086FFB8B146EACC
:102E6000050414F0030412D14DB12B19032BA6EB6A
:102E7000040006D8074AD2F80034DB07FBD500204F
:102E8000F8BD3B1B196801F009FD043CEDE76FF04C
:102E90001500F5E70090035038B545682B69B3B1CC
:102EA0001035284601F0C2FB044680B90146284689
:102EB00001F086FB084B98420BD122462846074971
:102EC00001F066FB224605210D20FFF76FFD002073
:102ED00038BD6FF00400FBE70000AD0BE1AE000071
:102EE000430970B507D10B4B596821B101250C6816
:102EF000094E854001B970BD8A682A4002D030462B
:102F00004B6898471CB1236821461C46F2E72346CC
:102F1000FAE700BF0C17002030F500002DE9F04360
:102F200040F206354668D00648BF0320337B02EAEC
:102F3000050558BFC2F3401087B001F01F07B5F573
:102F4000837F144647EA43178DF8030041D00FD81A
:102F5000062D18D007D8B5B1022D3CD06FF0150062
:102F600007B0BDE8F083B5F5807FF7D101250AE011
:102F700040F20222954230D0B5F5407F2FD0B5F512
:102F8000007FEBD1022522032BD5012372688B40F1
:102F90009360326962BB07F01F037F0975D13D4A18
:102FA00084F4803102EB8302D2F80032C1F3004195
:102FB000C4F3404423F4E16344EA410423F00703EB
:102FC0001C4344EA800444EA0524C2F8004200207D
:102FD000C6E70725D7E70425D5E70525D3E7032569
:102FE000D1E7630341BF012372688B40D360D0E710
:102FF0001036394630460DF1020201F0CFFA14F4D2
:10300000403F80460CD13946304604F0F4F9224B5B
:103010009845DCD130469DF8021001F011FBD6E74F
:103020004FF0000901AB3946304603AACDE9043917
:10303000CDE90199CDF80C9001F084F9164B984236
:103040008CD114F4003315D09DF8033084F480340F
:10305000C4F300448DF80E3039464B46304603AA7F
:103060008DF80C508DF80D4001F01AFA0A4B984279
:10307000CDD073E7CDE9043339460DF10303304673
:1030800003AA039301F05EF9F0E7803352F823308E
:10309000FFDE00BF002584500000AD0BF0B5406896
:1030A00001F01F04057B87B044EA45140569002D33
:1030B0005FD0B2F5001F00F1100506D12146284669
:1030C00004F09BF9002007B0F0BD0027B2F5800F97
:1030D00001AE0197776037D1B3F1007F14BF0523AC
:1030E00004238DF804300023CDE90463039383683F
:1030F00023FA01F111F0010118D1B2F1A07F15D12D
:1031000004F01F03620903F1800338D11D4A52F80D
:103110002330DB070AD40DF1030632462146284648
:1031200001F03CFA184B984219D0029621462846E5
:1031300003AA01F007F9154B98421DD1012221463F
:10314000284601F089FABDE7B3F1C06F05D0B3F1AD
:10315000007F14BF01230223C3E70323C1E73146E5
:10316000284601F073FA094B9842DED06FF00B004D
:10317000A9E76FF08500A6E76FF01500A3E751F807
:103180002330FFDE002584500400AD0B0000AD0BA2
:103190002DE9F043594D5A4E5A4F00EB81018142BF
:1031A00002D10020BDE8F083046814F4805FC4F30A
:1031B000432C04F07F0340F08F807F2B4FEA1444B0
:1031C00008BF4FF0FF3315F80CC0192C00F28780B0
:1031D000DFE804F00D13191C1F251C858585853635
:1031E0006185858585858585858564797C7FC2F83F
:1031F0000C355C1C5CD10430D1E7C2F814355C1C82
:10320000F9D000245DE0C2F80835F2E7C2F81035C5
:10321000F5E75C1CC2F80835EDD0002404E05C1C26
:10322000C2F80C35E7D001245FEA531E5AD14FF0A3
:103230000108DFF8CCE008FA03F9CEF80C900AE0B8
:10324000C2F80835BCF1000FD9D15C1CD3D00024E2
:103250004FF0060CA046D0F8009009F4005EBEF1D5
:10326000000F1CBF4FF00008012403F01F0E5B0984
:103270003ED106EB8E0EDEF80032C9F3C1193B4099
:1032800043EA890343EA0C2343EA080343EA44037D
:10329000CEF80032AFE7C2F80C35D3E7C2F860359C
:1032A000B3F1FF3F0468A6D0C4F38034002CBAD039
:1032B0005C091AD10124DFF848E004FA03F8CEF8DB
:1032C0000880A046C7E7C2F86435E9E7C2F8683568
:1032D000E6E7C2F86C35E3E76FF0150062E76FF0E0
:1032E00085005FE70023DB60FFDE00239B60FBE7D8
:1032F00000230EF1800E53F82E30F5E7CE000100CA
:1033000000258450F0F8FCFFF8B504460D46076927
:1033100004F0A2F890B92C4B1B787BB1642660684E
:1033200003F04BFEE0B9012003F0A9FF013EF6D106
:10333000F4E786F31188BFF36F8FEFE74FF02003B8
:10334000EFF3118683F31288BFF36F8F6068314605
:1033500003F033FE90B986F31188BFF36F8FEDE76A
:103360004FF02003EFF3118683F31288BFF36F8FC2
:103370006068314603F021FE0028DAD03B691D70F9
:10338000626838691368C3F844050120C3F848052A
:103390000020C3F82001D3F82051C3F85801526827
:1033A000D3F85801D20608D5082062681268C2F81E
:1033B00000054FF48002C3F8042301229A6081F3D0
:1033C0001188BFF36F8FF8BD4D1800202DE9F7432A
:1033D0004FF00008476805693C680646C4F8008558
:1033E0002860D7F80C904146484601AA03F0B7FD83
:1033F00000283CDB019BD9F8002019791868FFF7F9
:10340000C7FE002833DB6B7A3169012B03D0032B15
:103410002BD14FF01008AB7A032B26D195F80BC0B7
:10342000BCF1000F02D0BCF1010F1ED12A7A12B1FB
:10343000022A1AD10E226B687068B3F5164F006825
:1034400000F0B28034D8B3F5165F00F0B0801AD81F
:10345000B3F5966F00F0AD800CD8B3F5967F00F011
:10346000AB80B3F5167F00F0AA806FF0850003B043
:10347000BDE8F083B3F5166F00F0A480B3F5965F56
:10348000F3D15C4B43E0B3F5E14F00F09E8008D8E8
:10349000B3F5615F00F09B80B3F5964FE5D1564BD5
:1034A00035E047F6122E7345DFD14FF400032EE0CE
:1034B000B3F5613F00F08D8015D8B3F5963F00F06D
:1034C0008B800AD84DF6C02E734500F08780B3F587
:1034D000614FCAD14FF46B0319E0B3F5E13FC4D19A
:1034E0004FF0EB7313E0B3F5612F7AD009D8DFF812
:1034F00020E1734578D0B3F5E12FB6D14FF0E86302
:1035000005E0DFF810E17345AFD14FF08053C0F80C
:103510002435736848EA0C081B6842EA0802C3F8BD
:103520006C250B1DD5E9010183E803007B68990731
:1035300012D505F1180000F011FE304B984256D11B
:10354000287E04F10C0204F5907103F09AFE01202C
:103550002B7E984000F04EFD0823C4F800353B7ADE
:1035600053B9C4F81031D4F810316B69C4F834354C
:103570000123C4F8383523607B6800209A075CBFBC
:103580004FF48073C4F804337B68DB0644BF4FF408
:103590008003C4F804332B69C4F844350123C4F80C
:1035A0004805A360E36062E74FF41D03AFE7144BE7
:1035B000ADE74FF49E23AAE74FF4A033A7E74FF4FB
:1035C0001C33A4E74FF41D23A1E70E4B9FE70E4BDE
:1035D0009DE74FF06C739AE70C4B98E74FF4650347
:1035E00095E74FF0706392E74FF080638FE76FF0DD
:1035F00004003CE700B0130000A04E000000AD0B3B
:103600000050270000C0750000F03A0000903A0119
:1036100090D0030040420F000123834070B5DC438B
:103620000B4AD2E8EF1F01EA0405C2E8E65F002E6C
:10363000F7D14FF4803282400648C0F80823BFF328
:103640005F8FBFF36F8F0B4214BF0120002070BD4E
:103650001C1700200050015070B40E4922F07F4624
:10366000D1E90034D01AC31844F10004C1E9003490
:10367000A6F50013B3F5400F09D2074B1B681A0AD1
:103680001B069C19054B42F10005C3E9004570BCBF
:1036900001F0F4B94001002020170020480100206B
:1036A000D9B101230D4A8340D2E8EFCF4CEA030C95
:1036B000C2E8E1CF0029F7D14FF48033084A8340B4
:1036C000C2F80433074BD3E8AF3FC340DB0742BF28
:1036D0004FF40012044BC3F8002170471C17002060
:1036E000005001501817002000E100E00D4B186851
:1036F000010A0006BFF35F8F0B4BD3F8043518188F
:1037000041F10001B3F5801F0AD2084BD3E9002331
:10371000904271EB030303D210F1807041F100017C
:10372000704700BF201700200050015048010020C2
:103730002DE9F04F85B016461F4604469DF840A07F
:10374000FFF76AFF0190FFF7D1FFB04271EB07036B
:1037500052D23B4B301A67EB0101984271F10001E4
:103760004DD2384B03EB0413D3E902239F4208BF29
:10377000964258D04FF48038334908FA04F820466E
:1037800026F07F4BC1F8488303F07EFC4FF003091D
:10379000584604F15005AD00ADB205F1502504F5D1
:1037A000A87305F580350293029A20F07F4341F813
:1037B0002230C1F84483D1F80435244AC01A0338B2
:1037C00020F07F4090422ED9286868B1D1F80435A6
:1037D000A3EB0B0020F07F40B0F5000F039322D93C
:1037E000204603F051FC039BBAF1000F07D109EB0F
:1037F000030009F10109D7E7BAF1000F09D06FF012
:10380000150520460199FFF74BFF284605B0BDE896
:10381000F08F01230E4AA340D2E8EF0F1843C2E80D
:10382000E10F0029F8D107490E982301C8500F9BDA
:1038300001EB04120025C2E902675360E1E700BF13
:10384000010080003001002000500150FDFF7F008A
:10385000181700207FB500254FF0FF304FF0FF31E3
:10386000194C1A4B0226C4F80833C4F84833184BD5
:10387000C4F80855C3E902014FF480334FF4001235
:10388000C4F80433134B0121C4F804631520C3F8B2
:1038900080212A46FFF78AF81520FFF757F8012301
:1038A0000D4AA360236013600C4B0D4A0093284619
:1038B0000023CDE90155FFF73BFF3046FFF70EFA35
:1038C000284604B070BD00BF0050015003000F0037
:1038D0003001002000E100E01C17002059B6000074
:1038E000FFFF7F002DE9F7432E4BD3F80423900709
:1038F0000BD5D3F8042142B10022C3F804212A4A8F
:10390000D3F80431136801331360264AD2F8043324
:10391000D90327D5254BD3E8EF1F21F00100C3E8D9
:10392000E40F002CF7D1CB0702D4D2F84031CBB151
:1039300000251C4CC4F84051D4F84031FFF7D6FEA6
:103940004FF02003EFF3118283F31288BFF36F8FE0
:10395000174BD3E90267B042B94106D282F311880E
:10396000BFF36F8F03B0BDE8F0834FF0FF38D3E9AA
:1039700000104FF0FF391D60C3E902894FF4803316
:10398000C4F84833C4F84051D4F8403182F3118868
:10399000BFF36F8F0029E5D0009032463B462846A2
:1039A0008847DFE70050015020170020181700203B
:1039B0003001002030B5431C124C85B005D0844244
:1039C000A8BF0446012CB8BF0124FFF78FFE0E4BA1
:1039D0000C4DD3E90013401AB0F5000F0FD2221896
:1039E000AA4228BF2A46002052180849CDE9010002
:1039F000009143F10003FFF79BFE05B030BD2A465E
:103A0000F1E700BFFFFF7F004001002059B6000032
:103A100008B5FFF76BFE024B1B68C01A08BD00BF5C
:103A200040010020012310B5074C15206360FEF70C
:103A30009BFF4FF40012054BC4F80833C4F8483319
:103A4000034BC3F8802110BD0050015003000F004C
:103A500000E100E040EA0103C3F30E0330B58BB987
:103A600040F21515094CC90BC0F3C730994201D17A
:103A7000002030BDC218D2B202F5C07244F8225004
:103A80000133F3E76FF01500F3E700BF003000509B
:103A90002DE9F043224885B003F006FB00250446DB
:103AA0001F4B204ED3F83880DFF88090A84503D80C
:103AB000002005B0BDE8F083636A96E807001F6840
:103AC00001AB83E807000C221946384603F095F84D
:103AD00088B987B1636A21691B681A6991420AD162
:103AE0009A69A169914206D8E169914203D9626954
:103AF0005B699A430AD0276A67B10B4802F0FAFE65
:103B0000404080F311884FF0040002DFE368013584
:103B10001C44CBE7484602F0EDFE636A1F60F5E700
:103B20000084000090F70000EA000100130101008A
:103B300030B5816885B0103921F00704054603F0DF
:103B400016F810220146684603F072F81022684603
:103B5000064903F062F810236A462146284602F01F
:103B6000D4FF003818BF012005B030BDECFB0000C9
:103B700030B50D46816887B0102302AA103904467B
:103B800002F0AEFF002802DA012007B030BD10229B
:103B9000204602A903F0B2FA00283AD110221E49A9
:103BA00002A803F02AF800280CBF012302232B707F
:103BB000204603F08FFA012301460DF1070220464B
:103BC00002F08EFF0028DFDB9DF80730204603F06F
:103BD0000F021B096A702B7101220DF1070103F01E
:103BE0008DFA10B96B78042B03D901236B70002375
:103BF0002B71A2682046183A22F00702083AA91C45
:103C000003F08FFA0028BFD12046E91C03F0E2FA46
:103C1000BBE70323CBE700BFECFB0000F0B585B0AA
:103C20000546694600284DD0012807D0FF2003F043
:103C3000D7FA002848D0FF2005B0F0BD324803F085
:103C4000CFFA0028F7D1142002A903F0C9FA0128FD
:103C50003CD12A4649212D4802F034FF2C4B0293D7
:103C600000238DF80C3000229DF800609DF808704C
:103C7000284C3146207803F033FA70B33946607827
:103C800003F02EFA48B3A378042B03D09DF8031059
:103C9000994222D1E378042B03D09DF80B1099426E
:103CA0001BD12379042B14D16279022A21D11A4B1A
:103CB0001A482A46492102F005FF6079831E022B2B
:103CC000BAD9B8E70D20BAE7FF20BDE70028CAD06F
:103CD000B1E79DF802109942E6D00132032A04F1BF
:103CE0000604C6D10E482A46492102F0EBFE012007
:103CF000A2E7032A05D00B4B0B49042A08BF0B4649
:103D0000D6E70A4BD4E700BF0800000069010100B4
:103D100003010303FE0101004B010100B401010096
:103D2000D8010100500101006201010046010100BB
:103D300008B5EFF31083012B0C4A07D1126ABFF3C9
:103D40004F8F511C4A424A41104608BD03F075FA94
:103D500000B172B6126ABFF34F8F531C5A425A41D8
:103D600003F06BFA0028EFD062B6EDE70080FF00A9
:103D700008B5EFF31083012B0B4A06D1D269BFF3CC
:103D80004F8F02F00102104608BD03F056FA00B151
:103D900072B6D269BFF34F8F02F0010203F04DFA01
:103DA0000028F0D062B6EEE70080FF0010B503F007
:103DB00044FA30B14FF050230022C3F81421C3F865
:103DC000182103F049FA28B10122644BC3F8382ABC
:103DD000C3F878254FF47F02D2F83031D2F834217D
:103DE000BFF34F8FC3F30B03092B05D1012A1EBF6D
:103DF00001225A4BC3F8782503F02EFA18B10E228F
:103E0000574BC3F8E42E03F018FA30B10022534B9D
:103E1000C3F80C270122C3F810270022D30003F5B2
:103E20007F03D3F80013BFF34F8F013108D0D3F8CD
:103E300000130132D3F80433B2F5807F0B60EDD16B
:103E4000EFF31084FFF794FF00284DD0BFF34F8F9E
:103E5000444BD3F80024012AFBD1C3F80425D3F83E
:103E60000024012AFBD1012C03D003F0E6F900B1B4
:103E700072B6FFF77DFF58B13B4AD36923F00103C7
:103E8000D361BFF34F8F374AD2F80034012BFBD1F7
:103E9000FFF74EFF68B1344A136A23F0FF0343F083
:103EA00020031362BFF34F8F2E4AD2F80034012B48
:103EB000FBD1012C03D003F0C0F900B162B600229F
:103EC000284BC3F80425D3F80024012AFBD1BFF303
:103ED0004F8F2649264BCA6802F4E0621343CB6039
:103EE000BFF34F8F00BFFDE7FFF722FF0028ADD1E2
:103EF0001E4AD2F88C3043F44063C2F88C304FF441
:103F00007F03D3F83021D3F83431BFF34F8FC2F39E
:103F10000B02092A16D1013B022B02D8154AD35CA9
:103F200083B11148144903680E4A8B420CBF5A23CF
:103F30000023C2F8103EC36A8B420CBF5A230023F1
:103F4000C2F8003E094AD2F8883043F47003C2F840
:103F50008830BFF34F8FBFF36F8F10BD004000500C
:103F600000A00350009003500080FF0000ED00E02F
:103F70000400FA0510020100FA50FA5030B5046846
:103F8000ACB1B4FA84F30122C3F11F03DBB29A404F
:103F900024EA0202D0E8EF5FA54204D1C0E8EC2F8A
:103FA000BCF1000FF6D1EAD102480B7030BD0248D7
:103FB000FCE700BF0000AD0B0200AD0B10B50368BD
:103FC000CB40DB0710D401238B40026843EA020197
:103FD000D0E8EF4F944204D1C0E8EC1FBCF1000FD1
:103FE000F6D1F2D1014810BD0148FCE70000AD0B4D
:103FF0000400AD0B014BC3F804057047007001507D
:10400000044B1A7922B9012218601A7102487047CC
:1040100002487047241700200000AD0B0C00AD0BC8
:1040200008B5084B1B6833B10520FEF7B1FC10B989
:104030000520FEF78BFC4FF050230122C3F8182512
:1040400008BD00BF2417002010B510B1012847D0CB
:1040500010BD4FF05023D3F81814D3F81824C90317
:1040600022D502F00303022B05D0012B02D0002041
:1040700003F00EF901234FF050220220C2F8183548
:1040800008224FF48273002103F1502319601C6849
:10409000012402F150221460164A126822B34FF034
:1040A0005023C3F80403D3E7D3F81424D207E1D58F
:1040B000D3F81C2402F00302013A012AD7D80D4A92
:1040C00012681AB10222C3F80423C1E7D3F804210D
:1040D000002AFBD00022C3F80421D3F80431B7E74B
:1040E00000224FF48073CEE71A68002AFCD01960D2
:1040F0001B68ADE7241700204FF0502310B5D3F80C
:10410000002152B10020C3F80001D3F800210122A0
:10411000C3F80823104B1B6898474FF05023D3F87F
:10412000042182B10022C3F80421D3F80421D3F87A
:104130001824D3F81824022102F00302012A03D123
:10414000C3F818159A6010BDC3F80813024B01207C
:10415000BDE810401B68184724170020014601489D
:10416000FFF70CBF54000020036803F01F025B0937
:104170000260024818BF0020704700BF002584502D
:1041800070B50D4C00F1080334F813300546DA051C
:104190000E4607D5C3F3432304EBC302526854F819
:1041A00033309847A3682BB131462846E268BDE812
:1041B0007040184770BD00BF58000020024611F043
:1041C000010004D003490B6A13600B6203B900209D
:1041D000704700BF0025845010B4134AC0B20830A5
:1041E00032F81030D9051CD5C3F3432123F4F8531A
:1041F00022F81030002002F10E0434F8023F13F4CC
:10420000807F03D0C3F3432399420AD00130202892
:10421000F3D1002342F8313004485DF8044BFFF736
:10422000CDBE5DF8044B704758000020B000002060
:10423000F0B5054600200126044607468C420BD106
:10424000114BD3F87C2132B10022C3F87C21D3F882
:104250007C3140F00040F0BDE3B29B0003F580727A
:104260009B0806FA03F31D420BD002F1A04202F5AF
:104270005042D2F800C0BCF1000F02D017601268A3
:1042800018430134DAE700BF00D00050CBB2024639
:1042900008460D49083331F81330990611D59907AE
:1042A0000FD4012110685B0B9940C0F80813126805
:1042B00002EB8303D3F8102522F00302C3F8102584
:1042C0007047002103F088B858000020F7B5194E58
:1042D000CDB2083536F815300746DB070C4626D533
:1042E000FFF7D4FF36F815309A0608D55A0B3B680D
:1042F00003EB82030022C3F81025C3F810252046E3
:10430000FFF76AFF002301A826F815300194FFF794
:104310002BFF019B00EB8300D0F80022064B1340DB
:1043200043F00203C0F80032044803B0F0BD044873
:10433000FBE700BF58000020F0F8FCFF0000AD0BC9
:104340000400AD0B2DE9FF41136807460C461646E5
:10435000FBB1DFF84481CDB2083538F8152002F002
:104360002202222A22D000222046CDE900228DF806
:104370000E208DF80F200DF10E010DF10F0202F04D
:10438000E2FF38F8153023F0020343F0010328F868
:10439000153073684BB31A785868DFF8FCC0E3B285
:1043A00008333CF813108D0702D5B0B138481FE030
:1043B00021F02001C904C90C2CF8131068B1032A9C
:1043C000F4D870683D68406890F800E005EB8E0511
:1043D0008AB9C5F81025C5F810253CF8131021F04E
:1043E0001C0141EA82022CF81320B3682BBB294838
:1043F00004B0BDE8F081D5F8108541EA4E3128F0CF
:104400000308C5F810853D6841F0200105EB8E05D5
:10441000D5F810052CF8131020F4473020F4407024
:10442000C5F810052002D5F8107500F4F85040EAE0
:1044300002403843C5F81005CFE72046D3E90067AE
:10444000FFF7CAFE002ED2D0134DD5E900239642C5
:1044500003D19F4201D1002209E010480DF10F0164
:10446000FFF78CFD0B4B9842C2D19DF80F20E4B2B0
:1044700005EBC20308345F6035F8143045F832604C
:1044800043EA422343F4807325F81430AFE700BFBA
:104490000400AD0B0000AD0B58000020B000002060
:1044A0002DE9FF4107460C461E4612B3DFF8D480C3
:1044B000CDB2083538F81530980701D4990621D4C3
:1044C00013F01C0F02D05378012B1BD001238DF861
:1044D0000F3000232046CDE900230DF10F01931C7E
:1044E000013202F030FF38F8153043F0030328F8AA
:1044F0001530002E44D0234DE1B2083135F811209B
:10450000930703D4204804B0BDE8F081002096F85A
:1045100000E03B6822F02002D20403EB8E03D20CB1
:10452000C3F8100525F81120C3F8100596F801C04E
:104530004FEA8E08BCF1000F22D03868B6784044AC
:10454000D0F810354FEA0C4C23F4981323F4F853A9
:10455000C0F81035230203F4F8530CF4403C360540
:10456000D0F8107543EA0C0306F48016334342EA90
:104570004E323B4342F02002C0F8103525F811209E
:104580000248C0E7580000200400AD0B0000AD0B4E
:10459000014BC3E90212704758000020054BC9B215
:1045A000083133F81130990643BF5B0B0248137092
:1045B00002487047580000200000AD0B0400AD0B0E
:1045C00070B5174E054696F860403CBB2146402228
:1045D00006F1100002F02CFB21462D68306D884258
:1045E00012D1002345F30730C5F87C31D5F87C3172
:1045F000FEF7ACF94FF00043C5F804330123094836
:1046000086F86030B36570BDCBB29B0003F5807255
:104610007C2B04BFAC50AB580131E0E70248F2E715
:10462000580000200000AD0B0C00AD0B034B93F8BD
:104630006000003818BF0120704700BF58000020FC
:104640000148FFF7BBBC00BFAC0000200148FFF7EA
:1046500095BC00BFAC00002073B5CBB20C461D4921
:10466000083331F8133099061AD513F0020617D122
:104670005B0B05689C0004F580716E5069580168F9
:104680002144D1F8104544F00104C1F810452AB185
:104690000122016802FA03F3C1F8043302B070BDCD
:1046A000C3F38203042B11D0052B11D001A8019470
:1046B000FFF75AFD019A0369D34003F00103991CE7
:1046C000204602B0BDE8704002F086BE0321F7E745
:1046D0000221F5E7580000202DE9F347534B544FD2
:1046E000D3F80403396DC0B240F00040FFF7A0FDDD
:1046F000051E18DA00236846F96D00934FF0010893
:10470000FFF75CFD97F85C30DA0757D4396D4FF04E
:104710000040FFF78DFD6846F96DFFF74FFD00285B
:10472000F0D125F000450124002D66D102B0BDE88E
:10473000F08794FAA4F4B4FA84F4E00804F10803CE
:1047400037F8139004F007021DF8003008FA02F25F
:1047500023EA02030DF8003001A80194FFF704FDDD
:10476000019B4FEA9901803350F82360C9F3820A14
:104770004B07D146C6F3014624D520465146FFF7E4
:10478000FFFC01A80194FFF7EFFC019BF6B2803318
:1047900050F82330C3F301439E4207D10021204645
:1047A00002F01AFE3146204602F016FE01A80194DE
:1047B000FFF7DAFC019B08FA03F30362009C002C6C
:1047C000B7D1A3E7022E0CD10321204602F004FE4C
:1047D0000AF00503012BE9D149462046FFF7D0FC3A
:1047E000E4E70221204602F0F7FDBAF1030FF3D00F
:1047F000032EDBD1BAF1020FEDE795FAA5F3B3FA78
:1048000083F304FA03F29B0003F1A04303F5504342
:10481000D3F81005D3F81015C0F30420C1F30141FB
:1048200025EA0205FFF7ACFC7EE700BF00D0005090
:10483000580000200022034BC3F88425C3F8042548
:10484000704700BF00900350044AD2F80834DB07D9
:10485000FBD50160BFF35F8F704700BF009003502E
:1048600008B5C0F30B0383B90222094BC3F88425B2
:10487000C3F804254FF0FF320260D3F80024D207BA
:10488000FBD5FFF7D7FF034808BD0348FCE700BF8F
:10489000009003500000AD0B0A00AD0B012208B5DB
:1048A000054BC3F88425C3F80425FFF7CDFFBDE809
:1048B0000840FFF7BFBF00BF00900350104B70B51A
:1048C00053F82040013053F82060A64200D870BD54
:1048D000D4E9003595B153B12846984738B100283E
:1048E000B8BF4042FF28A8BFFF20EB681870EA68F5
:1048F000537843F0010353700834E6E79847FBE729
:1049000060FA0000012208B5084B03201A70FFF777
:10491000D5FF00F01BF90420FFF7D0FFFBF7F6FEF0
:10492000034A137B23F00103137308BD4D180020C5
:104930005001002008B50348034A0021121A02F072
:1049400087FD08BD300100205018002008B5002068
:10495000FFF7B4FF164B03F5006282F3088883F378
:104960000A880025E023134C84F82230E577257669
:104970006576A57684F82050636A43F4E023636289
:1049800084F82350FDF758FFFEF774F84FF0FF331B
:10499000A362E36202F040FD0120FFF78FFF0220D7
:1049A000FFF78CFF2B462A4629460348FEF742F8BC
:1049B0005018002000ED00E005C9000008B50648C9
:1049C000064A0749121A02F045FDBDE80840054AAB
:1049D0000549064802F03EBD000000202E010020DF
:1049E0004802010000000000480201000000002011
:1049F000034B1B680BB9FFF70BB80020704700BFD3
:104A00002C17002010B50E4B1C689C4204D1FFF7F8
:104A1000EFFF6FF0004010BDFFF7EAFF002CF8D069
:104A2000D4E904321B1A62EBE072B3F1004F72F169
:104A30000001EEDA002AACBF18460020EBE700BF09
:104A4000BC00002030B570B10B4B5B6898420AD0B7
:104A5000036843B1D3E90421D0E90445121941EBBD
:104A60000501C3E90421D0E9003213605A60002334
:104A7000C0E9003330BD00BFBC0000202DE9F84F75
:104A80004FF02003EFF3118783F31288BFF36F8F8A
:104A9000DFF8B4902A4E4FF0000A3060D9F80000D9
:104AA0004FF0000B484508BF0020264C3D46D4E996
:104AB000001E336888B3D0E904874FEAE37C43459E
:104AC0007CEB070206DAB8EB030267EB0C07C0E9E0
:104AD000042722E018EB01014EEBE873C0E904ABB8
:104AE000C4E90013FFF7AEFF85F31188BFF36F8FA2
:104AF000836898474FF02003EFF3118583F3128802
:104B0000BFF36F8F3368D9F80000A3EB0803484563
:104B10002F463360CAD1D4E9001E59184EEBE37317
:104B2000C4E9001300243460FFF76CFF2146FEF750
:104B300041FF85F31188BFF36F8FBDE8F88F00BF89
:104B40002C170020D0010020BC000020014801F0FB
:104B5000D1BE00BF1302010010B50A4C23681BB17F
:104B600001232360002010BD00F046F80028F7D094
:104B70000138062803D8044B53F8200010BD034821
:104B800010BD00BF3017002078FA0000FE8FFFFF35
:104B9000BFF34F8F0549064BCA6802F4E062134326
:104BA000CB60BFF34F8F00BFFDE700BF00ED00E01B
:104BB0000400FA0530B44FF0FE320025074B084CD4
:104BC00008494968C3F80024C3F80424C3F808243A
:104BD000C3F80C24C4F8005530BC084700108450BA
:104BE00000008450C4000020024BD0E90012C3E949
:104BF00000127047C400002038B500F02FF820B133
:104C0000032400F063F8204638BD00F031F898B96D
:104C100000F0ACF898B90F4DD5F828391B0EF02BE1
:104C200008D1D5F8242A0C4B9A420AD0072400F068
:104C300017F8E6E70624FAE70424204638BD0024E6
:104C4000F5E7012000F092F804460028F7D1C5F8F6
:104C50000C0AD8E7001084500000E02000207047C4
:104C600000207047014BC3F8040A704700108450BD
:104C700010B5114800F048F800B110BD0F4800F021
:104C800043F80028F9D10E4C204600F03DF80028EA
:104C9000F3D10C4B0C481C6000F036F8014600289C
:104CA000EBD100F02DF8044608B1204610BD00F00D
:104CB0003FF82046FAE700BFDC000020D8000020C3
:104CC000D4000020CC000020D000002008B5084807
:104CD00000F024F8074800F021F8074800F01EF81B
:104CE000064800F01BF8BDE8084000F00BB800BF14
:104CF000DC000020D8000020D4000020D0000020DC
:104D000000207047704700BF08B5034B02681B685E
:104D100010689847002008BDF400002008B5034B38
:104D200002685B6810689847002008BDF400002006
:104D300070B5094C094D2069AB68984718B1084B0C
:104D400008485B6898470021074AEB6811602069B2
:104D5000BDE87040184700BFE0000020F4000020CC
:104D6000C400002094FA000034170020F8B51A4D52
:104D70001A4E0446B26828699047E8B9184F3B6854
:104D80004CB1A3B1012B19D0013B3B602869F368FA
:104D900098470020F8BD43B90121124AC2F8001516
:104DA0001149D1F81029002AFBD101333B60F36887
:104DB000286998470020F8BD0C48F8BD0A4AD2F887
:104DC0001039002BFBD1074A6FF07E40C2F8003546
:104DD000FFF748FF3B68D7E7E0000020F400002021
:104DE000341700200000845000108450E98FFFFF2A
:104DF00010B5044650B1636813F0685F05D0064AE9
:104E0000934202D000236260236010BD034B04482C
:104E10005B689847EFE700BF2C5F5CA9C4000020E7
:104E2000B4FA0000C8B143680D4A934213D013F09E
:104E3000685F0ED0012350E8002F194640E8001C9F
:104E40009CF0000FF7D1012AF5D0BFF35F8F00204F
:104E5000704704487047044870476FF4E04070475B
:104E60002C5F5CA9E98FFFFFEA8FFFFF034680B14B
:104E7000426809498A420AD012F0685F05D0BFF340
:104E80005F8F002210461A6070470448704704483C
:104E900070476FF4E04070472C5F5CA9E98FFFFF1B
:104EA000EA8FFFFF10B5044620B10023034A2360B8
:104EB000626010BD0248FFF77DFEF6E73A00003A57
:104EC000DCFA000030B10268034B04489A4208BF84
:104ED0000020704702487047DD55AABB8208F000E9
:104EE0007108F00038B50D460446B0B1A02200218B
:104EF000043002F0D0FA95B10822294604F164008A
:104F000002F0CFFA082205F1200104F1840002F03A
:104F1000C8FA0020034B236038BD0348FCE7034870
:104F2000FAE700BFDD55AABB7108F0008308F00066
:104F30002DE9F74305460E4699461146FFF7C2FF95
:104F40000446002840F08480002E00F0858000296F
:104F500000F08480B9F1200F40F0828005F1440414
:104F6000082205F10408204602F09BFA05F1240707
:104F700008223146404602F094FA06F12001082248
:104F8000384602F08EFA02A941F8049D4FF4807071
:104F900002F07BFA002865D14FF48073324A012178
:104FA000136093600823314A00F034FB012105238C
:104FB00008462F4A00F02EFB0823424601211C2000
:104FC00000F028FB08233A460121032000F022FBD1
:104FD000224608230121022000F01CFB0823254A59
:104FE00001211A2000F016FB0523234A01211B2072
:104FF00000F010FB0823214A0121142000F00AFBD5
:1050000008231F4A0121152000F004FB082305F1A5
:1050100064020121162000F0FDFA082305F1840244
:105020000121172000F0F6FA0823164A01210B206F
:1050300000F0F0FA00F04AFB0446019800F0D8FABC
:10504000114B002C18BF1C46A421284602F025FA5B
:10505000204603B0BDE8F0830C4CF9E70C4CF7E7B1
:105060000C4CF5E7084CEFE79010845040FB000033
:10507000B8FB000000FB0000A4FB000064FB000084
:1050800084FB000020FB00008408F0007608F0009C
:105090008008F0008108F000C2690C4B1A60826938
:1050A00043F8042C426943F8082C026943F80C2C9D
:1050B000C26843F8102C826843F8142C426843F805
:1050C000182C026843F81C2C704700BF5C168450F3
:1050D0000C4B1B68C3610C4B1B6883610B4B1B683B
:1050E00043610B4B1B6803610A4B1B68C3600A4B8F
:1050F0001B688360094B1B684360094B1B68036096
:10510000704700BF5C168450581684505416845063
:10511000501684504C1684504816845044168450BF
:105120004016845030B10268034B04489A4208BFCD
:105130000020704702487047DD55AABB0202F0000C
:105140000002F00038B5044668B1051D70212846FC
:1051500002F0A3F928462022044902F09AF900201F
:10516000034B236038BD0348FCE700BFCCFB0000C5
:10517000DD55AABB0002F0002DE9F04385B01546CD
:105180006F46274B04460E460FCB87E80F002DB91C
:105190004FF00009484605B0BDE8F0832046FFF710
:1051A000C1FF81460028F5D1231D0193636AA3BB8B
:1051B000236F8BB1C3F14008A84528BFA84604F16E
:1051C000300031461844424602F063F9236F4644EA
:1051D00043442367A5EB0805226F402A06D104F15A
:1051E0003001384600F0B4FB0023236705F03F0888
:1051F00035F03F0505D031462A46384600F0A8FB79
:105200002E44B8F1000FC3D04246314604F13000BD
:1052100002F03FF9C4F87080BCE7DFF80890B9E706
:10522000A8F700000C02F0002DE9FF4104466F468C
:10523000134B0E460FCB87E80F002046FFF772FF97
:105240008046B0B9CEB1636A251D01953BB90123F3
:10525000226F636204F13001384600F079FB2B467F
:10526000043E243453F8042B12BAA34246F8042F08
:10527000F8D1404604B0BDE8F081DFF80880F8E7D7
:10528000A8F700000502F000084B1B681B0EF02B6E
:1052900008D1074B1A68074B9A4205D10020064BEC
:1052A0001860704705207047062070472819845001
:1052B000241A84500000E0200C1A8450002230B5DB
:1052C000134640F6FC754900023802F1A15404F57A
:1052D000823490424FEA840402F10102CABF236083
:1052E00025605B181E2AF0D1034A13600B445360FB
:1052F000024B034A1A6030BD7810845084108450E9
:1053000020F80F001E4B30B51A4685B01968009181
:105310000099CC07FAD500F1A15000F58230800049
:10532000016813680193019BD807FAD5154B164CF9
:10533000186820231F3090FBF3F0144D013800282B
:1053400010DA00230130400153B14FF00042A0F1C8
:105350002001134204D1013888424FEA5202F8D1A9
:1053600005B030BD13680393039BDB07FAD54318E0
:1053700023602B680293029B002BE3D10138DEE708
:10538000B4108450AC108450E4108450DC1084506D
:10539000F0B51D6885B001F01F040DB91F2C28D190
:1053A000174D2E462F680197019FFF07FAD500F190
:1053B000A15000F582308000006835680395039D98
:1053C000ED07FAD51F2C00EB611018BFC9430D4D36
:1053D00018BF01F01F0128600B4800680290029876
:1053E0001CBF00FA01F111604FF0000108BF10600E
:1053F000196010684300C00F136005B0F0BD00BF16
:10540000B4108450E4108450DC1084500C4B89019B
:1054100018603F3020F03F004030586099600948E4
:10542000D9601961596199611C3382B019600268B1
:105430000192019AD207FAD5196002B0704700BFF5
:1054400090108450B410845038B5A0F12003B3F507
:10545000426F05462CD88F2826D800F1470300F16B
:105460006604DB064FEA541400D0013464013F3473
:10547000A409013411B1A1421AD30C464FF4805053
:10548000E300B0FBF3F0202828BF202002B1106019
:105490000122084B21461A60FFF710FF28462146DB
:1054A000FFF7B4FF002038BD00F11F046409DDE7F9
:1054B0000148F8E71C1884502221F000464BF0B553
:1054C0001D4689B01C680194019CE407FAD5434B42
:1054D000002413449B001A680B181E2B88BFC0F1D0
:1054E0001E011F320B1852095343B3F5806F84BF5E
:1054F0004FF48061B1FBF2F1274688BF091ADFF84B
:10550000E4E000F1A150DFF8E0C000F58230A142F4
:1055100033DC2B680493049BDB07FAD5304B1B6804
:10552000296805910599CF07FAD52E4C2E4923609D
:1055300000231E46934203F1010040D11946002684
:1055400020F0010228488A423CD829680691069931
:10555000CE07FAD525490968286807900798C0073B
:10556000FAD5216000210C461F488B422DD1002026
:105570001D499A422CD809B0F0BD2B680293029BBA
:10558000DB07FAD503199B001B682E680396039E60
:10559000F607FAD5CEF800300023934203F1010359
:1055A00006D1164623F00103B34204D80134AEE716
:1055B000CCF80070F1E7CCF800700136F4E70E602B
:1055C0000346B7E706600131BDE704600131CCE76F
:1055D00008600133CDE700BFB410845024042114C7
:1055E0007C108450D4108450D8108450781084508B
:1055F00008B540B1202801464FF0070228BF2021FE
:105600000020FFF75BFF0022014B1A6008BD00BFBE
:105610001C188450F0B5294D85B02C462E68009694
:10562000009EF607FAD500F1A15000F58230800007
:105630000568206801900198C707FAD52048214FD6
:10564000056002EB8306B24229D100275A1C1D4E89
:1056500022F001029A4227D823680293029BDE07B8
:10566000FAD5194B0B449B001B681F335B099A4208
:1056700013D2216803910399C907FAD50021154473
:10568000056008469B1A0F4A8B4210D800205A1C0E
:105690000C4922F001029A420CD805B0F0BD52F834
:1056A00004CBC7F800C0CEE737600133D2E7106003
:1056B0000131E9E708600133EDE700BFB410845021
:1056C000D4108450D8108450240421142DE9F041C2
:1056D000814BA0B01D68986820331E461A6801925D
:1056E000019AD707FAD57D4B7D4A1A60326802923B
:1056F000029AD407FAD57B4A1A607B4A144611688D
:1057000003910399C907FAD5784A1168C1F340217A
:1057100037680497049FFF07FAD5754F1F60276805
:105720000597059FFF07FAD51768002900F0CF807D
:10573000B90540F1CC80316806910699CF07FAD5BA
:105740006C491960216807910799C907FAD5116852
:10575000C1F3402137680897089FFF07FAD5664FC5
:105760001F6027680997099FFF07FAD5126800296B
:1057700000F0AF80910540F1AC8032680A920A9A3D
:10578000D207FAD5564A1A6032680B920B9AD7079D
:10579000FAD55A4A1A6031680C910C99CC07FAD59F
:1057A0005749196031680D910D99C907FAD55549C6
:1057B000196031680E910E99CF07FAD552491960D8
:1057C00031680F910F99CC07FAD550491960504BA9
:1057D0001E46196810911099C907FAD53F4C4D4BD8
:1057E000236033681193119BDB07FAD54A4B236082
:1057F00033681293129BDF07FAD5484B23603A4B6C
:105800009846196813911399C907FAD5324F386031
:1058100033681493149BDB07FAD522603368159321
:10582000159BD807FAD53E4B236033681693169B19
:10583000D907FAD53B4B236033681793179BDA07D8
:10584000FAD5394B236033681893189BDB07FAD5D8
:10585000364B236033681993199BD807FAD5344B1C
:10586000236033681A931A9BD907FAD5314B23600A
:1058700033681B931B9BDA07FAD52F4B236000F08C
:105880001DFC08BBD8F800301C931C9BDB07F9D526
:105890003D6033681D931D9BD907FAD5274B2360C4
:1058A00033681E931E9BDA07FAD5254B2360D8F880
:1058B00000301F931F9BDB07F9D50C4B1B6813F4BB
:1058C000805F204B08BF184620B0BDE8F0811E481D
:1058D000FAE71E48F8E700BF90108450801084500B
:1058E00000100251C01F7229B410845088108450D7
:1058F000C0CF0129C01F0E29C03F00294001024925
:10590000003184A800001649400108A1804408889D
:10591000B0108450C044708880077A41C0077E412F
:1059200000006A498006164940006E4900020021C5
:1059300000822021408220218082242140A161A177
:1059400000C861510308F1000108F1000208F100EC
:10595000324B2DE9F74F80469246994644681A68C3
:10596000002AFCD12E4B9B461A68002AFCD14FF02E
:10597000FF30019100F094FC802000F097FC01239F
:105980000720284A284DA2F59E722B60C2F83C01E0
:105990001360636A254F264E3B60A36A204633603E
:1059A000D8F8003042F8043CD8F8083098470199FC
:1059B000D9F80030002BFBD1BAF1000F20D104221E
:1059C0001C4B1A60D9F80030002BFBD1DBF800A08B
:1059D000BAF1000FFAD1D8F80C30204698473B684E
:1059E00063623368A362144BC3F800A0C3F844A1F8
:1059F000D9F80030002BFBD12B6003B0BDE8F08F4D
:105A0000236A4020012B04BF0B4A13600B4B196023
:105A1000C3F804A000F050FCD4E700BF1019845074
:105A2000201C84500019845018188450CC178450BE
:105A3000D0178450C817845084168450281C845072
:105A4000544B10B5194698B01A680192019AD207C2
:105A5000FAD5514B514A1A600A680292029AD40749
:105A6000FAD54F4A1A600A680392039AD007FAD50A
:105A70004C4818600A680492049AD207FAD54A4A38
:105A80001A600A680592059AD407FAD5474A1A603F
:105A90000A680692069AD207FAD5454A1A600A6839
:105AA0000792079AD407FAD5424A1A600A68089200
:105AB000089AD207FAD5404A1A600A680992099AE8
:105AC000D407FAD53D4A1A600A680A920A9AD207A0
:105AD000FAD53B4A1A600A680B920B9AD407FAD59A
