:10000000F80B002049060000ED060000F141000059
:1000100011420000314200007142000051420000D4
:1000200000000000000000000000000005130000B8
:10003000ED06000000000000ED060000ED060000E7
:100040000000000000000000000000006B1D000028
:1000500000000000ED0600000000000000000000AD
:10006000ED060000ED060000ED060000ED060000C4
:1000700000000000ED060000ED060000ED060000A7
:10008000ED060000ED06000000000000000000008A
:10009000ED060000ED06000000000000000000007A
:1000A000ED0600000000000000000000ED0600006A
:1000B000ED060000ED060000ED060000ED06000074
:1000C000ED060000ED060000ED060000ED06000064
:1000D000ED06000000000000ED060000000000003A
:1000E000ED06000000000000ED060000000000002A
:1000F000ED0600000000000000000000000000000D
:1001000000000000ED0600000000000000000000FC
:1001100000000000000000000000000000000000DF
:1001200000000000ED0600000000000000000000DC
:1001300000000000000000000000000000000000BF
:10014000ED06000000015F5F00000000FE0B0000F4
:100150009513000080060000000000000000000071
:10016000000000000000000000000000001200205D
:100170000000000001015F5F030100001F0100009B
:1001800079040000000000000000000001000000F1
:10019000010000000000000000000000000000005E
:1001A00000000000700000003C46000080000000DD
:1001B000000F000001000000C502000001015F5FA8
:1001C000040100001F010000E10500000000000024
:1001D000000000000000000001000000000000001E
:1001E0000000000000000000000000004746000082
:1001F000400000000507000001000000CD040000E1
:1002000038B50025054C29462046D4F80024C4F80A
:10021000045404F060F8C4F8005438BD200C0020E9
:1002200013B511460022CDE9002242680346302A68
:1002300004683ED194F82C20022A18D01AB900F094
:1002400041F902B010BD1E482468D0F80404013AF8
:10025000CDE90040072A2FD8DFE802F004090D128B
:10026000171C21266A46184600F029F9E9E71846C6
:1002700000F013F9E5E76A46184600F011F9E0E7E7
:100280006A46184600F006F9DBE76A46184600F0B1
:100290000AF9D6E76A46184600F008F9D1E76A4637
:1002A000184600F006F9CCE76A46184600F004F953
:1002B000C7E76FF08000C4E76FF08500C1E700BFBB
:1002C000200C00202DE9F04F056804469FB0002D5A
:1002D00040F0AA802022294602A803F0FCFF12AFBA
:1002E000202229460AA803F0F6FF30222946384684
:1002F00003F0F1FFE26904F11C039846B2B1042651
:10030000E26A04F12C03EAB10425EEB96FF083062A
:1003100030461FB0BDE8F08F002EF1D053F8041D19
:100320003246013E0029F7D01646E9E70326F5E7F5
:10033000002DEAD053F8041D2A46013D0029F7D0CC
:100340001546E2E70325F5E730233A4600216068C9
:1003500003F0FEFF3028D9D14FF00109CDE902703A
:10036000334F0DF1080A04F1100B4E45D7F8001475
:100370001CD10DF128094B46002008EB850EC6451F
:1003800033D108B1C7F80014A3683146C7F8043464
:100390000AAA2B4602A8FFF743FF00270646BD42E4
:1003A00009F1080938D1FFF72BFFB1E75BF8043FEB
:1003B000C1F58062D81C20F00300904204D9FFF7F9
:1003C0001FFF6FF08C06A3E70844CA19C7F80004A2
:1003D00049466068019203F0BBFF019ACAF80C001D
:1003E00009F101094AF8082FBFE758F804CFC1F511
:1003F000806A0CF1030222F00302524503F1080364
:1004000005D8781843E9020C11440120B7E7002809
:10041000D5D0C7F80014D2E7394659E902236068FD
:1004200003F0ABFF0137BAE76FF0850670E700BF56
:10043000200C002008B528220021024803F04BFFC1
:10044000002008BD2810002010B5044C0F222046C3
:10045000034903F01BFF204610BD00BF51100020D0
:10046000E405000008B50121024801F027FF002043
:1004700008BD00BF5010002008B5FFF7DBFF40B9F2
:10048000FFF7E2FFFFF7EEFF18B9BDE8084001F003
:1004900083BF08BD6FF0850070476FF0850070471F
:1004A0006FF0850070476FF0850070476FF0850032
:1004B00070476FF0850070476FF0850070476FF0F0
:1004C00085007047D1E9000101F046BFF0B503682F
:1004D0000546B3F57D7FA7B007D040F2F5329342D1
:1004E00007D06FF0850027B0F0BD00F0D9FB0020E9
:1004F000F9E700243C22214607A8CDE90244CDE9D2
:100500000444069403F0E7FE3C22214617A8169403
:1005100003F0E1FEEA69019405F11C0302B304262D
:10052000EA6A05F12C033AB30424731E012B52D856
:10053000012C50D80423002168680DEB030203F05E
:1005400007FF04281AD06FF08000CCE7002EE7D018
:1005500053F8041D3246013E0029F7D01646DFE766
:100560000326F5E7002CE0D053F8041D2246013C99
:100570000029F7D01446D8E70324F5E7022E16D158
:100580006E69402E29D806AF33463A460121686885
:1005900003F0DEFE8642D6D1CDE9027602A944B947
:1005A0002246019800F068FC044620469BE70021A3
:1005B000F5E72B6A402BC6D816AACDE9042301988B
:1005C00004AA00F059FCDDE9042304460021686810
:1005D00003F0D3FEE9E7012085E76FF0890082E7A9
:1005E000002070474D62656420544C5320332E35F3
:1005F0002E3200000000000000000000000000009B
:100600009419000001000000407C000080100020D0
:100610003D000000407C0000200C00200000000095
:10062000407C0000000C002000000000741100203D
:10063000AA050000200C002018010000000C00207A
:100640000800000001F0DEB908B572B61E4A1F4B63
:100650009A601F4B83F309881E4B83F30A8883F348
:100660000B881D4B16A1D1E90001C3E9000100F080
:1006700089F81A4B1A498B4212D30020194B1A4998
:100680008B4218D301F08AFC186850F82240586851
:1006900040F82240013298688242F5D30C33EAE7F1
:1006A0000022F8E71C6844F8220001325C68A2428C
:1006B000F8D30833E4E70022F8E700BFAFF3008087
:1006C000A5EDF5FEA5EDF5FE0000000000ED00E053
:1006D000F80B002000040020F80B002008060000A2
:1006E0002C0600002C06000044060000EFF30880F2
:1006F000EFF309812DE9F00F6B46724600F02CF9FB
:1007000008B0FFF79FFFFEE708B5EFF31083012B5A
:100710000C4A07D1126ABFF34F8F511C4A424A411B
:10072000104608BD00F010FB00B172B6126ABFF3AC
:100730004F8F531C5A425A4100F006FB0028EFD05D
:1007400062B6EDE70080FF0008B5EFF31083012BE0
:100750000B4A06D1D269BFF34F8F02F00102104657
:1007600008BD00F0F1FA00B172B6D269BFF34F8F45
:1007700002F0010200F0E8FA0028F0D062B6EEE7DD
:100780000080FF00694A10B5D2F8D03043F0020370
:10079000C2F8D03000F0D8FA30B14FF05023002228
:1007A000C3F81421C3F8182100F0DDFA28B10122A2
:1007B0005F4BC3F8382AC3F878254FF47F02D2F88C
:1007C0003031D2F83421BFF34F8FC3F30B03092B21
:1007D00005D1012A1EBF0122554BC3F8782500F030
:1007E000C2FA18B10E22534BC3F8E42E00F0ACFA53
:1007F00030B100224E4BC3F80C270122C3F810275A
:100800000022D30003F57F03D3F80013BFF34F8F0B
:10081000013108D0D3F800130132D3F80433B2F514
:10082000807F0B60EDD1EFF31084FFF78DFF002880
:100830004DD0BFF34F8F404BD3F80024012AFBD19A
:10084000C3F80425D3F80024012AFBD1012C03D0DE
:1008500000F07AFA00B172B6FFF776FF58B1374A66
:10086000D36923F00103D361BFF34F8F324AD2F82B
:100870000034012BFBD1FFF747FF68B12F4A136A01
:1008800023F0FF0343F020031362BFF34F8F2A4A84
:10089000D2F80034012BFBD1012C03D000F054FA24
:1008A00000B162B60022244BC3F80425D3F800241B
:1008B000012AFBD1BFF34F8F1C49214BCA6802F4B8
:1008C000E0621343CB60BFF34F8F00BFFDE7FFF73C
:1008D0001BFF0028ADD1154AD2F88C3043F4406399
:1008E000C2F88C304FF47F03D3F83021D3F8343181
:1008F000BFF34F8FC2F30B02092A16D1013B022B23
:1009000002D8104AD35C83B10C480F4903680A4AE5
:100910008B420CBF5A230023C2F8103EC36A8B429D
:100920000CBF5A230023C2F8003E10BD00ED00E0CA
:100930000040005000A00350009003500080FF00D2
:100940000400FA053A1E0000FA50FA507C220149D0
:1009500003F09CBC9C18002038B51D46214B224C4E
:100960005B68C3F308032360EFF30383C4E901204A
:100970006365C2F3801302F00C020C2AE1602AD1F5
:100980000BB9EFF3898120221848216103F07EFC26
:1009900025B120222946164803F078FC114B9A6AAB
:1009A000A265D96AE165986B206602F40040606632
:1009B000586BA06602F08000E0669A62D962D3F8B4
:1009C000E4202267D3F8E810616702F04001A167D4
:1009D000C3F8E42038BD13B9EFF38881D3E70146AB
:1009E000D1E700BF00ED00E09C180020B018002007
:1009F000D0180020003A18BF0122003918BF012189
:100A000003688900074841EA4201186359605A683F
:100A100042F001025A60BFF34F8FBFF36F8F002087
:100A2000704700BF04AAFF000722024BC3F804234B
:100A3000704700BF00300050084BD3F80001D3F8D6
:100A40000421003818BF01200AB140F00200D3F899
:100A500008310BB140F00400704700BF0030005077
:100A60000022074BC3F80021D3F80011C3F804217A
:100A7000D3F80411C3F80821D3F80831704700BF38
:100A80000030005000231720094A03F5C0710133DC
:100A9000202B42F82100F8D100231720044A03F547
:100AA000E0710133202B42F82100F8D1704700BFDC
:100AB0000030005010B59DF80840C00B43EA0423F5
:100AC000064CC90B43EA0213884200D910BDC2B2DA
:100AD00002F5C07244F822300130F5E700300050D2
:100AE00010B59DF8084000F1604043EA042301F18D
:100AF0006041074C400B490B43EA0213884200D97E
:100B000010BDC2B202F5E07244F822300130F5E7C0
:100B100000300050C0F30E03C3F50043B3FA83F373
:100B2000C3F11B03064AC0F3C730DBB240F4807048
:100B300043F48073C2F80005C2F80435704700BF63
:100B4000003000504303014818447047FF1FF81F4E
:100B5000034B090200F5007043F82010704700BFF6
:100B60000030005008B5FFF767FF014B186008BD63
:100B7000581F00200422014903F088BB581F0020A1
:100B800008B501F0D0F868B901F03CFC58B9074A43
:100B9000D36823F008031B041B0C43F0BF6343F42A
:100BA0000033D36008BD45F22350FBE700ED00E0C1
:100BB000024B1860024B002019607047601F002034
:100BC0005C1F002013B5274C426923685A62826972
:100BD0009A62C269DA62026A1A63426A5A63826A74
:100BE0009A63C26ADA63026B1A64426B5A60826B60
:100BF0009A60C26BDA60026C1A61426C5A61826C54
:100C00009A61C26CDA61026D1A62826D5A65C26DB8
:100C10009A65026FDA65026E1A66826E5A66426FD4
:100C20009A66EFF388825A64EFF389829A64426885
:100C3000DA64EFF394821A65026801A81A67FFF775
:100C400099FF2368019ADA6601221A70064B1C6824
:100C500064086400204621462246234603F009FC2E
:100C600002B010BD601F00205C1F002000B5A1B0C5
:100C700001A8FFF76BFE029B63B15B060AD4019BE0
:100C800023F00203052B05D1044B1B6813B101A807
:100C9000FFF798FF21B05DF804FB00BF5C1F002048
:100CA000BFF34F8F0549064BCA6802F4E062134355
:100CB000CB60BFF34F8F00BFFDE700BF00ED00E04A
:100CC0000400FA0538B543680C2B30D14B68042B6F
:100CD0002DD14FF0FF3304680D6821682B6031B3CC
:100CE000A26822B30623012000F075FFF8B96168FD
:100CF000104B99420DD9A2680F485318834202D96C
:100D0000F438834210D8206803F0C0FA002028602D
:100D100038BD0A4B99420AD9A26809488B18834208
:100D2000F1D90730814202D906488342EBD902202B
:100D3000EEE700BFFF01FF002C02FF002F01FF00C4
:100D40003801FF004C01FF004FF47F03D3F830015E
:100D5000D3F83431BFF34F8FC0F30B00A0F1090378
:100D60005842584170474FF47F02D2F83031D2F8E0
:100D70003401BFF34F8FC3F30B03092B03D1431E81
:100D8000584258417047002070474B6830B513F007
:100D90001F052DD102680C681068C0F3072084423B
:100DA00026D25068556094600C7C23F01F0304F039
:100DB00001041C438B7CDB0003F018031C434B7CB9
:100DC0005B0003F006032343D3608B68013B23F0F1
:100DD0001F04CB685B0003F00E03234343F00103C1
:100DE00013615060BFF34F8FBFF36F8F284630BD44
:100DF0000120FCE7036800205A68C9B25860996076
:100E0000D86018615A60704770B5054600240368C1
:100E10001E68C6F30726B44201D1002070BD2146EA
:100E20002846FFF7E7FF0134F5E7C0037047C0032A
:100E300000F5FF407F307047002070471F2070474B
:100E40004FF40040704700F57F40C03040037047CA
:100E5000402070475F2070474FF4005070470020DB
:100E6000704708B5FFF702FF72B620BFFDE700200C
:100E700070470020704770470B4670B5114618B197
:100E8000032806D0032070BD1846BDE87040FFF768
:100E900019BF5A68082A01D00220F4E74C68042CD4
:100EA000FAD11D684FF0FF330E68296833600029BE
:100EB000F2D06B68002BEFD026237422012000F0C3
:100EC0008AFE0028E8D1224623230120696800F029
:100ED00082FE04460028DFD1D5E90001FFF768FE55
:100EE00030602046CFE7000008B5114B83F30A8835
:100EF000104800F003FFC0B9FFF742FEA8B9FFF7A2
:100F0000AEFF90B9FFF7B3FF58B9FFF7B4FF00F099
:100F10003BFE00F085FB00F029FA00F017FE0020F0
:100F200008BDFFF7A6FF0028EFD000F06BFDF2E749
:100F300000040020181900202DE9F04F93B0009311
:100F4000574B8146D3F800B00BB2002B0D46164626
:100F5000C1F30268C1F3024A04DA6FF0800013B0F3
:100F6000BDE8F08F8B42C36001D10020F7E708EBAA
:100F70000A03042BF1D8CC0F64014FEAC8073146AD
:100F80003A46DBF8080044F0020300F024FE014674
:100F90000028E2D1202202A803F09DF93A4631460A
:100FA00002A84FEACA0603F071F932460099DBF84D
:100FB000080044F0060300F00EFE07460028CCD1DE
:100FC000014620220AA803F086F9324600990AA8B1
:100FD00002AE03F05BF933460137B84514D91A461F
:100FE000BC460DE0D2F808E0D16818687144884228
:100FF00003D2596808448645AFD30CF1010C08327E
:10100000C445EFD10833E7E715F0006F18BF20247F
:1010100009F1180707EB880844F00203474513D18C
:10102000202C26D1002D02DBC5F3C0456C0109F14F
:1010300028050AAE05EB8A0A44F0060455451AD184
:10104000009BC9F87C3090E77268DBF8080056F81E
:10105000081B019300F0BFFD00287FF47EAF56F817
:10106000042C019B47F8042F56F8082C38633A6289
:10107000D4E70024DBE77268234656F8081BDBF848
:10108000080000F0A8FD00287FF467AF56F8043C84
:1010900045F8043F56F8083C28642B63CEE700BFB0
:1010A0001C1900202DE9F0411F461A4B0D4616462B
:1010B000D3F8008000F08AFE044608B900F0A2FCD4
:1010C000E368002B01DA00F09DFC032D01D900F04C
:1010D00099FC04EB8504E569E36CED1A16D0062350
:1010E0003A463146D8F8080000F075FD08B100F026
:1010F00089FCBD4228BF3D46E36CE16B2A4619449A
:10110000304603F0C3F8E36C2B44E3642846BDE8A3
:10111000F08100BF1C1900202DE9F0411D461A4B3B
:101120000F461646D3F8008000F050FE044608B97A
:1011300000F068FCE368002B01DA00F063FC032F89
:1011400001D900F05FFC04EB8704E36AE26E9B1AAE
:10115000AB4201D200F056FC02232A463146D8F8B1
:10116000080000F038FD08B100F04CFCE36EE06DC3
:101170002A463146184403F089F8E36E00202B44D8
:10118000E366BDE8F08100BF1C1900202DE9F041A5
:1011900005464FF001080E4E0E4B37685C681CB9CF
:1011A00028463760BDE8F0812268936813F4007028
:1011B0000CD1A369012B09D0D368346023B19847BF
:1011C000002801DA00F01EFCC4F81880246AE6E763
:1011D0001C1900202019002038B5044610B96FF002
:1011E000800038BD8368002BF9D01A68002AF6D039
:1011F0005D68002DF3D00B4BE861A8691D6020B934
:101200002B68DB6853B90123AB61A36804F10C00C0
:101210001B681B69984701232360E2E79847002871
:10122000F1DADCE71C1900204268024B08461A601C
:10123000704700BF1C190020002330B50568044624
:10124000AA68C0E9063312F4406F85B01CD012F4CE
:10125000006202D000F03AF90246A96A2B6968469A
:101260000B44073123F0070321F00701CDE90213F6
:101270000093002305490193EB6800F0F1F96846FB
:1012800000F087FD024B1C6005B030BD8D110000E1
:101290001C19002001F00C0370B50C2B0CBF154677
:1012A00005464A060C4619D58B0658BF2835AB694A
:1012B00013F8026C84F00803C3F3C003C6F3801272
:1012C000934201D000F09EFB16F0A00F02D14EB168
:1012D000032E10D06FF083032B600AE000F092FB26
:1012E0002026E7E700F092FA04460146044800F0A1
:1012F0004CFD204670BD284600F098F9F9E700BF84
:10130000F80B0020EFF308807146EFF30982EFF34A
:101310000B830CB406B4FFF7BDFF8646009900F0BE
:10132000080001F00801401A02DC12DB04B070472B
:101330001EF020031CBF2DE9F00FBDF1080D0A4C73
:10134000254626462746A046A146A246A34630B4D7
:10135000704704B030BC1EF020031CBF1DF1080D07
:10136000BDE8F00F04B07047A5EDF5FE084BDA6854
:1013700082F07F4282F47F0242F48042DA600022EF
:101380001A765A76DA76DA77602283F82220704766
:1013900000ED00E0009A0A4B9A420FD101229043DF
:1013A0000146024603460446054606460746804671
:1013B000814682468346844686460447FEE700000F
:1013C000A5EDF5FE70B5324C86B03248FFF71CFD36
:1013D000236801255A1C01932F4B2260DA681B6990
:1013E0004FF44076039300232A4801A90292049502
:1013F000ADF814608DF81630FFF7C7FC18B143F64E
:10140000DA3006B070BD23688DF816005A1C0193BF
:10141000224B20480293224B01A9CDE903352260DB
:10142000ADF81460FFF7B1FC0028E8D123688DF80F
:1014300016005A1C01931B4B164802931A4B01A924
:10144000CDE903352260ADF81460FFF79EFC00285B
:10145000D5D123688DF816005A1C0193134B0D4803
:101460000293134B01A903930223049340F2011347
:101470002260ADF81430FFF788FC04460028BED186
:101480002A4629460348FFF7B5FA2046B9E700BFC8
:1014900028190020841000205C1E0000801E00001F
:1014A000604600000006000000060000000C00205E
:1014B000200C0020014B1868704700BF5C1E000024
:1014C000014B1B68186870475C1E0000014B1B68CD
:1014D000586870475C1E00000020034BD8765A6A9B
:1014E00042F470225A62704700ED00E00349044B59
:1014F000CA68002092B21343CB60704700ED00E051
:101500000800FA0500224FF0FF30094B02F1A0015C
:101510000132102A43F82100F8D1D3F880220020AC
:1015200022F00802C3F88022D3F88032704700BF4F
:1015300000E100E008B5FFF777FA0822024BC3F894
:1015400080211A60002008BD00E100E0064BD3F8BE
:10155000D02022F00102C3F8D020D3F8D02042F0EE
:101560000202C3F8D020704700ED00E037B5012437
:10157000FFF788FA134D2246052347F6FF71002036
:101580000094FFF797FA224607234FF000500E49C8
:101590000094FFF7A5FAD5E9010107230022009482
:1015A000FFF788FA07230022084909480094FFF74B
:1015B00097FA2969E8680139FFF7ACFA002003B00F
:1015C00030BD00BF5C1E0000FF7F0020FFFF032036
:1015D0000080002038B500240E4D002115F8010BC5
:1015E0000134FFF7B5FA1E2CF7D10020012240F29A
:1015F0000111094BC3F88004C3F88424C3F8C00464
:10160000C3F8C424054AC2F840154FF48072C3F8E9
:10161000402438BD3D1E00000030005000900350B3
:101620000122014B1A6070472C19002010B50446A6
:10163000094B2289186861680623806800F0CBFA9C
:1016400028B9064B1B68012B01D100F087F86FF019
:101650008603236010BD00BF1C1900202C19002038
:101660002DE9F84305461E460068134B9046AA68CC
:10167000A0F1080440E90233503890420F4601D2ED
:1016800000F0C0F9A4F1480948220021484602F0C0
:1016900022FE002344E9073344F8143C4FF08073E2
:1016A00044F8043C6FF0020344E9036744F8208CDB
:1016B000C5E90093BDE8F883A5EDF5FE30B5094C0A
:1016C000024661680023084640B105686D6895428E
:1016D00005D11BB1826860609A60816030BD0346AD
:1016E0008068F1E7B019002038B504462AB10B68CC
:1016F0009B68DB0512D5002038BD0B4B1D680DB96A
:1017000000F080F900222B6899692C338A4203D0BB
:1017100053F8040FA04204D19142ECD16FF0FC00C9
:10172000EAE70132F2E700BF1C19002070B5044659
:101730000E461546002130220C3002F0CCFD064B3F
:1017400020461B68A6606360656100F001FA002313
:101750002061236070BD00BF1C190020044B1B6872
:101760001BB11B680BB1586870474FF0FF307047D2
:101770001C190020064B10B51C680CB900F042F98A
:1017800023689B6813F4406F14BF0120002010BD34
:101790001C1900202DE9F843904607460C46FFF738
:1017A000E9FF024624B96FF080042046BDE8F883C3
:1017B0006300F8D5144B04F01F0153F82150002D9D
:1017C000F1D02B6829465868FFF78EFFB0B9C4F3F3
:1017D0000721284600F0E8FA04460028E3D1EFF399
:1017E000108972B600F0C1F9064689F3108840B13D
:1017F00042462946FFF79AFF3E60D6E76FF0810424
:10180000D3E76FF08204D0E7301900202DE9F041D2
:1018100000F0AAF90023134E134F73607B6000F0B1
:10182000E5F8DFF84880304600F022F80446A8B119
:1018300039468023424600F07FF80546204600F0F6
:10184000F8FA206804F1080100F09FF908B100F0EF
:10185000D9F829462046FFF7EFFCE4E7BDE8F04160
:1018600000F071B920190020B019002030190020B3
:10187000F8B5054608B900F0C5F82A4E346814F1E9
:10188000290F4CD8284B196804F128038B4246D203
:10189000236AA26903EB43030C321344606AE269D2
:1018A000024402EB820213449B00E31801D29942E6
:1018B00001D200F0A7F823681C4A1B0C1B049342BA
:1018C00001D000F09FF82388B3F5817F01D300F0A9
:1018D00099F86368002B01DA00F094F8144A17684D
:1018E00007F124031360134A1268934201D900F0F0
:1018F00089F8236AA26903EB43030C32616A13443B
:10190000E2693C600A4402EB82021344326802EB53
:1019100083026B6832603B626F603846F8BD002717
:10192000FBE700BF90100020781E000000005F5F02
:101930008C100020741E00002DE9F74F0F469046D2
:101940000646009300B109B900F05CF8D6F800A093
:10195000DAF818200AF1300303EB820BDAF81C40A6
:10196000204B1D6854B10C2202FB04541C601E4B1A
:101970001B689C4201D900F045F82C4625464FF0E3
:101980000009DAF81C204A4500D91CB9002003B030
:10199000BDE8F08F142303FB09B20023C5E900263C
:1019A0009268AB60930516D5B8F1000F02D0009B8A
:1019B000802B03D0019200F025F8019A12F0E00F7D
:1019C000D0B202D158F820201AB1019000F01AF8D4
:1019D000019848F820507A6809F10109AA607D60F1
:1019E0000C35CEE788100020701E000008B5FFF708
:1019F00061FD034B9860FFF763FD80F3888808BDA5
:101A000000ED02E0FFF72DBA8230012808B506D8B4
:101A1000FFF7B0FE18B9BDE80840FFF7F3BF08BDF7
:101A2000F8B506460D4600F0D1F9044608B9FFF7AF
:101A3000E9FFA7680FB9FFF7E5FFE368991C20D01D
:101A40005A1C21D1A5B315F1820F13D102232360B3
:101A5000EFF3108672B629462046FFF7E5FB0546F0
:101A600086F310882368022B24D1204600F086F8E4
:101A70002846F8BD15F1830FEAD0FFF7C3FF002514
:101A8000E6E702232360FAE7002BF6DB204600F0AE
:101A9000C1F93B689B689B0501D50223236015F1C2
:101AA000810FD5D16369002BD2DBFFF7ABFFCFE706
:101AB0003546F4E700232360DAE708B5FFF7D1F9EC
:101AC0006FF0830008BD2DE9F3410E461746984696
:101AD0000546FFF74FFE00F08DF92946024601A8A2
:101AE000FFF758FE044660B943463A46314601982E
:101AF000FFF722FA044640B16B0002D5019800F0CE
:101B00003DF8204602B0BDE8F0810198FFF764FB84
:101B10000446F6E740F20110704770B50546FFF73E
:101B200029FE06462846FFF7C9FD044608B90020ED
:101B300070BD014632462846FFF7D6FD0028F6D193
:101B40002368D868F4E76FF00200704700DF704741
:101B50004FF480507047B0F5805F03D1EFF30B80F6
:101B600080387047002070477047EFF30B8000F11A
:101B7000800383F30B88704700207047EFF30B83DB
:101B8000803B83F30B8870477047F0B510B943F67C
:101B9000DA30F0BD0029FAD08368002213F4406FD8
:101BA00014BF012300230C24142543F002030B600F
:101BB000016A8A4201D10020EBE704FB02F3D0E97D
:101BC000067603EB870305FB063303449B6B1B0779
:101BD000DDD40132EDE72DE9F0410E461546002A2D
:101BE0004AD0C4074BD480F00204C4F34004A400DC
:101BF00003F00602062A4AD144F00104224629468F
:101C0000304602F089FAB8BB46E800F205EB060858
:101C1000100E120208F1FF3747E800F34FEA136194
:101C200066D51B0264D5884262D046E800F547E8D5
:101C300000F7FFF701F92D0E85424FEA176734D3FD
:101C4000FFF7FCF8874230D82846FFF7F0F8224625
:101C5000C6F101010144304602F05EFA002847D087
:101C60000135AF4218D83846FFF7DFF82246A8EB17
:101C7000000102F051FAD8B30020BDE8F081EFF383
:101C80009484A40004F0040444F01204B0E799071B
:101C900031D544F00804B1E72846FFF7C6F80646F8
:101CA000FFF7CEF822460146D5E7FFF7D1F8854287
:101CB0001ED3FFF7CFF887421AD82846FEF742FF17
:101CC0002246C6F101010144304602F025FA78B1FE
:101CD0000135AF4203D83846FFF7B5F8C6E72846C6
:101CE000FFF7B1F80646FFF7B7F822460146EBE7E3
:101CF0006FF07F00C1E74CF2DA20BEE710B5044672
:101D0000FFF724FCFFF732FC10B143F6DA3010BDC8
:101D1000FFF760FC0028F8D1FFF754FB0028F4D14E
:101D200002232360F3E708B5FFF7D6FB10B143F6B3
:101D3000DA3008BDFFF7DAFB0028F8D100F023F80D
:101D40000028F4D162B6FFF7DDFB0028EFD1FFF7E2
:101D5000F1FB0028EDD0EAE708B5FEF703FFFEF738
:101D60007FFEBDE80840FFF74DBEEFF30880EFF3BC
:101D700009812DE9F00F6B467246FEF7EDFD08B0C4
:101D8000FFF7EAFFFEE70020704704460D46A54630
:101D900028470368283383F30988836883F30B8813
:101DA000BFF36F8F4068704703689A68DB6812F46E
:101DB000806F05D18B422CBF00206FF0FA00704776
:101DC0008B420CBF00206FF0FA00704710B5FFF790
:101DD000C2FE0446FFF7D0FE50B9FFF7BFFCA36870
:101DE0005B681B685B68834218BF0024204610BDF7
:101DF0000024FBE738B5054648B100F01BF8B5EB09
:101E0000D07F044601D0FFF7FDFD204638BDFFF727
:101E1000A5FCF4E7002310B500F1280252F8041FD6
:101E200019B1C16F146C19444C600833202BF5D1E3
:101E300010BD70474FF0FF307047000001040508E7
:101E4000090A0B0E0F1011141517181B1C1D1E1F4D
:101E5000202122232426282A39423A00008000002B
:101E600000800000FFFF0F00007C000000800000E9
:0C1E7000F8110020E0110020000200002A
:101E8000009A204B9A4208D110B502F047FA02F0AE
:101E9000A9F906BC96460C46744702F083FA009AEC
:101EA000184B9A4208D110B502F044FA02F09AF9A0
:101EB00006BC96460C46744702F074FA0CB4029ABB
:101EC000104B9A420CD14FF0004319430CBC10B593
:101ED00000F09EF802F086F906BC96460C46744760
:101EE00002F060FA009A074B9A4202D1064908684C
:101EF000744702F057FA009A024B9A4200D1744795
:101F000002F050FAA5EDF5FE801000200348044BC6
:101F1000834202D0034B03B118477047741100206D
:101F200074110020000000000548064B1B1AD90F51
:101F300001EBA301491002D0034B03B118477047CE
:101F400074110020741100200000000010B5064C30
:101F5000237843B9FFF7DAFF044B13B10448AFF31A
:101F600000800123237010BD8018002000000000B5
:101F70005C46000008B5044B1BB104490448AFF3AC
:101F80000080BDE80840CFE7000000008418002072
:101F90005C460000A3F5803A704700BF174B002B4A
:101FA00008BF134B9D46FFF7F5FF00218B460F46F8
:101FB0001348144A121A02F08EF90E4B002B00D06F
:101FC00098470D4B002B00D09847002000210400BB
:101FD0000D000D48002802D00C48AFF3008002F03D
:101FE00077F820002900FEF77FFF02F05DF800BFC0
:101FF000000008000000000000000000F80B0020B6
:10200000741100201C2800200000000000000000C7
:102010002DE9F84304460D4616461F46EFF30583A7
:10202000C3F308030BB1FFF7EDFCDFF834903B4638
:10203000204632462946D9F80080FFF744FDD9F8FA
:1020400000300446984506D0DB6901461869BDE8B2
:10205000F843FFF7E5BCFFF7D7FC2046BDE8F8835F
:102060001C19002001680E4A0346914215D1C1692E
:10207000A2F11022A2F1EF1291420ED18268012A40
:102080000BD8C26812B101698A4206D0586928B1DA
:102090009B691B1A5842584170470120704700BF86
:1020A00055AA00FF0D4B70B59E68A6B13046FFF7EC
:1020B000D9FF044678B9F3686BB935690DB9204684
:1020C00070BD2846FFF7CEFF28B9EB68B34202D1B6
:1020D0002E462D69F2E70124F1E700BFB819002070
:1020E0002DE9F041394E3468F368D4B1B468C4B115
:1020F000002861D000295FD001FB00F5B5FBF0F0AE
:10210000884259D1291D57D8AA070DD025F00302BE
:1021100004321C4603E0616891424FD2A469002C4E
:10212000F9D12046BDE8F0812A46F2E7891A232931
:1021300004F12007D4E9050C1AD80123A360A0B14B
:10214000C0F818C0A36903B158610023C4E905337E
:102150003369DB0702D5FFF7A5FFA0BB2A460021A4
:1021600038463C4602F0B7F8DBE7C6F80CC0E9E7B2
:1021700002F1200804EB08032039C3E9011E21699C
:10218000DFF84CE0DC60196144F808E0AEF1102E95
:10219000AEF1EF1EC3F81CE001B1CB60C3E9050C42
:1021A00040B18361996901B14B6101212361C4E9A7
:1021B0000121CAE7F360F5E70024B2E7D4F808E0AC
:1021C000BEF1000FB2D0012001F06EFFB81900205F
:1021D00055AA00FFF8B5054600283AD0364E3368B8
:1021E000002B36D0B268002A33D0834203D87268FD
:1021F0001344984202D3012001F056FFA0F12004BD
:102200002046FFF72FFF0028F5D155F8183C012B89
:10221000F1D145F8180C55E90570DFB1BB68CBB9B1
:1022200055F81C2C7B68203213447B60386100B168
:10223000C76020220021204602F04DF8386908B11D
:1022400083682BB333699B0703D5FFF72BFF002867
:10225000D1D1F8BD40B3836833BB4268636813448F
:10226000203363600369D4E90521236192B9B9B9C8
:10227000426981696261A161A2B19461A26902B1FE
:10228000546103B1DC602022002102F024F8D9E778
:102290003C46E2E79161A1690029E9D04A61E7E79C
:1022A000F160F8E7F460E9E7F36845F8083C03B14A
:1022B0005C61F460C6E700BFB819002038B50D4670
:1022C000142200210446124802F005F81149124870
:1022D00000F02CF8232D1AD914F003031FBF043D7E
:1022E000ED18C3F10403E4182A460021204601F04A
:1022F000F2FF074B094AC3E900459C602260A2F146
:102300001022203DA2F1EF126560E261DC6038BD71
:10231000B8190020D5210000E120000055AA00FFD7
:10232000014B1B68184700BF94100020024B186037
:10233000024B002019607047981000209410002074
:1023400010B50A46044619B1024B00211B68984794
:1023500010BD00BF9C100020054B0A46197819B12A
:102360000146181D02F058B86FF08800704700BF92
:10237000CC19002010B5074C00F032F8204602F0CE
:102380005CF8201F0821FFF7DBFFBDE8104002F0DA
:1023900040B800BFD019002070B50C4D2B787BB928
:1023A00002F035F8044670B90126281D6E7002F05F
:1023B00031F8044638B900F00BF8044618B92E700D
:1023C0000024204670BDFFF7D5FFFAE7CC190020A6
:1023D0000122024B002083F880257047D419002089
:1023E000F8B5074C2025264601272046276201F034
:1023F000FDFF013D04F12C04F7D186F88055F8BDAE
:10240000D419002010B50C4C236813B10B4B1B687A
:102410002BB900F089FC30B90122084B1A60012366
:102420002360002010BD0138062801D9044810BDE2
:10243000044B53F8200010BD681F0020641F0020CB
:10244000FE8FFFFFC4440000144B2DE9F043002829
:1024500014BF04461C46124F236883B0BB4219D0F8
:1024600016460D4620464FF4147104F1040900F09D
:1024700047F804F58E78484600F0CEF8404600F064
:1024800019FA2B464A4640460649009600F034FBAE
:1024900008B92760002003B0BDE8F0836C1F00205E
:1024A000A5BCC95A9D26000070B50D4C1D460028DC
:1024B00014BF064626460B4B306882B098420DD1B9
:1024C00006F58E70002633460096144600F03EFB5B
:1024D000002818BF34462C6002B070BD0248FBE7EC
:1024E0006C1F0020A5BCC95AE88FFFFF38B131B17D
:1024F000002201440346013081421A70FAD170472C
:1025000038B131B1002201440346013088421A70CB
:10251000FAD170472DE9F043202B1D460646884628
:1025200091468BB026D8DBB202AF8DF80480B0465E
:1025300058F8041B8DF8053021B9404601F038F9F0
:10254000044640B9012302224046336001A901F04C
:1025500043F9044638B138462021FFF7D1FF204621
:102560000BB0BDE8F0832A464946404601F034F9F5
:102570000446F0E702AF1946104600233A4601F040
:10258000B1FA04460028E6D12023B9461D46CCE71F
:102590002DE9F041D0F8F830A6B0002BD8BF02AE3C
:1025A00031DD05460027D0F80C4102AEA4F1010848
:1025B0009022D5F8FC403146D0F8000101AB0197DC
:1025C000B8FA88F8A0474FEA5818044620B9019B8A
:1025D00053B9B8F1000F16D030469021FFF790FFA5
:1025E000204626B0BDE8F081014632462846FFF776
:1025F00091FF58B9D5F80431019A1344C5F8043154
:10260000B8F1000FE8D16FF03C04E5E7044620463E
:1026100026B0BDE8F08100BF70B500250446142245
:1026200004F588762946C0F8F850FC3001F053FED6
:1026300008222946304601F04EFE144B30461B68F6
:102640009847204640F8045B01F098F8104B30465C
:102650001B689847C8B9D4F8F830AB420FDC03EBDD
:10266000830204EB82022021C2F800010120C2E9AA
:10267000421008490133C2F8FC10C4F8F830064B88
:102680003046BDE870401B68184770BDBC10002084
:10269000B810002081360000B41000202DE9F0476A
:1026A000202A88B07AD83F4B00F5887904461B6809
:1026B00048461746884698470546F8B940F201163D
:1026C000D4F8F830002B65D02046FFF761FF0546AF
:1026D00038B9D4F8F830002B14DC013EF2D16FF099
:1026E0003B056E4620213046FFF70AFF2E4B484639
:1026F0001B689847002818BF6FF01D05284608B0D2
:10270000BDE8F087D4E94132934203D3D4F80C21D9
:10271000012A02D0013ED7D1E1E71F2BFAD96E463C
:1027200001462022304604F1040A01F0D4FD31466E
:10273000504601F07BF805460028D3D1504601F001
:1027400031F8504601F01AF82946504601F030F8A9
:1027500005460028C6D150462022314601F03CF8FB
:1027600005460028BED1034632462021304601F0FE
:10277000B9F905460028B5D1D4F8F8303A46002B0F
:10278000C8BF002340463146C8BFC4F8043101F039
:102790007DFDA7E76FF03F056E46A3E76FF03B05B1
:1027A000ACE700BFB8100020B410002070B590B0A6
:1027B00000287AD03E4C0D4640223621064620465F
:1027C00001F089FD40225C21A01801F084FD2B1D41
:1027D000A34203D904F144039D4252D32B682268DB
:1027E000534023602B68226C534023646B686268FB
:1027F000534063606B68626C53406364AB68A2686B
:102800005340A360AB68A26C5340A364EB68E268DA
:102810005340E360EB68E26C5340E3642B69226948
:1028200053402361226D2B695340236562696B69B4
:10283000534063616B69626D53406365AB69A26924
:102840005340A361AB69A26D5340A365EB69E26994
:102850005340E361EB69E26D5340E365002130468C
:1028600000F0A6FF044628B940223046104900F087
:10287000B3FF044640216846FFF742FE204610B0F1
:1028800070BD631E04F13F01013D1F3415F8010FB7
:1028900013F8012F42401A7011F8012F2878A34233
:1028A00082EA00020A70F1D1D8E76FF07304E5E71D
:1028B000BC21002010B54FF49A720021044601F0AB
:1028C0000AFD42F21072044BC4F8202104F5967000
:1028D0001B68BDE810401847BC1000202DE9F04FE0
:1028E00004468846914695B0002900F0A780002A4A
:1028F0000CBF0126022600238DF80C30002C00F0BE
:102900009F80DFF844A104AF0AF1400B002120466C
:1029100000F04EFF034648B1384620210193FFF7EF
:10292000EFFD019B184615B0BDE8F08F40225146DF
:10293000204600F051FF03460028EDD104F1F405D4
:1029400020222946204600F047FF03460028E3D115
:102950000122204603A900F03FFF03460028DBD1F7
:10296000022E62D020460CA900F060FF034600282A
:10297000D2D10146204600F01BFF03460028CBD1F0
:1029800040225946204600F027FF03460028C3D1C5
:10299000202220460CA900F01FFF03460028BBD1CF
:1029A0003946204600F042FF03460028B4D139469C
:1029B0002046FFF7FBFE03460028ADD12022294622
:1029C000204600F009FF03460028A5D120460CA9A7
:1029D00000F02CFF034600289ED10146204600F05F
:1029E000E7FE0346002897D140225946204600F0D2
:1029F000F3FE034600288FD1202220460CA900F0C8
:102A0000EBFE0346002887D12946204600F00EFF42
:102A10000346002880D19DF80C200132D2B2B24288
:102A20008DF80C20FFF472AF76E74A464146204607
:102A300000F0D2FE0346002894D06DE701265AE745
:102A40006FF0730304AF67E7BC2100202DE9F0416C
:102A50000446884615461F46D0F81801E0B013B169
:102A600000EB40004008B5F5807F3ED82844B0F523
:102A7000C07F3AD84FF4C0720021684601F02BFCA9
:102A80006946D4F82431D4F81821D4F8280198479D
:102A900070BBD4F8186157B1D4E9493072080DEB16
:102AA0000601984720BBD4F8183106EB5306B8F15D
:102AB000000F00D08DB9324669462046FFF70EFF61
:102AC000054610B90123C4F8143131466846FFF7B2
:102AD00017FD284660B0BDE8F0810DEB06004146C9
:102AE0002A462E4401F0D2FBE5E76FF00405F0E73B
:102AF0006FF00805EDE700BF2DE9F047044604F14B
:102B0000F4050F4691461E46DDF8208000F036FEA3
:102B100029462046FFF74AFE08B1BDE8F08728465F
:102B20002022012101F0D7FBD4F81831C4F8247118
:102B3000C4F8289113B92023C4F81831424631460D
:102B40002046BDE8F0470123FFF780BFB2F5806F54
:102B500000F295802DE9F04F89B09A46129BB3F5AB
:102B6000807F00F29080D0F82431164604460F464C
:102B70004BB3D0F81C31012B05D0D0F81421D0F87C
:102B800020319A421FDD514600232046129AFFF75A
:102B90005DFF014698B900231293002E5ED0DFF846
:102BA000EC9009F1400B0021204600F001FE202EA0
:102BB0003546014628BF202504F1F40890B10846A7
:102BC00009B0BDE8F08FBAF1000FE6D0129B002BE0
:102BD000E1D051461A462046FFF780FE0146002804
:102BE000DBD0ECE749464022204600F0F5FD0146E7
:102BF0000028E4D141462022204600F0EDFD0146A8
:102C00000028DCD16946204600F010FE014600286D
:102C1000D5D1204600F0CCFD01460028CFD1594641
:102C20004022204600F0D8FD01460028C7D1694661
:102C30002022204600F0D0FD01460028BFD14146A9
:102C4000204600F0F3FD01460028B8D138462A4658
:102C5000414601F01BFB761B2F44A4D15146204670
:102C6000129AFFF73BFE01460028A8D10846D4F887
:102C700014310133C4F8143109B0BDE8F08F6FF09E
:102C80000201084670476FF0040198E7BC2100205C
:102C9000002130B58DB0282202A8019101F01BFB64
:102CA00002A800F047FF044610B120460DB030BD29
:102CB000174D4FF0FF31286800F042F9044620B16B
:102CC000144800F0D3F9012C18D0002000F068F966
:102CD000D0B9114A02A901A800F0C4FC04460120A1
:102CE00000F05EF960B9286800F032F90028DCD005
:102CF0000A4800F0BBF920460DB030BD0524F2E7CC
:102D0000074800F0B3F9EEE7064800F0AFF9E0E756
:102D1000A0100020E04400003C22002038450000C4
:102D200018450000F844000030B583B000F05CF8AE
:102D300028B100F0ABF80324204603B030BD00F00A
:102D400077F8D8B900F02CF9E0B9224CD4F828393A
:102D50001B0EF02B0AD1D4F8242A1F4B9A4231D0F3
:102D600000F044F8072400F091F8E5E7062400F0AD
:102D70003DF800F08BF8204603B030BD0424204617
:102D800003B030BD00F032F800F080F8FFF780FFAC
:102D9000044698B9114D2B68002BCDD1024601464F
:102DA000FFF752FB50B968220D4901ABFFF77CFBDE
:102DB00020B920460B4B2B6003B030BD05242046C4
:102DC00003B030BD012000F0EBF80028DAD1C4F8E0
:102DD0000C0ADBE7001084500000E0205C24002097
:102DE000602400205AEA5A5A002070470020704799
:102DF000430504D54FF0FF32034BC3F80821024BC3
:102E0000C3F8080A704700BF00108450014BC3F894
:102E1000040A70470010845008B100F06BB84FF4FA
:102E20007500704708B100F04FB84FF47500704757
:102E300010B5114800F070F800B110BD0F4800F057
:102E40006BF80028F9D10E4C204600F065F80028F8
:102E5000F3D10C4B0C481C6000F05EF801460028D2
:102E6000EBD100F02DF8044608B1204610BD00F06B
:102E700079F82046FAE700BFB0100020AC1000201F
:102E8000A8100020A0100020A410002008B50848B9
:102E900000F04CF8074800F049F8074800F046F801
:102EA000064800F043F8BDE8084000F00BB800BF4A
:102EB000B0100020AC100020A8100020A4100020AA
:102EC00000207047704700BF024610B4084CD4F889
:102ED000003A1342FBD021B1D4F804310B60C4F89E
:102EE0000831034B0020C3F8082A10BC704700BF0C
:102EF00000108450044AD2F8003A1842FBD0C2F8BD
:102F0000080A0020704700BF0010845001F097BAF3
:102F10000A46002101F0DFB908B5034B02681B68BF
:102F200010689847002008BDDC10002008B5034B4E
:102F300002685B6810689847002008BDDC1000201C
:102F4000024B02689B681068184700BFDC10002025
:102F500008B5034B0268DB6810689847002008BD7D
:102F6000DC10002070B5094C094D2069AB6898470A
:102F700018B1084B08485B6898470021074AEB687E
:102F800011602069BDE87040184700BFC8100020DC
:102F9000DC100020C010002050450000C824002094
:102FA000F8B51A4D1A4E0446B26828699047E8B938
:102FB000184F3B684CB1A3B1012B19D0013B3B60CA
:102FC0002869F36898470020F8BD43B90121124AE7
:102FD000C2F800151149D1F81029002AFBD101339C
:102FE0003B60F368286998470020F8BD0C48F8BD9D
:102FF0000A4AD2F81039002BFBD1074A6FF07E4005
:10300000C2F80035FFF702FF3B68D7E7C810002081
:10301000DC100020C82400200000845000108450E0
:10302000E98FFFFF014B1B68184700BFDC10002031
:10303000014B9B68184700BFDC100020014BDB6888
:10304000184700BFDC100020BFF34F8F0549064B27
:10305000CA6802F4E0621343CB60BFF34F8F00BF36
:10306000FDE700BF00ED00E00400FA0530B44FF0CA
:10307000FE320025074B084C08494968C3F8002474
:10308000C3F80424C3F80824C3F80C24C4F800557A
:1030900030BC08470010845000008450C01000204D
:1030A00010B5044650B1636813F0685F05D0064A56
:1030B000934202D000236260236010BD034B04489A
:1030C0005B689847EFE700BF2C5F5CA9C010002049
:1030D00070450000C8B143680D4A934213D013F005
:1030E000685F0ED0012350E8002F194640E8001C0D
:1030F0009CF0000FF7D1012AF5D0BFF35F8F0020BD
:10310000704704487047044870476FF4E0407047C8
:103110002C5F5CA9E98FFFFFEA8FFFFF034680B1B8
:10312000426809498A420AD012F0685F05D0BFF3AD
:103130005F8F002210461A607047044870470448A9
:1031400070476FF4E04070472C5F5CA9E98FFFFF88
:10315000EA8FFFFF10B5044620B10023034A236025
:10316000626010BD0248FFF781FFF6E73A00003ABF
:10317000984500002DE9F047002878D00C4600293A
:1031800075D01D46002B72D007461AB101220023CC
:103190002A6003602B68002B64D02946204600F08B
:1031A000B7FD804600285FD12146286800F096FDD3
:1031B0008046002858D12B68082B6CD0042B6DD08A
:1031C000A3F10209B9FA89F94FEA59190121354EDB
:1031D000C6F8C411C6F84011C6F8C411636AC6F82F
:1031E0003031D6F830219342F6D14FF0000A4FF03B
:1031F000FF30C6F82CA1FFF7FBFD6FF01B03504614
:10320000C6F80031FFF702FEC6F80C91D6F8040AA2
:1032100040F48060FFF7FAFD0A23C6F83831089BB6
:10322000012B29D02369204AA2FB03231B09626AD0
:10323000404602FB03F303EB43031A4ADB039B09FB
:10324000C2F8D8310123C2F82C313B682A6823F038
:103250007F4343EA02633B602A6843EA02233B6000
:10326000BDE8F087DFF844804046BDE8F087DFF82E
:1032700040804046BDE8F0874FF47F03D3F80C2C24
:10328000013206D0D3F80C3C074AA2FB03231B09EA
:10329000CDE71623CBE74FF0030997E74FF002097C
:1032A00094E700BF00108450ABAAAAAA310CF10029
:1032B000350CF10058B34B1EB3F5047F27D230B55F
:1032C0004FF0000ECD00744671464B0901F01F0C03
:1032D00050F82330BCF11F0F23FA0CF306D003F093
:1032E000010319B901211C468E46EEE79C4201F10B
:1032F000010106D01C464FF0010EA942E5D1002085
:1033000030BD0EF1010E9645F7D1024830BD01489F
:10331000704700BF360CF100C0B32DE9F0434C1EDE
:10332000B4F5047F1DD2E3B1DAB100252E46A846DC
:103330002C46CF0003F1FF394FEA541C04F01F0E56
:1033400050F82C10BEF11F0F21FA0EFC0CD00CF01F
:10335000010C4CB90126E04634463546ECE796426E
:1033600016D90C48BDE8F083AB420BD0C44508BF6A
:103370000136A945F3D001350134BC42DCD100202F
:10338000BDE8F0830125E0462E46F5E70148704789
:103390001D46F1E7370CF1002DE9F04F91B083465F
:1033A000DDE91B460D46002E6ED10F691C6000231F
:1033B0001A990B60002A00F02F819D4B6A6AD3F89E
:1033C0003811D3F830319A4269D10A2967D19BF874
:1033D0000330089304F10803079304230593954BE6
:1033E000934CA3FB07239B0803EB4303A7EB430387
:1033F000039306971A9B069E1E60002E00F0EA803B
:1034000000F096FC00230993BBF1000F00F0D5807B
:1034100098464FF0010ADDF81C90002D00F0CD8099
:10342000089B002B3DD0284608A900F071FC00281D
:1034300039D0814B984220D0089B082B00F0E480C3
:1034400000225B000893294608AB58460092FFF71C
:1034500091FE7A4B984200F0D38070B9DBF80020DF
:10346000130A03F47F03134323F07F43CBF80030A8
:10347000059B013B0593BDD10020039000F058FC53
:10348000039811B0BDE8F08F4FF47F01D1F80C0C18
:1034900001300CBF4FF40477D1F80C7C86E7684804
:1034A000EBE76648C5E72946089800F017FC0028B6
:1034B000BFD1089B082B00F0A980042B00F0A98045
:1034C000A3F10203B3FA83F35B090493C4F8C4A124
:1034D000C4F840A1C4F8C4A16B6AC4F83031D4F870
:1034E00030219342F6D100234FF0FF30C4F82C3145
:1034F000FFF77EFC002318466FF01B03C4F8003171
:10350000FFF784FC049B4B4FC4F80C31D4F8040A39
:1035100040F48060FFF77AFC0A23C4F838312B6945
:1035200009A8A7FB03236A6A1B0902FB03F303EB49
:103530004303DB039B09C4F8D831C4F82CA1DBF8A2
:103540000030089923F07F420B0243EA01631343E2
:10355000CBF8003000F0B2FB099B03F01A030343E1
:103560007FF46AAFA7FB0637D4F81431B8EB970F96
:103570000A93D4F818310B93D4F81C310C93D4F877
:1035800020310D93D4F824310E93D4F828310F93C1
:1035900001D1039B9BB9484618220AA9183EFFF7A0
:1035A000B5FC09F1180908F101089EB100F0C0FB53
:1035B00000230993002D7FF433AF224839E74846B2
:1035C0001A46F61A0AA9994408F10108FFF79EFC69
:1035D000002EEBD1069F079E6A6939463046FFF7F9
:1035E00069FEAA6940B94FF4806339463046FFF757
:1035F00093FE00283FF440AF00231A9A136018E7A7
:103600002B6A002B3FF439AF0F4836E703230493AE
:103610005CE70223049359E70122294658460096A5
:1036200008ABFFF7A7FD00283FF4D4AE25E700BFA5
:1036300000108450ABAAAAAA020CF100310CF100D0
:10364000300CF100350CF100320CF10010B4DDE962
:10365000013401940024DDF80CC0CDE902C410BC93
:10366000FFF79ABE30B51546012487B005AB00932D
:103670000022CDE9015404ABFFF78EFE07B030BD48
:10368000F0B587B0002966D01E46002B63D01446E3
:10369000002A60D0314F0D4638684FF0FF31FFF7F8
:1036A0004FFC00284DD10020FFF77AFC002844D1C0
:1036B0002B4800F03FFAD8B101204FF0FF35FFF75B
:1036C0006FFC002835D14FF408712648FEF70EFF35
:1036D00004212548FEF70AFF21482821FEF706FFAE
:1036E0003868FFF735FC00282FD1284607B0F0BD19
:1036F0001C4A0346029205AA019204AA0390009272
:10370000174902461848FFF7A1FF03460028D3D106
:1037100028461D46059B22469C4228BF1A4604990E
:1037200032600831FFF7F2FB0120FFF739FC002877
:10373000C9D00E48FFF79AFCC5E70D48FFF796FC85
:10374000B6E70C48FFF792FCADE70B48FFF78EFC9D
:10375000284607B0F0BD4FF0FF35C6E7A0100020A7
:10376000E024002008250020DC240020184500006B
:10377000F8440000E0440000BC45000010B50446D9
:1037800028B12046BDE81040F421FFF7C1BB044832
:10379000FFF76CFC2046BDE81040F421FFF7B8BBF2
:1037A000D445000010B1F421FEF7A0BE704700BF61
:1037B00008B521B1012908D06FF0360008BD0121FC
:1037C00000F058F80028F7D108BD022100F052F8A7
:1037D0000028F9D0F0E700BF30B505468818B0F5ED
:1037E000801F0B461446A1B001D8802A0CD9B3F52E
:1037F000801F17D922461946284600F07DF8044656
:1038000084B9204621B030BD6846FFF77FFB2246D1
:103810006946284600F070F8802104466846FFF7A4
:1038200077FBEDE76FF03604EBE700BF70B5E8B16A
:103830000E46D9B1044600F031F80546B0B9236808
:10384000012B0BD0022B01D0284670BD1C22304624
:1038500004F10801FFF75AFB284670BD20223046CC
:1038600004F10801FFF752FB284670BD6FF03605E2
:10387000EAE700BF78B138B50D46F0210446FFF7FE
:1038800047FB402320462560E36500F091FA0038AD
:1038900018BF012038BD0120704700BFF0B5056E8C
:1038A000A5B0044604AEE5B90023012701933046D4
:1038B0006760294602AA009300F046FA10B1012081
:1038C00025B0F0BD2A46204602A900F099FA00284A
:1038D000F5D1204600F0AAFB0028F0D1206625B0E3
:1038E000F0BD802D2A46304628BF802204F16401B5
:1038F000FFF70CFB256ED7E7002800F0AE802DE91E
:10390000F04F1446A5B0002A3DD00F46002949D0FB
:10391000B2F5803F0546006E20D34FF6FF7805F1E3
:10392000640AEB6D1A1AB2FBF3F103FB1122002AB1
:1039300065D18342B9464FF6FF7672D0B6FBF3FBF2
:1039400003FB0BFBBBF1000F30D1002E45D1A4F5DA
:103950007F44FF3CB4F5803F4744E2D2EA6D161A3B
:10396000B6FBF2F302FB1366A64228BF2646002EE2
:1039700075D1824200F08D80B4FBF2F602FB06F6B0
:103980002EB9002C79D1002025B0BDE8F08F00239E
:1039900031463846CDE9003302AA00F0D5F90028B7
:1039A00000F09580012025B0BDE8F08F0023594636
:1039B0004846CDE9003302AA00F0C6F90028F1D14B
:1039C0005A46284602A900F01BFA0028EAD1A6EBC5
:1039D0000B06286ED944002EB9D01930494632461C
:1039E00005EB8000FFF792FAA4F57F44286EFF3CB8
:1039F0003044B4F5803F4744286692D2AEE7424552
:103A000028BF4246164639465044FFF77FFA286ED3
:103A1000EB6D3044834207EB06092866A8EB0606E7
:103A20008CD1802B28BF802351461A4604A8FFF76B
:103A30006DFA0023E96D02AACDE9003304A800F075
:103A400083F90028AED12846EA6D02A900F0D8F922
:103A50000028A7D1EB6D286670E70120704705F1BB
:103A60006403394632461844FFF750FA286EEA6D6F
:103A70003044A41B374428667BE72B6E224619335B
:103A800005EB83003946FFF741FA2B6E23442B6682
:103A900079E7802A28BF802205F1640104A8FFF796
:103AA00035FA0023E96D04A8CDE9003302AA00F03D
:103AB0004BF900287FF476AF2846EA6D02A900F0A2
:103AC0009FF900287FF46EAFEA6D286654E732460E
:103AD000284602A900F094F900287FF463AF374428
:103AE000A41B4EE7F8B51C460546114816460F467E
:103AF000FFF744FE21460E48FFF75AFE044620B168
:103B00000B48FFF74FFE2046F8BD3A4629460848C5
:103B1000FFF762FE04460028F2D131460448FFF761
:103B200085FE04460248FFF73DFE2046F8BD00BF73
:103B3000282700201C2370B582B001A905460193F7
:103B400000F032F8044638B9019B1C2B07D0144C06
:103B50001C212846FFF7DCF9204602B070BDD5E9EC
:103B60000112131E18BF0123003918BF01210126BD
:103B700028689B00EA6843EA4103002818BF43F025
:103B80000103EE612AB9C5E90834002BE4D1054CE4
:103B9000DEE7204643F00803C5E9083402B070BDF3
:103BA000370CF0000E0CF0000346002866D0002908
:103BB00064D00A681C2A61D14FF47F023B49D2F8D5
:103BC000100C88425CD0D2F8101C013158D0D2F8C9
:103BD000101C4FF47F021960D2F8140C344988424B
:103BE00060D0D2F8141C01315CD0D2F8141C4FF410
:103BF0007F025960D2F8181C11F5947F4FD0D2F88B
:103C0000181C01314BD0D2F8181C4FF47F02996078
:103C1000D2F81C0C274988423ED0D2F81C1C013136
:103C20003AD0D2F81C1C4FF47F02D960D2F8001CA5
:103C300070312FD0D2F8001C01312BD0D2F8001CEB
:103C40004FF47F021961D2F8041CAF3120D0D2F8B2
:103C5000041C01311CD0D2F8041C4FF47F025961BE
:103C6000D2F8080C144988420DD0D2F8081C013152
:103C700009D0D2F8082C00209A61704701207047C3
:103C800040F6FC01A5E740F2373200209A61704708
:103C90005121E2E79021D3E742F60411C3E740F651
:103CA000D861B2E742F2D001A1E700BFFCF8FFFF04
:103CB000D020FFFF0429FFFF37F3FFFF014608B5BF
:103CC0004FF48060FFF7AEF80022034BC3F8C82121
:103CD000C3F82C2108BD00BF00108450013807280C
:103CE00005D8DFE800F0100E040A040404060748B3
:103CF0007047CB6800204B6270478B6800204B6296
:103D000070474B68F6E70B68F4E700BF310CF10031
:103D10000B6802E0082B0B6006D8026A13424FEAD8
:103D20004303F7D00020704700487047310CF10082
:103D30000022044B4FF48060C3F82C21C3F8C42147
:103D4000FFF756B800108450F0B5002483B0B0F1EE
:103D5000005F8DF8074025D38C468444BCF1804F2A
:103D600004461FD817461D4601220DF1070300F037
:103D700097F90646B0B99DF80730099A3C603B7147
:103D800092B14DB10246089928460DF1070300F0A3
:103D900087F938B99DF807303046099A15601371D4
:103DA00003B0F0BD4FF47506304603B0F0BD00BF60
:103DB000D8B108B50368012B04D0022B0FD043B152
:103DC0000B4808BD20220B490830FFF79FF8002060
:103DD00008BD142208490830FFF798F8F7E72022B9
:103DE00006490830FFF792F8F1E74FF47300704787
:103DF0000100F300E44500002446000004460000F2
:103E00002DE9F843002900F0F9800446002800F06D
:103E1000F98003680F469046002B00F0C380013BF9
:103E2000012B00F2D7804FF0FF3178484FF00209A4
:103E3000FFF786F8002840F0BF800020FFF7B0F8B9
:103E40000646002840F0C280714AD2F81C39002B87
:103E5000FBD16F4DD5F8203C002BFBD14FF0FF304C
:103E6000FEF7C6FFD5F8040A20F04000FEF7CEFFAB
:103E700001230722C5F81838C5F80029C5F8C4374A
:103E8000A36CC5F8CC37E36CC5F8D037C5F8C0973C
:103E900023685BB1013B012B18D8636AC5F85C3617
:103EA000236AC5F85836E369C5F85436A269584BF9
:103EB000C3F850266269C3F84C262269C3F8482625
:103EC000E268C3F84426A268C3F84026504AD2F8F4
:103ED0001039002BFBD1B8F1000F5FD06368402090
:103EE000012B08BFC2F884363A68494BC3F8282C26
:103EF000C3F82C8CFEF790FF0646454AD2F81039DD
:103F0000002BFBD1424AD2F8203C002BFBD1236886
:103F10005BB1013B012B18D8D2F85C366362D2F852
:103F200058362362D2F85436E361394BD3F8502621
:103F3000A261D3F84C266261D3F848262261D3F8F7
:103F40004426E260D3F84036A36000230121304AC2
:103F5000D2F8CC07A064D2F8D007E064C2F8C41746
:103F6000C2F88436C2F8C837D2F81039002BFBD11A
:103F7000C2F81838002E3BD1254BD3F8040A40F084
:103F80004000FEF743FF0120FFF70AF860BB1F481F
:103F9000FEF7DEFF10BB3046BDE8F8830423C2F80D
:103FA000C837AAE74FF0FF3118484FF00109FEF774
:103FB000C7FF00283FF441AF1648FFF757F800202D
:103FC000FEF7EEFF064600283FF43EAF1248FFF72B
:103FD0004DF839E7114E3046BDE8F8831048FFF739
:103FE00045F83046BDE8F8830E48FFF73FF8CEE7C6
:103FF000102104F10800FEF78BFFBDE70A4E3046A2
:10400000BDE8F8834FF47306C5E700BFB010002089
:1040100000108450E0440000F84400000100F30068
:1040200038450000184500000300F300A0B3034624
:1040300070B4D0E90240D3E9041226BA05BA0CBA2A
:1040400010BAC3E90440D3E90612986A09BAC3E971
:10405000026512BA996100BAD3E9084125BA0CBACF
:10406000C3E90725D3E90B12C3E9094009BAD86BA4
:1040700012BAD962D3E90D4125BAC3E90C250CBAAD
:1040800000BAD3E9101209BA12BAC3E90E40196492
:1040900000205A6470BC70474FF47300704700BF33
:1040A00000201870704700BF08B5074B044613B1D5
:1040B0000021AFF30080054B1868836A03B198476D
:1040C000204600F08DF800BF0000000038460000D8
:1040D00070B50D4D00260D4C641BA410A64209D1ED
:1040E0000B4D00260B4C00F0E1F9641BA410A64216
:1040F00005D170BD55F8043B01369847EEE755F8F9
:10410000043B01369847F2E76C1100206C11002047
:104110006C11002070110020431810B501D21F2A25
:1041200001D9002010BD013902F014030144102B05
:1041300080EA01043CD009DC8BB1042BF1D11F2CA7
:1041400040E840F315D941E840F10EE0142BE8D1E6
:104150001F2C40E8C0F30CD941E8C0F105E01F2C4A
:1041600040E800F305D941E800F11C460B468C42BB
:10417000D7D122F01402013A0A2AD2D801A151F86B
:1041800022F000BFD3410000CD410000BF4100003C
:10419000234100002341000023410000234100008F
:1041A000D9410000D3410000C7410000BF410000D9
:1041B0001F2C40E880F3DCD941E880F1D5E713F407
:1041C000001FAFD1ADE713F4801FFAE75B02A9D55A
:1041D000A7E713F4002FF4E713F4802FF1E700BFF3
:1041E000FEE700BF002383F300887047FDF70ABC99
:1041F000EFF30880EFF309812DE9F00F6B4672466B
:10420000FCF7AAFB08B0FFF7F1FFFEE7FDF7FABBEA
:10421000EFF30880EFF309812DE9F00F6B4672464A
:10422000FCF79AFB08B0FFF7F1FFFEE7FDF7EABBEA
:10423000EFF30880EFF309812DE9F00F6B4672462A
:10424000FCF78AFB08B0FFF7F1FFFEE7FDF7DABBEA
:10425000EFF30880EFF309812DE9F00F6B4672460A
:10426000FCF77AFB08B0FFF7F1FFFEE7FDF7CABBEA
:10427000EFF30880EFF309812DE9F00F6B467246EA
:10428000FCF76AFB08B0FFF7F1FFFEE770B50446E4
:104290003AB141EA040313F003030CD1D518032DFE
:1042A0000FD822F003031C441944002302F0030238
:1042B00093420CD170BD11F8013B013A04F8013B67
:1042C000E6E7CD1A2E68E51A2E60043BE6E75D5C52
:1042D000E5540133ECE7F0B5044662B922F003037C
:1042E000234402F003021A44934214D1F0BD04F8AF
:1042F000011B013AF1E7A307F9D115460B0443EA84
:1043000001630B4343EA01231619032DE6D9771BFA
:104310003B60043DF9E703F8011BE5E708B5EFF35F
:104320000583C3F308030BB1FDF76CFBBDE8084040
:10433000FDF7F0BB10B50446EFF30583C3F30803A4
:104340000BB1FDF75FFB2046BDE81040FDF7E5BB74
:104350002DE9F04104460D4616461F46EFF305834E
:10436000C3F308030BB1FDF74DFB3B46324629462C
:104370002046BDE8F041FCF795BE2DE9F04104462A
:104380000D4616461F46EFF30583C3F308030BB132
:10439000FDF738FB3B46324629462046BDE8F04152
:1043A000FCF7BABE08B5EFF30583C3F308030BB1FE
:1043B000FDF728FBBDE80840FDF77FBB00207047F4
:1043C000704710B5044608B1FDF7BAFF2046BDE8B6
:1043D0001040FDF7A5BF10B50446406A10B1A16AB0
:1043E000FFF7EFFF0020C4E9090010BD38B504460F
:1043F000FFF7F1FF236A2C22012B0CBF05466FF05B
:10440000960500212046FFF766FF284638BD0020AC
:10441000704770470020704713B5002001AB144669
:10442000FEF742F830B9019BA34218BF6FF093002A
:1044300002B010BD6FF09200FAE70020704788428A
:1044400010B501EB020402D98442234607D8431E6B
:10445000A14208D011F8012B03F8012FF8E702441C
:1044600001468A4200D110BD13F8014D02F8014DFA
:10447000F7E72DE9E04F2746A046A146A246A3460E
:10448000A446A2B02DEC000A84F3008825462646F7
:10449000A447EFF3148515F0080F18BFB0EE400ADB
:1044A0003DEC000A22B0BDE8E08F0000F8B500BF87
:1044B000F8BC08BC9E467047F8B500BFF8BC08BC05
:1044C0009E467047FF8FFFFFFF8FFFFFFE8FFFFFAE
:1044D000FE8FFFFFFD8FFFFFFC8FFFFFFC8FFFFFB5
:1044E0004661696C20746F20616371756972652023
:1044F0006D757465780A00004661696C20746F20E0
:10450000696E63726561736520504D20636F756ECF
:104510007465720A000000004661696C20746F20A7
:10452000646563726561736520504D20636F756EBD
:104530007465720A000000004661696C20746F2087
:1045400072656C65617365206D757465780A00002D
:10455000436F756C64206E6F74206C6F636B20709A
:104560006F7765722073617665206D75746578006C
:104570006D757465785F667265652063616C6C65E6
:10458000642077697468204E554C4C2070617261CC
:104590006D6574657200000043616E277420696E5A
:1045A000697469616C697A65206D757465782C2011
:1045B000776173204E554C4C0D0A00004661696CC2
:1045C00020746F20756E6C6F636B206D75746578E9
:1045D0000A0000000A637478206973204E554C4C21
:1045E0000A00000067E6096A85AE67BB72F36E3C9D
:1045F0003AF54FA57F520E518C68059BABD9831FAE
:1046000019CDE05BD89E05C107D57C3617DD70302B
:1046100039590EF7310BC0FF11155868A78FF9648F
:10462000A44FFABE0123456789ABCDEFFEDCBA98F3
:1046300076543210F0E1D2C30C11002054464D5F85
:1046400043525950544F0054464D5F504C415446CC
:104650004F524D5F534552564943450000000000FC
:107C00007FE97FE9FAF73CB97FE97FE9FAF747B9FD
:107C10007FE97FE9FAF76FB97FE97FE9FAF762B99F
:107C20007FE97FE9FAF74AB9000000000000000090
:107C30000000000000000000000000000000000044
:107C40007AFFFFFF90ED00E0E011002074110020AA
:107C500044010000C1430000BD430000D7420000C2
:107C6000A8100020D8100020D0100020CC10002038
:107C7000C81000203D3000003130000025300000E9
:107C8000000000004930000004110020FC1000201A
:107C9000F410002000000000EC100020553100001E
:107CA000A1300000D53000001D310000CC240020A0
:107CB0003A00003AD02400203A00003AD4240020B0
:107CC0003A00003AD82400203A00003A00000000B0
:107CD00000000000000000000000000000000000A4
:107CE0000000000000000000000000000000000094
:107CF0000000000000000000000000000000000084
:107D00000000000000000000000000000000000073
:107D10000000000000000000000000000000000063
:107D2000000000000000000000000000751F0000BF
:047D30004D1F0000E3
:00000001FF
