:10800000803E012001E5000011DF00009DE400003A
:108010009DE400009DE400009DE400009DE400005C
:1080200000000000000000000000000061E7000008
:108030009DE4000000000000FDE600009DE400005B
:1080400065EA000065EA000065EA000065EA0000F4
:1080500065EA000065EA000065EA000065EA0000E4
:1080600065EA000065EA000065EA000065EA0000D4
:1080700065EA000065EA000065EA000065EA0000C4
:1080800065EA000065EA000065EA000065EA0000B4
:1080900065EA000065EA000065EA000065EA0000A4
:1080A00065EA000065EA000065EA000065EA000094
:1080B00065EA000065EA000065EA000065EA000084
:1080C00065EA000065EA000065EA000065EA000074
:1080D00065EA000065EA000065EA000065EA000064
:1080E00065EA000065EA000065EA000065EA000054
:1080F00065EA000065EA000065EA000065EA000044
:1081000065EA000065EA000065EA000065EA000033
:1081100065EA000065EA000065EA000065EA000023
:1081200065EA000065EA000065EA000065EA000013
:1081300065EA000065EA000065EA000065EA000003
:0481400065EA0000EC
:04814400FFFFFFFF3B
:108148004FF0FF0C1CEAD0521EBF1CEAD15392EA32
:108158000C0F93EA0C0F6FD01A4480EA010C40020E
:1081680018BF5FEA41211ED04FF0006343EA501068
:1081780043EA5111A0FB01310CF00040B1F5000FAA
:108188003EBF490041EAD3715B0040EA010062F159
:108198007F02FD2A1DD8B3F1004F40EBC25008BF43
:1081A80020F00100704790F0000F0CF0004C08BF61
:1081B80049024CEA502040EA51207F3AC2BFD2F12E
:1081C800FF0340EAC250704740F400004FF000033C
:1081D800013A5DDC12F1190FDCBF00F00040704776
:1081E800C2F10002410021FA02F1C2F1200200FAB4
:1081F80002FC5FEA310040F1000053EA4C0308BF7B
:1082080020EADC70704792F0000F00F0004C02BFCB
:10821800400010F4000F013AF9D040EA0C0093F046
:10822800000F01F0004C02BF490011F4000F013BA0
:10823800F9D041EA0C018FE70CEAD15392EA0C0F0E
:1082480018BF93EA0C0F0AD030F0004C18BF31F079
:10825800004CD8D180EA010000F00040704790F04F
:10826800000F17BF90F0004F084691F0000F91F0F3
:10827800004F14D092EA0C0F01D142020FD193EAB9
:108288000C0F03D14B0218BF084608D180EA010041
:1082980000F0004040F0FE4040F40000704740F01D
:1082A800FE4040F44000704781F0004102E000BF0A
:1082B80083F0004330B54FEA41044FEA430594EA9E
:1082C800050F08BF90EA020F1FBF54EA000C55EAD9
:1082D800020C7FEA645C7FEA655C00F0E2804FEAAA
:1082E8005454D4EB5555B8BF6D420CDD2C4480EA8C
:1082F800020281EA030382EA000083EA010180EABC
:10830800020281EA0303362D88BF30BD11F0004F09
:108318004FEA01314FF4801C4CEA113102D040423F
:1083280061EB410113F0004F4FEA03334CEA13337A
:1083380002D0524263EB430394EA050F00F0A78092
:10834800A4F10104D5F1200E0DDB02FA0EFC22FA8D
:1083580005F2801841F1000103FA0EF2801843FA81
:1083680005F359410EE0A5F120050EF1200E012A72
:1083780003FA0EFC28BF4CF0020C43FA05F3C018B0
:1083880051EBE37101F0004507D54FF0000EDCF129
:10839800000C7EEB00006EEB0101B1F5801F1BD3D2
:1083A800B1F5001F0CD349085FEA30004FEA3C0CD6
:1083B80004F101044FEA445212F5800F80F09A80CC
:1083C800BCF1004F08BF5FEA500C50F1000041EBD0
:1083D800045141EA050130BD5FEA4C0C404141EBD4
:1083E8000101013C28BFB1F5801FE9D291F0000FCF
:1083F80004BF01460020B1FA81F308BF2033A3F17E
:108408000B03B3F120020CDA0C3208DD02F1140C74
:10841800C2F10C0201FA0CF021FA02F10CE002F1AF
:108428001402D8BFC2F1200C01FA02F120FA0CFCA8
:10843800DCBF41EA0C019040E41AA2BF01EB0451F1
:10844800294330BD6FEA04041F3C1CDA0C340EDCEF
:1084580004F11404C4F1200220FA04F001FA02F332
:1084680040EA030021FA04F345EA030130BDC4F1F0
:108478000C04C4F1200220FA02F001FA04F340EAE5
:108488000300294630BD21FA04F0294630BD94F096
:10849800000F83F4801306BF81F480110134013D7D
:1084A8004EE77FEA645C18BF7FEA655C29D094EAEE
:1084B800050F08BF90EA020F05D054EA000C04BF6C
:1084C8001946104630BD91EA030F1EBF0021002057
:1084D80030BD5FEA545C05D14000494128BF41F0F6
:1084E800004130BD14F580043CBF01F5801130BD5A
:1084F80001F0004545F0FE4141F470014FF00000E5
:1085080030BD7FEA645C1ABF194610467FEA655C95
:108518001CBF0B46024650EA013406BF52EA033537
:1085280091EA030F41F4002130BD00BF90F0000F25
:1085380004BF0021704730B54FF4806404F1320461
:108548004FF000054FF0000150E700BF90F0000F1A
:1085580004BF0021704730B54FF4806404F1320441
:1085680010F0004548BF40424FF000013EE700BF11
:1085780042004FEAE2014FEA31014FEA02701FBFA1
:1085880012F07F4393F07F4F81F06051704732F0D3
:108598007F4208BF704793F07F4F04BF41F400212A
:1085A800704730B54FF4607401F0004521F0004188
:1085B8001CE700BF50EA010208BF704730B54FF012
:1085C80000050AE050EA010208BF704730B511F013
:1085D800004502D5404261EB41014FF4806404F14B
:1085E80032045FEA915C3FF4D8AE4FF003025FEAD1
:1085F800DC0C18BF03325FEADC0C18BF033202EB55
:10860800DC02C2F1200300FA03FC20FA02F001FAAE
:1086180003FE40EA0E0021FA02F11444BDE600BF51
:1086280070B54FF0FF0C4CF4E06C1CEA11541DBF00
:108638001CEA135594EA0C0F95EA0C0F00F0DEF8CB
:108648002C4481EA030621EA4C5123EA4C5350EAB0
:10865800013518BF52EA033541F4801143F4801301
:1086680038D0A0FB02CE4FF00005E1FB02E506F092
:108678000042E0FB03E54FF00006E1FB03569CF0E7
:10868800000F18BF4EF0010EA4F1FF04B6F5007FED
:1086980064F5407404D25FEA4E0E6D4146EB06065F
:1086A80042EAC62141EA55514FEAC52040EA5E50E8
:1086B8004FEACE2EB4F1FD0C88BFBCF5E06F1ED892
:1086C800BEF1004F08BF5FEA500E50F1000041EBC9
:1086D800045170BD06F0004646EA010140EA020076
:1086E80081EA0301B4EB5C04C2BFD4EB0C0541EA98
:1086F800045170BD41F480114FF0000E013C00F3AD
:10870800AB8014F1360FDEBF002001F0004170BDD0
:10871800C4F10004203C35DA0C341BDC04F11404E9
:10872800C4F1200500FA05F320FA04F001FA05F275
:1087380040EA020001F0004221F0004110EBD37042
:1087480021FA04F642EB06015EEA430E08BF20EA6E
:10875800D37070BDC4F10C04C4F1200500FA04F311
:1087680020FA05F001FA04F240EA020001F00041A3
:1087780010EBD37041F100015EEA430E08BF20EA16
:10878800D37070BDC4F1200500FA05F24EEA020E5E
:1087980020FA04F301FA05F243EA020321FA04F08D
:1087A80001F0004121FA04F220EA020000EBD37044
:1087B8005EEA430E08BF20EAD37070BD94F0000F44
:1087C8000FD101F00046400041EB010111F4801F78
:1087D80008BF013CF7D041EA060195F0000F18BF29
:1087E800704703F00046520043EB030313F4801F65
:1087F80008BF013DF7D043EA0603704794EA0C0F1F
:108808000CEA135518BF95EA0C0F0CD050EA410634
:1088180018BF52EA4306D1D181EA030101F00041B1
:108828004FF0000070BD50EA410606BF10461946D9
:1088380052EA430619D094EA0C0F02D150EA0136E5
:1088480013D195EA0C0F05D152EA03361CBF104626
:1088580019460AD181EA030101F0004141F0FE41C5
:1088680041F470014FF0000070BD41F0FE4141F449
:10887800780170BD70B54FF0FF0C4CF4E06C1CEA49
:1088880011541DBF1CEA135594EA0C0F95EA0C0FFE
:1088980000F0A7F8A4EB050481EA030E52EA0335B9
:1088A8004FEA013100F088804FEA03334FF08055DA
:1088B80045EA131343EA12634FEA022245EA111507
:1088C80045EA10654FEA00260EF000419D4208BFB8
:1088D800964244F1FD0404F5407402D25B084FEA65
:1088E8003202B61A65EB03055B084FEA32024FF411
:1088F80080104FF4002CB6EB020E75EB030E22BF6E
:10890800B61A754640EA0C005B084FEA3202B6EB2D
:10891800020E75EB030E22BFB61A754640EA5C00DC
:108928005B084FEA3202B6EB020E75EB030E22BF6C
:10893800B61A754640EA9C005B084FEA3202B6EB6D
:10894800020E75EB030E22BFB61A754640EADC002C
:1089580055EA060E18D04FEA051545EA16754FEA8E
:1089680006164FEAC30343EA52734FEAC2025FEAAC
:108978001C1CC0D111F4801F0BD141EA00014FF03B
:1089880000004FF0004CB6E711F4801F04BF01430C
:108998000020B4F1FD0C88BFBCF5E06F3FF6AFAE28
:1089A800B5EB030C04BFB6EB020C5FEA500C50F1B8
:1089B800000041EB045170BD0EF0004E4EEA11313B
:1089C80014EB5C04C2BFD4EB0C0541EA045170BD42
:1089D80041F480114FF0000E013C90E645EA060E86
:1089E8008DE60CEA135594EA0C0F08BF95EA0C0FB4
:1089F8003FF43BAF94EA0C0F0AD150EA01347FF4FC
:108A080034AF95EA0C0F7FF425AF104619462CE7D2
:108A180095EA0C0F06D152EA03353FF4FDAE104635
:108A2800194622E750EA410618BF52EA43067FF486
:108A3800C5AE50EA41047FF40DAF52EA43057FF416
:108A4800EBAE12E74FEA4102B2F1E04324BFB3F5BF
:108A5800001CDCF1FE5C0DD901F0004C4FEAC002AD
:108A68004CEA5070B2F1004F40EB830008BF20F091
:108A78000100704711F0804F21D113F13872BCBF4B
:108A880001F00040704741F480114FEA5252C2F1A0
:108A98001802C2F1200C10FA0CF320FA02F018BFE9
:108AA80040F001004FEAC1234FEAD32303FA0CFC3C
:108AB80040EA0C0023FA02F34FEA4303CCE77FEACB
:108AC800625307D150EA01331EBF4FF0FE4040F415
:108AD8004000704701F0004040F0FE4040F40000C4
:108AE800704700BF80F0004002E000BF81F0004105
:108AF80042001FBF5FEA410392EA030F7FEA226C3C
:108B08007FEA236C6AD04FEA1262D2EB1363C1BFCB
:108B1800D218414048404140B8BF5B42192B88BF3A
:108B2800704710F0004F40F4000020F07F4018BF5D
:108B3800404211F0004F41F4000121F07F4118BF7D
:108B4800494292EA030F3FD0A2F1010241FA03FC25
:108B580010EB0C00C3F1200301FA03F100F000430D
:108B680002D5494260EB4000B0F5000F13D3B0F1D5
:108B7800807F06D340084FEA310102F10102FE2A44
:108B880051D2B1F1004F40EBC25008BF20F00100B4
:108B980040EA03007047490040EB0000013A28BF53
:108BA800B0F5000FEDD2B0FA80FCACF1080CB2EBD6
:108BB8000C0200FA0CF0AABF00EBC2505242184354
:108BC800BCBFD0401843704792F0000F81F40001F9
:108BD80006BF80F400000132013BB5E74FEA4103CC
:108BE8007FEA226C18BF7FEA236C21D092EA030F38
:108BF80004D092F0000F08BF0846704790EA010FB2
:108C08001CBF0020704712F07F4F04D1400028BFDE
:108C180040F00040704712F100723CBF00F50000C0
:108C2800704700F0004343F0FE4040F400007047F6
:108C38007FEA226216BF08467FEA236301464202A2
:108C480006BF5FEA412390EA010F40F480007047B5
:108C58004FF0000304E000BF10F0004348BF40425B
:108C68005FEA000C08BF704743F0964301464FF097
:108C780000001CE050EA010208BF70474FF00003F3
:108C88000AE000BF50EA010208BF704711F0004334
:108C980002D5404261EB41015FEA010C02BF844604
:108CA8000146002043F0B64308BFA3F18053A3F563
:108CB8000003BCFA8CF2083AA3EBC25310DB01FAAA
:108CC80002FC634400FA02FCC2F12002BCF1004F2E
:108CD80020FA02F243EB020008BF20F001007047BF
:108CE80002F1200201FA02FCC2F1200250EA4C0013
:108CF80021FA02F243EB020008BF20EADC70704759
:108D080053B94AB9002908BF00281CBF4FF0FF31EA
:108D18004FF0FF3000F00CB8ADF1080C6DE904CE4F
:108D280000F008F8DDF804E0DDE9022304B070473C
:108D3800704700BF2DE9F04786468C460846089ED6
:108D4800154674461946002B40F0C1808542B2FA98
:108D580082F245D94AB1C2F1200300FA02FC9540DB
:108D680094402EFA03F343EA0C0C4FEA154EA8B2CE
:108D7800230CBCFBFEF80EFB18CC08FB00F943EAF9
:108D88000C43994528D9EB1808F1FF3704D29945C7
:108D980002D9A8F102072B44A3EB0903A4B2B3FB41
:108DA800FEFC0EFB1C330CFB00F044EA0344A0421B
:108DB80014D92C190CF1FF3304D2A04202D9ACF11A
:108DC80002032C44241A43EA07401EB1D44000236E
:108DD80034607360BDE8F0874746DDE76346F1E736
:108DE80092BB431B01214FEA154EAFB2200CB3FBD7
:108DF800FEFC0EFB1C330CFB07F840EA03439845C6
:108E080061D9EB180CF1FF3004D2984502D9ACF1C6
:108E180002002B44A3EB0803A4B2B3FBFEFC0EFB39
:108E28001C330CFB07F744EA0344A7424DD92C191D
:108E38000CF1FF3304D2A74202D9ACF102032C444F
:108E4800E41B43EA0040C0E7C2F120039540944088
:108E580020FA03F12EFA03F34FEA154E9040AFB211
:108E68000343B1FBFEFC0EFB1C10190C0CFB07F8AE
:108E780041EA0041884522D969180CF1FF3004D233
:108E8800884502D9ACF102002944A1EB08019BB244
:108E9800B1FBFEFC0EFB1C110CFB07F743EA014378
:108EA8009F420ED9EB180CF1FF3104D29F4202D930
:108EB800ACF102012B44DB1B41EA004193E7604619
:108EC800E3E76146F7E76046A4E76346B8E783420D
:108ED80006D916B9002108467CE7C6E900E0F9E79B
:108EE800B3FA83F78FB9834201D3724508D8BEEB32
:108EF800020460EB030301209C461EB9002169E7C8
:108F08003846FAE7C6E9004CF8E7C7F1200CBB4041
:108F18000EFA07F522FA0CF42EFA0CF1BA401C43AB
:108F280020FA0CF3B8404FEA144901431FFA84FEB3
:108F3800B3FBF9F809FB18300B0C08FB0EFA43EAEF
:108F480000439A4540D9E31808F1FF3004D29A4506
:108F580002D9A8F102002344A3EB0A0389B2B3FBA8
:108F6800F9F809FB183308FB0EFE41EA03418E4568
:108F78002CD9611808F1FF3304D28E4502D9A8F123
:108F88000203214443EA0040A1EB0E01A0FB029832
:108F98004145CE46434602D306D14D4504D2013859
:108FA800B9EB020E68EB0403002EA7D0B5EB0E0256
:108FB80061EB030101FA0CFC22FA07F3F9404CEAD1
:108FC8000303C6E9003199E74046C5E74346D9E7B8
:108FD80010F8012B11F8013B012A28BF9A42F7D05B
:108FE800D01A7047034613F8012B002AFBD1181A30
:108FF8000138704700000000F0B5674B89B01B6866
:1090080007934FF000030023CDE9033304230D46F3
:1090180006460293002800F0B280002900F0AF80D5
:10902800062103A80CF01AFA044678B10346012178
:109038005A4A5B480DF0E8FA574B1A68079B5A40A2
:109048004FF0000300F09E8014F07AFD014603AA59
:1090580030460CF08FF9044648B10346514A0121C5
:109068004F480DF0D1FA03A80CF044FAE4E70121C7
:1090780001AA03A80CF06AFB044610B103464A4A49
:10908800EDE7019BB3B1042B1AD0052B0CBF0923C4
:10909800FF232B70032102AB05AA03A80CF0A6FB43
:1090A800064678B10346414A01213D480DF0ACFA25
:1090B8003446D8E7002300202B706860A860D2E708
:1090C8000723E6E7029B002BF4D020336B4403F818
:1090D8000C0C0146022205A815F0E6FE2B78C0B25A
:1090E800092B06D10F2823D96FF015042346304ADF
:1090F800B5E70F28F8D8072B21D12E4B2E4F33F880
:109108001000D0B1FFF722FA21A3D3E90023FFF71B
:1091180087FAFFF797FC0421686002AB05AA03A849
:1091280002910CF063FB064660B10346234ABBE795
:10913800234B244F33F81000E3E72348EBE76FF0A5
:109148007F04D3E7029B014620336B4403F80C0CE1
:10915800022205A815F0A8FEC3B20F2B07D90121DA
:109168001A4A0F480DF050FA6FF015047BE7581CA7
:10917800C0B2FFF771FD3946FEF7E2FF9EE76FF0D8
:10918800150459E7204609B0F0BD00BFAFF30080D1
:109198007B14AE47E17A244080BE01209B31020057
:1091A80070120200C4310200ED3102000F320200D9
:1091B8003B320200E01902000AD7A33F5F320200E7
:1091C800C01902000AD723400AD7A3408A320200F6
:1091D80007B5084B1B6801934FF00003054B1A684D
:1091E800019B5A404FF0000301D014F0A9FC03B0D2
:1091F8005DF804FB80BE012037B5094C2468019452
:109208004FF00004064C2568019C65404FF00004AF
:1092180001D014F095FC03B0BDE8304004F0A6B9C5
:1092280080BE0120F0B583B0184B00AF1B687B608F
:109238004FF0000302F1080323F00703ADEB030D21
:1092480005466846144617F0A1FB00236E460DF844
:1092580004308AB06A460E49D661C2E905150D493F
:1092680011620D4942F8101F4FF423510B4804F0C6
:10927800D1F8064B1A687B685A404FF0000301D0BA
:1092880014F05EFC0C37BD46F0BD00BF80BE012067
:10929800061A020000020103040000022012020064
:1092A8002DE9F04389B0774B02AF1B687B614FF023
:1092B80000030B7806460C46092B00F2DD80DFE838
:1092C80013F00A0046004A00C700DB00DB00DB00A1
:1092D800CE00DB00D500CD6935B12B466A4A0121A5
:1092E8006A48FFF789FF28E00321694A674804F0C4
:1092F80025F9684B07F1080493E80700664B84E8F2
:1093080007003C606C468AB07B6002AA634B5361DD
:10931800634B93611223D3614FF400731384614B41
:1093280042F8103F4FF4135158482B4604F072F896
:109338003946A546304607F0A5FC524B1A687B69AA
:109348005A404FF0000300F0998014F0F9FBCB6904
:10935800554A0321C4E74A69CB69032100924B4867
:10936800524A04F01DF9D4F81480B8F5006F12D9E8
:10937800DFF83C9149463046A8F5006207F0B8FC92
:10938800051E28D029DBA8EB0508B8F5006FF1D831
:109398006FF0790901E04FF0000942463046444930
:1093A80007F0BEFC0546C0B9237B012B06D1238BF1
:1093B80030463B8107F1080107F0F4FBB9F1000FD3
:1093C80017D063694FF40062012100922F48394A8F
:1093D80004F0E6F8B1E76FF00405237B012B06D112
:1093E800238B30463B8107F1080107F0DBFB002D9A
:1093F80017DB62692E493048FFF714FF06222F4910
:109408002B4817F07DFB10B90BF0EAFA95E7072215
:109418002B49274817F074FB00288ED10BF0F8FA77
:109428008BE715F17A0FCCD02B460121254A174836
:10943800FFF7E2FE0321244A144804F07FF830467F
:1094480007F0E6FB034600283FF477AF1F4A46E7DC
:10945800CB690BB11E4A42E78B881E4A79E7CB6974
:109468000BB11D4A3BE78B881C4A72E7CB69002B7E
:109478003FF463AF1A4A32E71A4A6AE71C37BD4617
:10948800BDE8F08380BE01200B1A02002012020002
:10949800231A0200E01202000100D204391A020065
:1094A800531A020004000001661A0200831A02001F
:1094B800E0E30020A11A0200F01A0200FB1A0200E1
:1094C800021B02000A1B02002A1B0200471B0200A3
:1094D800601B0200761B02008B1B0200A11B02000E
:1094E800B61B0200CE1B02002DE9F04389B01D46D1
:1094F8004FF01008214BDFF8889000AF1B68FB6124
:109508004FF0000306461446C7E904253973C7F827
:109518000490C7F8088005F04FFFBB7E2A46214615
:10952800388323F0030317486C46BB76FFF77AFEAF
:109538008AB06A46144BC2F81C80C2E905394FF458
:1095480000731384114B42F8103F00234FF413515A
:109558000F4803F05FFF3046A546391D07F0CEFAE5
:10956800064B1A68FB695A404FF0000301D014F00B
:10957800E7FA2437BD46BDE8F08300BF80BE01206E
:10958800EC1B0200FD1B02000A1C02000400000183
:10959800201202002DE9F04F9FB00126574B02AF71
:1095A8001B68FB664FF00003044607F02BFA5022B5
:1095B8000021381D17F0F7F93B46002150483A1DA5
:1095C800C7E9036605F01AFF0546A8B10346314608
:1095D8004C4A4D48FFF710FE4C4A31464A4803F0C2
:1095E800ADFF6FF00905454B1A68FB6E5A404FF006
:1095F80000037DD014F0A4FA4FF008093E68DFF8A4
:109608001081DFF804B136B37369082B51D1B369FF
:1096180040495B6801204B6045F6073308804B8062
:1096280007F1540610233246043106F0CBFBE84616
:1096380088B002AB384AC3E905264FF400729A8312
:109648001A46364B42F8103F00234FF4E6512E4895
:1096580003F0E0FEC546386805F0E6FE2D4B07F13D
:10966800540663632E4B1721A36430462D4A10F02D
:1096780031FC0346002831D001212B4A2248FFF74C
:10968800BBFD2A48E062FFF7ADFC294B294AE3639A
:10969800294B2063A363042384F85E30274BE364DB
:1096A8004FF40063C4E915232365002384F82430AC
:1096B80099E7EA468AB002AAC2E905831823136229
:1096C8000523C2F81C9042F8103F00234FF42151A3
:1096D800584603F09FFED546366894E787F863003E
:1096E8000F231421164A0096104815F0EFF9C8E721
:1096F80028467437BD46BDE8F08F00BF80BE012004
:109708001F1C02003E1C020020120200551C020011
:10971800921C0200ACE300207C1C02000300000144
:10972800A9920000B51C0200BD1C0200CCE3002079
:1097380030C60020E0EB002038C60020E0F300200F
:10974800DE1C020007B503460D4A90F82400126893
:1097580001924FF0000260B99B6A0B6001238B8075
:10976800074B1A68019B5A404FF0000304D014F0CD
:10977800E7F96FF08500F3E703B05DF804FB00BF7D
:1097880080BE012007B50B4BB0F5A07F1B68019385
:109798004FF0000302BF0122074B1A70054B1A68ED
:1097A800019B5A404FF0000301D014F0C9F903B0EF
:1097B8005DF804FB80BE0120E0FB002037B5094CB2
:1097C800246801944FF00004064C2568019C65400C
:1097D8004FF0000401D014F0B3F903B0BDE83040F5
:1097E80003F0C4BE80BE012013B50A4A1268019274
:1097F8004FF00002074A1468019A54404FF00002E3
:1098080001D014F09DF983681B6802B0BDE81040D0
:10981800184700BF80BE012090B583B0274B00AF2A
:109828001B687B604FF00003037853B1032B27D0EC
:10983800224B1A687B685A404FF000033AD014F064
:109848007FF9037A012B19D0052BF1D11C4B6C46FB
:1098580088B06A461B49C2E905134FF40073938325
:10986800194B42F8103F00234FF4E651174803F014
:10987800D1FDA546164812F0EDFDD9E7154BE6E7F0
:10988800017A154A154B6C4688B0012908BF134662
:109898006A461349C2E905134FF4007393830A4BD0
:1098A80042F8103F00234FF4E651084803F0B2FD98
:1098B800A546BDE70C37BD4690BD00BF80BE012060
:1098C8002D1D0200501D020003000001201202009D
:1098D800B0CD0020141D0200411D02004B1D0200E6
:1098E800701D020007B56FF01002444B00211B6881
:1098F80001934FF00003424B1A706FF041025A7007
:1099080001229A70DA701A719A716FF061021A72F4
:109918006FF067025A7234229A7268225971D971AB
:109928003849DA720A881A8201320A806FF03201E5
:1099380003F5005291746FF05401D174324A123316
:1099480002F1400152F8040B8A4243F8040BF9D1A2
:109958002D4B2E4A03F1100153F8040B8B4242F8A9
:10996800040BF9D180222A492A4817F00FF82A4B0C
:109978002A4A03F1300153F8040B8B4242F8040BD6
:10998800F9D11B8803211380254842F21403254A84
:10999800FFF714FF002140F6CD4013F0B3FF042376
:1099A8000321214A1E48FFF709FF002140F6CD4058
:1099B80013F0A8FF42F214030121114A1B48FFF7D4
:1099C80093FD034680B10D4A1168019A51404FF04A
:1099D800000201D014F0B4F80321154A104803B06E
:1099E8005DF804EBFFF7EABE044B1A68019B5A4086
:1099F8004FF00003EED103B05DF804FB80BE0120F8
:109A0800E1FB0020C4E3002074CB0020F30B01200D
:109A180074CA0020FD03012088CA0020F313012026
:109A2800201202007D1D0200931D0200F8D90020BB
:109A38009C1D02002DE9F341404B05461B6801932C
:109A48004FF0000301223E4C3E4F04F5005895426A
:109A58003B880BD201333B80384B1A68019B5A4034
:109A68004FF000035ED102B0BDE8F0816FF0100145
:109A780021706FF0410161700121A28056186FF0CA
:109A8800610222726FF0670223826FF03203627202
:109A9800342288F812306FF05403A272682288F8D2
:109AA8001330294BE272294AA170E170B6B2E58001
:109AB80003F1400153F8040B8B4242F8040BF9D12F
:109AC800214B234A03F1100153F8040B8B4242F84F
:109AD800040BF9D180221F491F4816F057FF1F4B6E
:109AE8001F4A03F1300153F8040B8B4242F8040B70
:109AF800F9D11B88032113801A4842F214031A4A29
:109B0800FFF75CFE42F21403224600211748FFF7D4
:109B1800EBFC034680B1094A1168019A51404FF0A5
:109B2800000201D014F00CF80321114A0D4802B0CC
:109B3800BDE8F041FFF742BE324688E780BE01200B
:109B4800E1FB0020C4E3002074CB0020F3FB0020DD
:109B5800F30B012074CA0020F303012088CA0020F7
:109B6800F3130120201202007D1D0200F8D9002005
:109B78009C1D020007B5194B01291B6801934FF082
:109B880000030BD0022919D0144B1A68019B5A40C4
:109B98004FF000030BD103B05DF804FBC207F3D507
:109BA8000E4B1A68019B5A404FF0000301D013F086
:109BB800C7FF03B05DF804EBFFF794BE8307E3D556
:109BC800064B1A68019B5A404FF00003EFD1322030
:109BD80003B05DF804EBFFF72DBF00BF80BE012086
:109BE800F0B5674B89B0002206210F201B68079348
:109BF8004FF0000304F028FE624B634A02934FF4CF
:109C0800C063ADF80C30614B04A904934FF4407362
:109C1800ADF8143007238DF816305D4B02A8069373
:109C28000FF048FC02A80FF07BFC4FF47A7102A8F1
:109C38000FF08EFC0124024623460021009402A85E
:109C48000FF0D4FC00214FF4804013F05BFE514824
:109C580000F06AFD504811F077FC60B94F4800F0F9
:109C680063FD474B1A68079B5A404FF0000300F00A
:109C7800858013F065FF4A494748FFF7B5FD494914
:109C88004548FFF7B1FD48494348FFF7ADFD47494F
:109C98004148FFF7A9FD0AF06FFD20B1444A21466B
:109CA800444803F04BFC0321434A424803F046FC76
:109CB80008F0C4FF034658B1404A01213D48FFF768
:109CC8007DFD01213E4A3B4803F038FC0020C8E7EF
:109CD80003213C4A374803F031FC3B480CF038FC80
:109CE800034608B1394AE8E74FF0FF324FF0FF3337
:109CF800374812F0E7FB0321364A2E4803F01EFCD2
:109D080001200AF06DFE34480AF094FD20B10121CB
:109D1800324A284803F012FC3148FFF73BFC03465F
:109D2800F0B1304A01212348FFF748FDCEE73C2334
:109D3800032128462C4AFFF741FD4FF4F01000217B
:109D480013F0E0FD304606F085FE0134034660B1AD
:109D58003A4601212846FFF731FD002CE7D1F1E70B
:109D680004461F4E214F134DECE721491C48FFF7CD
:109D7800E9FC03460028A9D01E4AD3E709B0F0BD84
:109D880080BE012000F000408D9700000024F40000
:109D9800B71D0200C41D0200F40F0200D81D020006
:109DA800B8190200B0190200A8190200A01902008F
:109DB800E71D0200201202000C1E0200271E0200EE
:109DC800B51E0200591E020021980000731E0200F1
:109DD800B0CD00209C1E02007D9B0000D31E020017
:109DE800F8D90020FC1E0200211F02003F1F0200BC
:109DF800F0D90020591F02002DE9F04F93B00093CD
:109E0800944B03921B6811934FF00003039B840744
:109E180003F004030293039B0546C3F3C20303F153
:109E280001030E46DDF87090059340F0C481041DCF
:109E380068B1072910D86FF01B00864B1A68119B70
:109E48005A404FF0000300F0B98113F079FE01F099
:109E58000706341DC6F10806009B4FF000084FF0B6
:109E6800040A591E4FF0FF3347460193C346534631
:109E7800CDF810800DB1009A22600598002800F3F3
:109E8800EF807548009A824203D374488242C0F03A
:109E9800E780039AA4EB050E92074FEA9E0000F1B3
:109EA8000A810F2F00F2B180002D00F00C8107F11C
:109EB80048020DEB020C019A0CF8240C0CF8142C37
:109EC800049801300490EEE07A285DD84B280ED82B
:109ED800472859D829282DD8252852D054D82028A1
:109EE8007AD02338D0F1000B4BEB000B74E04C38E0
:109EF8002E2849D8DFE800F07048484848484848C4
:109F0800484848484B484848484848484859484BB2
:109F18004B595959704B6D487048184B184848822E
:109F28007F4B48484B487F0000204FF0000B4FF014
:109F3800040A38E001222A38C0B202FA00F010EA16
:109F48000E0F49D110F0625C2FD110EA020B43D0FA
:109F58006046013C5444B4FBFAF40AFB04F4002DB7
:109F680061D0A3EB050CA4446645FFF464AF002858
:109F780068D1042B47D159F8043B236004230434E7
:109F88002AE0019A013A01924FF0000B24E011F8FF
:109F9800010C6C2834D1002011F8023C83466C2B4C
:109FA800C5D14FF0080A5346D3E709F1070929F04C
:109FB8000709073424F00704F9E802AB35B106981D
:109FC8002044B0423FF637AFC4E900AB4FF0000B76
:109FD80008344FF0080A534611F8010F00287FD0C3
:109FE800BBF1000F7FF470AF2528F5D14FF0010BBE
:109FF800019B013301934FF0040AECE7584694E7BC
:10A0080000208346A5E7082B02D06FF0150014E75F
:10A0180009F1070929F00709F9E80223C4E900232F
:10A0280008230834D8E768B9042B02D109F10409D8
:10A03800A4E7082BE9D109F1070929F0070909F173
:10A048000809EDE7059A013A059259F8042B0092A0
:10A0580010E700BF80BE0120D00E0200B840020009
:10A06800039A900720D54FF0010CA4EB050E4FEA98
:10A078009E00BEF5007FC8D20F2FC6D8F5B107F1F4
:10A0880048020DEB020E019AC0B20EF8240C0EF82D
:10A09800142CBCF1000F3FF413AF60F07F000EF8F2
:10A0A800240C08F101080137C5F108024FF6DA7EE1
:10A0B8000434069290E74FF0000CDAE7BCF1000F89
:10A0C80001D00136EFE7029802360028EBD100985C
:10A0D800CDE90631FEF786FFDDE906310644E2E701
:10A0E800631BB3F5806F90D21DB9A6F10804E01880
:10A0F800A3E6029A9B0828602B709DF81030C2B125
:10A10800EB7085F80280B8F1000F05D0002209A88D
:10A11800C5F1010C97420ED14FF0000AC5F10103B9
:10A128000DF1240901930DF1340B574512D1601B31
:10A1380083E66B70E5E710F8013B190608D504EBD8
:10A148000C0E764503F07F03FFF475AE04F8013B6F
:10A158000132DFE7B8F1000F03D099F90020002A97
:10A1680017DB029BD3B11AF80B2004F8012B00224D
:10A17800019B981820448642FFF45DAE99F80000D0
:10A18800009904F8010B2046039216F0FFFB039A8E
:10A1980014440AF1010A09F10109C6E799F80020F7
:10A1A80055F822300093029B009845F82230FEF7BC
:10A1B80019FF421CDCE76FF00D003EE613B0BDE866
:10A1C800F08F00BF2DE9F3471746224A06460D4691
:10A1D800126801924FF0000298467BB34FF0000AD4
:10A1E80098F8004093F80190DB78A40004EB43044E
:10A1F80098F802301C444444CA450CD31549D8F891
:10A2080004200868019948404FF0000108F108034C
:10A218000DD013F095FC14F8013B0AF1010A204611
:10A2280048F82340FEF7DEFE01300444E4E73946EF
:10A238003046AC4602B0BDE8F0476047054B1A68A7
:10A24800019B5A404FF00003E3D16FF0150002B0B4
:10A25800BDE8F08780BE012073B50025184B024683
:10A268001B6801934FF000032846144614F8013B7D
:10A278000BB9184609E0D8B18D420FD1702B04D024
:10A28800A3F140023A2A13D800200D4B1A68019B0B
:10A298005A404FF0000311D013F052FCA3F14006CE
:10A2A8003A2E05D853780135941C002BE1D00020B4
:10A2B800252B224608BF80F00100D6E702B070BD0A
:10A2C80080BE01202DE9F04F99B000AF7B62D7E93D
:10A2D80022A33B62D7F890307A633B61A34B0446D4
:10A2E8001B68FB654FF00003CAF3C00390F802B087
:10A2F800BB61396349B9457800780BEB800020448D
:10A308003B6B9D421DD8031B3B63E378FB61BBF1AC
:10A31800000F02D01AF0010F1DD1FB69002B30D1BC
:10A328007B6B1BB120467A6A396B98473D6B8F4B24
:10A338001A68FB6D5A404FF0000300F0B18113F02A
:10A34800FFFB461C3046FEF74DFE3B6B01300133E8
:10A3580030443B63D4E723786268FB629B007B61EF
:10A36800FB6ABA6204EB83097B6B002B40F00A811D
:10A37800C84600263D6B09EB0B02904551D1D944E4
:10A3880013E01AF0020FCBD023789946FB629B00AA
:10A398007B61636804EB8909BB627B6B002B7AD114
:10A3A8003D6BBBF1000F50D15E461AF0050F0CBF94
:10A3B800022301237B63FB6909EB43033B630AF038
:10A3C8000203FB623B6B9945B1D019F802BB19F83F
:10A3D800013C54F82380664B984502D3654B984559
:10A3E80039D3BB69002B44D05946B86AFFF734FF0C
:10A3F80000283ED0E8468AB06A465F4B5361BB6A84
:10A40800C2E9063B4FF4007313845C4B42F8103FDB
:10A4180000234FF412515A4802F0FCFF023DC54692
:10A42800D0E718F8013B7A6354F82300FEF7DAFD09
:10A438003B6A7A6B013033B13B699E423EBF3B6A4F
:10A4480023F816000136054497E71AF004061CBFE6
:10A458007E6BD944A9E7BB692BB15946B86AFFF7A7
:10A46800FBFE0028C6D11AF0010F05D17B6BED1A4F
:10A47800A8E7FB6A002BA5D04046FEF7B3FD3B6A70
:10A488003BB13B699E423FBF3A6A431C22F81630F3
:10A498000136054496E7BBF1000F79D01AF004069F
:10A4A80079D0D846002607F14C005A46494616F09E
:10A4B8006DFAFB69D9445B00FB60FB6909EB430358
:10A4C8003B610AF00203BB603B694B4565D1637889
:10A4D8001AF0020F18BF002106EB030208BF4FEA6B
:10A4E80058011AF0010FD2B240F0A9801AF0040FF7
:10A4F80014BF40460020BB626270A070E170204625
:10A508007A6A79697B6B9847051EFFF610AFFB6A7C
:10A5180041462370BB6A7A6A6370FB6984F802B0AB
:10A52800E37007F14C007B6B9847B0F10008C0F26C
:10A53800B3803B6B4846A3EB0B017B697A6AC91A67
:10A54800FB68C91A7B6B98470028C0F2A7804FF0B8
:10A55800000BA84408EB000507F13C0AB34570D38B
:10A5680000217A6A08467B6B9847E0E680BE0120A6
:10A57800D00E0200B8400200811F02000400000152
:10A58800381202005E464FF0000807F13C008CE7E5
:10A598005E46D8468DE7B0468BE719F8021B434B59
:10A5A80019F8015C54F82500984202D3404B9842B0
:10A5B8001FD3BB6933B1B86A7960FFF74DFE79687C
:10A5C800002881D1BB68FBB908F1280307F13802DC
:10A5D80008F1010003EB020C07F1600308F102081F
:10A5E80053FA80F00CF8141C5FFA88F800F8145C31
:10A5F8006AE7BB692BB1B86AFFF72EFE00287FF423
:10A6080063AF1AF0010F09D006F1280307F13802E9
:10A61800711C9E1806F8245CCEB255E71AF0040F98
:10A628003FF452AF08F1280307F1380208F101019D
:10A6380003EB020808F8145C5FFA81F844E700208D
:10A6480059E71BF80A3054F8239087F83B303B6AE7
:10A65800FBB133F81B8001217A6A7B6B07F13B0061
:10A66800984700281ADB0544B8F1000F06D1484680
:10A67800FEF7B8FC00F101081FFA88F84146484681
:10A688007A6A7B6B9847002808DB05440BF1010BBD
:10A6980064E7D7F82080DEE7454648E6054646E603
:10A6A80028466437BD46BDE8F08F00BFD00E0200D3
:10A6B800B840020007B5094B1B6801934FF000032F
:10A6C800064B1A68019B5A404FF0000301D013F063
:10A6D80037FA002003B05DF804FB00BF80BE0120FC
:10A6E80037B5104B8A680C681B6801934FF000035C
:10A6F800551C14B14B68934209DC8D60094B1A68EC
:10A70800019B5A404FF000030AD013F019FA013B9D
:10A71800934208BF00228D600CBFE254A054EDE7BD
:10A7280003B030BD80BE01200FB407B504A90C4B9F
:10A7380051F8040B1B6801934FF00003009102F0DD
:10A748005BFA074B1A68019B5A404FF0000301D08F
:10A7580013F0F6F903B05DF804EB04B0704700BFDE
:10A7680080BE012007B5094B1B6801934FF0000319
:10A77800074B1860054B1A68019B5A404FF00003BD
:10A7880001D013F0DDF903B05DF804FB80BE0120B1
:10A7980040C6002030B5044600250F4887B0006841
:10A7A80005904FF00000CDE902410C48009502A940
:10A7B800049501F089F9DDE903309842064BB8BFEA
:10A7C80025541A68059B5A404FF0000301D013F036
:10A7D800B7F907B030BD00BF80BE0120E9A6000070
:10A7E8000CB437B506AB53F8042B0B4C2468019412
:10A7F8004FF000040093FFF7CDFF074B1A68019B49
:10A808005A404FF0000301D013F09AF903B0BDE8A5
:10A81800304002B0704700BF80BE012007B5044633
:10A8280008461146054A126801924FF000021A467E
:10A83800A04713F093F803F005FF00BF80BE012086
:10A8480013B50D4B00EBC1011B6801934FF00003DA
:10A858008368B3F5004F084B2CBF51F8220031F83C
:10A8680012001A68019B5A404FF0000301D013F000
:10A8780067F902B010BD00BF80BE012037B50D4C8E
:10A8880000EBC101246801944FF000048068B0F522
:10A89800004F2CBF41F8223021F81230054B1A68BE
:10A8A800019B5A404FF0000301D013F049F903B05F
:10A8B80030BD00BF80BE012007B50A4B01221B68CE
:10A8C80001934FF00003FFF7BBFF064B40081A68DF
:10A8D800019B5A404FF0000301D013F031F903B047
:10A8E8005DF804FB80BE012013B5134B00EBC101DA
:10A8F8001B6801934FF000038368B3F5004F10D332
:10A908004B685AB143F001034B600B4B1A68019B2B
:10A918005A404FF000030DD013F012F923F0010351
:10A92800F2E74B881AB143F001034B80EDE723F0BF
:10A938000103FAE702B010BD80BE012013B50A4B2F
:10A948001B6801934FF00003074B1C68019B5C4098
:10A958004FF0000301D013F0F3F85300012202B0C6
:10A96800BDE81040FFF78ABF80BE012007B50D4B38
:10A978001B6801934FF000038368B3F5004F34BFA1
:10A9880004230823C91A074B081A1A68019B5A405E
:10A998004FF000034FEAD00001D013F0D1F803B014
:10A9A8005DF804FB80BE012007B50F4BB0F5004FE2
:10A9B8001B6801934FF0000334BF04230823481C8D
:10A9C8000833A0EBD300084BB0FA80F01A68019B5B
:10A9D8005A404FF00003C0F11F0001D013F0B0F847
:10A9E80003B05DF804FB00BF80BE01202DE9F341F0
:10A9F800214B174603220E4604461B6801934FF06D
:10AA08000003FFF71DFF8642054607F1040811D130
:10AA18000122E368BA4023EA0203E360002344F812
:10AA28002830154B1A68019B5A404FF000031FD07D
:10AA380013F086F8314602222046FFF701FF2B4625
:10AA480003220146064644F828502046FFF716FF21
:10AA5800094B1A68019B5A404FF00003E8D133466E
:10AA680002222946204602B0BDE8F041FFF706BFA2
:10AA780002B0BDE8F08100BF80BE012073B5164B5F
:10AA88000D46866804461B6801934FF00003FFF7E4
:10AA980013FFB6F5004F014601D3012813D0304605
:10AAA800FFF782FF0C4B02461968019B59404FF093
:10AAB800000301D013F044F82946204602B0BDE84F
:10AAC8007040FFF793BF044B1A68019B5A404FF040
:10AAD8000003EFD102B070BD80BE01202DE9F3471D
:10AAE800234B0546806888461B6801934FF0000396
:10AAF800FFF75AFF05EB800ADAF810900646B9F11D
:10AB0800000F21D00327DAF8104028462146FFF726
:10AB1800D3FE40450DD3324621462846FFF766FF4F
:10AB2800134B1A68019B5A404FF000031BD013F0D7
:10AB380007F8032221462846FFF782FE013FCAF89C
:10AB4800100001D08145DED14FF0FF34EB68721C54
:10AB580094401C40E4D094FAA4F2B2FA82F2131D95
:10AB680055F82340D8E7204602B0BDE8F08700BF7B
:10AB780080BE01202DE9F341194B14460E460546C7
:10AB88001B6801934FF00003FFF796FEA71B331BCA
:10AB980003EB00083A4631462846FFF7CFFE424607
:10ABA80021462846FFF7CAFE3B4600222146284692
:10ABB800FFF764FE21462846FFF77EFE084B1A6819
:10ABC800019B5A404FF0000301D012F0B9FF211841
:10ABD80043460022284602B0BDE8F041FFF74EBECA
:10ABE80080BE0120F7B5154B16461B6801934FF040
:10ABF800000304460F46FFF75FFE31460546204630
:10AC0800FFF75AFE05442A4639462046FFF796FEC6
:10AC180031462046FFF750FE084B1A68019B5A4000
:10AC28004FF0000301D012F08BFF31182B460022A1
:10AC3800204603B0BDE8F040FFF720BE80BE0120EB
:10AC4800F7B5304B0D46866804461B6801934FF0F4
:10AC58000003FFF731FEB6F5004F014601D3012886
:10AC680047D03046FFF7A0FE04EB80010E69EEB92D
:10AC78000122E36882401343E36002222B460D6100
:10AC880020462946FFF7FAFD1E4B1A68019B5A40D9
:10AC98004FF0000301D012F053FF2B460322294640
:10ACA800204603B0BDE8F040FFF7E8BD0222314678
:10ACB8002046FFF7C5FD07460346022229462046DF
:10ACC800FFF7DCFD3346032229462046FFF7D6FD71
:10ACD8002B46032239462046FFF7D0FD094B1A6858
:10ACE800019B5A404FF00003D5D12B460222314632
:10ACF800D6E7044B1A68019B5A404FF00003CAD1AB
:10AD080003B0F0BD80BE0120F7B5284B0C461B6888
:10AD180001934FF000030546FFF7CEFD26180122E8
:10AD280031462846FFF78CFDC3070CD43146284628
:10AD3800FFF7A4FE21462846FFF7BEFD214622184C
:10AD48002846FFF74FFF002221462846FFF778FDE7
:10AD5800271A012239462846FFF772FD10F001062E
:10AD680013D139462846FFF789FE21463246284640
:10AD7800FFF766FD2246211A2846FFF733FF2146D2
:10AD880032462846FFF75CFD241A084B1A68019BD7
:10AD98005A404FF0000301D012F0D2FE2146284657
:10ADA80003B0BDE8F040FFF74BBF00BF80BE0120F5
:10ADB80037B5144B1B6801934FF00003C9B1056800
:10ADC8002846FFF7D3FD0022014604462846FFF730
:10ADD8008BFD0C4B1A68019B5A404FF0000301D0C1
:10ADE80012F0AEFE2146284603B0BDE83040FFF71A
:10ADF8008BBF044B1A68019B5A404FF00003EFD1F8
:10AE080003B030BD80BE012073B5224B05681B68B6
:10AE180001934FF0000349B900201E4B1A68019BAB
:10AE28005A404FF0000333D012F08AFEAB68B3EB00
:10AE3800D10FF1D9B3F5004F34BF04230823CC1D3B
:10AE48001C44E40821462846FFF748FE0646002829
:10AE5800E2D001462846FFF72FFDA04209D9344425
:10AE6800314628462246FFF785FE21462846FFF749
:10AE7800E7FE284601223146FFF736FDAB68B3F5F9
:10AE8800004F34BF0423082303EBC603E818C4E7C4
:10AE980002B070BD80BE01202DE9F7430668144654
:10AEA800B268434BB2F5004F01F1FF391B680193BB
:10AEB8004FF0000334BF0423082319EA01090F46A1
:10AEC80013D0494239408B424F4628BF0B4689462A
:10AED800E4B90025364B1A68019B5A404FF000032D
:10AEE8000CD1284603B0BDE8F0839942F0D8304B26
:10AEF8001A68019B5A404FF0000301D012F020FE5F
:10AF0800214603B0BDE8F043FFF77EBFB2EBD40F94
:10AF1800DFD9B2F5004F34BF04220822E11D3944BD
:10AF2800C91A11443046C908FFF7D8FD80460028E1
:10AF3800CFD0B36809EBC005B3F5004F34BF042385
:10AF480008231D4435447B1E1D44B5FBF7F57D439E
:10AF5800A5EB090529463046FFF708FD2C440734C0
:10AF680024F00704A41B804507464FEAE40408D2EE
:10AF7800024641463046FFF7FDFD41463046FFF7A1
:10AF88005FFE39463046FFF797FC3844844208D2C2
:10AF9800394630462246FFF7EDFD21463046FFF799
:10AFA8004FFE012239463046FFF79EFC92E700BF6C
:10AFB80080BE01202DE9F341334BB2F5802F1B6889
:10AFC80001934FF000032CBF082304230025D21A55
:10AFD8008C18CE1D26F0070624F00704A41BE408ED
:10AFE800066021462046B460F560FFF7DDFC421D8F
:10AFF8009200013002F107074FEAD707A2F11002C9
:10B008002946B8BF2A4606F1100015F0CCFC3A468E
:10B0180029463046FFF792FC2B462A4629463046F9
:10B02800FFF72CFCA4EB0708012229463046FFF75E
:10B038005BFC424639463046FFF780FC3B462A46D1
:10B0480039463046FFF71AFC2A4621463046FFF7B4
:10B0580075FC43462A4621463046FFF70FFC01227D
:10B0680021463046FFF740FC074B1A68019B5A40BF
:10B078004FF0000301D012F063FD3946304602B0AC
:10B08800BDE8F041FFF7DCBD80BE012007B5094BE4
:10B098001B6801934FF00003064B1A68019B5A4046
:10B0A8004FF0000301D012F04BFD002003B05DF813
:10B0B80004FB00BF80BE012007B50B4B1B68019342
:10B0C8004FF0000304F07EF816230360064B1A685D
:10B0D800019B5A404FF0000301D012F031FD4FF0B0
:10B0E800FF3003B05DF804FB80BE012007B50A4BB2
:10B0F80008461B6801934FF00003074B11461A6876
:10B10800019B5A404FF0000301D012F019FD03B023
:10B118005DF804EB03F0D6BF80BE012007B5114BE4
:10B128000F281B6801934FF000030ED904F04AF86A
:10B13800092303604FF0FF300A4B1A68019B5A40FD
:10B148004FF000030BD012F0FBFC2822064B02FB49
:10B158000033D3E8AF3F002BE8D00020ECE703B082
:10B168005DF804FB80BE01204CC600200CB40346E9
:10B1780037B506AA08460C4C52F8041BDB6824684D
:10B1880001944FF0000400929847074B1A68019BFE
:10B198005A404FF0000301D012F0D2FC03B0BDE8D2
:10B1A800304002B0704700BF80BE012007B5094B90
:10B1B8001B6801934FF00003064B1A68019B5A4025
:10B1C8004FF0000301D012F0BBFC03B05DF804EBB4
:10B1D80010F034BF80BE012037B5154B15491B68E8
:10B1E80001934FF000032823434308330B44D3E86B
:10B1F800AF2F92B1541ED3E8EF5F954204D1C3E854
:10B20800EC4FBCF1000FF6D1F1D1012A05D128236A
:10B21800584300230A180B505360054B1A68019BCA
:10B228005A404FF0000301D012F08AFC03B030BD41
:10B2380080BE012044C6002073B5134B04460E4659
:10B2480015461B6801934FF00003FFF767FF0028BE
:10B2580015DB282363430D4AD0184068306015B1C8
:10B268000C3313442B6028235C431059064B1A688F
:10B27800019B5A404FF0000303D012F061FC0020FC
:10B28800F4E702B070BD00BF80BE012044C60020B4
:10B2980073B5214B1B6801934FF0000300254FF055
:10B2A800FF334FF0FF321D4810F018FF1C4BD3E856
:10B2B800AF2FB2B10135102D03F12803F7D103F0F8
:10B2C80081FF17234FF0FF3503601448FFF76EFF27
:10B2D800114B1A68019B5A404FF0000319D012F025
:10B2E8002FFC28246C43D3E8EF0F0130C3E8E10FAB
:10B2F8000029F8D10B4E331932515A6004F10C0071
:10B30800304410F075FF04F12000304412F0D4FBF3
:10B31800DBE7284602B070BD80BE012008CD0020C2
:10B328004CC6002044C6002037B5044610462822E3
:10B33800134B54431B6801934FF00003114B1A1928
:10B348001951506098B1C2688AB10D4A1568019ABE
:10B3580055404FF0000201D012F0F2FB40F2051206
:10B368000C34234403B0BDE83040FFF7FFBE044B64
:10B378001A68019B5A404FF00003EDD103B030BD6D
:10B3880080BE012044C6002007B5094B1B68019305
:10B398004FF00003064B1A68019B5A404FF0000318
:10B3A80001D012F0CDFB03B05DF804EBFFF714BF3A
:10B3B80080BE01202DE9F341194B04460F46904603
:10B3C8001B6801934FF00003FFF7A8FE002820DB5D
:10B3D80028235C43134E04F10C0535444FF0FF322B
:10B3E8004FF0FF33284610F079FE33195B68305967
:10B3F800424639465B68984704462846FFF7D6FE1A
:10B40800074B1A68019B5A404FF0000304D012F012
:10B4180097FB4FF0FF34F3E7204602B0BDE8F08118
:10B4280080BE012044C6002007B5164B1B68019357
:10B438004FF00003038B13F007030DD10368002BB3
:10B448000CBF002003200F4B1A68019B5A404FF095
:10B45800000313D012F074FB022B05D1408BB0FA15
:10B4680080F040098000EEE7012B05D10368002B2E
:10B478000CBF00200520E6E70020E4E703B05DF8F4
:10B4880004FB00BF80BE012013B50F4B0C461B68A0
:10B4980001934FF0000300B151B96FF015000A4B4A
:10B4A8001A68019B5A404FF000030AD012F048FB7B
:10B4B800081D00F00DFA0028F1D1A368032BEED97E
:10B4C800EBE702B010BD00BF80BE01202DE9F341BB
:10B4D8000D461E46134B07463146281D1B6801932F
:10B4E8004FF00003904600F01BFA0E4B044680B163
:10B4F8001A68019B5A404FF0000301D012F020FB5C
:10B508003346424629463846A44602B0BDE8F041D3
:10B5180060471A68019B5A404FF00003EED102B011
:10B52800BDE8F08180BE01202DE9F347068B8F4BE3
:10B53800044630071B6801934FF00003914613D46B
:10B54800022906F0070640F0D8802046FFF76CFF76
:10B5580088B10138218B04281BD8DFE810F0CE0011
:10B568001A007A009000A00001290CBF46F01006CE
:10B5780046F02006268389F31188BFF36F8F7B4B33
:10B588001A68019B5A404FF0000300F0EC8012F05B
:10B59800D7FA01F0070AB24500F0A7804FF000087B
:10B5A80045464746A368002B00F0BD8041F00801DE
:10B5B800218389F31188BFF36F8FA168002900F0F8
:10B5C800BC800E68002900F0B8803B4652462046F1
:10B5D800D1F80490C847002E77D0336831461E460C
:10B5E800F0E705F007035A1F012A1CD8002225F0AE
:10B5F8000705062BD4F80080ADB2C4E9002209D1B2
:10B60800434603E0628B013262831B68002BF9D149
:10B6180045F0020520462583FFF706FF00287BD06A
:10B6280045F0200577E0042B0AD125F00705ADB2D7
:10B6380020462583FFF7F8FE10B145F02005258345
:10B64800218B01F0070AB2454FD04FF0000845465C
:10B65800A8E7236921F0070141F00601062E1D68BD
:10B6680021832CD1002D40D041F00801218389F39A
:10B678001188BFF36F8F20463D49A84729E021F084
:10B688000701236941F0040189B2042E5D68218312
:10B69800E8D04FF000084FF0040A474682E721F04F
:10B6A8000701236941F0050189B2052E9D682183B0
:10B6B800D8D04FF000084FF0050A474672E74FF020
:10B6C80000084FF0060A47466CE7334686E7002D28
:10B6D800D1D14FF02003EFF3118983F31288BFF320
:10B6E8006F8F238B23F008032383268BF20631D533
:10B6F80026F01003238306F007066769258B002FC1
:10B70800BFF66FAF0023D4F80080C4E9003325F0FA
:10B71800070545F001052583218B002501F0070A5F
:10B72800B2457FF43FAFB8F1000F9BD041F008015C
:10B73800218389F31188BFF36F8FB8F1000FC6D04A
:10B74800D8F8006041463B4652462046FFF7BEFE09
:10B75800B046F2E7B3067FF50EAF26F02003238349
:10B7680006F00706F1E602B0BDE8F08780BE0120CA
:10B778007DB7000013B50E4A126801924FF000021F
:10B788004FF02004EFF3118284F31288BFF36F8F18
:10B79800074B41611968019B59404FF0000301D0E4
:10B7A80012F0CEF9012102B0BDE81040FFF7BCBE8F
:10B7B80080BE012037B5104B0C461B6801934FF033
:10B7C8000003054698B191B10B6883B14B6873B11A
:10B7D8001C22002115F0E7F800202C61064B1A689E
:10B7E800019B5A404FF0000304D012F0A9F96FF002
:10B7F8001500F3E703B030BD80BE012073B5334BAD
:10B8080005460E461B6801934FF00003FFF73CFE08
:10B81800041E15DB4FF02003EFF3118283F3128827
:10B82800BFF36F8F4FF6FF716B8B2C8B8B4204F03D
:10B8380007040ED182F31188BFF36F8F6FF00A04EB
:10B84800224B1A68019B5A404FF000033AD012F07D
:10B8580077F9022C0CD101336B8382F31188BFF383
:10B868006F8F0023224631462846FFF72FFEE7E771
:10B87800062C14D8DFE804F004131313041A040088
:10B88800002333606B683BB9C5E90066ACB9022197
:10B898002846FFF749FED3E71E606E60F6E782F39D
:10B8A8001188BFF36F8F6FF00404C9E782F3118822
:10B8B800BFF36F8F6FF08504C2E782F31188BFF37F
:10B8C8006F8FBDE7204602B070BD00BF80BE01206B
:10B8D80007B5124B1B6801934FF00003034640B1B4
:10B8E800426802F00302022A06D0032A04D0012A81
:10B8F80005D06FF0150004E01A68002AF9D000207E
:10B908009860064B1A68019B5A404FF0000301D01B
:10B9180012F016F903B05DF804FB00BF80BE0120E9
:10B9280013B5134A0346126801924FF000024268A9
:10B93800002402F00302022A81600FD0032A02D0F9
:10B948005C60002001E018685C60094B1A68019B84
:10B958005A404FF0000308D012F0F2F818685C6003
:10B968000028EED012F068FDEBE702B010BD00BF72
:10B9780080BE0120F7B5104B024601681B68019391
:10B988004FF0000300200A270C4E0B461C780131AB
:10B99800355D6D0709D41360074B1A68019B5A403F
:10B9A8004FF0000306D012F0CBF807FB0043A3F1D9
:10B9B8003000EAE703B0F0BD80BE01204A3F020034
:10B9C8002DE9F74F9A462A4B15461B6801934FF00D
:10B9D8000003D378274A6F2B12F803B081468846B4
:10B9E8000C9E0BF0030B2DD028D8582B0CBF10271A
:10B9F8000A273A46002348464146FDF781F9092AB5
:10BA0800D4B224D83034B945E4B278F1000806F845
:10BA1800014D01D3564517D82B789B0605D5082F1D
:10BA28001BD1AB7843F00803AB70114B1A68019B2C
:10BA38005A404FF0000316D012F082F803F0F703D3
:10BA4800702BD3E70827D4E781468846D1E7BBF1B6
:10BA5800010F0CBF37345734D5E7102FE5D1AB7839
:10BA680043F01003E0E7304603B0BDE8F08F00BFB5
:10BA780080BE01204A3F02002DE9F3411E46114BCA
:10BA88000746884615461B6801934FF00003144685
:10BA9800B44205D30EB1601B08E02378002BFAD01E
:10BAA800414614F8010BB8470028F1DA054B1A682B
:10BAB800019B5A404FF0000301D012F041F802B048
:10BAC800BDE8F08180BE01202DE9F04F164699B0FF
:10BAD800B94A03908A46126817924FF000021C4632
:10BAE8000025307808B928464DE3731C25280493AF
:10BAF80007D05146039B98470028C0F2448301357C
:10BB0800F2E1182200210AA814F04DFF7378252BC2
:10BB180000F0A380002398469E469C461846711C58
:10BB28000F4611F8012B2B2A00F0C68000F2BD80C9
:10BB3800202A00F0C480232A00F0C4802BB19DF88D
:10BB4800303043F040038DF83030B8F1000F05D0A5
:10BB58009DF8303043F020038DF83030BEF1000FEF
:10BB680005D09DF8303043F010038DF83030BCF12B
:10BB7800000F05D09DF8303043F008038DF83030C1
:10BB880028B19DF8303043F004038DF830309DF82B
:10BB9800303003F04401442903D16FF386138DF844
:10BBA80030309DF830302A2A43F0800309978DF809
:10BBB800303040F08C809DF8313043F001038DF82F
:10BBC80031307B1C1A782E2A0CBF012100219DF8E8
:10BBD800312061F341028DF831200CD15A1C0992B1
:10BBE8005A782A2A40F083809DF83120023342F0A7
:10BBF80004028DF831201A786C2A00F0A48000F233
:10BC08008680682A00F08C806A2A00F0A5804C2A79
:10BC180000F0AA801A4612F8013B782B04928DF89E
:10BC280033309DF8312000F219816D2B00F2A98084
:10BC3800692B00F21381572B00F2C080412B03D0EF
:10BC4800453B022B00F20A8104229DF8323062F350
:10BC580002038DF832300123CCE0B21C04928DF837
:10BC680033309DF83130D90740F1FF8054F8048B08
:10BC7800B8F1000F07DA9DF83020C8F1000842F04B
:10BC880004028DF830205A0740F1F88054F804BBBC
:10BC9800BBF1000F80F2F7809DF831306FF341035C
:10BCA8008DF831304FF0FF3BEDE02D2A0DD0302AD2
:10BCB8007FF444AF012333E74FF0010C30E74FF036
:10BCC800010E2DE74FF001082AE7012028E709A80F
:10BCD800FFF750FE099BBB423FF474AF9DF830203C
:10BCE8000D90C00F60F341028DF830206AE709A873
:10BCF800FFF740FE9DF830300E90C3F3400242EA51
:10BD0800D07262F341038DF83030099B73E7742ACF
:10BD180026D07A2A7FF47EAF06219DF831200CE0E8
:10BD28005A78682A9DF8312006D1012161F3C602AC
:10BD38008DF8312002336DE7022161F3C6028DF8D8
:10BD48003120013366E75A786C2A9DF8312001D1F9
:10BD58000421EBE70321F0E705219DF83120ECE70A
:10BD680007219DF83120E8E7BDF8302022F4F042A1
:10BD780022F0020242F4804242F00202ADF8302082
:10BD8800DFE76E3BD9B201238B4040F282410B4280
:10BD98003AD113F0240F54D1DF075FD503219DF862
:10BDA800323061F302038DF8323002F07803A3F1E8
:10BDB8004000434243411DE080BE01200120A3F121
:10BDC8005801C9B200FA01F111F4624F7FF43CAF97
:10BDD80040F6010739421DD111F4043F3ED09DF8C9
:10BDE800323060F3020302F07802402A8DF83230D4
:10BDF80034D000239DF83020C2F340010B4363F395
:10BE080041028DF830202CE702219DF8323061F391
:10BE18000203E8E702209DF8321002F0780260F38E
:10BE28000201402A8DF8321002BF9DF8301041F00F
:10BE380001018DF83010632BDBD1131E18BF0123CD
:10BE4800D8E703219DF8323012F0780F61F302032E
:10BE58008DF8323014BF01230023CBE79DF8303032
:10BE680043F001038DF83030C3E79DF93020002AF4
:10BE7800ACBF4FF0FF38DDF8348004E79F077FF54B
:10BE880011AFDDF838B00023CDE90D339DF832301D
:10BE98009DF8311003F00703012BC1F3C30133D11F
:10BEA800CB1E042B04D8DFE803F0214646212100ED
:10BEB800236801294FEAE372CDE90A321CD19DF9C2
:10BEC8002830DA17CDE90A3204349DF8303013F0FF
:10BED800030750D032465146049B0398FFF7CCFD28
:10BEE8000028C0F250810544049EFAE554F8043B4A
:10BEF800DA17CDE90A32E8E70229E5D11AB243F3A5
:10BF0800C033CDE90A23DFE7022B24D1CB1E042B53
:10BF180004D8DFE803F018101018180001294FF0B2
:10BF2800000254F8043B14D00229CDE90A32CCD1DE
:10BF38009BB20A93C9E7073424F00704F4E8022304
:10BF4800CDE90A23C1E754F8043B0A9300230B9375
:10BF5800BBE7DBB2CDE7042B08D1073424F0070494
:10BF6800D4E900230834CDE90A23AEE7032BACD18A
:10BF780054F8043BDDE79DF833007828B4D86228EC
:10BF88001DD825283FF4B5AD5828ADD1DDE90A0103
:10BF98000DF15A0300930CAA11ABFFF711FDBBF189
:10BFA800000F814680F29980B9F1000F9CD00DF105
:10BFB8005A06A6EB0903002F51D001334FE063382E
:10BFC800152891D801A252F820F000BF55C00000F2
:10BFD800B9C00000F1BE0000F1BE0000F1BE0000D3
:10BFE800F1BE0000B9C00000F1BE0000F1BE0000C3
:10BFF800F1BE0000F1BE000043C10000DDC000003A
:10C0080005C10000F1BE0000F1BE00002DC0000017
:10C01800F1BE0000DDC00000F1BE0000F1BE00006E
:10C02800DDC00000BBF1000FDDF828900ADB59469F
:10C03800484614F08AFDB9F1000F3FF455AF09EBFB
:10C04800000676E04846FCF7CDFFF8E70A9B002794
:10C058008DF8443001230DF145060DF144099DF892
:10C06800321011F01002069200F0818002330D9A0E
:10C07800134405924A0644BF0E995B18B8F1000FA5
:10C0880040F39480A8EB03089DF830305807C3F3B9
:10C09800800B00F18B8059067ED53FB1514638465A
:10C0A800039B984700286EDB5F460135302374E018
:10C0B8001E075ABFC3F300135F012B27DDE90A23CC
:10C0C800002BBFF663AF524263EB43032D27CDE944
:10C0D8000A235BE7002759E700279DF830100DF188
:10C0E8005A03A3EB09036FF386119B458DF83010B3
:10C0F8007FF65AAFABEB03030D9355E70A9880B36D
:10C108000DF15A0611AB002100960CAAFFF758FC56
:10C11800BDF83230BBF1000F03F0EF0343F4F043F6
:10C1280043F010038146ADF83230D5DA00283FF4E9
:10C13800DBAE0027A6EB090391E70A9B07293FF628
:10C14800D3AEDFE801F00C04060C08080C0C1D70D7
:10C15800CAE61D80C8E6EA17C3E90052C4E61D60B6
:10C16800C2E6354E07460523A6F1050977E7080715
:10C1780048BF01337BE7184607935146039B98470E
:10C188000028079B0ADA2D4B1A68179B5A404FF074
:10C1980000034ED011F0D4FC2023C3465946002991
:10C1A8000BF1FF3BE7DC4544D8466D1A37B15146E1
:10C1B8003846039B98470028E5DB01359DF8323067
:10C1C800DA0601D41B0706D551463020039B984751
:10C1D8000028D8DB0135069B3BB151469DF833005A
:10C1E800039B98470028CEDB0135059F2F4406E0C6
:10C1F80051463020039B98470028C4DB01357B1B40
:10C20800002BF5DC33464A4651460398FFF734FCC9
:10C218000028B8DB0544A844A8EB0503002B7FF7EA
:10C2280063AE51462020039B98470028ABDB0135BD
:10C23800F2E719B0BDE8F08F3A20020080BE012075
:10C2480013B5104B02461B6801934FF000030369B6
:10C2580013F0080011D11368D4689C429BBF0120D9
:10C26800126AE31AD31A0B60064B1A68019B5A40EC
:10C278004FF0000304D011F063FC00231846F2E7E6
:10C2880002B010BD80BE012013B50F4B69460446AD
:10C298001B6801934FF00003FFF7D2FF20B1009B0A
:10C2A800E268013B13440093009B206AC01A064BC6
:10C2B80001381A68019B5A404FF0000301D011F071
:10C2C8003FFC02B010BD00BF80BE012013B504467C
:10C2D800501822690C4BD2071B6801934FF00003DA
:10C2E800236A0AD5013B1840074B1A68019B5A403C
:10C2F8004FF0000305D011F023FC984228BFC01A64
:10C30800F2E702B010BD00BF80BE012013B504469D
:10C318000C4B0A46C1681B6801934FF00003FFF7F6
:10C32800D5FF2369E06023F008032361054B1A68F1
:10C33800019B5A404FF0000301D011F001FC02B0FC
:10C3480010BD00BF80BE012037B50D46154BC26930
:10C358001B6801934FF000038B00016843F0020350
:10C36800044642F8213001682A46FFF7AFFFE36828
:10C378002A46984208BF2369616804BF43F008034E
:10C38800236120602046FFF7A1FF064B60601A6812
:10C39800019B5A404FF0000301D011F0D1FB03B0CC
:10C3A80030BD00BF80BE01202DE9F04F9B46C76815
:10C3B800404BC66985B01B6803934FF0000316F81D
:10C3C8002730044603F00303022B884691464FF0BA
:10C3D800000306EB870A0FD01360CBF800302369FF
:10C3E800990716D40020334B1A68039B5A404FF024
:10C3F80000035CD011F0A4FB56F8271013608908DD
:10C40800CBF80030EBD0FFF781FFE368A360012091
:10C41800E9E7A3695046984716F827300546DA0732
:10C42800E0D513F002031DD0B8F1000F03D0414648
:10C438002046FFF789FF61682A462046FFF746FF36
:10C44800D4E902319942606004D12A462046FFF7B8
:10C458003DFFA060A3682360E360236943F00803FD
:10C468002361D4E7014620460193FFF74FFFE268B6
:10C47800A260B8F1000F04D02168E269019B42F87C
:10C48800213005EB0802CBF8002021682046FFF791
:10C498001DFF2369206043F00803236116F8273045
:10C4A8006FF3000306F82730C9F800A0AFE705B01E
:10C4B800BDE8F08F80BE0120F7B5154B04461B6818
:10C4C80001934FF000030E461546FFF7FFFE236861
:10C4D80083420DD12369266023F0080323610C4BA6
:10C4E8001A68019B5A404FF000030ED011F028FB48
:10C4F800E269AB0043F0020342F8263061682A463D
:10C508002046FFF7E3FE6060E9E703B0F0BD00BF37
:10C5180080BE012037B50D4B04461B6801934FF0D0
:10C52800000303695B0706D5456AFFF7ADFE854240
:10C538002CBF65626062054B1A68019B5A404FF038
:10C54800000301D011F0FCFA03B030BD80BE012019
:10C5580037B50D460446164B1C2200211B68019373
:10C568004FF0000314F01FFA0022EB68A361AB68D8
:10C5780063612B68E3616B68626223622A6923B195
:10C58800591E194208BF42F001022261084B1A687D
:10C59800019B5A404FF0000301D011F0D1FA01225B
:10C5A800002104F1280003B0BDE830400FF030BF8F
:10C5B80080BE01202DE9F04F002587B00093434B42
:10C5C80004461B6805934FF00003036A0E468B422E
:10C5D8009246A946029504953AD34FF02003EFF30B
:10C5E800118B83F31288BFF36F8F049AD8462AB150
:10C5F80029462046FFF760FF0023049303A920463D
:10C60800FFF71EFE03990746B1422FD32268E3695C
:10C61800204613F8221003EB820921F0030103F8E6
:10C62800221021683246FFF751FEE36820609842E5
:10C6380017D0002788F31188BFF36F8F029929B1AB
:10C6480062690AB12046904700230293002FC4D1A3
:10C658001E4B1A68059B5A404FF0000332D011F068
:10C668006FFA236943F008032361E2E718B1204613
:10C67800FFF76AFEDEE7009B5AEA03031AD001912E
:10C688000FF028FB0199A8B98BF31188BFF36F8FBE
:10C698005246009B04F128000FF014FF4FF02003CE
:10C6A800EFF3118883F31288BFF36F8FB0FA80F726
:10C6B8007F09BFE7204604AB02AA2568FFF774FE8E
:10C6C8000746B7E7484607B0BDE8F08F80BE0120AF
:10C6D80073B5174B04461B6801934FF00003836939
:10C6E80008460D46984702464FF02003EFF311869F
:10C6F80083F31288BFF36F8F2B78204643F0010332
:10C708002B706168FFF7E2FD60602046FFF702FFCB
:10C7180086F31188BFF36F8F054B1A68019B5A4047
:10C728004FF0000301D011F00BFA02B070BD00BF4A
:10C7380080BE0120F7B5304B04461B6801934FF0CB
:10C7480000034FF02003EFF3118683F31288BFF341
:10C758006F8F236913F0080FA36802D162689342B0
:10C7680000D9226AD21AE1692AB986F31188BFF37F
:10C778006F8F002733E011F8232001EB830712F0B5
:10C788000300F2D0022803D151F82350AD0805D197
:10C79800D00712D43846A36998470546A1682A46A7
:10C7A8002046FFF793FD2946A0602046FFF7AEFD1F
:10C7B80086F31188BFF36F8FC3E742F0020201F8D6
:10C7C8002320A3693846A56898472946024620468B
:10C7D800FFF77CFDA06086F31188BFF36F8F064BCF
:10C7E8001A68019B5A404FF0000301D011F0A8F9D4
:10C7F800384603B0F0BD00BF80BE0120F7B5254B19
:10C8080004461B6801934FF00003836908460D46F0
:10C81800984706464FF02003EFF3118783F31288F9
:10C82800BFF36F8F2B786FF300032B7023699B077F
:10C8380005D5E268E36903EB82039D421DD12B789D
:10C848006FF341032B70D4E90231994204D1324687
:10C858002046FFF73BFDA06031462046FFF756FD16
:10C8680087F31188BFF36F8F0A4B1A68019B5A40F0
:10C878004FF0000306D011F063F92B6860F39F03B3
:10C888002B60EDE704F1280003B0BDE8F0400FF09D
:10C89800E1BD00BF80BE012007B502690D4B12073C
:10C8A8001B6801934FF00003836802D442689A42E0
:10C8B80000D2026AD31A181E064B18BF01201A6844
:10C8C800019B5A404FF0000301D011F039F903B031
:10C8D8005DF804FB80BE012007B5034B1B6801937C
:10C8E8004FF0000302E000BF80BE0120054B1A682C
:10C8F800019B5A404FF0000301D011F021F903B019
:10C908005DF804FB80BE012007B5104B1B6801933E
:10C918004FF0000303785B075FBF03684288C3F3E7
:10C928004A2303EB121058BF1730084B56BF20F0AC
:10C938000700002080081A68019B5A404FF0000346
:10C9480001D011F0FDF803B05DF804FB80BE0120B2
:10C9580007B5094B1B6801934FF00003064B1A6893
:10C96800019B5A404FF0000301D011F0E9F8002074
:10C9780003B05DF804FB00BF80BE012007B5094B7A
:10C988001B6801934FF00003064B1A68019B5A403D
:10C998004FF0000301D011F0D3F803B05DF804EBB9
:10C9A80006F014B980BE01202DE9F3471D4B04465B
:10C9B8001B6801934FF0000307464FF00109DFF8A9
:10C9C800688044B9174B1A68019B5A404FF000031E
:10C9D80024D011F0B5F894FAA4F5B5FA85F509FA5A
:10C9E80005F32E0108EB05156FEA030A24EA030490
:10C9F8002B7B002BE5D058F806301B694BB9464411
:10CA0800736804222846196807EA0A0700F03AFC06
:10CA1800D7E7284698470028D3D1F0E7384602B030
:10CA2800BDE8F08780BE0120D012020007B50C4A8D
:10CA38000346126801924FF00002D3E8EF0F421C40
:10CA4800C3E8E12F0029F8D1054B1A68019B5A4029
:10CA58004FF0000301D011F073F803B05DF804FB48
:10CA680080BE012010B5164B8AB000221549164821
:10CA78001B6809934FF0000311F06AFB00220023A2
:10CA88000024CDE906230E234FF44072CDE9033488
:10CA9800CDE901440D4B0E4900940E480FF0FEF904
:10CAA8000D490C480FF030F9054B1A68099B5A409C
:10CAB8004FF0000301D011F043F820460AB010BD32
:10CAC80080BE0120E5CA000018D3002081D00000F4
:10CAD8004021012068CE00203B20020007B50A4B08
:10CAE8001B6801934FF00003074B1A68019B5A40DB
:10CAF8004FF0000301D011F023F8044803B05DF8AB
:10CB080004EB0FF0A7BC00BF80BE012098CD002029
:10CB18002DE9F347274B804627480F461B680193AA
:10CB28004FF00003FFF782FF0646002836D00025A5
:10CB3800204B1A68019B5A404FF0000335D010F083
:10CB4800FFFF237B73B12368DB680BB1204698474E
:10CB580023681B69D3B9636804222046196800F06A
:10CB680091FB013610344C45EBD3B8F1000FDFD000
:10CB7800002DDCD02846FFF717FF0546002FF7D019
:10CB880000214FF4A47010F0BDFEF1E7204698474D
:10CB98000028E0D00AFA06F31D43E2E705464FF005
:10CBA800010A064CDFF81890DDE7284602B0BDE818
:10CBB800F08700BF80BE01206CDA0020D01202008E
:10CBC800E012020007B50A4B1B6801934FF00003FF
:10CBD800084B53F82000064B1A68019B5A404FF047
:10CBE800000301D010F0ACFF03B05DF804FB00BFF8
:10CBF80080BE01205C1302007FB50D4B1B680593B6
:10CC08004FF000030023CDE902011A4619461846E1
:10CC1800CDE9003300F0E0FC054B1A68059B5A404B
:10CC28004FF0000301D010F08BFF07B05DF804FB54
:10CC380080BE0120034607B50D4A084612680192D6
:10CC48004FF000026BB10B4A136000F0F1FF0020B7
:10CC5800074B1A68019B5A404FF0000304D010F0AC
:10CC68006FFF6FF01500F3E703B05DF804FB00BF3A
:10CC780080BE0120C4C8002013B50C4B0C4C1B68A7
:10CC880001934FF00003237813B90A480FF0E2FB31
:10CC980001232370054B1A68019B5A404FF000038B
:10CCA80001D010F04DFF02B010BD00BF80BE0120C2
:10CCB800F51B012098CD002013B504460D4B0E48F6
:10CCC8001B6801934FF00003FFF7B0FE3CB10B4B1C
:10CCD800D3E8EF1F0139C3E8E21F002AF8D1054B5A
:10CCE8001A68019B5A404FF0000301D010F028FF4A
:10CCF80002B010BD80BE012064DA002068DA00208E
:10CD080007B50A4B1B6801934FF00003074B1A68DD
:10CD1800019B5A404FF0000301D010F011FF012091
:10CD280003B05DF804EBFFF7C7BF00BF80BE01206A
:10CD380007B500220B4B1B6801934FF000030A4B09
:10CD4800D3E8EF0FC3E8E12F0029F9D1054B1A68A2
:10CD5800019B5A404FF0000301D010F0F1FE03B0E0
:10CD68005DF804FB80BE012064DA002073B5114B26
:10CD7800114C1B6801934FF00003FFF7D9FF0546DC
:10CD88000E4EB44208D30B4B1A68019B5A404FF021
:10CD980000030CD010F0D4FE63685B792BB12368D4
:10CDA8005B6813B12946204698471034E9E702B07A
:10CDB80070BD00BF80BE0120D0120200E012020048
:10CDC80013B50B4C0B4B20460B491B6801934FF0D6
:10CDD8000003FFF7BDFB094B1C60064B1A68019B5B
:10CDE8005A404FF0000301D010F0AAFE02B010BD67
:10CDF80074CC002080BE0120481302005CDA0020B9
:10CE080007B50F4B0F4A1B6801934FF0000300232F
:10CE180013700D4A4FF4004113600C4A0C4813601C
:10CE2800FFF708FF064B1A68019B5A404FF00003B2
:10CE380001D010F085FE03B05DF804EBFFF7C0BF2A
:10CE480080BE0120F61B012064DA002068DA002089
:10CE580085C9000007B50B4B01461B6801934FF0CD
:10CE68000003084B1A68019B5A404FF0000301D099
:10CE780010F066FE00220023034803B05DF804EBBF
:10CE8800FFF798BB80BE012074CC002007B50A4B81
:10CE98001B6801934FF00003074B1A68019B5A4027
:10CEA8004FF0000301D010F04BFE044803B05DF8CA
:10CEB80004EBFFF73FBC00BF80BE012074CC00200C
:10CEC80007B50B4B01461B6801934FF00003084B55
:10CED8001A68019B5A404FF0000301D010F030FE51
:10CEE800044B186803B05DF804EBFFF787BC00BF7C
:10CEF80080BE01205CDA002007B50A4B1B6801934D
:10CF08004FF00003074B1A68019B5A404FF000038B
:10CF180001D010F015FE044803B05DF804EBFFF7EC
:10CF2800BBBC00BF80BE012074CC002073B5324B5F
:10CF38001B6801934FF00003304B1878002851D03C
:10CF4800FFF7A4FF054670B12D4BD3E8EF1F013959
:10CF5800C3E8E21F002AF8D12A4C2B4EB44232D340
:10CF68002846FFF7ADFF294B294C1B68002B19DD1C
:10CF780010F0E4FF4FF47A72A0FB020302FB0131C8
:10CF8800C30B43EA4143D4E900209B1A40F2E9323B
:10CF98004FEAD13161EB0001934271F1000101D3F5
:10CFA800FFF7E4FED4E9003213F57A7342F1000288
:10CFB800C4E90032104B1A68019B5A404FF0000335
:10CFC8000BD010F0BDFD63685B7923B12368294657
:10CFD80020461B6898471034C0E702B0BDE870408F
:10CFE800FFF78ABF044B1A68019B5A404FF00003B1
:10CFF800E7D102B070BD00BF80BE0120F51B012043
:10D0080068DA0020D0120200E012020064DA002080
:10D0180010D3002073B5144D144B29781B68019365
:10D028004FF0000361B90120FFF772FD104C114E5B
:10D03800B4420ED3FFF77AFF0028FBD101232B70EF
:10D048000A4B1A68019B5A404FF000030AD010F0AF
:10D0580077FD63685B791BB1236820469B68984716
:10D068001034E5E702B070BDF61B012080BE012038
:10D07800D0120200E01202002DE9F3470021234BF1
:10D0880008461B6801934FF00003FFF741FD044673
:10D0980048B340F267684FF0000910F05FFC1C4B82
:10D0A800186030B11B4B1B68092B02DD1A480FF0C2
:10D0B800D1F90025194FDFF860A044B12046FFF7E9
:10D0C80073FC044618B94FF0FF384FF0FF39FFF7EB
:10D0D8002DFF064628B9B5B942464B4650460FF0D3
:10D0E800F1F93546E9E74FF0FF384FF0FF39D4E75B
:10D0F8002B689B691BB100222846114698471035BA
:10D10800BD42F5D3E8E7064DFAE700BF80BE01202F
:10D1180060DA002068DA002098CD0020E0120200D2
:10D12800D01202001FB5234B23481B6803934FF00E
:10D138000003FFF77BFC214B1B78B3B14FF02003B2
:10D14800EFF3118483F31288BFF36F8FFFF7EEFEBE
:10D1580084F31188BFF36F8F164B1A68039B5A40EC
:10D168004FF000031DD104B010BD154B1B68002BF8
:10D17800F2D050B9002200231248CDE900234FF421
:10D188000042002311F002F8E6E70928E4D10D482F
:10D1980011F048F8074B1A68039B5A404FF00003F8
:10D1A80001D010F0CDFC084804B0BDE810400FF0E5
:10D1B80051B900BF80BE012068DA0020F61B0120AB
:10D1C80060DA002018D3002098CD002013B50E4B4C
:10D1D80004461B6801934FF000030C4B1B689847EB
:10D1E8002146A0600A48FFF773FA074B1A68019BAB
:10D1F8005A404FF0000301D010F0A2FC02B0BDE885
:10D208001040FFF78FBF00BF80BE0120C4C80020B8
:10D2180074CC002007B5094B1B6801934FF000033D
:10D22800064B1A68019B5A404FF0000301D010F0DA
:10D2380087FC002003B05DF804FB00BF80BE01201E
:10D2480007B50D4B0D4A1B6801934FF000030C4BBB
:10D258009B1AB1EBD30F084B2CBF002052F83100BA
:10D268001A68019B5A404FF0000301D010F068FC87
:10D2780003B05DF804FB00BF80BE0120201202004D
:10D28800D012020013B5104B44681B6801934FF08D
:10D2980000030E4BC31A1B110133237143689A71A3
:10D2A80001224368196043685A71074B1A68019B49
:10D2B8005A404FF0000301D010F042FC02B0BDE824
:10D2C8001040FFF7D9BC00BF80BE0120D012020079
:10D2D80073B5124B0C461B6801934FF00003D2E95B
:10D2E80001369B1B8B42154612D313680A4601462A
:10D2F800981913F04BFB2046AB682344AB60074BEF
:10D308001A68019B5A404FF0000304D010F018FC33
:10D318006FF01B00F3E702B070BD00BF80BE0120B4
:10D3280073B50E461946164B15461B6801934FF008
:10D3380000030446120D68B9114B1A68019B5A4044
:10D348004FF0000301D010F0FBFB02B0BDE87040C5
:10D35800FFF7B2BC29B11030C5F34A23184413F0C3
:10D3680015FBC4E90056064B1A68019B5A404FF05A
:10D378000003E8D1204602B0BDE87040FFF726BFA1
:10D3880080BE01202DE9F3415F1C4FEA870806465D
:10D3980008F11700154620F007001D4A80080C46C2
:10D3A800126801924FF00002FFF754FD00238DF838
:10D3B8000070ADF801308DF8033068B10346009A6B
:10D3C800A8F1040143F8102F2A46294452F8045BB7
:10D3D8008A4243F8045FF9D10D4BA2011968019BF9
:10D3E80059404FF0000302F4E07242EA482222F06A
:10D3F8007F4222F4700222F03F0201D010F0A0FB1D
:10D408000023314602B0BDE8F041FFF789BF00BFF5
:10D4180080BE01202DE9F04F8FB004AF7B60424BF6
:10D42800B860C1F34A280D4691461B687B624FF0ED
:10D4380000030C0DB8F1000F68D000264FF0040B64
:10D448004FF00A0A07F11C03C7F80C80C7E9046605
:10D45800BE610193CDF808B0CDF800A007F1100324
:10D4680032464846F968FCF72DFFB0F5006F0346D1
:10D4780021D36C468AB0D9F8041004AB2B481A465D
:10D48800C3E9050140F2FF71D9614FF400711984B5
:10D49800274B42F8103F4FF4125133462548FFF707
:10D4A800B9FFA546204B1A687B6A5A404FF0000323
:10D4B80035D010F045FBC0F30A0804F117001844F2
:10D4C80020F0070080083B60FFF7C4FC68F3532591
:10D4D800044690B13B6800F11001C7E9053607F131
:10D4E8001C033961CDE900A3CDF808B04846124ABB
:10D4F800F96807F11003FCF7E5FE68F353252A469F
:10D5080020467B68B968FFF70BFFCBE704F11700EB
:10D5180020F007008008FFF79DFC0446EDE72C3754
:10D52800BD46BDE8F08F00BF80BE0120502002003C
:10D538000400000158120200D9D2000013B50A4BAA
:10D548001B6801934FF00003012300926A46FFF71E
:10D5580019FF054B1A68019B5A404FF0000301D090
:10D5680010F0EEFA02B010BD80BE012030B50B4CB1
:10D5780085B0246803944FF00004CDE90123022309
:10D5880001AAFFF7FFFE054B1A68039B5A404FF0AC
:10D59800000301D010F0D4FA05B030BD80BE0120E0
:10D5A80030B50C4C85B0246803944FF00004CDE9E5
:10D5B8000023089B6A4602930323FFF7E3FE054B0B
:10D5C8001A68039B5A404FF0000301D010F0B8FAD4
:10D5D80005B030BD80BE01202DE9F04F9846274B9D
:10D5E80087B00446DDE9105ADDE912690F46934613
:10D5F8001B6805934FF00003A6B31021334652462B
:10D608000020CDF80090CDF81090FCF7F5FB01460E
:10D6180005F1170008441A4B04F007040BF0070B38
:10D62800E40020F0070003EA412344EA8B14800851
:10D638001C430391FFF70EFC44EA0554054640B12C
:10D648003EB1334652460399CDF800901030FCF7AE
:10D65800D3FB0A4B1A68059B5A404FF0000303D0CE
:10D6680010F06EFA3146D3E743462246394628463B
:10D6780007B0BDE8F04FFFF753BE00BF80BE0120E2
:10D6880000FE0F00F7B51F460C4B06460D46144624
:10D698001B6801934FF00003214628463A46B047DD
:10D6A800241A0544F8D1054B1A68019B5A404FF0DB
:10D6B800000301D010F044FA03B0F0BD80BE012091
:10D6C80030B50A4C85B0246803944FF00004002458
:10D6D8000094FEF7F9F9054B1A68039B5A404FF07E
:10D6E800000301D010F02CFA05B030BD80BE012037
:10D6F8000EB417B5014605AB0C4853F8042B006867
:10D7080001904FF000000A480093FFF7D9FF074B3C
:10D718001A68019B5A404FF0000301D010F010FA2C
:10D7280003B0BDE8104003B0704700BF80BE0120C1
:10D73800D9D7000007B5144BCA061B6801934FF0F0
:10D748000003114B17D48A060DD51A68019B5A405D
:10D758004FF0000301D010F0F3F90C4903B05DF865
:10D7680004EBFFF7C5BF1A68019B5A404FF000034E
:10D77800F1D10749F2E71A68019B5A404FF00003BC
:10D78800E9D103B05DF804FB80BE0120B03A020085
:10D79800AF3A020013B50D4B426804461B6801936B
:10D7A8004FF00003D2E9002381680068FFF76AFFA1
:10D7B800002263681A60054B1A68019B5A404FF0B3
:10D7C800000301D010F0BCF902B010BD80BE0120EA
:10D7D80037B5124B05461B6801934FF000034B68A1
:10D7E8000C461A68CB689A4202D10846FFF7D2FF66
:10D7F8006368D3E8EF2F511CC3E8E01F0028F8D175
:10D80800A3689D54054B1A68019B5A404FF00003CA
:10D8180001D010F095F9002003B030BD80BE012082
:10D8280037B50E4B0A2804460D461B6801934FF086
:10D83800000302D10D20FFF7CBFF29462046FFF752
:10D84800C7FF064B1A68019B5A404FF0000301D0EE
:10D8580010F076F9002003B030BD00BF80BE012073
:10D868002DE9F04F8BB09A46DDE916730593189BA6
:10D878009DF854B00493964B069204460D461B68D7
:10D8880009934FF00003199EBBF1000F00F085804B
:10D8980006F008030793FFF7BDFC06F002090246ED
:10D8A800002849D020468B49FFF722FF8046B9F16E
:10D8B800000F08D016F0440F40D12A46204686496A
:10D8C800FFF716FF804406F0010353B1834B20464F
:10D8D80053F82B20824B8349002A08BF1A46FFF7CA
:10D8E80007FF06F00803002B54D07F4B204653F85F
:10D8F8002B207E49FFF7FCFE0546069B2BB11A46F6
:10D9080020467B49FFF7F4FE0544BAF1000F05D025
:10D91800524620467749FFF7EBFE05444544002F61
:10D9280049D1049B002B4FD1F30700F1C480314645
:10D938002046FFF7FFFEB5E08046B8E76E4B186853
:10D948000028BFD06D4B4FF47A791B684FF46161A2
:10D95800B5FBF3F5B5FBF0F300FB135509FB05F533
:10D96800B3FBF1F2B5FBF0FE4FF03C0C01FB1231BA
:10D9780000FB1E55B1FBFCF309FB05F5B5FBF0F503
:10D988000CFB131120460091CDE901E55C49FFF736
:10D99800AFFE97E706F00805AFE7BAF1010F06D129
:10D9A800002F65D1049B002B7CD000250CE0002FB4
:10D9B800F8D054485DE054483B4622465349FCF7AA
:10D9C80001FC049B002B69D0DFF84481DFF8449107
:10D9D800049F3146102F204628BF10274FF0000A19
:10D9E800FFF7A8FE554546DC059B494620461A78B0
:10D9F800FFF77EFE4FF0010A1AF0070F03D14146E8
:10DA08002046FFF775FE57453CD9059B49462046F9
:10DA180013F80A20FFF76CFE0AF1010ABAF1100F99
:10DA2800EAD14FF0000A20463B49FFF761FE524613
:10DA3800059B20469A5C394B995C11F0970F08BFFB
:10DA48002E223749FFF754FE0AF1010ABAF1100FE6
:10DA58001DD01AF0070F03D141462046FFF748FEB4
:10DA680057455246E4D841462046FFF741FEEBE7CA
:10DA780025485D46A0E741462046FFF739FE0AF1F2
:10DA8800010AAFE720462749FFF732FEC4E7059BA6
:10DA98003B440593049BDB1B049399D1BBF1000F16
:10DAA8007FF442AF0A4B1A68099B5A404FF00003B3
:10DAB80007D010F045F82046094A0A49FFF718FE32
:10DAC80035E720460BB0BDE8F04FFFF763BE00BF57
