:1080000078150120B5BD000059FD0100A1BD00009B
:10801000A1BD0000A1BD0000A1BD0000A1BD0000E8
:1080200000000000000000000000000075BF00001C
:10803000A1BD00000000000005BF0000A1BD0000C0
:108040005DC100005DC100005DC100005DC10000B8
:108050005DC100005DC100005DC100005DC10000A8
:108060005DC100005DC100005DC100005DC1000098
:108070005DC100005DC100005DC100005DC1000088
:108080005DC100005DC100005DC100005DC1000078
:108090005DC100005DC100005DC100005DC1000068
:1080A0005DC100005DC100005DC100005DC1000058
:1080B0005DC100005DC100005DC100005DC1000048
:1080C0005DC100005DC100005DC100005DC1000038
:1080D0005DC100005DC100005DC100005DC1000028
:1080E0005DC100005DC100005DC100005DC1000018
:1080F0005DC100005DC100005DC100005DC1000008
:108100005DC100005DC100005DC100005DC10000F7
:108110005DC100005DC100005DC100005DC10000E7
:108120005DC100005DC100005DC100005DC10000D7
:108130005DC100005DC100005DC100005DC10000C7
:048140005DC100001D
:04814400FFFFFFFF3B
:108148004FF0FF0C1CEAD0521EBF1CEAD15392EA32
:108158000C0F93EA0C0F6FD01A4480EA010C40020E
:1081680018BF5FEA41211ED04FF0006343EA501068
:1081780043EA5111A0FB01310CF00040B1F5000FAA
:108188003EBF490041EAD3715B0040EA010062F159
:108198007F02FD2A1DD8B3F1004F40EBC25008BF43
:1081A80020F00100704790F0000F0CF0004C08BF61
:1081B80049024CEA502040EA51207F3AC2BFD2F12E
:1081C800FF0340EAC250704740F400004FF000033C
:1081D800013A5DDC12F1190FDCBF00F00040704776
:1081E800C2F10002410021FA02F1C2F1200200FAB4
:1081F80002FC5FEA310040F1000053EA4C0308BF7B
:1082080020EADC70704792F0000F00F0004C02BFCB
:10821800400010F4000F013AF9D040EA0C0093F046
:10822800000F01F0004C02BF490011F4000F013BA0
:10823800F9D041EA0C018FE70CEAD15392EA0C0F0E
:1082480018BF93EA0C0F0AD030F0004C18BF31F079
:10825800004CD8D180EA010000F00040704790F04F
:10826800000F17BF90F0004F084691F0000F91F0F3
:10827800004F14D092EA0C0F01D142020FD193EAB9
:108288000C0F03D14B0218BF084608D180EA010041
:1082980000F0004040F0FE4040F40000704740F01D
:1082A800FE4040F44000704781F0004102E000BF0A
:1082B80083F0004330B54FEA41044FEA430594EA9E
:1082C800050F08BF90EA020F1FBF54EA000C55EAD9
:1082D800020C7FEA645C7FEA655C00F0E2804FEAAA
:1082E8005454D4EB5555B8BF6D420CDD2C4480EA8C
:1082F800020281EA030382EA000083EA010180EABC
:10830800020281EA0303362D88BF30BD11F0004F09
:108318004FEA01314FF4801C4CEA113102D040423F
:1083280061EB410113F0004F4FEA03334CEA13337A
:1083380002D0524263EB430394EA050F00F0A78092
:10834800A4F10104D5F1200E0DDB02FA0EFC22FA8D
:1083580005F2801841F1000103FA0EF2801843FA81
:1083680005F359410EE0A5F120050EF1200E012A72
:1083780003FA0EFC28BF4CF0020C43FA05F3C018B0
:1083880051EBE37101F0004507D54FF0000EDCF129
:10839800000C7EEB00006EEB0101B1F5801F1BD3D2
:1083A800B1F5001F0CD349085FEA30004FEA3C0CD6
:1083B80004F101044FEA445212F5800F80F09A80CC
:1083C800BCF1004F08BF5FEA500C50F1000041EBD0
:1083D800045141EA050130BD5FEA4C0C404141EBD4
:1083E8000101013C28BFB1F5801FE9D291F0000FCF
:1083F80004BF01460020B1FA81F308BF2033A3F17E
:108408000B03B3F120020CDA0C3208DD02F1140C74
:10841800C2F10C0201FA0CF021FA02F10CE002F1AF
:108428001402D8BFC2F1200C01FA02F120FA0CFCA8
:10843800DCBF41EA0C019040E41AA2BF01EB0451F1
:10844800294330BD6FEA04041F3C1CDA0C340EDCEF
:1084580004F11404C4F1200220FA04F001FA02F332
:1084680040EA030021FA04F345EA030130BDC4F1F0
:108478000C04C4F1200220FA02F001FA04F340EAE5
:108488000300294630BD21FA04F0294630BD94F096
:10849800000F83F4801306BF81F480110134013D7D
:1084A8004EE77FEA645C18BF7FEA655C29D094EAEE
:1084B800050F08BF90EA020F05D054EA000C04BF6C
:1084C8001946104630BD91EA030F1EBF0021002057
:1084D80030BD5FEA545C05D14000494128BF41F0F6
:1084E800004130BD14F580043CBF01F5801130BD5A
:1084F80001F0004545F0FE4141F470014FF00000E5
:1085080030BD7FEA645C1ABF194610467FEA655C95
:108518001CBF0B46024650EA013406BF52EA033537
:1085280091EA030F41F4002130BD00BF90F0000F25
:1085380004BF0021704730B54FF4806404F1320461
:108548004FF000054FF0000150E700BF90F0000F1A
:1085580004BF0021704730B54FF4806404F1320441
:1085680010F0004548BF40424FF000013EE700BF11
:1085780042004FEAE2014FEA31014FEA02701FBFA1
:1085880012F07F4393F07F4F81F06051704732F0D3
:108598007F4208BF704793F07F4F04BF41F400212A
:1085A800704730B54FF4607401F0004521F0004188
:1085B8001CE700BF50EA010208BF704730B54FF012
:1085C80000050AE050EA010208BF704730B511F013
:1085D800004502D5404261EB41014FF4806404F14B
:1085E80032045FEA915C3FF4D8AE4FF003025FEAD1
:1085F800DC0C18BF03325FEADC0C18BF033202EB55
:10860800DC02C2F1200300FA03FC20FA02F001FAAE
:1086180003FE40EA0E0021FA02F11444BDE600BF51
:1086280070B54FF0FF0C4CF4E06C1CEA11541DBF00
:108638001CEA135594EA0C0F95EA0C0F00F0DEF8CB
:108648002C4481EA030621EA4C5123EA4C5350EAB0
:10865800013518BF52EA033541F4801143F4801301
:1086680038D0A0FB02CE4FF00005E1FB02E506F092
:108678000042E0FB03E54FF00006E1FB03569CF0E7
:10868800000F18BF4EF0010EA4F1FF04B6F5007FED
:1086980064F5407404D25FEA4E0E6D4146EB06065F
:1086A80042EAC62141EA55514FEAC52040EA5E50E8
:1086B8004FEACE2EB4F1FD0C88BFBCF5E06F1ED892
:1086C800BEF1004F08BF5FEA500E50F1000041EBC9
:1086D800045170BD06F0004646EA010140EA020076
:1086E80081EA0301B4EB5C04C2BFD4EB0C0541EA98
:1086F800045170BD41F480114FF0000E013C00F3AD
:10870800AB8014F1360FDEBF002001F0004170BDD0
:10871800C4F10004203C35DA0C341BDC04F11404E9
:10872800C4F1200500FA05F320FA04F001FA05F275
:1087380040EA020001F0004221F0004110EBD37042
:1087480021FA04F642EB06015EEA430E08BF20EA6E
:10875800D37070BDC4F10C04C4F1200500FA04F311
:1087680020FA05F001FA04F240EA020001F00041A3
:1087780010EBD37041F100015EEA430E08BF20EA16
:10878800D37070BDC4F1200500FA05F24EEA020E5E
:1087980020FA04F301FA05F243EA020321FA04F08D
:1087A80001F0004121FA04F220EA020000EBD37044
:1087B8005EEA430E08BF20EAD37070BD94F0000F44
:1087C8000FD101F00046400041EB010111F4801F78
:1087D80008BF013CF7D041EA060195F0000F18BF29
:1087E800704703F00046520043EB030313F4801F65
:1087F80008BF013DF7D043EA0603704794EA0C0F1F
:108808000CEA135518BF95EA0C0F0CD050EA410634
:1088180018BF52EA4306D1D181EA030101F00041B1
:108828004FF0000070BD50EA410606BF10461946D9
:1088380052EA430619D094EA0C0F02D150EA0136E5
:1088480013D195EA0C0F05D152EA03361CBF104626
:1088580019460AD181EA030101F0004141F0FE41C5
:1088680041F470014FF0000070BD41F0FE4141F449
:10887800780170BD70B54FF0FF0C4CF4E06C1CEA49
:1088880011541DBF1CEA135594EA0C0F95EA0C0FFE
:1088980000F0A7F8A4EB050481EA030E52EA0335B9
:1088A8004FEA013100F088804FEA03334FF08055DA
:1088B80045EA131343EA12634FEA022245EA111507
:1088C80045EA10654FEA00260EF000419D4208BFB8
:1088D800964244F1FD0404F5407402D25B084FEA65
:1088E8003202B61A65EB03055B084FEA32024FF411
:1088F80080104FF4002CB6EB020E75EB030E22BF6E
:10890800B61A754640EA0C005B084FEA3202B6EB2D
:10891800020E75EB030E22BFB61A754640EA5C00DC
:108928005B084FEA3202B6EB020E75EB030E22BF6C
:10893800B61A754640EA9C005B084FEA3202B6EB6D
:10894800020E75EB030E22BFB61A754640EADC002C
:1089580055EA060E18D04FEA051545EA16754FEA8E
:1089680006164FEAC30343EA52734FEAC2025FEAAC
:108978001C1CC0D111F4801F0BD141EA00014FF03B
:1089880000004FF0004CB6E711F4801F04BF01430C
:108998000020B4F1FD0C88BFBCF5E06F3FF6AFAE28
:1089A800B5EB030C04BFB6EB020C5FEA500C50F1B8
:1089B800000041EB045170BD0EF0004E4EEA11313B
:1089C80014EB5C04C2BFD4EB0C0541EA045170BD42
:1089D80041F480114FF0000E013C90E645EA060E86
:1089E8008DE60CEA135594EA0C0F08BF95EA0C0FB4
:1089F8003FF43BAF94EA0C0F0AD150EA01347FF4FC
:108A080034AF95EA0C0F7FF425AF104619462CE7D2
:108A180095EA0C0F06D152EA03353FF4FDAE104635
:108A2800194622E750EA410618BF52EA43067FF486
:108A3800C5AE50EA41047FF40DAF52EA43057FF416
:108A4800EBAE12E74FEA4102B2F1E04324BFB3F5BF
:108A5800001CDCF1FE5C0DD901F0004C4FEAC002AD
:108A68004CEA5070B2F1004F40EB830008BF20F091
:108A78000100704711F0804F21D113F13872BCBF4B
:108A880001F00040704741F480114FEA5252C2F1A0
:108A98001802C2F1200C10FA0CF320FA02F018BFE9
:108AA80040F001004FEAC1234FEAD32303FA0CFC3C
:108AB80040EA0C0023FA02F34FEA4303CCE77FEACB
:108AC800625307D150EA01331EBF4FF0FE4040F415
:108AD8004000704701F0004040F0FE4040F40000C4
:108AE800704700BF80F0004002E000BF81F0004105
:108AF80042001FBF5FEA410392EA030F7FEA226C3C
:108B08007FEA236C6AD04FEA1262D2EB1363C1BFCB
:108B1800D218414048404140B8BF5B42192B88BF3A
:108B2800704710F0004F40F4000020F07F4018BF5D
:108B3800404211F0004F41F4000121F07F4118BF7D
:108B4800494292EA030F3FD0A2F1010241FA03FC25
:108B580010EB0C00C3F1200301FA03F100F000430D
:108B680002D5494260EB4000B0F5000F13D3B0F1D5
:108B7800807F06D340084FEA310102F10102FE2A44
:108B880051D2B1F1004F40EBC25008BF20F00100B4
:108B980040EA03007047490040EB0000013A28BF53
:108BA800B0F5000FEDD2B0FA80FCACF1080CB2EBD6
:108BB8000C0200FA0CF0AABF00EBC2505242184354
:108BC800BCBFD0401843704792F0000F81F40001F9
:108BD80006BF80F400000132013BB5E74FEA4103CC
:108BE8007FEA226C18BF7FEA236C21D092EA030F38
:108BF80004D092F0000F08BF0846704790EA010FB2
:108C08001CBF0020704712F07F4F04D1400028BFDE
:108C180040F00040704712F100723CBF00F50000C0
:108C2800704700F0004343F0FE4040F400007047F6
:108C38007FEA226216BF08467FEA236301464202A2
:108C480006BF5FEA412390EA010F40F480007047B5
:108C58004FF0000304E000BF10F0004348BF40425B
:108C68005FEA000C08BF704743F0964301464FF097
:108C780000001CE050EA010208BF70474FF00003F3
:108C88000AE000BF50EA010208BF704711F0004334
:108C980002D5404261EB41015FEA010C02BF844604
:108CA8000146002043F0B64308BFA3F18053A3F563
:108CB8000003BCFA8CF2083AA3EBC25310DB01FAAA
:108CC80002FC634400FA02FCC2F12002BCF1004F2E
:108CD80020FA02F243EB020008BF20F001007047BF
:108CE80002F1200201FA02FCC2F1200250EA4C0013
:108CF80021FA02F243EB020008BF20EADC70704759
:108D080053B94AB9002908BF00281CBF4FF0FF31EA
:108D18004FF0FF3000F00CB8ADF1080C6DE904CE4F
:108D280000F008F8DDF804E0DDE9022304B070473C
:108D3800704700BF2DE9F04786468C460846089ED6
:108D4800154674461946002B40F0C1808542B2FA98
:108D580082F245D94AB1C2F1200300FA02FC9540DB
:108D680094402EFA03F343EA0C0C4FEA154EA8B2CE
:108D7800230CBCFBFEF80EFB18CC08FB00F943EAF9
:108D88000C43994528D9EB1808F1FF3704D29945C7
:108D980002D9A8F102072B44A3EB0903A4B2B3FB41
:108DA800FEFC0EFB1C330CFB00F044EA0344A0421B
:108DB80014D92C190CF1FF3304D2A04202D9ACF11A
:108DC80002032C44241A43EA07401EB1D44000236E
:108DD80034607360BDE8F0874746DDE76346F1E736
:108DE80092BB431B01214FEA154EAFB2200CB3FBD7
:108DF800FEFC0EFB1C330CFB07F840EA03439845C6
:108E080061D9EB180CF1FF3004D2984502D9ACF1C6
:108E180002002B44A3EB0803A4B2B3FBFEFC0EFB39
:108E28001C330CFB07F744EA0344A7424DD92C191D
:108E38000CF1FF3304D2A74202D9ACF102032C444F
:108E4800E41B43EA0040C0E7C2F120039540944088
:108E580020FA03F12EFA03F34FEA154E9040AFB211
:108E68000343B1FBFEFC0EFB1C10190C0CFB07F8AE
:108E780041EA0041884522D969180CF1FF3004D233
:108E8800884502D9ACF102002944A1EB08019BB244
:108E9800B1FBFEFC0EFB1C110CFB07F743EA014378
:108EA8009F420ED9EB180CF1FF3104D29F4202D930
:108EB800ACF102012B44DB1B41EA004193E7604619
:108EC800E3E76146F7E76046A4E76346B8E783420D
:108ED80006D916B9002108467CE7C6E900E0F9E79B
:108EE800B3FA83F78FB9834201D3724508D8BEEB32
:108EF800020460EB030301209C461EB9002169E7C8
:108F08003846FAE7C6E9004CF8E7C7F1200CBB4041
:108F18000EFA07F522FA0CF42EFA0CF1BA401C43AB
:108F280020FA0CF3B8404FEA144901431FFA84FEB3
:108F3800B3FBF9F809FB18300B0C08FB0EFA43EAEF
:108F480000439A4540D9E31808F1FF3004D29A4506
:108F580002D9A8F102002344A3EB0A0389B2B3FBA8
:108F6800F9F809FB183308FB0EFE41EA03418E4568
:108F78002CD9611808F1FF3304D28E4502D9A8F123
:108F88000203214443EA0040A1EB0E01A0FB029832
:108F98004145CE46434602D306D14D4504D2013859
:108FA800B9EB020E68EB0403002EA7D0B5EB0E0256
:108FB80061EB030101FA0CFC22FA07F3F9404CEAD1
:108FC8000303C6E9003199E74046C5E74346D9E7B8
:108FD80010F8012B11F8013B012A28BF9A42F7D05B
:108FE800D01A7047034611F8012B03F8012B002A09
:108FF800F9D17047034613F8012B002AFBD1181A40
:1090080001387047000000000023F0B587B0CDE9B3
:10901800043304230D4606460193002800F0AC8073
:10902800002900F0A980062104A81AF02DFB0446A7
:1090380040B103460121544A54481AF063FC2046C3
:1090480007B0F0BD014604AA30461AF01AFB0446E0
:1090580048B103464E4A01214C481AF053FC04A873
:109068001AF025FBEBE76A46012104A81AF0D3FBA6
:10907800044610B10346474AEDE7009BB3B1042B01
:109088001AD0052B0CBF0923FF232B70032101AB3A
:1090980002AA04A81AF0EDFB064678B103463E4A38
:1090A80001213A481AF02EFC3446D8E70023002064
:1090B8002B706860A860D2E70723E6E7019B002BC6
:1090C800F4D018336B4403F8100C0146022202A8AE
:1090D80015F03EFC2B78C0B2092B06D10F2824D9F5
:1090E8006FF0150423462D4AB5E70F28F8D8072B4B
:1090F80022D12B4B2B4F33F81000D8B1FFF726FAAB
:109108001FA3D3E90023FFF78BFAFFF79BFC042189
:1091180068600DEB010302AA04A801911AF0A9FBEB
:10912800064660B10346204ABAE7204B204F33F881
:109138001000E2E71F48EAE76FF07F04D2E7019BDF
:10914800014618336B4403F8100C022202A815F0EC
:10915800FFFBC3B20F2B07D90121174A0B481AF09E
:10916800D1FB6FF015047AE7581CC0B2FFF774FD05
:109178003946FEF7E5FF9DE76FF015045FE700BF8E
:109188007B14AE47E17A2440578B0200205B020033
:10919800808B0200A98B0200CB8B0200F78B0200A8
:1091A800486202000AD7A33F1B8C02002862020013
:1091B8000AD723400AD7A340468C0200014602483A
:1091C80083681B68184700BFA4580200002370B5C5
:1091D800094A166830F913505C00013304EBC604E1
:1091E800042B0D53F5D11168042901F1010308BFBF
:1091F8000023136070BD00BF98E0002070B52C48B4
:109208008AB016F024F92B481BF09EFE002848D09F
:109218002948FFF7D3FF2948FFF7D0FF2848FFF771
:10922800CDFF2848FFF7CAFF142200210DEB0200EA
:109238001CF044FA1E230693234B002407930823AB
:1092480008930E238DF824301A4B204E9D68194838
:1092580005A96B68984701340146E4B2E8B91C498E
:109268001948FFF7B3FF0420002113F0EDFF052C88
:10927800EDD1002403A91648CDE9034416F02DF8D2
:10928800BDF91230BDF90E200093BDF90C10BDF9DF
:109298001030104816F0DBF8D9E7304616F0D7F84A
:1092A800E1E70D4816F0D3F800200AB070BD00BF02
:1092B8006E620200A45802002062020018620200D6
:1092C8001062020008620200DCF200208A620200DA
:1092D800E4F200209E6202007B6202002DE9F04F5A
:1092E80091B0009302F004030293C2F3C203013366
:1092F800840705460E46DDF868800392059340F022
:10930800F681041D30B1072909D86FF01B0011B090
:10931800BDE8F08F01F00706341DC6F108064FF0CE
:1093280000094FF0040B009B4F46013B01934FF09F
:10933800FF324B46DA46CDF810900DB10099216006
:109348000598002800F3D78098480099814203D3F4
:1093580097488142C0F0CF800399A4EB050E890796
:109368004FEA9E0040F1E2804FF0000CCCE07A28F2
:109378005AD84B280CD8472856D829282AD825281F
:1093880051D051D8202877D023384342434173E045
:109398004C382E2848D8DFE800F06F474747474742
:1093A8004747474747474947474747474747475931
:1093B8004749495959596F496C476F4718491847E0
:1093C80047807D49474749477D00002000234FF0EB
:1093D800040B39E001212A38C0B201FA00F010EA82
:1093E8000E0F49D110F0625C30D110EA010343D06E
:1093F8006046013C5C44B4FBFBF40BFB04F4002D19
:1094080060D0AAEB050CA4446645FFF47EAF0028A3
:109418006AD1BAF1040F45D158F8040B20604FF017
:10942800040A043428E0013A002325E0019B13F8DC
:10943800013C6C2B33D10020019B13F8023C6C2BB0
:109448000346C4D14FF0080BDA46D2E708F1070803
:1094580028F00708073424F00704F8E802AB35B110
:1094680006982044B0423FF650AFC4E900AB002351
:1094780008344FF0080BDA46019911F8010F0191F1
:10948800002800F0BC80002B7FF471AF2528F3D1B1
:10949800012301324FF0040BEDE7184696E7002050
:1094A8000346A6E7BAF1080F40F09B8008F10708C9
:1094B80028F00708F8E80201C4E900014FF0080A9B
:1094C8000834D9E780B9BAF1040F02D108F10408C9
:1094D800A5E7BAF1080F40F0848008F1070828F0E2
:1094E800070808F10808E9E705990139059158F8CE
:1094F800041B009121E7039988074AD54FF0010C16
:10950800A4EB050E4FEA9E00BEF5007F1ED3294945
:1095180040F27B23284A294816F000FA284816F01A
:10952800FDF940F27B21244816F0F1F90F2F0FD8EE
:10953800002D49D007F140010DEB010C0CF8200C6F
:109548000CF8102C04980130049021E00F2F0CD94E
:1095580018494FF42073184A184816F0DFF91948CB
:1095680016F0DCF94FF42071DDE7CDB107F14001C9
:109578000DEB010EC0B20EF8200C0EF8102CBCF149
:10958800000FDFD060F07F000EF8200C09F1010910
:109598000137C5F108014FF6DA7E043406916BE70E
:1095A800BCF1000F10D00136F2E700BF805702006F
:1095B800A4B30200F9B20200AC620200DA6202004F
:1095C800F762020018630200029802360028DFD111
:1095D8000098CDE90632FFF70DFDDDE906320644B5
:1095E800D6E740F2C523434A4349444816F096F962
:1095F8005146434816F092F940F2C52193E7631BA0
:10960800B3F5806F0CD33C4940F2D123394A3B482B
:1096180016F084F93B4816F081F940F2D12182E72F
:109628001DB9A6F10804E01871E6029A9B082860A3
:109638002B709DF81030C2B1EB7085F80290B9F12B
:10964800000F05D0002208A8C5F1010C97420ED1E1
:109658004FF0000AC5F101030DF1200801930DF147
:10966800300B574512D1601B51E66B70E5E710F8D7
:10967800013B190608D504EB0C0E764503F07F0371
:10968800FFF443AE04F8013B0132DFE7B9F1000F04
:1096980003D098F90020002A17DB029BD3B11AF8EF
:1096A8000B2004F8012B0022019B981820448642C5
:1096B800FFF42BAE98F80000009904F8010B20463F
:1096C80003921BF0EEFF039A14440AF1010A08F111
:1096D8000108C6E798F8002055F822300093029B4D
:1096E800009845F82230FFF785FC421CDCE76FF054
:1096F8000D000CE6AC620200F9B20200DA62020068
:1097080032630200476302002DE9F04F95B000AFC5
:109718008A4604467A62BB6158B9A8494FF4657312
:10972800A74AA84816F0FAF84FF46571A44816F04D
:10973800EEF8BB6F90F802B0C3F3C0033B6141B9C8
:10974800457800780BEB80002044554517D8A0EBEE
:10975800040AE3787B61BBF1000F02D0BB6FD80726
:1097680016D47B6953BB7B6A1BB151462046BA6944
:109778009847554628465437BD46BDE8F08F461CE5
:109788003046FFF737FC013030440AF1010ADCE7C4
:10979800237862683B629B00FB603B6AFA6104EBDA
:1097A80083097B6A002B40F00081C8460026554695
:1097B80009EB0B0AC24551D1D94413E0BB6F990795
:1097C800D1D5237899463B629B00FB60636804EB24
:1097D8008909FB617B6A002B7AD15546BBF1000FE2
:1097E8004FD15E46BB6F13F0050F0CBF4FF0020B55
:1097F8004FF0010B7B6909EB430ABB6F03F00203CF
:109808007B62D145B6D019F8021B19F8013C54F80F
:1098180023806D4B984502D36C4B984538D33B69F0
:10982800002B42D0F86915F09BFD00283DD0E84692
:109838008AB06A46664B5361FB69C2E906314FF448
:1098480000731384634B42F8103F00234FF4125106
:10985800614801F023FC023DC546D2E718F8013BF8
:1098680054F82300FFF7C6FBFB6F01303BB1D7F874
:1098780080309E423EBFFB6F23F816000136054438
:1098880098E7BB6F13F004061CBF7E6AD944A9E7AA
:109898003B6923B1F86915F063FD0028C7D1BB6F98
:1098A800DA0705D4A5EB0B05ABE77B6A002BA8D03C
:1098B8004046FFF79FFBFB6F43B1D7F880309E42CD
:1098C8003FBFFA6F431C22F816300136054498E76B
:1098D800BBF1000F6FD0BB6F13F004067ED0D846E3
:1098E800002607F140005A4649461BF0DAFE7B691C
:1098F800D9445B007B607B6909EB4303BB60BB6FAA
:1099080003F002033B60BB68994569D1B96F63787E
:10991800B86F890748BF002106EB030258BF4FEA1A
:109928005801C507D2B200F1DF8010F0040F14BF50
:1099380040460020FB616270A070E1702046BA6961
:10994800F9687B6A9847051EFFF614AF3B6A4146E3
:109958002370FB69BA6963707B6984F802B0E370AD
:1099680007F140007B6A9847B0F10008C0F2E9802F
:10997800FB68AAEB0B01C91A7B684846C91ABA6981
:109988007B6A98470028C0F2DE804FF0000BA8449D
:1099980008EB000507F1300AB345C0F0A7800021A5
:1099A800BA6908467B6A9847E4E65E464FF00008C5
:1099B80007F1300097E75E46D84698E75E630200F5
:1099C800AC620200DA62020080570200A4B302000F
:1099D8007963020004000001F05A0200B04686E7ED
:1099E80019F8021B594B19F8015C54F825009842E4
:1099F80002D3574B984216D33B692BB1F86915F03F
:109A0800AFFC00287FF47FAF3B68002B4AD00F2EB5
:109A18003ED9504940F24A434F4A504815F07EFF1C
:109A280040F24A4182E63B692BB1F86915F098FC8F
:109A380000287FF468AFBB6FDB070BD50F2E27D943
:109A480044494FF48863444A444815F067FF4FF48B
:109A580088616BE6BB6F58077FF555AFB8F10F0FFC
:109A680009D93F4940F243433B4A3C4815F056FF69
:109A780040F243415AE608F1280307F1280208F1A9
:109A8800010103EB020808F8105C5FFA81F83AE775
:109A980006F1280307F12802711C9E1806F8205CBD
:109AA800CEB230E7B8F10F0F09D92D4940F24D4336
:109AB800294A2A4815F032FF40F24D4136E608F1AE
:109AC800280307F1280208F1010003EB020C07F153
:109AD800500308F1020853FA80F00CF8101C5FFAE2
:109AE80088F800F8105C0EE7002023E71BF80A301E
:109AF80054F8239087F82F30FB6FFBB133F81B80A5
:109B08000121BA697B6A07F12F00984700281ADB00
:109B18000544B8F1000F06D14846FFF76BFA00F18B
:109B280001081FFA88F841464846BA697B6A98478F
:109B3800002808DB05440BF1010B2DE7D7F87C80E2
:109B4800DEE7454616E6054614E600BF80570200E4
:109B5800A4B302001C640200AC620200DA620200D4
:109B68003B640200014B1860704700BF28C6002004
:109B780080B505460E461746984613F099FB0346EE
:109B88001BF0F0FD0446DFF81890424649F8003013
:109B980039463046A84754F8090002F081F900BF59
:109BA80008000000F8B50F4600293BD006680122DE
:109BB800304615F093FC01460446304615F056FC35
:109BC800C3070DD4AF23184A1849194815F0A6FE43
:109BD8003946184815F0A2FEAF21134815F097FE34
:109BE8002146304615F058FC2518294600223046F3
:109BF80015F03CFC2D1AAC420BD0B7230A4A0E498B
:109C08000B4815F08BFE39460C4815F087FEB72136
:109C1800E3E72146304615F045FC2146BDE8F8400B
:109C280015F081BDF8BD00BF6C6402008D640200B0
:109C3800DA6202009E640200D6640200FC6402003C
:109C48002DE9F8430F4606681446B2684B1EB2F574
:109C5800004F34BF042108213B4010D0C7F1000950
:109C680009EA0709494503F1FF3028BF4946184268
:109C78000CD11F46DCB900252846BDE8F8838F4281
:109C880013D82146BDE8F84315F08FBD2E494FF48F
:109C9800A2732E4A2E4815F041FE2E4815F03EFEBE
:109CA8004FF4A271294815F032FE9946E2E7B2EB6B
:109CB800D40FE0D9E319591A104615F019FC0146DA
:109CC800304615F06FFC80460028D4D0B36809EB05
:109CD800C005B3F5004F34BF042308231D443544A1
:109CE8007B1E1D44B5FBF7F57D43A5EB0905294609
:109CF800304615F0F3FB2C44073424F00704A41B6A
:109D0800804507464FEAE40408D2024641463046F9
:109D180015F082FC4146304615F0C3FC3946304602
:109D280015F0BAFB3844844208D2394630462246F8
:109D380015F072FC2146304615F0B3FC0122394675
:109D4800304615F0AFFB97E7386502006C640200F7
:109D5800DA62020053650200B2F5802F2DE9F04166
:109D680010D2042A28D843494FF4F973424A434889
:109D780015F0D4FD424815F0D1FD4FF4F9713E4875
:109D880015F0C5FD0823D21ACC1D114424F0070490
:109D980021F00701091B17294FEAD1060ED83949C6
:109DA80040F2FB13344A354815F0B8FD344815F035
:109DB800B5FD40F2FB11E2E70423E4E70027046065
:109DC80031463046A660E76015F09BFB0121421D35
:109DD8008046304615F08CFB9200D51DED082844CE
:109DE800B0423AD8B8F1FF3F3946A2F1100204F167
:109DF8001000B8BF3A461BF061FC2A463946204697
:109E080015F068FB3B463A463946204615F039FBC3
:109E1800A6EB050820463946012215F043FB4246C9
:109E2800294615F057FB2B463A462946204615F099
:109E380028FB3146204615F04DFB43463A4631464D
:109E4800204615F01EFB31462046012215F02AFB5C
:109E58002946BDE8F04115F024BC0B494FF40373C3
:109E6800054A064815F05AFD054815F057FD4FF408
:109E7800037184E7706502006C640200DA62020014
:109E880091650200AA650200D365020000B516229A
:109E98001BF068FC024B1A504FF0FF305DF804FBD2
:109EA8000C0000002823434330B50D4908330B4408
:109EB800D3E8AF2F92B1541ED3E8EF5F954204D197
:109EC800C3E8EC4FBCF1000FF6D1F1D1012A05D15E
:109ED8002823584300230A180B50536030BD00BF95
:109EE8002CC6002070B500254FF0FF334FF0FF322D
:109EF800174811F0E3F9174BD3E8AF2F82B10135BA
:109F0800102D03F12803F7D11BF02CFC17224FF07A
:109F1800FF35114B1A500E4815F08CFC284670BDC1
:109F280028246C43D3E8EF0F0130C3E8E10F002980
:109F3800F8D10A4E331932515A6004F10C003044FA
:109F48001BF04EF804F1200030441BF02EF9E2E734
:109F580048D1002034C600200C0000002CC6002088
:109F680010B40446104628225443084B1A191951B4
:109F7800506040B1C26832B10C34234440F205123B
:109F880010BC15F046BC10BC704700BF2CC60020A2
:109F98002DE9F84F0446A38B08461907154612D435
:109FA800022803F0070165D1204615F047FC88B167
:109FB8000138042800F23781DFE810F05C00350131
:109FC8008200D400040101280CBF43F0100143F0C3
:109FD8002001A1831434204611F0A6F8002840F08F
:109FE8009F819A4940F23113994A9A4815F096FC94
:109FF8002146B1E003F00702501F01281ED80020B7
:10A00800062A2768C4E9000014D13A4603E0E08B29
:10A018000130E0831268002AF9D123F0070343F0E6
:10A0280002022046A28315F009FC90B342F02002F8
:10A03800A2832EE023F007039AB2F2E7042A33D171
:10A0480023F007039AB22046A28315F0F7FB10B15C
:10A0580042F02002A283A38B03F00709894540F050
:10A06800EC80A18BCA0640F1528121F01003A38332
:10A0780001F00701D4F81880A38BB8F1000FB9DA02
:10A088000022276823F00703C4E9002243F00103F4
:10A09800A383A38B03F00709894540F0CF80002FE5
:10A0A800DFD00026B24644E06B4940F21B136B4AEE
:10A0B800684815F033FC40F21B11684815F027FC7E
:10A0C80049B167494FF4AB73644A624815F026FCFE
:10A0D8004FF4AB71F1E723684BB9624940F257136B
:10A0E8005E4A5C4815F01AFC40F25711E5E723690F
:10A0F8001E684EB95C494FF4AD73584A554815F07F
:10A108000DFC4FF4AD71D8E70F4688464FF00609AD
:10A11800A38B23F0070343F006039BB2A383A26833
:10A12800002A40F08D80002F40F08D80002E98D0BE
:10A13800BA4643F0080304F1140B5846A38310F001
:10A14800F3FF002840F09A80404940F23113404A1A
:10A15800404815F0E3FB5946444815F0DFFB40F250
:10A168003111AFE0022909D0414940F25D133B4A61
:10A17800384815F0D3FB40F25D119EE7E78B4FB1ED
:10A188003C494FF4AF73354A324815F0C7FB4FF4DA
:10A19800AF7192E723695E684EB9334940F26113A3
:10A1A8002E4A2C4815F0BAFB40F2611185E7A38BC3
:10A1B800B84623F0070343F004039BB24FF00409A9
:10A1C800A383ACE7012909D02B494FF4B273234A82
:10A1D800204815F0A3FB4FF4B2716EE723684BB922
:10A1E800204940F265131D4A1A4815F097FB40F2C2
:10A1F800651162E723699E684EB91B494FF4B47331
:10A20800164A144815F08AFB4FF4B47155E7002735
:10A21800A38BB84623F0070343F005039BB24FF026
:10A228000509A3837BE70C4940F26B130B4A0948E5
:10A2380015F074FB40F26B113FE7002700266EE72C
:10A248004FF0010A75E7924673E700BFCE66020039
:10A25800A1660200DA620200F9B20200FE6502009D
:10A26800206602002C6602004F660200E5660200C6
:10A27800666602007C6602008B66020085F3118820
:10A28800BFF36F8FBAF1000F1ED1002F2FD116B177
:10A2980020462649B0474FF02003EFF3118583F39A
:10A2A8001288BFF36F8F584610F030FF38BB8823F1
:10A2B8001F4A2049204815F031FB59461F4815F020
:10A2C8002DFB88211A48F9E6A1680029DDD00D6820
:10A2D8000029DAD043464A462046D1F804A0D047A0
:10A2E8001DB12B6829461D46F2E72B46FAE7394689
:10A2F80043464A4620463F6815F0CCFAC5E758461B
:10A3080010F020FFA38B23F00803A383A9E68B0694
:10A318007FF560AE21F02003A38301F0070143E637
:10A3280085F31188BFF36F8FBDE8F88F49A300004C
:10A33800A1660200FA660200DA6202000F670200F4
:10A34800F8B504460D4600F114064FF02003EFF36C
:10A35800118783F31288BFF36F8F304610F0D6FE53
:10A3680068B988230B4A0C490C4815F0D7FA3146CE
:10A378000B4815F0D3FA8821064815F0C8FA30467C
:10A3880010F0E0FEA5613A462046BDE8F8400121FC
:10A39800FFF7FEBDA1660200FA660200DA6202005B
:10A3A8000F6702002DE9F04704460F4615F062FAE0
:10A3B800051E69DB04F114094FF02003EFF3118A3D
:10A3C80083F31288BFF36F8F484610F09FFE8046D4
:10A3D80060B98823384A3949394815F09FFA4946FF
:10A3E800384815F09BFA8821334842E0484610F077
:10A3F800A9FE4FF6FF72E38BA68B934206F0070681
:10A4080045D0022E15D135460133E383484610F076
:10A418008BFE002841D140F23113274A2A492848A7
:10A4280015F07CFA4946294815F078FA40F23111BE
:10A43800DAE7062E13D8DFE806F0092D1212090410
:10A4480009006FF085054FF00008DFE700233B6047
:10A45800636883B9C4E9007786B13546F3E71C49D8
:10A4680017484FF4E4731B4A15F058FA4FF4E47197
:10A47800184815F04CFA1F606760EDE75246022154
:10A488002046FFF785FD35462846BDE8F0876FF082
:10A498000A05D8E76FF00405D5E78AF31188BFF3FA
:10A4A8006F8FB8F1000FEFD00023324639462046AF
:10A4B80015F0F0F9E8E700BFA1660200FA660200AD
:10A4C800DA6202000F670200CE660200E56602004B
:10A4D8008B660200FE65020008B54268034602F07A
:10A4E8000302022A81600AD0032A4FF0000103D038
:10A4F800012A0AD1596006E01868596008BD186831
:10A5080000225A6058B90020F8E706490648452352
:10A51800064A15F003FA4521044815F0F8F913F036
:10A5280099FFF0E7F9B20200DA620200256702003B
:10A5380038B50D460446202200211BF0BFF8002242
:10A54800EB68E361AB68A3612B6823626B68A26266
:10A5580063622A6923B1591E194208BF42F00102F9
:10A5680022610122002104F12C001AF076FD48B185
:10A57800054906482E23064A15F0D0F92E2104482D
:10A5880015F0C5F938BD00BF6E670200DA62020037
:10A59800486702002DE9F04F002789B0CDE9012373
:10A5A800436A04468B428846BA460597079753D3B1
:10A5B80000F114064FF02003EFF3118B83F3128898
:10A5C800BFF36F8F3046D94610F0A0FD58B98823E5
:10A5D8004B4A4C494C4815F0A1F931464B4815F007
:10A5E8009DF9882160E0304610F0ACFD079A2AB149
:10A5F8003946204615F073FA0023079306A920462A
:10A6080015F099F90699054641452ED32268236A23
:10A61800204613F8221003EB820A21F0030103F805
:10A6280022102168424615F0AAF9E3682060984292
:10A6380016D00025304610F077FD40B389F3118815
:10A64800BFF36F8F059929B1A2690AB120469047D7
:10A6580000230593002DADD1504609B0BDE8F08F19
:10A66800236943F008032361E3E718B1204615F096
:10A67800A0F9DFE7DDE90132134338D003911AF07E
:10A688009AFC039998BB304610F04EFD78B940F219
:10A6980031131B4A1E491C4815F040F931461D4824
:10A6A80015F03CF940F23111154815F030F98BF3EB
:10A6B8001188BFF36F8F04F12C00DDE9012311F03D
:10A6C80059F805464FF02003EFF3118983F31288F8
:10A6D800BFF36F8F304610F019FD00283FF477AFB5
:10A6E800B5FA85F5304610F02DFD6D09A2E7204634
:10A6F80007AB05AA276815F07BF905469AE700BF5E
:10A70800A1660200FA660200DA6202000F67020020
:10A71800CE660200E56602002DE9F0410446C369F1
:10A7280008460E46984704F1140507464FF02003E3
:10A73800EFF3118883F31288BFF36F8F284610F068
:10A74800E5FC68B988231A4A1A491B4815F0E6F847
:10A7580029461A4815F0E2F88821154815F0D7F867
:10A76800284610F0EFFC33783A4643F00103337083
:10A778006168204615F003F96060204615F0CAF9B3
:10A78800284610F0D1FC68B940F23113084A0C4948
:10A79800094815F0C3F829460A4815F0BFF840F2F1
:10A7A8003111DAE788F31188BFF36F8FBDE8F081C4
:10A7B800A1660200FA660200DA6202000F67020070
:10A7C800CE660200E56602002DE9F843044600F172
:10A7D80014074FF02003EFF3118883F31288BFF3B7
:10A7E8006F8F384610F092FC054668B98823354AC1
:10A7F8003549364815F092F83946354815F08EF83F
:10A808008821304815F083F8384610F09BFC2369FE
:10A81800A26813F0080F02D163689A4200D9636AEC
:10A828009B1A002B3FD0216A11F8223001EB8209D4
:10A8380013F003003AD0022803D151F82260B60879
:10A8480005D1D8071FD44846E36998470646A1684A
:10A858003246204615F093F83146A060204615F0A0
:10A868009CF8384610F060FC10BB40F23113154AD2
:10A878001849164815F052F83946174815F04EF899
:10A8880040F23111BDE743F0020301F82230E369D9
:10A898004846A568984729460246204615F06FF8AD
:10A8A8000025A060DDE71D46A946DAE70546FBE777
:10A8B80088F31188BFF36F8F002D8AD14846BDE811
:10A8C800F88300BFA1660200FA660200DA6202009D
:10A8D8000F670200CE660200E56602002DE9F0412E
:10A8E8000446C36908460D46984704F1140607460E
:10A8F8004FF02003EFF3118883F31288BFF36F8FB3
:10A90800304610F003FC68B98823274A27492848AD
:10A9180015F004F83146274815F000F88821224838
:10A9280014F0F5FF304610F00DFC2B786FF30003A0
:10A938002B7023699B0705D5E268236A03EB820322
:10A948009D4222D12B786FF341032B70D4E9023159
:10A95800994204D13A46204615F011F8A0603946CC
:10A96800204615F01AF8304610F0DEFB90B940F298
:10A9780031130D4A10490E4814F0D0FF31460F48E4
:10A9880014F0CCFF40F23111C9E72B6867F39F033D
:10A998002B60E8E788F31188BFF36F8F04F12C0070
:10A9A800BDE8F04110F0A2BEA1660200FA660200FE
:10A9B800DA6202000F670200CE660200E566020056
:10A9C80030B5002289B00F490F481AF03DFC00222B
:10A9D80000230024CDE906230E230C4DCDE90334D2
:10A9E8004FF400622846CDE90144094B0949009417
:10A9F80010F0D4FA084928461AF0E3FA204609B0BC
:10AA080030BD00BF69AB000020D8002090D30020E3
:10AA180041AE000058F70020776702002DE9F047A3
:10AA2800044607464FF00109DFF8508014B938464C
:10AA3800BDE8F08794FAA4F5B5FA85F509FA05F3A7
:10AA48002E0108EB05156FEA030A24EA03042B7BA1
:10AA5800002BEBD058F806301B694BB94644736895
:10AA680004222846196807EA0A0700F0F1FADDE728
:10AA7800284698470028D9D1F0E700BF885B020034
:10AA88002DE9F047DFF8B8902E4C8046A9EB040377
:10AA98009F2B0F460BD92C4940F225132B4A2C48E3
:10AAA80014F03CFF40F22511284814F030FF2948E3
:10AAB80015F05FF8064660B300252846BDE8F08724
:10AAC800237B73B12368DB680BB120469847236862
:10AAD8001B69B3B9636804222046196800F0B8FA04
:10AAE800013610344C4518D91B494FF49973174A4D
:10AAF800174814F013FF194814F010FF4FF4997118
:10AB0800D2E7204698470028E4D00AFA06F31D4306
:10AB1800E6E705464FF0010AE4E7D1D3B8F1000FA4
:10AB2800CBD0002DC8D02846FFF778FF0546002F68
:10AB3800F7D000214FF4A47012F086FBF1E700BFB4
:10AB4800985B0200885B0200AC6702007F67020026
:10AB5800DA620200B0E00020D0670200F16702006C
:10AB6800014810F0C3BD00BF00D20020014B53F8CC
:10AB780020007047DC5B020008B5034608462BB18D
:10AB8800044A136000F0ACFD002008BD6FF015000A
:10AB9800FBE700BFACC8002010B5044C237813B9FC
:10ABA800034810F0A3FD0123237010BD12F3002009
:10ABB80000D2002010B50446064814F0DAFF3CB174
:10ABC800054BD3E8EF1F0139C3E8E21F002AF8D18B
:10ABD80010BD00BFA8E00020ACE000200020014626
:10ABE800034BD3E8EF0FC3E8E21F002AF9D17047FF
:10ABF800A8E0002070B5FFF7F1FF05460F4C104E96
:10AC0800B44219D90F4940F2DD130F4A0F4814F026
:10AC180085FE0F4814F082FE40F2DD110A4814F058
:10AC280076FE63685B792BB123685B6813B12946AC
:10AC3800204698471034E3E7F3D370BD885B0200E1
:10AC4800985B0200D06702007F670200DA620200A8
:10AC5800F167020010B5044C04492046FFF768FC70
:10AC6800034B1C6010BD00BF88D00020C85B0200E9
:10AC7800A0E0002008B50023074A4FF400411370F4
:10AC8800064A07481360074A1360FFF775FFBDE8D7
:10AC98000840FFF7DFBF00BF13F30020A8E0002043
:10ACA80077FB0100ACE000200146002200230148A8
:10ACB800FFF770BC88D000200148FFF785BD00BFB2
:10ACC80088D00020024B01461868FFF707BE00BF76
:10ACD800A0E00020014814F02ABF00BF88D000205F
:10ACE80070B52E4B1878002857D0FFF7E5FF0546BA
:10ACF80040B32B4BD3E8EF1F0139C3E8E21F002A0A
:10AD0800F8D1284C284EB44218D9284940F2D1131A
:10AD1800274A284814F002FE274814F0FFFD40F2A5
:10AD2800D111234814F0F3FD63685B7923B12368DC
:10AD3800294620461B6898471034E4E7F4D3284690
:10AD4800FFF7C0FF1D4B1E4C1B68002B19DD1AF0C6
:10AD580034FA4FF47A72A0FB020302FB0131C30BF1
:10AD680043EA4143D4E900209B1A40F2E9324FEA12
:10AD7800D13161EB0001934271F1000101D3FFF77A
:10AD880039FFD4E9003213F57A7342F10002C4E9BD
:10AD98000032BDE87040FFF79DBF70BD12F3002080
:10ADA800ACE00020885B0200985B0200D0670200DC
:10ADB8007F670200DA620200F1670200A8E0002063
:10ADC80018D8002070B5154D297829BB0120FFF748
:10ADD80057FE134C134EB44217D913494FF4CA7394
:10ADE800124A134814F09AFD124814F097FD4FF4D4
:10ADF800CA710E4814F08BFD63685B791BB1236838
:10AE080020469B6898471034E5E7F5D3FFF768FFBD
:10AE18000028FBD101232B7070BD00BF13F3002065
:10AE2800885B0200985B0200D06702007F6702001F
:10AE3800DA620200F16702002DE9F047304B314F2A
:10AE4800FB1A1B090BD1304940F26B332F4A3048AB
:10AE580014F064FD40F26B312C4814F058FD0021C9
:10AE68000846FFF70DFE044650B340F267684FF0FE
:10AE780000091AF077FC274B274A1B58136033B197
:10AE8800264B1B68092B02DD254810F02FFC0025F6
:10AE9800DFF88CA044B12046FFF7C0FD044618B97E
:10AEA8004FF0FF384FF0FF39FFF71AFF064628B971
:10AEB8005DB942464B46504610F05CFC3546E9E722
:10AEC8004FF0FF384FF0FF39D3E70D4D08E0F0D2CF
:10AED8002B689B691BB100222846114698471035FC
:10AEE800BD42F4D90F4940F25F33084A084814F0CC
:10AEF80015FD0D4814F012FD40F25F31ACE700BFBC
:10AF0800885B0200985B0200106802007F670200FD
:10AF1800DA62020008000000A4E00020ACE0002093
:10AF280000D20020D0670200F167020013B52C4858
:10AF380014F01FFE2B4B1B78002B36D04FF020034C
:10AF4800EFF3118483F31288BFF36F8F264810F054
:10AF5800DDF868B98823254A2549264814F0DEFC1F
:10AF68002149254814F0DAFC8821204814F0CFFC48
:10AF78001D4810F0E7F8FFF7B3FE1B4810F0D4F8AF
:10AF880068B940F23113194A1C491A4814F0C6FC32
:10AF980015491B4814F0C2FC40F23111E5E784F36F
:10AFA8001188BFF36F8F02B010BD164B1B68002BC2
:10AFB800F9D050B9002200231348CDE900234FF4FB
:10AFC8000042002312F08CFEEDE70928EBD10E4871
:10AFD8001AF046F90D4802B0BDE8104010F086BBE3
:10AFE800ACE0002013F300209CE00020A1660200E2
:10AFF800FA660200DA6202000F670200CE660200FB
:10B00800E5660200A4E0002020D8002000D200203D
:10B0180010B5064B04461B6898472146A0600448B3
:10B02800FFF77AFBBDE81040FFF780BFACC80020EF
:10B0380088D00020044A054B9B1AB1EBD30F34BFCC
:10B0480052F8310000207047E05A0200885B020085
:10B058000E4B10B5C31A1B110133DBB248B90C49AA
:10B068000C48DF230C4A14F059FCDF210A4814F07D
:10B078004EFC4468237143689A7101224368196041
:10B0880043685A71BDE81040FFF786BD885B02002F
:10B09800B0680200DA620200786802002DE9F04F19
:10B0A8008FB0C1F34A2804AF0D469146B8607B6063
:10B0B8000C0DB8F1000F68D000264FF0040B4FF0CC
:10B0C8000A0A07F11403C7F80C80C7E907667E620D
:10B0D8000193CDF808B0CDF800A007F11C03324663
:10B0E8004846F968FEF710FBB0F5006F03461CD31D
:10B0F8006C468AB0D9F8041004AB2C481A46C3E948
:10B10800050140F2FF71D9614FF400711984284B91
:10B1180042F8103F4FF4125133462648FFF7BEFF5E
:10B12800A5462C37BD46BDE8F08FC0F30A0804F1E8
:10B138001700184420F0070080083B60FFF7B4FDB3
:10B1480068F35325044640B33B6800F11001C7E992
:10B15800083607F11403F961CDE900A3CDF808B06A
:10B168004846154AF96807F11C03FEF7CDFA00288E
:10B1780013DA124912484FF48573124A14F0CEFBC1
:10B188004FF485710F4814F0C2FB04F1170020F04A
:10B1980007008008FFF788FD044668F353252A4610
:10B1A80020467B68B96814F016FDBAE7D06802003B
:10B1B80004000001085B0200B3FB01003C690200C7
:10B1C800DA6202000F6902002DE9F04F87B00446E9
:10B1D800DDE9105ADDE912690F4693469846BEB17B
:10B1E8001021334652460020CDF80090CDF8149037
:10B1F800FEF774F8011E0CDA21494FF49573214AC1
:10B20800214814F08BFB4FF495711E4814F07FFB16
:10B21800314605F1170008441C4B04F007040BF0F5
:10B22800070BE40020F0070003EA412344EA8B14EB
:10B2380080081C430391FFF737FD44EA055405468F
:10B24800A0B19EB1334652460399CDF80090103014
:10B25800FEF744F8002809DA09494FF4A273094AAD
:10B26800094814F05BFB4FF4A271CEE7434622462F
:10B278003946284607B0BDE8F04F14F0ACBC00BF13
:10B288003B6902000F690200DA62020000FE0F004B
:10B298000EB403B503AB53F8042B014604480193DD
:10B2A80001F0FCF902B05DF804EB03B0704700BF91
:10B2B800D9B20000CA0605D48B064CBF024903491F
:10B2C800FFF7E6BF704700BF4A7502009894020076
:10B2D80038B54B6805461A68CB680C469A4202D1C5
:10B2E800084614F0F4FC6368D3E8EF2F511CC3E858
:10B2F800E01F0028F8D1A3689D5463681A68E368C2
:10B308009A4209D9054906487A23064A14F006FBE9
:10B318007A21044814F0FBFA002038BD7469020051
:10B32800DA620200456902002DE9F04F89B09B46B8
:10B33800DDE914939DF84C700593169B04460D4661
:10B34800179E06920493002F00F09480042F0BD9C7
:10B35800994940F2BF13994A994814F0DFFA40F22C
:10B36800BF11964814F0D3FA06F00803079314F0B7
:10B378001AFC06F0020A024600284AD020469149E3
:10B38800FFF786FF8046BAF1000F08D016F0440F89
:10B3980041D12A4620468C49FFF77AFF804406F0BF
:10B3A800010353B1894B204653F82720884B89491C
:10B3B800002A08BF1A46FFF76BFF06F00803002BA8
:10B3C80055D0854B204653F827208449FFF760FF66
:10B3D8000546069B2BB11A4620468149FFF758FFC0
:10B3E8000544BBF1000F05D05A4620467D49FFF7BA
:10B3F8004FFF05444544B9F1000F4CD1049B002B85
:10B4080061D1F30700F1D28031462046FFF752FFA1
:10B41800C6E08046B7E7744B18680028BED0734B67
:10B428004FF47A7E1B684FF46162B5FBF3F5B5FB08
:10B43800F0F300FB13550EFB05F5B3FBF2FAB5FB71
:10B44800F0FC3C2102FB1A3200FB1C55B2FBF1F365
:10B458000EFB05F5B5FBF0F501FB13222046009223
:10B46800CDE901C552466249FFF712FF96E706F09B
:10B478000805AEE7BBF1010F08D1B9F1000F1CD1E7
:10B48800049B002B00F08C8000251CE0B9F1000F14
:10B49800F6D0584812E058484B462246574913F010
:10B4A8002EFF00280CDA564940F21923434A444833
:10B4B80014F034FA40F2192153E74F483D46EBE7C0
:10B4C800049B002B69D0DFF83C91DFF83CA1DDF844
:10B4D80010803146B8F1100F204628BF4FF01008F1
:10B4E8004FF0000BFFF7E6FE5D4542DC059B514639
:10B4F80020461A78FFF7CCFE4FF0010B1BF0070F20
:10B5080003D149462046FFF7C3FED84538D9059BE5
:10B518005146204613F80B20FFF7BAFE0BF1010B3A
:10B52800BBF1100FEAD14FF0000B20463749FFF767
:10B53800AFFE5A46059B20469A5CA2F120015F297E
:10B5480028BF2E223249FFF7A3FE0BF1010BBBF1F6
:10B55800100F1AD01BF0070F03D149462046FFF7FA
:10B5680097FED8455A46E5D849462046FFF790FE4B
:10B57800EBE749462046FFF78BFE0BF1010BB3E7DB
:10B5880020462449FFF784FEC8E7059B43440593FA
:10B59800049BB3EB0803049399D1002F7FF431AFD8
:10B5A800204609B0BDE8F04F14F091BB2046084A88
:10B5B8000849FFF76DFE27E7A969020045690200FF
:10B5C800DA620200B5690200B9690200EC5B0200A8
:10B5D800A4690200B5880200005C0200DE6902006E
:10B5E800E4690200E8690200B8E00020B4E0002045
:10B5F800C2690200F1FC0100D9B20000A5C6000032
:10B60800ED690200FE690200F6690200006A0200A4
:10B61800F8890200FC6902002DE9F0410F884B68A7
:10B6280005460C4690468E6886B0C7F382175BB114
:10B63800144A9B1A43F3CF01002920DB2078C0F37A
:10B64800C200FFF7F7FC0346214651F8102B60882B
:10B65800C2F34A22002A01EB020408BF002100229B
:10B66800C0F30B10CDE90408CDE902142846314691
:10B6780001970092FFF758FE06B0BDE8F08100235D
:10B68800E2E700BFE05A020042F20F7373B58B4243
:10B6980028BF0B4605680446052168460D4A12F086
:10B6A800DDFF0646636828460B225B680A4914F0EA
:10B6B80001FB63683246694628465B6814F0FAFA6B
:10B6C80063681B2228465B68044914F0F3FA02B049
:10B6D80070BD00BF2D9F02001E6A0200026A0200B0
:10B6E80000210123064A904206D8064A01B90123DF
:10B6F8001360054B18607047012140085B00F2E7B2
:10B7080040420F00B4E00020B8E00020F8B50D4634
:10B718000446064F4618B44201D12846F8BD14F82D
:10B72800011BBB6801485B689847F4E79058020022
:10B7380010B543681C68094819F006FC48B908495F
:10B7480008489A23084A14F0E9F89A21064814F0A0
:10B75800DEF823685B685C6010BD00BF905802008B
:10B76800886A0200DA6202004A6A0200014B03603A
:10B7780000207047485C02002DE9F04780460C46DF
:10B7880000AF002936D0D1E90012E9468AB06D46EB
:10B79800A3684FF0050A2E461A48C5E90723C5E9EC
:10B7A800050146F810AF002332464FF421511648E0
:10B7B800FFF774FCD4E90312CD466369AD4613481C
:10B7C800C5E90723C5E90501C5F810A000233246DD
:10B7D8004FF421510C48FFF761FCCD46E369012184
:10B7E8000B4A094814F050FAA3690121094A06488E
:10B7F80014F04AFA214640460EF0B2FFBD46BDE8B5
:10B80800F08700BFBC6A0200505B0200EB6A0200CE
:10B818001A6B0200296B020030BFFFF7FDBF00BFA3
:10B82800114B124A2DE9F041D518013DB5FBF3F54E
:10B83800DFF83C805D430F4B074608EB0304013CEF
:10B84800B4FBF3F403FB04540E1B30460A4919F009
:10B8580028FF701942460021083E19F02FFF7E6725
:10B8680004F10800BDE8F0810100000000000000BC
:10B878000800000004000000985B0200044B99686F
:10B888005869884203D003494FF080520A607047D4
:10B8980084F2002004ED00E070B5344C06460D46F5
:10B8A8003348344914F05BFAA36AD9064DD53048B9
:10B8B800314914F054FA1120A36A1A0704D52C4808
:10B8C8002E4914F04CFA1220284CA36A9B0712D573
:10B8D8002B49274814F043FA636BA26A110609D56D
:10B8E8000121284A224814F0CFF91EB1A36A23F097
:10B8F8008003A36213201D4CA36ADA0704D51C48F1
:10B90800214914F02CFA1420A36A9B0604D5184880
:10B918001E4914F024FA1520144B9A6AD60602D44C
:10B928009A6A940713D59B6AD90610D5184940F22C
:10B938006313184A184813F0F1FF184813F0EEFF84
:10B9480040F26311134813F0E2FF1020B4E7074BED
:10B958009A6A920642BF5A6A22F400525A629A6A56
:10B9680042F0FF029A6200232B7070BD00ED00E0E8
:10B97800505B0200576B02006D6B0200A06B020067
:10B98800B36B0200CB6B0200E16B0200006C02009B
:10B99800616C02002F6C0200DA620200AB6C0200DC
:10B9A80010B5244C2449254814F0D9F9A36A990103
:10B9B8003ED52248224914F0D2F91E20A36ADA01A2
:10B9C80004D51E481F4914F0CAF91F20194CA36A50
:10B9D800DB0204D519481C4914F0C1F90220A36AF6
:10B9E8001C0304D51548194914F0B9F92120114C44
:10B9F800A36A590304D51148154914F0B0F9222057
:10BA0800A36A9A0304D50D48124914F0A8F9232013
:10BA1800084CA36ADB0304D508480F4914F09FF9C2
:10BA28002420A36A6FEA03436FEA1343A36210BD9D
:10BA38001D20C3E700ED00E00F6D0200505B02001F
:10BA4800276D02003A6D0200546D02007E6D0200FF
:10BA58009C6D0200C16D0200DB6D020070B5294CBF
:10BA680006460D462848294914F079F9A36AD904ED
:10BA78003CD52548264914F072F91720A36A1A05FF
:10BA880004D52148234914F06AF918201D4CA36AEB
:10BA98009B0512D51C48204914F061F9A36BA26AD2
:10BAA800100409D501211D4A174814F0EDF81EB1FC
:10BAB800A36A23F40043A3621920124CA36A590510
:10BAC80004D51148164914F04AF91A20A36ADA0570
:10BAD8000ED50D48134914F042F91B20094A936A00
:10BAE80043F47F43936200232B7070BD1620C5E793
:10BAF800A36A9B04F2D504480B4914F030F91C20C2
:10BB0800ECE700BF00ED00E0505B0200066E0200AB
:10BB18001C6E0200A06B02002D6E0200466E020031
:10BB28005B6E0200766E0200006C02002DE9F047A1
:10BB38008AB07F4B0546D3F804A0884616460023F2
:10BB480000AFCAF3080983F31188BFF36F8F02F0BF
:10BB58007F43B3F17F4F0ED076494FF48B63764A1B
:10BB6800764813F0DBFE764813F0D8FE4FF48B616D
:10BB7800714813F0CCFE12F00104EDD1530604D441
:10BB8800100708D44FF0010808E06E496E4814F019
:10BB9800E6F8710700D545464FF00008002DDBD0C8
:10BBA8000023FB71A9F10303092B00F29E80DFE853
:10BBB80003F0059497779C9C9C9C9C9A63496248E7
:10BBC80014F0CDF800235A4EFB71F36A9A0704D596
:10BBD8005F495D4814F0C3F832E0F36A002B01DADC
:10BBE8005C49F6E7F36A5B006AD55B49564814F08E
:10BBF800B6F87369AA6943F480737361BFF34F8F12
:10BC0800BFF36F8F736932F8022C23F4807373616A
:10BC1800BFF34F8FBFF36F8F4DF602739A4208D070
:10BC2800B36ADBB27BB30120F91DFFF735FE04468A
:10BC380006E02B680121494A434814F025F82C688E
:10BC4800FB79E3B907F1080205F1200613462868D5
:10BC58006968083503C3B5421A46F7D17B6AB8F15B
:10BC6800000F5FD0C3F3080222B96FEA53236FEACB
:10BC780043237B62204607F10801FFF77DFD283743
:10BC8800BD46BDE8F087B36A13F47F4F04D00120A6
:10BC9800F91DFFF7E3FECAE7B36AB3F5803F02D3A5
:10BCA800FFF77EFEC3E72E4940F22A33224A234893
:10BCB80013F034FE2B4813F031FE40F22A3157E7D7
:10BCC800274940F22E331C4A1C4813F027FE264809
:10BCD80013F024FE40F22E314AE70020F91DA4E7B4
:10BCE8000020F91DD5E7214973E7214A6E461AF469
:10BCF800F87F8AB01F4B18BF13466A461E49C2E92F
:10BD08000513A9F11003D3614FF4007313841B4B7F
:10BD180042F8103F00234FF411510B48FFF7BEF9CA
:10BD2800B5468DE723F4FF7323F00103A1E700BFB5
:10BD380000ED00E0BC6E02002F6C0200DA62020027
:10BD4800CF6E02000D6F0200505B0200306F0200E0
:10BD5800476F0200686F0200766F0200956F02005D
:10BD6800F9B20200B16F0200D56F0200057002003F
:10BD7800A36E02008E6E020029700200040000010A
:10BD8800044B5A6942F010025A615A6942F48062BF
:10BD98005A61704700ED00E0EFF30880EFF3098186
:10BDA80001B57246FFF7C2FE01BD00BF002080F357
:10BDB8001488BFF36F8F002080F30A8880F30B8804
:10BDC80000F03AFD00200E490860BFF34F8F0D4880
:10BDD80080F3088800F03EF8202080F311880A4894
:10BDE8004FF40061401880F30988EFF314800221B2
:10BDF800084380F31488BFF36F8F00F029F900001F
:10BE080094ED00E07815012038060120BFF34F8F2C
:10BE18000549064BCA6802F4E0621343CB60BFF3DE
:10BE28004F8F00BFFDE700BF00ED00E00400FA05FA
:10BE3800002318460649D1F89020C2F307229342FE
:10BE480000DB7047C1F89830C1F8A0000133F6E76D
:10BE580000ED00E010B572B6002484F31388FFF7F4
:10BE6800E7FF23464FF0FF300C4A03F1200101336E
:10BE7800102B42F82100F8D100234FF0FF30074A79
:10BE880003F160010133102B42F82100F8D162B6AA
:10BE9800BFF34F8FBFF36F8F10BD00BF00E100E00D
:10BEA800084B9B6883420BD1EFF3058343B1064BE4
:10BEB8005A6842F080525A605A6A22F400425A6222
:10BEC80011F0FCB984F2002000ED00E06FF00A01E7
:10BED800084A9368D967084998674B6843F08053C4
:10BEE8004B60002383F31188BFF36F8F9368D86F7B
:10BEF800704700BF84F2002000ED00E018498A680E
:10BF080082F881E04FF030001044EFF3098C80E8AC
:10BF1800F01F202080F31288BFF36F8F114F4FF06E
:10BF280000664A698A603E604FF0740414192068FC
:10BF38000D4C206092F981E0906F0023936780F3A5
:10BF4800118802F1300090E8F01F8CF3098802F1A3
:10BF5800000004B513F00DFFBDE804407047000071
:10BF680084F2002004ED00E0E8E000201EF0040F59
:10BF78000CBFEFF30880EFF30980816911F8021C08
:10BF88000229FFD001B513F0DFFE01BD40B2002841
:10BF980007DB01234109034A00F01F00834042F8F0
:10BFA8002130704700E100E040B200280CDB01229C
:10BFB8000649430900F01F008240203341F823203E
:10BFC800BFF34F8FBFF36F8F704700BF00E100E0F2
:10BFD800054B420953F82220012300F01F0003FA01
:10BFE80000F01040704700BF00E100E038B54B1C7E
:10BFF800072B04460D460FD95823104A10491148FB
:10C0080013F08CFC294610480723224613F086FCBF
:10C0180058210A4813F07BFC40B20028ACBF00F15D
:10C0280060400A4A4FEA4313DBB2ABBF00F56140F8
:10C0380000F00F0080F80033135438BD3C70020044
:10C0480073700200DA6202008E70020014ED00E0E4
:10C058000B4A08B50B4B22F07F029A60BFF34F8F53
:10C06800BFF36F8FD3F8882022F47002C3F88820BA
:10C078000EF040FC11F09AFA00F060F80EF084FC23
:10C088000080000000ED00E042F8203C009B0D49D4
:10C0980042F81C3C019B21F0010142F8183C029B2C
:10C0A80042F8081C42F8143C4FF0807342F8043CF4
:10C0B800002383674FF43C43203A0265C0F8803080
:10C0C800704700BF799B00000A4B446F98600A4B89
:10C0D8001C60436E83F30B88104681F309880021A6
:10C0E80063B681F31188BFF36F8F00220023FDF739
:10C0F8003FFD00BF84F20020E8E000200149102243
:10C108000A60704710ED00E072B6404080F3118875
:10C11800BFF36F8FBFF34F8F30BF62B6BFF36F8F20
:10C12800704700BF72B6494081F31188BFF34F8F43
:10C1380020BF80F3118862B6704700BF002320211A
:10C148000348C2180133412B82F80013F9D1704714
:10C1580000E100E001B5EFF30580A0F110004FEA1F
:10C16800C0000449014409C99847BDE80140024993
:10C1780008470000B858020085B800001FB5094CF0
:10C18800094A23460121094800F00AF900230393CC
:10C19800074B0121E41A01A80193029400F024F945
:10C1A80004B010BD0000042080C50020485C0200D7
:10C1B80090D3002010B50C7A0B6804F01F0223F00E
:10C1C8001F031A43CB68640923F01F03054943EA98
:10C1D800440343F00103C1F89800C1F89C20C1F85A
:10C1E800A03010BD00ED00E00F2810B508D90121DE
:10C1F8000346054A054813F047FD6FF0150010BDCA
:10C20800FFF7D8FFFBE700BFD2700200305B0200E7
:10C218002DE9F04F8946144606464FF00008514D67
:10C2280085B0C84527DAD6F804A0BAF1000F44D083
:10C23800BAF11F0F17D91AF01F0F14D1D6F800B092
:10C248001BF01F0F0FD1584613F097FD07460AEB56
:10C258000B00013813F091FD874210D06FF01507DD
:10C26800414A3B4601E04346404A0121404813F019
:10C278000BFD6FF01504204605B0BDE8F08F17F1EF
:10C28800160FEDD0BC42EBDDC5F89870D5F89C10C0
:10C29800C5F89870D5F8A03021F01F0143F01F0BA6
:10C2A800D6E900321A44994202F1FF3A1DD1D3452A
:10C2B80007D13146F8B213F069FD08F101080C36D0
:10C2C800AFE73146C5F89870D5F89C3022F01F02C8
:10C2D80003F01F031343C5F89C30E0B213F056FD7A
:10C2E80010F1160FC5D0441CE7E7C5F89870D5F8CB
:10C2F800A020013B23F01F0302F01F021343D34584
:10C308003146E0B2C5F8A030E8D013F03FFD10F197
:10C31800160FAED0C5F89870D5F89C209DF8083057
:10C328000BF1FF3B62F304038DF80830D5F8A03019
:10C338009DF808205B0863F347128DF80820D6E9BA
:10C3480000321344009323F01F035B44A3EB0A035A
:10C35800013023F01F036946C0B20393FFF744FF7F
:10C36800BEE700BF00ED00E01B710200F87002009C
:10C37800305B02000522044BC3F89420BFF34F8FB3
:10C38800BFF36F8F704700BF00ED00E0BFF35F8F12
:10C398000022024BC3F89420704700BF00ED00E074
:10C3A80038B50C4D0C462A78FFF732FF2870163046
:10C3B8000FD140F26D13084A0849094813F0AEFA44
:10C3C8002146084813F0AAFA40F26D11024813F00A
:10C3D8009EFA38BD15F300203E710200F9B2020042
:10C3E800DA6202006D7102002DE9F74F314E89467D
:10C3F80005464FF00008B3462F4FC84502DB03B08F
:10C40800BDE8F08FD5F804A0BAF1000F4CD0296828
:10C418000846019113F0B1FC019904460AEB0100AA
:10C42800013813F0AAFC84424FF01402234B15D0B4
:10C4380002FB08F36FF015024BF8032040F27D135E
:10C448001F4A2049204813F069FA49461F4813F04B
:10C4580065FA40F27D111A4813F059FA14F1160FD3
:10C468003460EBD01978A142E8DD02FB08B0C7F8C8
:10C478009840C7F89840D7F89C4000F10801007B25
:10C4880064F304000871D7F8A0000C79400860F341
:10C4980047140C71D7F89C1021F01F017160D7F870
:10C4A800A01021F01F01316108F1010814360C3584
:10C4B800A3E700BFECE0002000ED00E015F300204A
:10C4C8003E710200F9B20200DA62020099710200BC
:10C4D800F0B5584D87B02C68102C10D94FF4D27392
:10C4E800554A5649564813F019FA2146102255481C
:10C4F80013F014FA4FF4D2714F4813F008FA0020E1
:10C50800FFF744FF504B514AC3F8C02084421FD163
:10C518004F4D01A82C70FFF729F9002406464D4F0E
:10C52800A6421CD1FFF726FF474BD3F89030C3F340
:10C538000723102B7AD0484940F213233E4A40483B
:10C5480013F0ECF9454813F0E9F940F21321D3E769
:10C55800696801EB0011FFF72DFE0130D6E7019A5B
:10C56800210102EB0413D3F80CC00CEA0700B0F564
:10C57800001F1FD0B0F5800F39D0B0F5801F43D110
:10C58800586852589B68CDE902022122013B20F0ED
:10C598001F010B4423F01F038DF810200593287802
:10C5A80002A9FFF721FE002833DB2B780134013381
:10C5B8002B70B5E7586852589B68CDE902024122B2
:10C5C800013B20F01F010B4423F01F031CF0010F57
:10C5D8008DF810200593E2D021497023164A184897
:10C5E80013F09CF91F4813F099F9702184E75868F3
:10C5F8009B685258013B20F01F010B44CDE9020211
:10C6080023F01F030622C7E70121174A174813F032
:10C6180032FB0A494FF4E773074A094813F07EF9D9
:10C62800134813F07BF94FF4E77165E7002007B072
:10C63800F0BD00BF545C02003E710200F9B2020076
:10C64800DA620200C871020000ED00E0AAFF4400AF
:10C6580015F300200000F0FF9D720200EE72020048
:10C66800FC7102002272020051720200305B02006B
:10C678007372020008B5024B1B689847002008BD7A
:10C6880000E10020034B044A1860937843F002034A
:10C698009370704700E10020B8C80020F0B587B05B
:10C6A80007460E4614460021102268461D4619F01A
:10C6B80005F802238DF80230054B2A4621466846C4
:10C6C800CDE90476019312F0A9F907B0F0BD00BFD7
:10C6D800C7FD010008B5044812F0B9FE404080F3D8
:10C6E80011884FF0020002DF1E73020008B50649E8
:10C6F800064821F00701C1F1005202F58022FDF73A
:10C708002BFB002008BD00BFAF33012004E100204F
:10C7180038B50025104C204618F062FC48B10F4986
:10C72800CD230F4A0F4813F0F9F8CD210C4813F028
:10C73800EEF804F1140018F038FD38B10749CF239A
:10C74800074A084813F0EAF8CF21EFE70135052D2D
:10C7580004F12404DFD138BD10E100206E67020027
:10C768003C730200DA62020038B500240A4D2846FC
:10C7780018F01BFD48B109490948DB23094A13F0A1
:10C78800CDF8DB21074813F0C2F80134052C05F178
:10C798000805ECD138BD00BFC4E100206E67020077
:10C7A800DA6202006373020038B500240B4D284694
:10C7B80018F016FC58B10A490A484FF4B1730A4AEE
:10C7C80013F0ACF84FF4B171074813F0A0F8013436
:10C7D800052C05F11405EAD138BD00BFECE10020B5
:10C7E8006E670200DA620200B7730200052010B516
:10C7F800064B074A546803F188010138C3E922242B
:10C80800216003F1A8035160F4D110BD58D800206D
:10C81800C8C800200122024B0020C3F840257047F9
:10C828000090034020B1034B800143F001031847F7
:10C83800704700BFB05B020017F092B910B503460D
:10C848000B480A4681680C6864B90A4959230A4AA0
:10C858000A4813F063F80A4813F060F859210648AB
:10C8680013F055F819462346BDE81040184700BF95
:10C878007C5802002A740200F6730200DA62020091
:10C888004A74020013B5104C204618F05DFB68B9D5
:10C8980015230E4A0E490F4813F040F821680E4838
:10C8A80013F03CF81521094813F031F804210DEB79
:10C8B8000100FFF7C3FF002802DA16F0BBFD019064
:10C8C800019802B010BD00BF7C58020070740200CD
:10C8D800A9740200DA620200C674020070B54169E8
:10C8E8000446867A0A4D59B1437ADB0706D43423C5
:10C8F80003FB0653DB6A1B689B6898470023636148
:10C908003420214606FB0050BDE8704018F093BB68
:10C918004CD200203421827A064B01FB02331A6B79
:10C9280093F82430801A1B3323F00303B0FBF3F091
:10C93800704700BF4CD2002038B53424827A094BA6
:10C9480004FB0233DB6A0C685B681A68944294BF84
:10C958000C600A60D3E90054FFF7DCFF05FB0040D8
:10C9680038BD00BF4CD200202DE9FF470546684678
:10C9780017461C46039118F022FCDDE9008945B9E9
:10C988005C49ED235C4A5D4812F0C8FFED215A4826
:10C9980019E005F11C064FF02003EFF3118A83F329
:10C9A8001288BFF36F8F30460EF0B0FB68B988234A
:10C9B800534A5449514812F0B1FF3146524812F0D7
:10C9C800ADFF88214E4812F0A2FF30460EF0BAFBA8
:10C9D8006B8C002B5CD02A8C9A4239D90022002318
:10C9E80028460EF017FE0446002831D030460EF0D7
:10C9F8009BFB68B940F23113414A44493F4812F061
:10CA08008DFF3146424812F089FF40F23111D9E7D3
:10CA18008AF31188BFF36F8F039D002D5ED04246C5
:10CA28004B46684618F0EFFB3421A27A394B204672
:10CA380001FB0233DB6A03A91B681E68DDE90023DA
:10CA4800B0476061002839D12046FFF747FF30E042
:10CA58006C8C3046631E6B840EF066FB0028C9D0D0
:10CA68008AF31188BFF36F8F95F824302A8C1B3313
:10CA7800121B2C6B23F0030302FB0344254B264AAD
:10CA8800EB1A9B105343A37295F82430E372C3E763
:10CA980030460EF049FB0028ACD08AF31188BFF36A
:10CAA8006F8F23463A4628460EF0B4FD0446002808
:10CAB800B2D10024204604B0BDE8F087039B9D4214
:10CAC8000DD916494FF4A2730B4A0C4812F026FFF1
:10CAD800134812F023FF4FF4A27158E76561002351
:10CAE8000122636022812382039A63696282E36080
:10CAF800E0E700BF33750200E4740200DA62020066
:10CB0800A1660200FA6602000F670200CE66020004
:10CB1800E56602004CD20020C54EECC43875020010
:10CB28004975020070B5044698B13426104D204668
:10CB3800037A6468013BDBB203724BB9C36043609C
:10CB4800837A06FB03539B6A7BB19847002CEED18E
:10CB580070BD084908484FF4E473084A12F0DEFE35
:10CB68004FF4E471054812F0D2FEFFF7B7FEEDE787
:10CB78004CD2002061750200DA620200E4740200FF
:10CB880008B5034658B90849084840F22623084A18
:10CB980012F0C4FE40F22621054812F0B8FE1846ED
:10CBA8005B68002BFBD108BD61750200DA620200E8
:10CBB800E474020070B50D46044658B90F4940F2B6
:10CBC80031230F4A0F4812F0A9FE40F231210C48D8
:10CBD80012F09DFE49B90C4940F23223084A09482F
:10CBE80012F09CFE40F23221F1E746681EB1084679
:10CBF800FFF7C6FF4660656070BD00BF5175020053
:10CC0800E4740200DA6202005875020008B50346AF
:10CC18009A8800688A420BD20849094840F2991359
:10CC2800084A12F07BFE40F29911064812F06FFE96
:10CC3800521A01449A80196008BD00BF9F7502000E
:10CC4800DA62020065750200F8B5858803680E4649
:10CC580004465F1913F0C4F8B04209D206490748E0
:10CC68003E23074A12F05AFE3E21054812F04FFEB5
:10CC78003544A5803846F8BDAF750200DA62020077
:10CC88006575020008B570B9094940F2C313094A2D
:10CC9800094812F043FE094812F040FE40F2C31161
:10CCA800044812F034FEB0F89E00C0F3410008BDFD
:10CCB80016760200E2750200DA6202004975020087
:10CCC80008B570B9094940F21323094A094812F016
:10CCD80025FE094812F022FE40F21321044812F002
:10CCE80016FEB0F89E00C0F3811008BD167602004B
:10CCF800E2750200DA62020049750200084C08B5C4
:10CD080008494FF4F4732246074812F007FE074813
:10CD180012F004FE4FF4F471204612F0F8FD00BF43
:10CD2800E275020016760200DA6202004975020016
:10CD3800F7B507460E461446FDF7D4F8051E18DB6E
:10CD48003CB97B1E012B04D8022E17D0012E08BF38
:10CD58000624F1B201ABA2B2B8B202F0BDFD061EC4
:10CD68000EDA284612F068FD18F0FCFC0F4B7642EC
:10CD78001E504FF0FF35284603B0F0BD1124E8E7F8
:10CD8800002301984360C366703018F03CF901989D
:10CD98008C3018F00AFA062C02D1019814F013FA14
:10CDA8002846034A0199FDF7DBF8E4E70C00000088
:10CDB800885C020037B5069D0446E3B9009300225B
:10CDC80000230E4903F0D6F904F1700018F01BF99E
:10CDD80004F18C0018F0E9F9214605F1700018F00B
:10CDE8001FF9204614F0EFF905F18C0003B0BDE8F7
:10CDF800304010F045BB03B030BD00BF2DFE010030
:10CE08002DE9F7430C46DDE90A9858EA0901074677
:10CE18004D460C9E13D014F1690F02D014F10B0F7C
:10CE28000DD1684618F0EFF9DDE9002313430ED160
:10CE380014F1690F0CBF6FF00B046FF0680418F061
:10CE480091FC244B64421C504FF0FF3037E0B8F19E
:10CE5800FF3F08BFB9F1FF3F0DD04FF47A71A5FB32
:10CE6800013201FB0822DB0B43EA424332689A4253
:10CE780094BF32603360D7F8940008B112F0D0FF45
:10CE880014F1690F35680ED14FF4004440F2E730D1
:10CE980000214FF47A720023E5FB0401FBF730FF11
:10CEA80010F0D2F901E00B34EED033685B00642B4C
:10CEB80028BF64233360D7F8940018B9002003B062
:10CEC800BDE8F0834FF0FF324FF0FF3312F0A6FFBA
:10CED800F4E700BF0C00000038B540F20314A1428B
:10CEE80003465AD0B1F5827F0ED2042921D0B1F57C
:10CEF800817F29D0032917D018F034FC5F22464BD4
:10CF08001A504FF0FF3013E045F21B44A14273D092
:10CF180045F2214081426AD040F205108142EBD1AE
:10CF28001268C3F894200DE0C06EC0F3400080037F
:10CF380038BDC16E126821F00201520448BF41F0A9
:10CF48000201C1660020F3E79468D2E900018288F3
:10CF5800D50718D50A6894425BD0042503F17004FC
:10CF680014610A68547B65F3050454730A68947B5A
:10CF78006FF3451494730A68D4686FF39434D460DB
:10CF88000A6814320A608288520703D4DB6E13F0F1
:10CF9800050FD7D06FF07700CAE711688888C507F2
:10CFA8000FD552681068C06810F4FE1F02D1D86E01
:10CFB800C40703D5C88840F00100C8801068143041
:10CFC80010608A88500742BFCA8842F00402CA80AB
:10CFD800DA6E520742BFCA8842F00802CA80DB6E86
:10CFE800DB07AFD5CB8843F01003CB80AAE7DA6E16
:10CFF80042F00202DA66A5E70023146819461A46C9
:10D0080012F06FFF6FF00043984294BF20602360D6
:10D0180098E76FF00B008BE70C0000002DE9F0415A
:10D0280005460E4617461D4CDFF8748044452BD93B
:10D038001C49DC231C4A1D4812F070FC1C4812F0E5
:10D048006DFCDC210FE02368AB4200D0D3B9A368A4
:10D0580063B91849E423144A144812F05FFC1648CF
:10D0680012F05CFCE421104812F051FC3A463146BB
:10D078002846984730B13A4631462846E368BDE825
:10D08800F04118471034D1E7DDD318F06BFB6A2262
:10D098000A4B1A504FF0FF30BDE8F081C05A020029
:10D0A800E05A02006C7602001E760200DA62020084
:10D0B800F167020052760200497502000C00000078
:10D0C80013B50446FFF7DEFD002103284FF00002E8
:10D0D8004FF000032046009118D102F0FFFF04230F
:10D0E8006360E36E204643F00403E36612F0DBFE60
:10D0F800204602F0A1FC031E0BDA18F033FB064AA7
:10D108005B4213504FF0FF3002B010BD03F032F80D
:10D11800E5E70020F8E700BF0C00000037B505463A
:10D128000C4619BBFFF7AEFD03284FF000024FF085
:10D1380000032146284600940DD102F0CFFF031EBC
:10D148000CDA18F00FFB0E4A5B4213504FF0FF3415
:10D15800204603B030BD03F00DF8F0E7EB6E28462B
:10D1680043F00103EB6612F09EFEF1E74C1E18F047
:10D17800F9FA012C94BF86221622014B1A50E5E7D2
:10D188000C00000013B5044602F092FC031E07DAF7
:10D1980018F0E8FA0C4A5B4213504FF0FF3005E0F4
:10D1A8002046FFF78DFD022802D0002002B010BDF6
:10D1B80063680022009320460023044902F0DAFF46
:10D1C800031EF2DAE4E700BF0C0000002DFE0100A8
:10D1D8002DE9F04385B0044688469146FFF752FD95
:10D1E80002283FD00128E56E13D16B0707D5636885
:10D1F800002B37DD18F0B6FA254A135004E018F072
:10D20800B1FA7822224B1A504FF0FF3005B0BDE832
:10D21800F08315F00205204619BF002600274FF4B9
:10D22800C036002718BF1B4DFFF74AFD0128636869
:10D238001AD10093002200232046174902F09AFFD2
:10D24800031E03DA18F08EFA5B42D5E763684A4694
:10D25800029341462B462046CDE9006702F07CFE4A
:10D26800031EEFDB0020D1E702934A462B464146D6
:10D278002046CDE9006702F06FFE031EE2DB63681B
:10D288000022009320460023034902F073FFE7E7DA
:10D298000C00000013FE01002DFE010013B504462A
:10D2A80002F0AAFC031E08DA18F05CFA084A5B428E
:10D2B80013504FF0FF3002B010BD0023002220466B
:10D2C8000449009402F00AFF031EEDDB0020F2E798
:10D2D8000C000000BDCD00002DE9F04F16464FF0C0
:10D2E800FF384FF0FF390A228FB05B0604460D461F
:10D2F800CDE90C89189F0B9203D4C36E13F0020377
:10D308004BD000220023CDE90C2308A817F057FFC3
:10D31800DDE90C23DDE9088908A817F050FFDDE9ED
:10D328000823CDE9062363680022009320460023E2
:10D33800284902F01FFF031E37DB4FF0000A0DF1EA
:10D348002C0B6168DDE90C23002F38D0CDE90223CE
:10D35800199B0491009332463B4629462046CDF856
:10D3680004A013F0E3FF002826DADDE90C230146C8
:10D37800CDE90023204642464B46CDF808B0FFF7DA
:10D388003FFD002818DBDDE9062308A817F03BFF5E
:10D39800DDE90823CDE90C23D3E70CAA052103F026
:10D3A80005F84FF4A0220023AFE718F0DBF90A4A8A
:10D3B8005B4213504FF0FF300FB0BDE8F08FCDE95E
:10D3C800002302913B4632462946204613F059FF76
:10D3D800C9E700BF2DFE01000C0000002DE9F34154
:10D3E800074688461646FCF77DFD051E16DBFB6ED4
:10D3F800980719D44FF0FF324FF0FF33694638468B
:10D40800CDE9002312F059FE041E0DDA284612F069
:10D4180013FA18F0A7F9384B64421C504FF0FF3547
:10D42800284602B0BDE8F0810022002307F1700011
:10D438000EF0F0F8044640B9284612F0FDF918F04D
:10D4480091F90B222C4B1A50E8E7703017F001FEC7
:10D45800A8B190F83330990711D5E36E284643F008
:10D468000103E36612F0E8F9204612F01CFD20469D
:10D4780002F0E2FA18F076F971221F4BE3E7B4F8EC
:10D488009E305A050ED518F06DF971221A4B1A50B4
:10D49800284612F0D1F9204612F005FD204602F088
:10D4A800CBFABBE723F40073A4F89E30B8F1000F61
:10D4B8000ED06EB132684046182A28BF182204F1EF
:10D4C8002C0118F0EEF8A38D012B07D10823336047
:10D4D80021462846094AFCF743FDA1E7022B01D162
:10D4E8001823F4E7284612F0A7F918F03BF986222A
:10D4F800014B1A50CFE700BF0C000000885C020007
:10D508002DE9F04F154693B00446DDE91C791E4617
:10D518000391FFF7D5FB002D52D002284FF0FF32C0
:10D528004FF0FF3340F0E6807106CDE9082303D4BD
:10D53800E36E13F0020331D000220023CDE9082363
:10D54800DDE90823CDE9002316F0020304F1700A8F
:10D55800029339D0102200210CA818F0AFF8042348
:10D56800CDF840A08DF83D300121DDE900230CA85D
:10D5780010F040FE00F10B010B29034619D8A54A0B
:10D588000A41D20715D4504617F05FFD804608BB04
:10D5980018F0E8F80B22A04B1A500FE0042108AA53
:10D5A800204602F003FF204608A912F086FD031E5C
:10D5B800C6DA18F0D7F85B42974A13504FF0FF3598
:10D5C800284613B0BDE8F08F5046DDE900230EF081
:10D5D80021F8DBE7D0E903BA002F53D0B9F1000FE7
:10D5E80050D0B4F89C30D9F80040009314F08BF870
:10D5F80098F83320C2F302123A8098F83320C2F325
:10D608000212022A66D14FF0000C2822172CCDE90D
:10D618000CC24ED940460CA914F0C5FA044610B9FC
:10D628006FF0680247E040460D9914F0BBF80028F7
:10D63800F6D14046B8F8361014F0B4F80028EFD107
:10D6480004F10801381D04F1180251F804CB914285
:10D6580040F804CBF9D19DF80040112C3AD10824A8
:10D668000AAA40460CA90C920D9414F09CFA0028C2
:10D67800D6D002887A80C8E903BA3A88012A2CD120
:10D68800C9F80040404614F0BFF9854228BF054656
:10D6980004462A464046039914F04CF940BB029BC5
:10D6A8000BBB404613F0BDFF16F0200F18BF2546F0
:10D6B80086E76FF01502C8E903BA524218F052F82B
:10D6C8005549029B0A50002B7FF478AF404613F06F
:10D6D800A8FF73E76FF08502EDE7022A06D118224A
:10D6E800C9F80020CEE7C8E903BADDE78622E5E7F6
:10D6F8006922E3E701287FD1CDE90A2374B94749B4
:10D708004FF4B473464A474812F008F9464812F0F5
:10D7180005F94FF4B471424812F0F9F8B4F89E30A4
:10D72800DF0708D52046FFF7ADFA022805D0802389
:10D7380018F018F840E70923FAE7700602D4E36EF8
:10D74800990716D500220023CDE90A23039B04A8D4
:10D75800CDE90735DDE90A23002506F4807BCDE90C
:10D768000C2317F02CFDDDE90489089B53B92B46DF
:10D778000EE013F00503E9D1042120460AAA02F0BD
:10D7880015FEE3E7E26E12F0040307D063685B421C
:10D79800002B23EAE37527DA5B42C9E7D207F7D4FF
:10D7A800DDE90CA75AEA070311D13346204608AA37
:10D7B80007A912F096FB054428430FD0BBF1000FD0
:10D7C800D5D042464B460CA817F01DFDCDE72046A4
:10D7D8000CA912F072FC031EE7DAD9E75AEA070728
:10D7E800ECD16FF00A03D3E7B3073FF5E9AE29465A
:10D7F800204613F0C0FDE3E60C4940F2D6530C4A2C
:10D80800084812F08BF80B4812F088F840F2D6510D
:10D81800074881E77EF7FFFF0C000000167602003C
:10D82800E2750200DA62020049750200F9B20200EC
:10D838001E76020099760200F8B506291D46069E56
:10D848003DD005DC00293FD0012905D06D231CE01F
:10D858002929FBD1432A38E0042A1DD00BDC022AEF
:10D8680020D0032AF2D1FFF72BFA3368042B0BD10F
:10D8780028600020F8BD0F2A1DD0262AE6D132687C
:10D88800B0F89C30042A0BD0162317F06BFF114A0E
:10D8980013504FF0FF30EDE73368042BF4D14368A1
:10D8A8002B60E6E733462A46092102F07FFD00286F
:10D8B800DFDA4342E9E733462A460A21F5E7012A37
:10D8C800C4D16FF07A00D5E7012ABFD133462A4682
:10D8D8000821EAE70C00000038B506291446054679
:10D8E8001A46049B50D005DC002952D0012907D0E4
:10D8F8006D2334E02929FBD11A2C08D0432C49E0A8
:10D908000F2C12D005DC022C08D00D2CF0D10020F1
:10D9180038BD192CECD150B9FFF7F0F9092102F004
:10D92800E1FC0028F3DA434219E00A21F7E7B0F8EE
:10D938009E10C1F3C200013801282ED813B172B36A
:10D94800107820B921F40061A5F89E10DFE7082BB4
:10D9580025D1104601F07EFB031E07DA5B4217F063
:10D9680001FF114A13504FF0FF30D1E700F02AFCB5
:10D97800B8B1B5F89E3043F40063A5F89E3001F0C5
:10D9880053FB85F8A000C2E7012CB1D16FF07A00F3
:10D99800BEE7012CACD10821C1E76A23DFE71623D3
:10D9A800DDE71323DBE700BF0C000000F0B50446F9
:10D9B80015460E4687B069B162B1B0F89E30DB05F6
:10D9C8000AD4802317F0CEFE194A13504FF0FF30C7
:10D9D80007B0F0BD1623F5E7FFF772F9012804D167
:10D9E8002046FFF74FF90228EBD1A38D022BF1D186
:10D9F8000022ADF80030E38D0592ADF8023001AF9A
:10DA080004F1300340343A4618685968083303C2B1
:10DA1800A3421746F7D12A686946182A28BF182250
:10DA2800304617F03EFE182300202B60D0E700BFD9
:10DA38000C000000F0B5078C0446022F0E46154670
:10DA480087B006D118220021684617F037FE636AAE
:10DA58003BB917F087FE1622104B1A504FF0FF30D3
:10DA68001AE0628CADF80070ADF8022001AC03F149
:10DA78001007224618685968083303C2BB42144687
:10DA8800F7D12A686946182A28BF1822304617F0A5
:10DA980008FE182300202B6007B0F0BD0C00000022
:10DAA80008B548B90B4913230B4A0C4811F036FF47
:10DAB8001321094811F02BFF094B1A683AB109499B
:10DAC8001423054A054811F029FF1421F1E71860CD
