:020000021000EC
:1080000020B3012089E401005B22030075E4010034
:1080100075E4010075E4010075E4010075E40100F8
:1080200000000000000000000000000091E60100D8
:1080300075E4010000000000E9E5010075E40100BD
:10804000CDE80100CDE80100CDE80100CDE8010058
:10805000CDE80100CDE80100CDE80100CDE8010048
:10806000CDE80100CDE80100CDE80100CDE8010038
:10807000CDE80100CDE80100CDE80100CDE8010028
:10808000CDE80100CDE80100CDE80100CDE8010018
:10809000CDE80100CDE80100CDE80100CDE8010008
:1080A000CDE80100CDE80100CDE80100CDE80100F8
:1080B000CDE80100CDE80100CDE80100CDE80100E8
:1080C000CDE80100CDE80100CDE80100CDE80100D8
:1080D000CDE80100CDE80100CDE80100CDE80100C8
:1080E000CDE80100CDE80100CDE80100CDE80100B8
:1080F000CDE80100CDE80100CDE80100CDE80100A8
:10810000CDE80100CDE80100CDE80100CDE8010097
:10811000CDE80100CDE80100CDE80100CDE8010087
:10812000CDE80100CDE80100CDE80100CDE8010077
:10813000CDE80100CDE80100CDE80100CDE8010067
:04814000CDE8010085
:04814400FFFFFFFF3B
:1081480081F0004102E000BF83F0004330B54FEA00
:1081580041044FEA430594EA050F08BF90EA020F6D
:108168001FBF54EA000C55EA020C7FEA645C7FEA00
:10817800655C00F0E2804FEA5454D4EB5555B8BF23
:108188006D420CDD2C4480EA020281EA030382EA94
:10819800000083EA010180EA020281EA0303362D26
:1081A80088BF30BD11F0004F4FEA01314FF4801CF9
:1081B8004CEA113102D0404261EB410113F0004F0B
:1081C8004FEA03334CEA133302D0524263EB4303C2
:1081D80094EA050F00F0A780A4F10104D5F1200E60
:1081E8000DDB02FA0EFC22FA05F2801841F10001BB
:1081F80003FA0EF2801843FA05F359410EE0A5F18F
:1082080020050EF1200E012A03FA0EFC28BF4CF0BF
:10821800020C43FA05F3C01851EBE37101F0004575
:1082280007D54FF0000EDCF1000C7EEB00006EEB82
:108238000101B1F5801F1BD3B1F5001F0CD349080C
:108248005FEA30004FEA3C0C04F101044FEA445263
:1082580012F5800F80F09A80BCF1004F08BF5FEAEA
:10826800500C50F1000041EB045141EA050130BDCA
:108278005FEA4C0C404141EB0101013C28BFB1F5DC
:10828800801FE9D291F0000F04BF01460020B1FA27
:1082980081F308BF2033A3F10B03B3F120020CDAFA
:1082A8000C3208DD02F1140CC2F10C0201FA0CF0D8
:1082B80021FA02F10CE002F11402D8BFC2F1200C3D
:1082C80001FA02F120FA0CFCDCBF41EA0C019040F3
:1082D800E41AA2BF01EB0451294330BD6FEA04043C
:1082E8001F3C1CDA0C340EDC04F11404C4F1200227
:1082F80020FA04F001FA02F340EA030021FA04F339
:1083080045EA030130BDC4F10C04C4F1200220FA8F
:1083180002F001FA04F340EA0300294630BD21FACD
:1083280004F0294630BD94F0000F83F4801306BF93
:1083380081F480110134013D4EE77FEA645C18BF87
:108348007FEA655C29D094EA050F08BF90EA020F1E
:1083580005D054EA000C04BF1946104630BD91EA16
:10836800030F1EBF0021002030BD5FEA545C05D119
:108378004000494128BF41F0004130BD14F5800458
:108388003CBF01F5801130BD01F0004545F0FE41CC
:1083980041F470014FF0000030BD7FEA645C1ABF01
:1083A800194610467FEA655C1CBF0B46024650EA38
:1083B800013406BF52EA033591EA030F41F4002164
:1083C80030BD00BF90F0000F04BF0021704730B5EA
:1083D8004FF4806404F132044FF000054FF00001BF
:1083E80050E700BF90F0000F04BF0021704730B580
:1083F8004FF4806404F1320410F0004548BF404255
:108408004FF000013EE700BF42004FEAE2014FEAA9
:1084180031014FEA02701FBF12F07F4393F07F4F84
:1084280081F06051704732F07F4208BF704793F087
:108438007F4F04BF41F40021704730B54FF460749A
:1084480001F0004521F000411CE700BF50EA01029D
:1084580008BF704730B54FF000050AE050EA010246
:1084680008BF704730B511F0004502D5404261EBB6
:1084780041014FF4806404F132045FEA915C3FF4F7
:10848800D8AE4FF003025FEADC0C18BF03325FEA94
:10849800DC0C18BF033202EBDC02C2F1200300FA45
:1084A80003FC20FA02F001FA03FE40EA0E0021FA6A
:1084B80002F11444BDE600BF70B54FF0FF0C4CF458
:1084C800E06C1CEA11541DBF1CEA135594EA0C0F0A
:1084D80095EA0C0F00F0DEF82C4481EA030621EA45
:1084E8004C5123EA4C5350EA013518BF52EA033580
:1084F80041F4801143F4801338D0A0FB02CE4FF032
:108508000005E1FB02E506F00042E0FB03E54FF061
:108518000006E1FB03569CF0000F18BF4EF0010E59
:10852800A4F1FF04B6F5007F64F5407404D25FEA55
:108538004E0E6D4146EB060642EAC62141EA555108
:108548004FEAC52040EA5E504FEACE2EB4F1FD0C4A
:1085580088BFBCF5E06F1ED8BEF1004F08BF5FEAC8
:10856800500E50F1000041EB045170BD06F000467A
:1085780046EA010140EA020081EA0301B4EB5C0427
:10858800C2BFD4EB0C0541EA045170BD41F480111F
:108598004FF0000E013C00F3AB8014F1360FDEBF44
:1085A800002001F0004170BDC4F10004203C35DA20
:1085B8000C341BDC04F11404C4F1200500FA05F3A3
:1085C80020FA04F001FA05F240EA020001F0004244
:1085D80021F0004110EBD37021FA04F642EB0601BA
:1085E8005EEA430E08BF20EAD37070BDC4F10C04E4
:1085F800C4F1200500FA04F320FA05F001FA04F2A8
:1086080040EA020001F0004110EBD37041F1000193
:108618005EEA430E08BF20EAD37070BDC4F120059E
:1086280000FA05F24EEA020E20FA04F301FA05F206
:1086380043EA020321FA04F001F0004121FA04F2AE
:1086480020EA020000EBD3705EEA430E08BF20EA7E
:10865800D37070BD94F0000F0FD101F000464000B8
:1086680041EB010111F4801F08BF013CF7D041EA3A
:10867800060195F0000F18BF704703F0004652003E
:1086880043EB030313F4801F08BF013DF7D043EA0F
:108698000603704794EA0C0F0CEA135518BF95EAC5
:1086A8000C0F0CD050EA410618BF52EA4306D1D14C
:1086B80081EA030101F000414FF0000070BD50EA6B
:1086C800410606BF1046194652EA430619D094EAF5
:1086D8000C0F02D150EA013613D195EA0C0F05D1DF
:1086E80052EA03361CBF104619460AD181EA030133
:1086F80001F0004141F0FE4141F470014FF00000EB
:1087080070BD41F0FE4141F4780170BD70B54FF085
:10871800FF0C4CF4E06C1CEA11541DBF1CEA135505
:1087280094EA0C0F95EA0C0F00F0A7F8A4EB0504E7
:1087380081EA030E52EA03354FEA013100F08880DE
:108748004FEA03334FF0805545EA131343EA1263A7
:108758004FEA022245EA111545EA10654FEA00265C
:108768000EF000419D4208BF964244F1FD0404F515
:10877800407402D25B084FEA3202B61A65EB030571
:108788005B084FEA32024FF480104FF4002CB6EB2E
:10879800020E75EB030E22BFB61A754640EA0C00AE
:1087A8005B084FEA3202B6EB020E75EB030E22BFEE
:1087B800B61A754640EA5C005B084FEA3202B6EB2F
:1087C800020E75EB030E22BFB61A754640EA9C00EE
:1087D8005B084FEA3202B6EB020E75EB030E22BFBE
:1087E800B61A754640EADC0055EA060E18D04FEA7C
:1087F800051545EA16754FEA06164FEAC30343EA1C
:1088080052734FEAC2025FEA1C1CC0D111F4801FE8
:108818000BD141EA00014FF000004FF0004CB6E7E1
:1088280011F4801F04BF01430020B4F1FD0C88BF80
:10883800BCF5E06F3FF6AFAEB5EB030C04BFB6EB8B
:10884800020C5FEA500C50F1000041EB045170BD7E
:108858000EF0004E4EEA113114EB5C04C2BFD4EBAB
:108868000C0541EA045170BD41F480114FF0000E2F
:10887800013C90E645EA060E8DE60CEA135594EAAB
:108888000C0F08BF95EA0C0F3FF43BAF94EA0C0FAE
:108898000AD150EA01347FF434AF95EA0C0F7FF423
:1088A80025AF104619462CE795EA0C0F06D152EA77
:1088B80003353FF4FDAE1046194622E750EA41065B
:1088C80018BF52EA43067FF4C5AE50EA41047FF46C
:1088D8000DAF52EA43057FF4EBAE12E74FEA4102CF
:1088E800B2F1E04324BFB3F5001CDCF1FE5C0DD906
:1088F80001F0004C4FEAC0024CEA5070B2F1004F50
:1089080040EB830008BF20F00100704711F0804F52
:1089180021D113F13872BCBF01F00040704741F417
:1089280080114FEA5252C2F11802C2F1200C10FA1B
:108938000CF320FA02F018BF40F001004FEAC123FF
:108948004FEAD32303FA0CFC40EA0C0023FA02F3A3
:108958004FEA4303CCE77FEA625307D150EA013379
:108968001EBF4FF0FE4040F44000704701F0004049
:1089780040F0FE4040F40000704700BF7BB972B978
:108988000029BEBF00204FF0004106E008BF0028C4
:108998001CBF6FF000414FF0FF3000F057B8ADF149
:1089A800080C6DE904CE002909DB002B1ADB00F066
:1089B8004FF8DDF804E0DDE9022304B070474042D7
:1089C80061EB4101002B1BDB00F042F8DDF804E00D
:1089D800DDE9022304B0404261EB4101524263EBFE
:1089E80043037047524263EB430300F031F8DDF86C
:1089F80004E0DDE9022304B0404261EB4101704725
:108A0800524263EB430300F023F8DDF804E0DDE9AC
:108A1800022304B0524263EB4303704753B94AB987
:108A2800002908BF00281CBF4FF0FF314FF0FF306E
:108A380000F00CB8ADF1080C6DE904CE00F008F8B0
:108A4800DDF804E0DDE9022304B07047704700BF99
:108A58002DE9F04786468C460846089E154674461A
:108A68001946002B40F0C1808542B2FA82F245D9FE
:108A78004AB1C2F1200300FA02FC954094402EFA54
:108A880003F343EA0C0C4FEA154EA8B2230CBCFBC7
:108A9800FEF80EFB18CC08FB00F943EA0C43994595
:108AA80028D9EB1808F1FF3704D2994502D9A8F163
:108AB80002072B44A3EB0903A4B2B3FBFEFC0EFB95
:108AC8001C330CFB00F044EA0344A04214D92C19CF
:108AD8000CF1FF3304D2A04202D9ACF102032C44BA
:108AE800241A43EA07401EB1D4400023346073605F
:108AF800BDE8F0874746DDE76346F1E792BB431BD5
:108B080001214FEA154EAFB2200CB3FBFEFC0EFB61
:108B18001C330CFB07F840EA0343984561D9EB186E
:108B28000CF1FF3004D2984502D9ACF102002B4475
:108B3800A3EB0803A4B2B3FBFEFC0EFB1C330CFB37
:108B480007F744EA0344A7424DD92C190CF1FF3327
:108B580004D2A74202D9ACF102032C44E41B43EA35
:108B68000040C0E7C2F120039540944020FA03F189
:108B78002EFA03F34FEA154E9040AFB20343B1FB10
:108B8800FEFC0EFB1C10190C0CFB07F841EA004117
:108B9800884522D969180CF1FF3004D2884502D9DA
:108BA800ACF102002944A1EB08019BB2B1FBFEFC29
:108BB8000EFB1C110CFB07F743EA01439F420ED939
:108BC800EB180CF1FF3104D29F4202D9ACF102013B
:108BD8002B44DB1B41EA004193E76046E3E761462B
:108BE800F7E76046A4E76346B8E7834206D916B9B3
:108BF800002108467CE7C6E900E0F9E7B3FA83F705
:108C08008FB9834201D3724508D8BEEB020460EBEA
:108C1800030301209C461EB9002169E73846FAE79C
:108C2800C6E9004CF8E7C7F1200CBB400EFA07F57F
:108C380022FA0CF42EFA0CF1BA401C4320FA0CF379
:108C4800B8404FEA144901431FFA84FEB3FBF9F810
:108C580009FB18300B0C08FB0EFA43EA00439A454F
:108C680040D9E31808F1FF3004D29A4502D9A8F197
:108C780002002344A3EB0A0389B2B3FBF9F809FB0A
:108C8800183308FB0EFE41EA03418E452CD96118C2
:108C980008F1FF3304D28E4502D9A8F1020321441A
:108CA80043EA0040A1EB0E01A0FB02984145CE46E5
:108CB800434602D306D14D4504D20138B9EB020E22
:108CC80068EB0403002EA7D0B5EB0E0261EB03019D
:108CD80001FA0CFC22FA07F3F9404CEA0303C6E94F
:108CE800003199E74046C5E74346D9E710F8012B1C
:108CF80011F8013B012A28BF9A42F7D0D01A7047D1
:108D0800034611F8012B03F8012B002AF9D170470B
:108D1800034613F8012B002AFBD1181A01387047B3
:108D28002DE9F04706460F4690468AB01DF043FBF2
:108D38004FF47A73A0FB034503FB0155E40B012FA5
:108D480044EA45444FEAD53508D108213046CDE9F3
:108D58000045294A18F06CFB002013E0D8F804708D
:108D680026483946FFF7C2FF78B139462448FFF74D
:108D7800BDFF50B130463B460121224A18F058FB4E
:108D88006FF004000AB0BDE8F087204618A3D3E9C5
:108D980000232946FFF7F2FD05460C461046194602
:108DA800194A0023FFF7EAFD80460F461046194688
:108DB8004EF660220023FFF7E1FD82468946104601
:108DC80019464FF47A720023FFF7D8FDCDE904A9BC
:108DD800CDE90601CDE9082308213046CDE902870F
:108DE800CDE90054094A18F023FBB5E7AFF300803A
:108DF800005C260500000000E1900300F2900300EB
:108E0800F5900300FE90030080EE360015910300F4
:108E180001282DE9F041884608D01EF021F91622D4
:108E2800254B1A504FF0FF30BDE8F0811DF0C3FA12
:108E380005460F461DF0BFFA204CD8F80030D8F888
:108E48000420A3FB043604FB0266D8F808209B180C
:108E580046EBE276EA0B42EA4742A2FB0421FF0B0B
:108E68009B1AC0F30E0204FB0711A2FB04244FEA6D
:108E7800D23242EA444266EB0101981A61F10001DC
:108E88000BA3D3E90023FFF779FD4FF02003EFF39D
:108E9800118483F31288BFF36F8F094BC3E9000174
:108EA8009A6084F31188BFF36F8F0020BCE700BF7E
:108EB80000CA9A3B000000001400000000CA9A3B58
:108EC80000CF002000000000F0B52DED028B00253A
:108ED80004238BB00E460746CDE9085505930028B4
:108EE80000F0E580002900F0E280062108A81AF0C9
:108EF80022FC044690B172490B685B0709D0714B9C
:108F08000390CDE9015301222B46284600951AF01B
:108F18007FFD20460BB0BDEC028BF0BD014608AAD0
:108F280038461AF0E3FB044688B165490B685F07C9
:108F380009D0654B0390CDE901532B4600950122DA
:108F480018461AF065FD08A81AF01FFCE1E7012190
:108F580004AA08A81AF0CBFC044630B158490B689B
:108F68005E07F0D0594B0390E5E7049BF3B1042B5F
:108F780025D0052B0CBF0923FF233370032105AB34
:108F880006AA08A81AF0DFFC0546D0B14C490B68C0
:108F98005C0709D04E4B0390029300230122184628
:108FA800CDE900331AF034FD2C46CCE7DFED497AE1
:108FB8000023C6ED017A3370C6ED027AC3E70723B2
:108FC800DBE7059B002BF1D028336B4403F8100C2A
:108FD8000146022206A815F061F83378C0B2092BC1
:108FE8000ED10F2848D96FF0150435490B6858077A
:108FF800A9D0394B039402930023CDE900339EE7AF
:109008000F28F0D8072B3FD19FED348A344B33F823
:109018001000002836D0FFF7E5F927A3D3E900238D
:10902800FFF74AFAFFF75AFC0421706005AB06AA5D
:1090380008A805911AF087FC054640BB059B02224B
:1090480028336B44014603F8100C06A815F026F8DF
:10905800C2B20F2A22D91A490B685B0709D0214BE3
:109068000392CDE9015301222B46284600951AF0B8
:10907800CFFC6FF0150466E71B4B9FED1C8A33F895
:109088001000C6E71A48CFE76FF07F04ADE70C4938
:109098000B685A0788D0174B03907DE70132D2B28C
:1090A80007EE902AF8EEE77A67EE887A84E76FF0A1
:1090B80015042EE7AFF300807B14AE47E17A244015
:1090C80050C9002080BC0300A9BC0300D2BC030027
:1090D800F4BC03000000000020BD03000AD7A33F32
:1090E800088A03006FBD0300E88903000AD72340FC
:1090F8000AD7A34044BD03002DE9F0472DED028BAC
:1091080004469FED498B4A4E84B04FF02003EFF39D
:10911800118783F31288BFF36F8FD4F8F8508DB995
:10912800022104F588701CF066FF002843D1002353
:109138008DED008B3946029304F580723D4814F09A
:10914800DDFAE2E7D4F8FC202B689542C4F8F83041
:1091580008BFC4F8FC30D4F8103143F00203C4F857
:109168001031EB6823F0040343F00103EB606B68F4
:1091780087F31188BFF36F8F284698474FF0200375
:10918800EFF3118983F31288BFF36F8FEB689907A8
:1091980023F0010219D4EA60D4F8103123F0020355
:1091A800C4F8103189F31188BFF36F8FDB05ACD495
:1091B80014F002FAA9E704F5847500220121284673
:1091C8001DF0B7F80028F8D1B1E7306823F00303A1
:1091D800EB600028E0D00027BA46D0F800800028CD
:1091E800DAD04268014695420BD1016897B9726896
:1091F8003160824200D1716040F808AB13F038FE4C
:109208003946B8F1000F0BD0D8F8002040460F4679
:109218009046E4E739607268824208BF7760EBE7FE
:109228004246F3E7AFF30080FFFFFFFFFFFFFFFFBA
:10923800F0610120DA8701202DE9FF4780461646B4
:109248000F46002900F0A280B1FA81F4341B002EE9
:1092580004F10A04C0F2A280304616F0DFFB044491
:10926800304616F0E1FBA4EB060905466946304690
:1092780016F002FCA9EB05036A4640467D333946E1
:109288001DF0B4FBA64282460D4600F38380B9F177
:109298003F0F00F381804FF0FF33A9F12000C9F19F
:1092A800200103FA00F003FA09F223FA01F103FAA4
:1092B80009F3024328EA03030A4327EA0202134395
:1092C8000CBF01200020002D00F08A80B5FA85F33C
:1092D800E31A40F2FE7203F23E43934200F38980A0
:1092E800002B23EAE376D4BF01223246121BA2F2F6
:1092F8003341A2F23447A2F25344C1F1200C2AFAB6
:1093080001F325FA04F4C7F1200E05FA0CFC25FA3E
:1093180001F105FA0EFE43EA0C03A2F2544CA2F244
:10932800544223432AFA07F425FA0CFC44EA0E04B3
:1093380044EA0C04C7F1200C14F0010F54D0A8B172
:109348004FF0FF3000FA02F200FA07F4144320FA53
:109358000CF2B840144303F001022AEA000A25EA95
:1093680004054AEA020A5AEA050A3DD0013341F1E6
:109378000002C2F3130253EA020138D0184642EA47
:10938800065141EC100B04B0BDE8F087B0FA80F448
:1093980020345BE7012096E7002094E7C6F1000936
:1093A800484616F041FB241A484616F03DFBA61B1A
:1093B8000546694648462E4416F0D0FB6A464046A4
:1093C80006F17C0339461DF011FB82460D464046E6
:1093D800394616F039FB81458CBF0020012072E721
:1093E800BAFA8AF3203373E7C1F31302C6E70136EA
:1093F800C4E79FED010BC6E7000000000000F07F06
:109408001FB5274C01282268034602F007020FD037
:10941800022818D000283AD1022A07D9214A214621
:10942800CDE901020322009016F015FC04B010BD2E
:10943800022AFBD91C4B032202930023CDE90033F7
:1094480021461846F0E7022A09D9184B032202934D
:10945800002321461846CDE9003316F0FCFB042012
:109468000BF064FB68B123685B070AD0104B0390CC
:109478000293002301221846CDE90033084916F06B
:10948800EAFB17F0CFFC0028FBD100F0ABFE002A66
:10949800CCD0084B012202930023CDE90033CFE75B
:1094A8008CC900202E8A0300438A0300588A0300CF
:1094B800788A03009E8A030070B596B004460DF1C1
:1094C80017000BF005FB054680B135490B685A07B4
:1094D80008D0344B0122029300231846CDE900330B
:1094E80016F0B9FB6FF00D0016B070BD9DF81700AF
:1094F800A042F9D0012C4CD11AF06CFA284E68B170
:1095080033685B0729D0284B0390CDE901532246E5
:109518002B4631462846009516F09DFB336803F02C
:109528000703022B19D90024204B0322029320465B
:109538002346CDE900441A4916F08DFB336803F041
:109548000703022B09D91A4B0322CDE90143204610
:1095580023461349009416F07EFB00214FF4C030D7
:1095680014F0ACF8402106A80FF032FD034600289D
:10957800F3D1326802F00702022A07D90D4A0849D6
:10958800CDE901020090032216F065FB9DF8170053
:10959800AAE720460BF0CAFA0028A5D1F6E700BFD3
:1095A8008CC90020AC8A0300D18A0300EC8A03002E
:1095B800068B0300338B03002D4A2E4B30B5136006
:1095C80000232D4953602D4D2D4A85B0C2E9001363
:1095D8002A6802F00702022A08D92A4A2946CDE950
:1095E800013218460322009316F035FB09F09AFB66
:1095F80000282B680FDA59070AD0234B03900293EF
:10960800002301221846CDE900331C4916F023FB3C
:10961800002005B030BD03F00703022B09D91B4B0E
:1096280003220293002315491846CDE9003316F0AA
:1096380012FB1AF0CFF9044628B12B685A07E7D075
:10964800134B0390DBE70E4909480FF0ABF90028EC
:10965800DED02B685B07DBD00E4B0122CDE901433E
:10966800204623460549009416F0F5FAD0E700BFD6
:10967800A0D40020C1940100099401008CC90020E5
:10968800A8D40020498B0300688B03008A8B030051
:10969800A48B0300CB8B030010B5094C0A449142FC
:1096A80000D110BD11F8013B58400309E35C0001EB
:1096B800C0B243401809205C1B01DBB25840EEE7FA
:1096C8000C8C03002DE9F04385B080460F46154603
:1096D80000F0B4F8C36804461BB943691A78002A35
:1096E80053D10023E3606368434557F8232009DB1F
:1096F800414B6361204600F087F84FF0FF3005B01A
:10970800BDE8F083511C616116782D2EF0D1911CB3
:10971800616151782D29A16004D1927862B9013331
:109728006360E5E741B9344B3146284663611DF073
:109738006CF80028DED0A660D4F808902846494680
:109748001DF063F8B9F13A0F626900D010BB1378C5
:1097580013B963680133636023688BB12B783A2BA4
:109768000ED026490B6858070AD0254BCDF80C9027
:109778000293002301221846CDE9003316F07AFA45
:10978800204600F041F83F20B9E75A1C42611B7897
:109798008360D1E743783A2B0BD0002323611378F9
:1097A80013B9636801336360204600F02DF8A068A0
:1097B800A5E71378666810492BB90136B04566608D
:1097C80004DD57F82620C4E90421EAE761612D7811
:1097D8003A2D04D1204600F017F828468FE7226872
:1097E800002ACDD005490A685207C9D0054ACDF8E4
:1097F8000C900292BEE700BF4192030044C90020CA
:109808001C8C0300318C03000268074B1A60426805
:10981800064B1A608268064B1A60C268054B1A60CC
:109828000269054B1A607047D4C50020D0C50020D6
:10983800B8D40020B4D40020B0D400200048704729
:10984800B8C500202DE9F04300273C463D46DDF829
:109858001CE0DFF8288175451FD3E4BB00201460A5
:10986800BDE8F0830136764533D013F806C0BCF165
:10987800200FF7D0AEEB0609B9F1010FA6EB0505ED
:109888000DD0BCF10D0F0AD103EB060999F8019030
:10989800B9F10A0F6ED1751CDDE72E46E3E7BCF17E
:1098A8000A0FF8D02DB9BCF13D0F05D10137022FB1
:1098B8000DD96FF01500D3E71CF0800FF9D118F817
:1098C8000C507F2DF5D03F2D01D8002FF1D1013458
:1098D800E1E73546C1E74FF0060C04F00706E40857
:1098E8000CFB06F60CFB04F40736E41B04EBD60469
:1098F80070B18C420CD80027014603263C46DFF89D
:109908007CE0DFF87C801D449D4205D10C1AA5E758
:109918006FF00B001460A3E713F8019BA9F10A0C80
:109928005FFA8CFCBCF1160F04D848FA0CFC1CF04A
:10993800010FE9D01EF809C00134BCF1400F08BF7F
:10994800013E0CF03F0C042C4CEA8717DCD17EB1A9
:109958003C0C012E0C7002D101310024D4E7022EF8
:109968004FEA17244C7016BF8F7002310331F4E7A9
:109978003446C9E7002DA2D09BE700BF5A8C0300EC
:10998800F6FFBFFF2DE9F04F91B0009302F00403FA
:109998000293C2F3C2030133840705460E46DDF87D
:1099A80068900392059340F0BB81041D30B10729EC
:1099B80009D86FF01B0011B0BDE8F08F01F0070661
:1099C800341DC6F10806009B4FF000084FF0040A4A
:1099D800591E4FF0FF3347460193C3465346CDF80F
:1099E80010800DB1009820600598002800F3E880E9
:1099F8009848009A824203D397488242C0F0E08098
:109A0800039AA4EB050E92074FEA9E0000F103812A
:109A18000F2F00F2B180002D00F0058107F1400200
:109A28000DEB020C019A0CF8200C0CF8102C049881
:109A380001300490E7E07A285DD84B280ED84728F3
:109A480059D829282DD8252852D054D820287AD05A
:109A58002338D0F1000B4BEB000B74E04C382E2868
:109A680049D8DFE800F0704848484848484848481E
:109A780048484B484848484848484859484B4B5933
:109A88005959704B6D487048184B184848827F4B9D
:109A980048484B487F0000204FF0000B4FF0040A65
:109AA80038E001222A38C0B202FA00F010EA0E0F9C
:109AB80049D110F0625C2FD110EA020B43D0604606
:109AC800013C5444B4FBFAF40AFB04F4002D61D0C1
:109AD800A3EB050CA4446645FFF46BAF002868D1DE
:109AE800042B47D159F8043B2360042304342AE0AB
:109AF800019A013A01924FF0000B24E011F8010C91
:109B08006C2834D1002011F8023C83466C2BC5D157
:109B18004FF0080A5346D3E709F1070929F0070966
:109B2800073424F00704F9E802AB35B1069820445D
:109B3800B0423FF63EAFC4E900AB4FF0000B08342B
:109B48004FF0080A534611F8010F002878D0BBF1EE
:109B5800000F7FF470AF2528F5D14FF0010B019B62
:109B6800013301934FF0040AECE7584694E70020CC
:109B78008346A5E7082B02D06FF015001BE709F113
:109B8800070929F00709B9EC027B84ED007B08235B
:109B98000834D8E768B9042B02D109F10409A4E70D
:109BA800082BE9D109F1070929F0070909F1080982
:109BB800EDE705980138059059F8040B009010E777
:109BC800039A900720D54FF0010CA4EB050E4FEA3D
:109BD8009E00BEF5007FCFD20F2FCDD8F5B107F18B
:109BE80040020DEB020E019AC0B20EF8200C0EF8DE
:109BF800102CBCF1000F3FF41AAF60F07F000EF894
:109C0800200C08F101080137C5F108024FF6DA7E89
:109C18000434069297E74FF0000CDAE7BCF1000F26
:109C280001D00136EFE7029A0236002AEBD10098FC
:109C3800CDE90631FFF76CF8DDE906310644E2E7C5
:109C4800631BB3F5806F97D245B9A6F10804E018F5
:109C5800B1E600BF7C700300D8E50300029A9B08B8
:109C680028602B709DF81030C2B1EB7085F8028027
:109C7800B8F1000F05D0002208A8C5F1010C9742E1
:109C88000ED14FF0000AC5F101030DF1200901932F
:109C98000DF1300B574512D1601B8CE66B70E5E770
:109CA80010F8013B190608D504EB0C0E764503F0B5
:109CB8007F03FFF47EAE04F8013B0132DFE7B8F121
:109CC800000F03D099F90020002A17DB029BD3B1BB
:109CD8001AF80B2004F8012B0022019B9818204445
:109CE8008642FFF466AE99F80000009904F8010B6B
:109CF800204603921DF079F8039A14440AF1010AE8
:109D080009F10109C6E799F8002055F822300093B7
:109D1800029B009845F82230FEF7FAFF421CDCE768
:109D28006FF00D0047E600BF014B1860704700BF99
:109D3800D8C5002080B505460E461746984613F04C
:109D4800D7FC03461DF08CF90446DFF8189042460C
:109D580049F8003039463046A84754F8090004F05D
:109D68000FFC00BF100000002DE9F84340F26C73AF
:109D780044690569E1170135E41841F10001022D34
:109D88008CBF00230123E41AC76861F10001002990
:109D9800064607F1FF374EDA6FF4C7704FF4C87202
:109DA8000023201861F10001FEF7E8FD244B4FF075
:109DB8003C0E03FB0044D6E900834FEAE37C994656
:109DC8006346022D02468CBF6FF002000920B66878
:109DD8000544C6FB0E93A9FB0EC60EFB036640F2B4
:109DE8006D1E9920A3080EFB04333B4464274543AA
:109DF8000520B4FBF7F40235B5FBF0F51B1B114C3D
:109E08001CEB080CA2FB042004FB01012B4446EBCD
:109E1800E87698180C4A41F1000380180B4A63F160
:109E28000003A0FB020102FB031110EB0C0041EB45
:109E38000601BDE8F8834FF4C87200232046B3E753
:109E480070FEFFFFB13A02009405F5FF8051010052
:109E580010B5FFF789FF002402461DF001F90B46F3
:109E6800024944501046194610BD00BF14000000B6
:109E7800032800B508D91DF0F3F80922074B1A503A
:109E88004FF0FF305DF804FB2822054B02FB00333E
:109E9800D3E8AF3F002BEED00020F3E7140000001A
:109EA800C4D4002038B504461546FFF7E1FF002862
:109EB8000DDB28236343074AD0184068086015B1B2
:109EC8000C3313442B6028235C43105938BD002001
:109ED800FCE700BFBCD4002070B500254FF0FF336D
:109EE8004FF0FF32174812F015FF174BD3E8AF2F8A
:109EF80082B10135042D03F12803F7D11DF0B0F824
:109F080017224FF0FF35114B1A500E4812F0C4FEBD
:109F1800284670BD28246C43D3E8EF0F0130C3E80E
:109F2800E10F0029F8D10A4E331932515A6004F171
:109F38000C0030441BF0CAFF04F1200030441CF030
:109F48001CFAE2E7F0C90020C4D400201400000085
:109F5800BCD4002010B40446104628225443094BB0
:109F68001A191951506048B1C2683AB10C342344E7
:109F780040F205125DF8044B16F0C9B95DF8044BC0
:109F8800704700BFBCD400202823434330B50D4997
:109F980008330B44D3E8AF2F92B1541ED3E8EF5FD8
:109FA800954204D1C3E8EC4FBCF1000FF6D1F1D1D2
:109FB800012A05D12823584300230A180B5053605F
:109FC80030BD00BFBCD400202DE9F047058B044606
:109FD8002807904611D4022905F0070540F0CD80E6
:109FE800204616F0A3F978B10138218B042811D83E
:109FF800DFE800F0C3106D85950001290CBF45F01E
:10A00800100545F02005258388F31188BFF36F8F6D
:10A01800BDE8F08701F0070AAA4500F0A6800027EE
:10A02800B9463E46A368002B00F0BD8041F0080108
:10A03800218388F31188BFF36F8FA168002900F08E
:10A04800BB800D68002900F0B78033465246204691
:10A05800D1F80480C047002D76D02B6829461D46CC
:10A06800F0E701F007035A1F012A1BD8002221F04C
:10A078000701062B276889B2C4E9002209D13B46AB
:10A0880003E0628B013262831B68002BF9D141F037
:10A0980002012046218316F049F900287BD041F0BF
:10A0A800200177E0042B0AD121F0070189B220466C
:10A0B800218316F03BF910B141F020012183218B57
:10A0C80001F0070AAA4550D00027B946AAE7236934
:10A0D80021F0070141F00601062DD3F800902183F5
:10A0E8002DD1B9F1000F40D041F00801218388F348
:10A0F8001188BFF36F8F20463949C84729E021F0FE
:10A108000701236941F0040189B2042DD3F80490B2
:10A118002183E6D000274FF0040A3E4682E721F06B
:10A128000701236941F0050189B2052DD3F808908C
:10A138002183D6D000274FF0050A3E4672E7002754
:10A148004FF0060A3E466DE72B4687E7B9F1000F48
:10A15800D1D14FF02003EFF3118883F31288BFF3B6
:10A168006F8F238B23F008032383258BEA062ED5D4
:10A1780025F01003238305F007056669218B002E5F
:10A18800BFF66FAF00232768C4E9003321F0070149
:10A1980041F001012183218B4FF0000901F0070AEA
:10A1A800AA457FF43FAF002F9BD041F008012183DF
:10A1B80088F31188BFF36F8F002FC7D03D683946E9
:10A1C80033465246204616F0DDF82F46F4E7AB0634
:10A1D8007FF51AAF25F02003238305F00705FFE676
:10A1E800B9030300044608B54FF02002EFF31183CA
:10A1F80082F31288BFF36F8F08F06AFD204604F0DF
:10A2080075F9034815F0C9FD04F036FBFCE700BFFB
:10A21800EB8C03002DE9F84F81462F480F4616F0C6
:10A22800E2FD064670B92D4C0546A0464FF0010BDD
:10A23800DFF8ACA0544507D3B9F1000F02D04FF0B6
:10A24800010AE5B9BDE8F88F237B73B12368DB68A1
:10A258000BB12046984723681B6943B963680422F9
:10A268002046196800F086F901361034E2E72046E6
:10A2780098470028F2D00BFA06F31D43F4E7A946E5
:10A2880095FAA5F4B4FA84F40AFA04F3260108EB63
:10A2980004146FEA030B25EA0305237B63B158F81E
:10A2A80006301B6993B9464473680422204619682E
:10A2B80009EA0B0900F05EF9002DE1D127B14FF44E
:10A2C800A470002113F0FAF94D46BAE720469847E2
:10A2D8000028F1D1E7E700BF64D5002068750300C6
:10A2E8007875030008B5034608462BB1044A136085
:10A2F80000F06CFB002008BD6FF01500FBE700BF05
:10A30800DCC5002008B50023074A4FF4004113704C
:10A31800064A07481360074A1360FFF7E3FFBDE8E2
:10A32800084000F07FB800BF0E6201205CD5002015
:10A33800EB0D030060D5002070B50B4D297841B9AD
:10A348000120FFF767FF094C094EB44202D30123ED
:10A358002B7070BD63685B791BB1236820469B68CE
:10A3680098471034F1E700BF0E62012068750300BA
:10A378007875030010B50446064816F034FD3CB164
:10A38800054BD3E8EF1F0139C3E8E21F002AF8D1D3
:10A3980010BD00BF5CD5002060D50020F8B5164B75
:10A3A80005461B689847154C154EA860B44200D363
:10A3B800F8BD63685B793BB129784B0706D52368FC
:10A3C800294620461B6898471034EFE72B886A68AF
:10A3D80013F4E07FC3F38217C1F3C201EFD0002A60
:10A3E800EDD0084B2046D21A42F38F02012300F029
:10A3F800DBF8B842E8D3E2E7DCC500206875030063
:10A40800787503002CC90020044A054B9B1AB1EB50
:10A41800D30F34BF52F8310000207047587403003E
:10A428006875030000210B480B4B30B51B1A0B4C09
:10A43800DB080430994200D130BD10F8312025687E
:10A4480002F0070225F007052A4344F8042B0131DE
:10A45800F0E700BF58740300687503002CC900209A
:10A46800F8B5064600240A4F0A4DED1BED08AC422C
:10A4780003D14FF0FF342046F8BD57F8340020B11F
:10A488003146FEF733FC0028F5D00134EFE700BF72
:10A4980058740300687503002DE9F843884615468B
:10A4A8001E4698B90446224FDFF8949009E03846D2
:10A4B80033462A464146FFF7EFFF844238BF044639
:10A4C80010374F45F3D32046BDE8F883194B1A4A95
:10A4D800D21AB5EBD20F28D203EBC5031C79B442CC
:10A4E80028BF344607214368144E1A7956F8253098
:10A4F80002EB4202914023EA010304F0070101FA4A
:10A5080002F213430021032223FA02F000F00700AD
:10A51800814202F1030238BF01461E2AF4D123F01A
:10A5280007030B4346F82530CDE70024DAE700BFE0
:10A538006875030058740300687503002CC900206F
:10A5480078750300F8B506460F460024074D084BFA
:10A55800ED1AED08AC4200D3F8BD002122B23B460B
:10A5680030460134FFF798FFA4B2F3E7687503009B
:10A578005874030038B50D4611460A4B4268C31A91
:10A588001B1104460133137143689971FFF7DAFF11
:10A59800012263681D6063685A71BDE8384016F08F
:10A5A80040BC00BF687503000146184663B1002A25
:10A5B80014DB4B680A491B7951F8220003EB43036B
:10A5C800D84000F007007047064B0749C91AB2EB9C
:10A5D800D10F04D203EBC2031879704704207047E7
:10A5E8002CC9002058740300687503002DE9F04F4A
:10A5F80085B002AF0446D7E90EA90E4693469846A1
:10A608003D6BBAF1000F33D0C7F80490CDF8009035
:10A618001021534600207A6BFFF7B4F90146154A1A
:10A6280004F007040BF0070BE40044EA8B1402EA79
:10A638004122144344EA055417350D4425F0070513
:10A64800ADEB050D02ADBAF1000F07D0CDF80090C3
:10A6580053467A6B05F11000FFF794F943462246FA
:10A668003146284616F0EEFB0C37BD46BDE8F08FA4
:10A678005146D4E700FE0F000EB403B503AB53F800
:10A68800042B01460448019304F05CFB02B05DF81A
:10A6980004EB03B0704700BF7F0E0300CA0605D461
:10A6A8008B064CBF02490349FFF7E6BF704700BF5E
:10A6B80040920300E1D603002DE9F04F8BB09B4692
:10A6C800DDE918769DF8543004460593DDE91693C4
:10A6D8000693059B0D460892002B00F0878006F034
:10A6E8000103099306F00803079316F09DFB06F093
:10A6F800020A0246002849D020468449FFF7BCFFD9
:10A708008046BAF1000F08D016F0440F40D12A460F
:10A7180020467F49FFF7B0FF8044099B5BB17D4B22
:10A72800059A204653F822207B4B7C49002A08BF13
:10A738001A46FFF7A1FF079B002B55D0784B059AC7
:10A74800204653F822207749FFF796FF0546089BD5
:10A758002BB11A4620467449FFF78EFF0544BBF11A
:10A76800000F05D05A4620467049FFF785FF05447B
:10A778004544B9F1000F48D1002F4ED1F30700F13D
:10A78800BF8031462046FFF789FFB3E08046B8E72F
:10A79800674B18680028BFD0664B4FF47A7E1B6859
:10A7A8004FF46162B5FBF3F5B5FBF0F300FB13550D
:10A7B8000EFB05F5B3FBF2FAB5FBF0FC3C2102FBFE
:10A7C8001A3200FB1C55B2FBF1F30EFB05F5B5FB85
:10A7D800F0F501FB132220460092CDE901C552464F
:10A7E8005549FFF749FF97E7079DB0E7BBF1010F10
:10A7F80006D1B9F1000F64D1002F7BD000250CE001
:10A80800B9F1000FF8D04D485CE04D484B46224660
:10A818004C4915F03FFA002F68D0DFF83891DFF87F
:10A8280038A1102F31462046B8464FF0000B28BFFC
:10A838004FF01008FFF732FF5D4545DC069B514697
:10A8480020461A78FFF718FF4FF0010B1BF0070F8F
:10A8580003D149462046FFF70FFFD8453BD9069B51
:10A868005146204613F80B20FFF706FF0BF1010BAA
:10A87800BBF1100FEAD14FF0000B20463249FFF729
:10A88800FBFE5A46069B20469A5CA2F120015F29EE
:10A8980028BF2E222D49FFF7EFFE0BF1010BBBF16C
:10A8A800100F1DD01BF0070F03D149462046FFF7B4
:10A8B800E3FED8455A46E5D849462046FFF7DCFE70
:10A8C800EBE71F48059DA1E749462046FFF7D4FE60
:10A8D8000BF1010BB0E720461D49FFF7CDFEC5E798
:10A8E800069BB7EB0807434406939AD1059B002BB8
:10A8F8007FF444AF20460BB0BDE8F04F16F0E4BA41
:10A908002046054A0549FFF7B7FE3AE7268D0300BA
:10A918002A8D030018790300218D0300A2940300F7
:10A928002C7903004F8D0300558D0300598D0300CA
:10A938006CD5002068D50020338D03009B0E0300E2
:10A948007F0E03004DED0100688D03002E8C03007F
:10A95800648D0300668D03005E8D03002DE9F041D0
:10A968000F884B6805460C4690468E6886B0C7F33C
:10A9780082175BB1144A9B1A43F38F01002920DB2D
:10A988002078C0F3C200FFF73FFD0346214651F887
:10A99800102B6088C2F34A22002A01EB020408BF88
:10A9A80000210022C0F30B10CDE90408CDE9021400
:10A9B8002846314601970092FFF77EFE06B0BDE8B3
:10A9C800F0810023E2E700BF2CC900200021012309
:10A9D800064A904206D8064A01B901231360054B7E
:10A9E80018607047012140085B00F2E740420F0001
:10A9F80068D500206CD50020014B0360002070470B
:10AA08004079030070B5114B0D461C68DCB1104B42
:10AA1800196800238B4202DB6FF0010070BD2246EB
:10AA280012F8106B864202D014460133F2E7E06850
:10AA380010B96FF01200F1E71BF071F90028F8D097
:10AA480000202C60EAE76FF00C00E7E768C60020FA
:10AA5800287F030070B588B005460C46C0B2694629
:10AA68001646FFF7CFFF00281BDB0098C8B14368E4
:10AA78002268029383680195CDE903360023CDE966
:10AA880006230593C56816F02CFA6DB128460849C7
:10AA980001AA18F034FA079808B9059B236008B092
:10AAA80070BD6FF01500FAE76FF01200F7E700BF0E
:10AAB8007B0F030070B50D461646044638B331B314
:10AAC800142200211CF0B8F928881122022104F070
:10AAD800D3F90028E06005DA1CF0C2FA0D4B1858CB
:10AAE800404270BD3246294604F01AFA0028E06850
:10AAF80002DA04F0EDF9EFE70121A36844F8330026
:10AB080004EBC3020B4491800020A360E9E76FF0D7
:10AB18000D00E6E714000000F0B504469BB00F46B0
:10AB280016460021302202A81CF086F9002C7CD0A1
:10AB3800002E7AD01B238DF808301BF03CFC4FF414
:10AB48007A720025A0FB020302FB0131C00B4FF40F
:10AB58007A72002340EA41402946FDF75FFF344BF3
:10AB6800034423611BBA23F0FF0343F08303E06827
:10AB78000C9330222B46CDE9005502A904F0FCF9CC
:10AB8800002810DB294630220EA81CF055F9A168D0
:10AB98003A46204617F042FDA84206DA1CF060FA51
:10ABA800244B185840421BB0F0BD35D0E068302225
:10ABB8002B46CDE900550EA904F014FA0028EDDB68
:10ABC80030282CD1149B22691BBA9A4202D06FF00C
:10ABD8001500E8E79DF8383003F00703042BF6D199
:10ABE8009DF83930F3B1189B199A1BBA12BA53EA77
:10ABF8000201ECD0002BB2600ADA0F4A9342E6D980
:10AC08000E4A9A1863EB03030020C6E90023CAE73B
:10AC18000A4A1A440023F7E76FF07300C3E76FF09E
:10AC28007900C0E76FF00F00BDE76FF00D00BAE7DD
:10AC3800807EAA83140000007F7EAA838081557CD1
:10AC48002DE9F0410F4B05461C680E461746ACB17E
:10AC58004FF0FF324FF0FF330B4812F05BF8636898
:10AC68003246D3F8088029463B462046C04704466A
:10AC7800054812F011F82046BDE8F0816FF0010494
:10AC8800F9E700BF70D500207CCA002000230360CC
:10AC9800044B5A6812B9C3E9000070471060586045
:10ACA800704700BF74D50020014B1860704700BF83
:10ACB80070D50020002330B585B00546CDE90233B4
:10ACC80001904FF0FF334FF0FF320B4812F022F89B
:10ACD8000A4B1C684CB9284600F02CF90446064873
:10ACE80011F0DAFF204605B030BD636820461B68C6
:10ACF80001A998472468EDE77CCA002074D5002094
:10AD08001FB5CDE9010103924FF0FF334FF0FF3239
:10AD1800094811F0FFFF094B1C682CB9064811F0CF
:10AD2800BBFF204604B010BD636820461B6801A91C
:10AD380098472468F1E700BF7CCA002074D500203A
:10AD48000022024BC3E90022704700BF74D50020DF
:10AD58007FB50BAB05930393054B012202930023A8
:10AD68001846CDE90033FFF741FC07B05DF804FB56
:10AD78008A8D03000022024BC3E90022FFF7E0BFDF
:10AD88007CD5002070B505461A4C1B4EB44212D330
:10AD98001A4E4FF0FF324FF0FF33194811F0BAFF47
:10ADA80034687CB1286854F8141C143CFDF79EFFE5
:10ADB800C8B16469F5E721682868FDF797FFA8B16D
:10ADC8001434E3E700226A61726805F114033AB9A2
:10ADD800C6E9003300240A4811F05EFF204670BD22
:10ADE80013607360F6E76FF01004F4E76FF0100477
:10ADF800F4E700BF78750300787503007CD5002060
:10AE08007CCA00202DE9F74307460C4609B1002308
:10AE18000B6000261E4DDFF880904D450FD31D4B6B
:10AE28001D6885B355F8148C3846414601AA143D6F
:10AE380016F0CAF810B3D6B914BB2E461EE0D5F8E2
:10AE480000803846414601AA16F0BEF850B116B93E
:10AE580054B92E4606E000224046316816F0B4F890
:10AE68000028F5D11435D8E7019B2360F1E70022CB
:10AE78004046316816F0A8F80028DDD16D69D0E7A2
:10AE8800019B2360D9E7304603B0BDE8F08300BFDB
:10AE9800787503007CD50020787503002DE9F04112
:10AEA80088B0DDF8388004460D4616461F460790E0
:10AEB800B8F1000F07D0D8F8001009BBD8F804E0A3
:10AEC800BEF1000F25D1204607A9FFF79BFFE0B18F
:10AED800D0F808803B46324629460798C047A0B1BB
:10AEE80012490B685B0710D0114BCDE90340029360
:10AEF800002301221846CDE90033FFF729FF04E0BB
:10AF080007AA16F061F80028D8D1002008B0BDE8DB
:10AF1800F081D8F8083032460E9329463B46F4466D
:10AF2800079808B0BDE8F041604700BF98C9002005
:10AF38008A8D0300F8B506460025174C174FBC420A
:10AF480008D3174B1C682CB3143CB6B9E368E3B9B3
:10AF58006469F8E72EB9E3685BB9284605461434F6
:10AF6800EDE700223146206816F02EF80028F2D1CD
:10AF7800F3E79847002DF0D1F0E70022314620682A
:10AF880016F022F80028E1D1E2E79847002D08BF23
:10AF98000546DDE72846F8BD787503007875030097
:10AFA8007CD5002038B50C4D4FF0FF334FF0FF3201
:10AFB8000A4811F0AFFE2B783BB9FFF7DBFE00F033
:10AFC800D1FA044610B901232B700024034811F06C
:10AFD80063FE204638BD00BF0F6201207CCA0020F6
:10AFE8002DE9F04FDFF8B0A08FB002939AF80C303B
:10AFF8000646894615460193002A46D090462023E6
:10B008000593019BDAF8004096FBF3F75F43199824
:10B01800394605AB06AAA0470446002838D1059B47
:10B02800F71BDA1B424528BF4246009306AB1F4474
:10B03800189B93462BB3384619781BF0C8FE10B3FB
:10B048000123A0EB070B5A463946484603931BF0E9
:10B05800CCFE009BA8EB0B081F2B039B05D923B93B
:10B06800D9445E44B8F1000FC9D1029AA5EB08058E
:10B078001560189A0AB183F0010420460FB0BDE8A4
:10B08800F08F189BDFE72346DDE76FF01504F4E740
:10B098006FF00404F1E700BF84D500202DE9F04FDC
:10B0A8008BB082468B4615460193FDF731FEDFF8DB
:10B0B800BC90524699F80C80D9F80470B0FBF8F4AB
:10B0C80008FB1404061B334601991498B847019FDE
:10B0D800374434B1202322460AEB060102A81BF0AC
:10B0E80051FB3D2204F128036B4403F8202C04F1A2
:10B0F800010ABAF11F0F01D9002422E085B1CAF173
:10B108002004AC4228BF2C460AF1080359462246BF
:10B118000DEB03001BF069FEA3442D1BA244E8E7D6
:10B12800BAFBF8F408FB14A454B10AF10803A8EB1D
:10B138000404224629460DEB03001BF07DFEA244C1
:10B14800012453463946D9F80460149802AAB04736
:10B1580038B944B957440124AA46002DF1D0824693
:10B16800CDE76FF004000BB0BDE8F08F84D5002068
:10B1780010B5034B04469B6808469847001B10BD52
:10B1880084D500202DE9F04780468A4691461D4621
:10B198006FF0150086B00E9E134F16B906B0BDE8C5
:10B1A800F087102E334628BF1023294601934846BE
:10B1B8003C6801AB02AAA0470028EFD1019B397B6C
:10B1C800B3FBF1F201FB12320AB10B449B1A514650
:10B1D80040467C6802AAA0470028DFD1019B1D4495
:10B1E8009A44F61AD9E700BF84D5002010B5034C5D
:10B1F800C4E90001A260237310BD00BF84D50020FC
:10B2080030B5044685B010461D46CDE90212FFF759
:10B21800AFFF044A01460095204602ABFFF73EFE09
:10B2280005B030BD5D1003002DE9F04F0546B7B0FD
:10B238000E4617460021102206A898461BF0FCFD72
:10B248002B6CDFF8DC90DFF8DCB00A9305F1080A14
:10B25800504606A915F068FD044618B1002037B01D
:10B26800BDE8F08F4A2106AB04AA10A815F001FF2B
:10B2780078B1D9F800305A07E8D0284B0390CDE9C7
:10B2880001430122234620462549009415F064FF16
:10B29800DCE7049B03F1D8026A4402F8980CB8F181
:10B2A800000F13D0BDF8242001339342CEDA0BAC43
:10B2B8000DF1180CBCE80F000FC4DCF80030236057
:10B2C80050460BA915F030FD044630B1049A3B46B0
:10B2D800013206A910A8B047B8E74A210BAB05AA66
:10B2E80023A815F0C6FE68B1D9F800305B07E7D08F
:10B2F8002346012249462046CDE9014B009415F02A
:10B308002BFFDDE7059B23A9D8336B4403F84C0CCE
:10B3180010A8FDF7EBFC0028D2D197E7AF8D03000A
:10B3280098C90020CC8D03000A4601230149FFF784
:10B338007BBF00BF09B201002DE9F04F05460F465B
:10B3480091469846C1B003B17AB1002428462346F5
:10B35800644907AACDE90779CDE90984FFF764FFB5
:10B368000A9B012B00F0BA8017B96FF01504B5E0FD
:10B378004146384615F05EFE83466B7B9C42F4DA04
:10B3880005F108060DF12C0A524630461FFA8BF1DA
:10B3980015F0A7F910F11C0F034640F089806B7B6C
:10B3A800013BA34222DD304615F079F98246E8B91F
:10B3B800286C15F0D7FD2B6CCDE910AA14933046F4
:10B3C80010A915F0B1FC98B1304615F0C7FC68B16A
:10B3D80045490B685A0709D0444B03900293002350
:10B3E80001221846CDE9003315F0B6FE0134C4E752
:10B3F800AB6A109A9A42E7D1492110AB05AA1AA85C
:10B4080015F037FE0028DAD1059BBDF84C20013332
:10B418009342D4D00DF1540C0DF1400EBEE80F004C
:10B42800ACE80F00DEF80030CCF80030304615A943
:10B4380015F07AFC48B33046BDF84C1015AA15F043
:10B4480050F903460028BAD1BDF84C2001460092B5
:10B4580015A810AAFFF796FE82460028AFD13046FD
:10B4680015A915F0DFF90028A9D01F490B685B075B
:10B47800A5D01F4B0390CDE901A3012253465046A6
:10B48800CDF800A015F068FE99E7492115AB06AA8A
:10B498002DA815F0EEFD0028C8D1DDE905239A4254
:10B4A800C4D12DA91AA81BF0A0F90028BED186E79F
:10B4B80000287FF45AAF2A6C49460F923846424614
:10B4C800CDF800A0FFF7EAFD431D044606D051461B
:10B4D800304615F0A7F9002C08BF0446204641B0B5
:10B4E800BDE8F08F9B10030098C90020018E03006F
:10B4F800E08D0300012370B504460373837300F1E4
:10B50800080615F039FE314615F090FA0546B0B92F
:10B51800304615F0FAF900280ADCE36A206CD3E912
:10B52800001215F009FD0028EBD06FF0040504E0C7
:10B53800044B20466360FFF7A9FB284670BD6FF0F7
:10B548001505FAE74079030090F83E30024A0349AE
:10B558000348FFF74BBE00BF151103001D11030080
:10B5680031110300092337B5009315F005FE69462C
:10B578001A4AFFF76FFA044610B110F10C0F0FD1F9
:10B58800174D009B28466B73FFF7B4FF58B9154B4E
:10B5980013486B60FFF788FB1148FFF7D5FF0024BD
:10B5A800204603B030BD15F0E7FD01A9C0B2FFF792
:10B5B80029FA04460028F3D101982146826815F03B
:10B5C800BBFC0446019815F08CFC002CE8D12846F9
:10B5D800FFF790FF04460028D9D0E1E794D5002072
:10B5E800E0C500204079030007B5536801210093A6
:10B5F8001368044A15F01CFF6FF0150003B05DF8DE
:10B6080004FB00BF1B8E030038B50546506815F0D3
:10B61800D7FC044628B1034601212846024A15F002
:10B6280007FF204638BD00BF358E030037B5022915
:10B638000546009014BF0020506808496A460190EA
:10B64800FFF75EFB044628B1034601212846044A59
:10B6580015F0EEFE204603B030BD00BF11B7010063
:10B66800538E03002DE9F0410D46C0B00021164667
:10B678001F46469C15F0CCFC98B94FF00108B5F56B
:10B68800807F2A46694628BF4FF48072384684F87E
:10B698000580B047031E08DA4146164A206815F0AF
:10B6A800C7FE002040B0BDE8F08103D10321124A53
:10B6B800206815E0217939B101290BD0B5F5807FD3
:10B6C800EFD908210D4AF3E71A466946206815F0B4
:10B6D800BCFEF3E76B4413F8013C20681BB1084A31
:10B6E80015F0A6FEDDE76B460821064A15F0A0FE18
:10B6F800E4E700BF708E03008A8E0300B18E03005A
:10B708009A8E0300FA92030007B504990346D1E91B
:10B7180000024AB1009308211346064A15F088FE34
:10B72800002003B05DF804FB0821034A15F080FEF1
:10B73800F6E700BFD28E0300FA92030038B50C4634
:10B7480008490546FDF7D2FA38B128460649FDF7FB
:10B75800CDFA20B92070002038BD0120FAE76FF03B
:10B768001500F9E729BE0300D98E03002DE9FF4132
:10B778000023022906460D4617468DF8073012D9D0
:10B78800D2F804800DF107014046FFF7D7FF0446C1
:10B7980048B14346154A0121304615F049FE204676
:10B7A80004B0BDE8F0819DF8073011498DF80C30E0
:10B7B80000238DF80D3005F18043013B57F8230035
:10B7C80002AA0296FFF79CFA044610B10346094AFA
:10B7D800E1E79DF80D30002BE1D101213046064A02
:10B7E80015F026FE6FF00104D9E700BFDD8E0300D7
:10B7F8006DB60100EF8E03000B8F030000232DE9C7
:10B80800F0410329A2B006460D4617468DF80730C9
:10B818001FD9D2F804800DF107014046FFF78EFFCB
:10B82800044630B14346234A0121304615F000FE54
:10B838000BE09DF8073063B1012B2AD00121304677
:10B848001D4A15F0F5FD6FF01504204622B0BDE83D
:10B85800F08105F18043013B57F823402046FDF76E
:10B8680057FA8023014602AA204614F05CFA0446DF
:10B878000028E3D005F18045023D224657F825000F
:10B8880002A9FFF7DDF904460028DED003460B4A7B
:10B89800CAE705F18043013B57F823804046FDF78E
:10B8A80037FA441C80232246414602A81AF06AFF50
:10B8B800E0E700BFDD8E03001E8F0300358F030015
:10B8C80013B5044611F0E4F9C0F307230193C0F35C
:10B8D800074300930821030E034A204615F0A8FDEC
:10B8E800002002B010BD00BFC890030010B5044688
:10B8F80007F0E4F908210346074A204615F098FDA9
:10B908002046064A082115F093FD2146044811F007
:10B918004BF8002010BD00BF639103008291030023
:10B928002DB9010070B58EB004460D46D0F89C6064
:10B938001AF0A3FA02461BF093FB254B1958254B26
:10B948002846002A18BF1346234ACDE90043234B53
:10B958008C4218BF13460821214A15F069FDD4E925
:10B968000A23CDE9022394F90E3028460093237B5D
:10B9780008211C4A15F05CFD06A92022204611F07A
:10B988005BF8626E0346009208212846164A15F0B5
:10B998004FFD204605A91AF080FA034630B1082168
:10B9A8002846124A15F044FD0EB070BD6423059A6E
:10B9B8002846B11A4B43B3FBF6F3CDE90021CDE994
:10B9C8000263082133460A4A15F032FDECE700BF4E
:10B9D800100000008C910300668D0300B9A50300D8
:10B9E8008F9103009B910300C7910300DE91030030
:10B9F8000B920300F0B50025044693B029460AAF20
:10BA08001C220BA81BF018FA134E1A2220213846C4
:10BA18001BF012FA2146114810F0C6FF09AA4FF48C
:10BA2800006130461AF02DFA64224FF40063099938
:10BA3800CDE90057C1F500604243D20ACDE90403BD
:10BA4800CDE902312046069233460821044A15F012
:10BA5800EFFC284613B0F0BDE0A101205DBB01005A
:10BA68004292030010B5044617F0B7FC08210346BC
:10BA7800024A204615F0DCFC002010BD8B92030022
:10BA88002DE9F3411746002304460A21B86801AAA4
:10BA9800019301F061FC019DC6B255B12B4601210D
:10BAA8002046144A15F0C4FC019D284602B0BDE8A2
:10BAB800F081042E0AD93346012120460E4A15F09A
:10BAC800B7FC204615F0E9FC0125EEE77868FEF79B
:10BAD800C7FCB0F1000805DA012120467B68074A57
:10BAE80015F0A6FC0021334608460FFA88F2FEF747
:10BAF800D3FCDAE7A1920300C8920300DF920300A7
:10BB08001346002273B5044601920A21586801AA17
:10BB180001F022FC019D95B920EAE0744FF400463B
:10BB2800294640F2E7304FF47A720023C4FB06013D
:10BB3800FCF774FF11F0C2FD284602B070BD2B4619
:10BB480001212046024A15F073FC019DF4E700BF6D
:10BB5800FE920300F0B504460D46D0F89C6089B00B
:10BB680007A91AF09AF9034630B1082128460F4A66
:10BB780015F05EFC09B0F0BD20461AF07EF964238A
:10BB8800079A0B4FB11A4B43002818BF0746B3FB5F
:10BB9800F6F3CDE90221CDE90463082123462846BE
:10BBA800CDE90076034A15F043FCE3E7DE91030094
:10BBB8008C9103001E9303002DE9F04387B00546DE
:10BBC800684610F04DFD1423009E082103FB006613
:10BBD800164A284615F02CFC154F009CDFF85C80AF
:10BBE800DFF85C90B44203D3002007B0BDE8F083CF
:10BBF80023680BB11A7832B923463A46142101A8B2
:10BC080012F0D2F801AB42460821284615F010FC84
:10BC180020461AF084F8074B0821002808BF4B4635
:10BC2800054A284615F004FC1434DBE79194030018
:10BC38009B94030082940300E79B0300A0940300F5
:10BC4800889403007FB50A684B6904924A6803F236
:10BC58006C7303928A680292CA6801920A69082181
:10BC680001320092024A15F0E3FB07B05DF804FBCD
:10BC7800D4940300F7B5137806463A2B0F461546B9
:10BC880016D1541C23783A2B2DD1013400230A22D3
:10BC9800204601A9019312F0FBF8019A0346A2423B
:10BCA80038601AD01078C0B93C2B18D9184A10E05F
:10BCB80000230A22284601A9019312F0E9F8019C01
:10BCC800B860AC4209D023783A2B06D1172808D996
:10BCD800104A0121304615F0ABFB6FF0150003B098
:10BCE800F0BD0134CEE700230A22204601A90193C2
:10BCF80012F0CEF8019B7860A342EED01A783A2A67
:10BD0800EBD13B2801D9044AE3E75C1CBEE700BF3E
:10BD180013950300F5940300039503002DE9F04300
:10BD280004460D46174691B0012002A903F044F8D5
:10BD380007A902A811F094FF032D5FD14FF0000965
:10BD48007D680A22284601A9CDF8049012F0A0F8CF
:10BD5800019E8046B54218D032782D2A15D1013679
:10BD68000A22304601A9CDF8049012F091F8019BFF
:10BD78009E420AD01A782D2A07D1451E0B2D0DD9BF
:10BD88002A4A0121204615F053FB204615F085FB71
:10BD98006FF01505284611B0BDE8F0835E1C0A2235
:10BDA800304601A9CDF8049012F072F8019B9E422A
:10BDB800EBD01B78002BE8D1431E1E2B01D91C4A5F
:10BDC800DFE7A8F26C73CDE90B53BA680A902046F6
:10BDD80007A9FFF74FFF0028D7D107A8FEF738F8C3
:10BDE800B1F1FF3F08BFB0F1FF3FCDE9020109D132
:10BDF800012120460F4A15F01BFBC9E7022DC4D1CB
:10BE08007A68E4E70023012002A90493FDF700F80B
:10BE1800054630B1034601212046074A15F008FBC4
:10BE2800B6E7204607A9FFF70DFFB3E72395030000
:10BE3800329503003F950300689503008B1E022B83
:10BE48002DE9F04107468846144637D810220021CC
:10BE5800606812F023F9B8F1020F064607D12023D3
:10BE680008213846244A15F0E3FA336816E00A2216
:10BE78000021A06812F012F9C5B22B4608213846F5
:10BE88001D4A15F0D5FAB8F1040F1AD0102D0DD0AF
:10BE9800202DEAD0082D0CD13378DBB208213846A2
:10BEA800164A15F0C5FA0020BDE8F08133889BB228
:10BEB800F4E708213846124A15F0BAFA6FF015006F
:10BEC800F2E710220021E06812F0E8F808210346A2
:10BED80004460C4A384615F0ABFA102D06D0202D32
:10BEE80007D0082DE5D1E4B23470DCE7A4B2348081
:10BEF800D9E73460D7E700BFAD950300D8950300B4
:10BF0800C2950300E99503002DE9F04F4FF0FF3586
:10BF1800914601220746884620262C46544BDFF8D6
:10BF280070A185B01A60494652464046FDF7CAFBE3
:10BF3800411C07D16A1C52D14E4A0121384615F0DE
:10BF480077FA1DE0732820D0772833D0612817D1DD
:10BF5800DFF840B110220021DBF8000012F09EF853
:10BF680005460028DFD11BF07BF8434B1B58162BE6
:10BF7800D9D1DBF80030414A0121384615F058FA8A
:10BF88006FF0150005B0BDE8F08F0022DFF804B1AE
:10BF98001146DBF8000012F081F804460028C2D1EF
:10BFA8001BF05EF8344B1B58162BBCD1DBF8003065
:10BFB800334AE1E70022DFF8DCB01146DBF8000085
:10BFC80012F06CF806460028ADD11BF049F82A4B50
:10BFD8001B58162BA7D1DBF800302A4ACCE7631C84
:10BFE80001D1294AA9E75FFA86F8C6F3C406002CEE
:10BFF8003CD06B4629461A46A6EB050C0CE0B8F176
:10C00800100F1DD0B8F1200F20D0B8F1080F2AD199
:10C018000878187031443344A64203D80CEB010069
:10C028001028ECD9102CA14628BF4FF0100929463A
:10C038004B46384601F0D0F81035A4EB0904D6E792
:10C04800088880B21870000A5870E3E708684FEA59
:10C05800102E187083F801E04FEA104E000E83F896
:10C0680002E0D870D6E70821084A67E7204689E742
:10C07800D0C500203E96030014000000FD95030083
:10C0880010960300239603005B960300C2950300F5
:10C0980037960300B0D4002070B5104E04460D4604
:10C0A800337881B12BB10121BDE870400C4A15F0FD
:10C0B800BFB901233370082120460A4A15F0B8F9A0
:10C0C8000123337004E083F001033370002BF2D1B5
:10C0D80029462046BDE8704015F0FCB910620120E1
:10C0E80075960300B096030070B504463C48037883
:10C0F800182B02D10B78112B31D00B46013A8D1831
:10C10800AB4225D18B5C0A780370A2F13003092B6E
:10C11800344C04D922F02003413B052B04D8236872
:10C128003149CA54013323602368022B34D11022C9
:10C1380000212D4811F0B2FF2C4A136803F8010BB7
:10C1480013602B4A1368013313600023236023E034
:10C1580013F8016B182ED3D11E78112ED0D1244D8F
:10C1680008212B682046234A15F062F92046002151
:10C17800FFF792FF204B187870B9204A2B68116896
:10C18800042B0ADC08B111602B6013F003010BD1FA
:10C19800126813681BBA136070BD0868043B00BAC4
:10C1A80041F8040B0120EBE75B4203F0030358BF9F
:10C1B8005942022904D1126813885BBA9BB2EAE794
:10C1C8000329E9D1106802681104C2F3074301F496
:10C1D8007F010B4302F47F4213430360DCE700BF97
:10C1E80011620120DCD5002013620120E8D500206F
:10C1F800E0D50020DA96030012620120E4D5002081
:10C208002DE9F84F0023064615460C462949DFF864
:10C21800BC800B602849DFF8B890DFF8B8B088F820
:10C2280000300B60012C2F4655F804AF1ED90222AE
:10C23800494650461AF013FB80B99AF80220003A92
:10C2480018BF01229244504602221C491AF007FBEB
:10C2580030B9012388F80030013CE3E70022F1E718
:10C2680049465046FCF742FDA8B9043700227868D1
:10C27800114611F00DFE0022114B11461860786826
:10C2880011F006FE0F4B104918603046FFF704FF07
:10C298000020BDE8F88F9AF800202D2AE6D19AF8F8
:10C2A8000120002AE2D053465A460821304615F0AC
:10C2B800BFF8D1E7DCD50020E0D50020F7960300D1
:10C2C800E8D50020E4D50020F1C001001262012069
:10C2D800F4960300FA9603007FB50BAB059303931E
:10C2E800054B0222029300231846CDE90033FEF7DE
:10C2F8007DF907B05DF804FB5B98030007B50A48B1
:10C3080019F00DFD60B10423084A00931268012357
:10C318000549074800F030FE002003B05DF804FB33
:10C328006FF01200F9E700BF8C710300C47B0300B3
:10C338007875030010B54468A3604023C4E900126F
:10C3480042680821D364114BD1621363002310495A
:10C35800C2E90E33C2E91133C2E90633C2E909332F
:10C36800146853631364116153611362C2F888300F
:10C37800A36823B11B6C13B1204606499847A368EC
:10C388001B6A0BB120469847002010BDA8F9012070
:10C39800A0F90120A1C301002DE9F04304460D4690
:10C3A80087B08368DB6B03B19847A368DB6A0BBB74
:10C3B8004FF0000905F130084046EA6C05A914F071
:10C3C8009EF80646002836D0A36805991B693BB33A
:10C3D800024620469847074628B33946404614F097
:10C3E800ABF8BE424FF00109E6D00020D5E9013193
:10C3F800984703E0204698470028D9D1A368DB690D
:10C4080083BB05F110073846EA6A05A914F0C8F895
:10C41800064670BB204614F0DBFEC5F8886033E0A2
:10C428006FF05707D9E70146404614F085F8B9F18F
:10C43800000FE3D0D9E718490B6813F0060F07D0AF
:10C44800164B0222CDE9010300900346FFF744FF93
:10C45800A3681B69002BEAD0012220460DF11301C5
:10C468009847E4E7204698470028CAD107B0BDE8B6
:10C47800F083A3680599DB685BB1024620469847BC
:10C488000146384614F0A8F8D5E90131012098474B
:10C49800ECE76FF05701F4E7A0C900205B980300B0
:10C4A80010B504468168083101F080F9A16820467A
:10C4B800BDE81040014A083101F01EB99D980300FB
:10C4C80038B583680446D3F86432DB071DD4C069E5
:10C4D80015F0A6FC606803685B689847054620B9B4
:10C4E800E06815F0E5FDA3681D71A3685B6B13B1E7
:10C4F80029462046984700221AF0B2FDA368C3F8DF
:10C508000C23034B185802F03BF86FF00F05ECE7CB
:10C5180010000000014914F0D9BE00BF409203008A
:10C52800F7B5044680680D46D0F864325A0705D539
:10C53800002114F007FFE06815F08CFDE368DB6864
:10C5480073B9002D39D0A66806F14207384614F0B1
:10C55800B7FE002833D0394606F5A170FCF7D0FBAA
:10C56800A2682946E0680DF10603423215F075FD10
:10C5780058B9A06800F5A1714230FCF7C1FBA0686A
:10C58800423014F09DFEADF80600204615F087FAFB
:10C59800A368D3F860329B0603D50A49606914F092
:10C5A80095FE204600F040FFA268BDF80630204600
:10C5B800D387A268938715F0DEF903B0F0BD86F83B
:10C5C8004201CDE7347603002DE9F04FA7B00446C9
:10C5D8005422002111A81AF02FFC0023CDE90533BD
:10C5E800A36820464233029315F05FFA204615F0FF
:10C5F800ABF910B96069FFF78DFF00264FF0FF37E0
:10C60800B246B3463546B146A06814220021083028
:10C618001AF012FC204615F043F9A168E0688A8FE9
:10C62800423115F051FD204615F0D0FD0DF14408BA
:10C638000396DDE90532012A6DD0132B6ED85FBB56
:10C64800BBF1000F0AD0204615F0E0FD1423A268C4
:10C6580011A942320DEB030014F0A2FFB9F1000F4B
:10C668000CD099F81130FE2B08D1059B26AA02EBB5
:10C67800830252F8542C0AB101330593A068059D32
:10C688004369002B40F0B680CEB1C3689E422DD0DE
:10C698000D9600F1080524E002234146029A06A8F7
:10C6A80014F07EFFD8F8042006990346029231B1AF
:10C6B80001290AD148B16C4A204615F09AFA6FF060
:10C6C8000705284627B0BDE8F08F059B002B34D01E
:10C6D800D8F8000001F08AF898B166B1A5680D96FF
:10C6E80008350CAE0FCE0FC533682B602046FFF718
:10C6F800D7FE0125E5E75D4A0121204615F079FAC4
:10C70800DDE7059BCBB129462046D8F8002001F08B
:10C718001DFA022809D1059B132B91D9069B022BE0
:10C728008ED10121524B534AC6E7032805D0059BF9
:10C738004FF0010B013305937BE7039B33B9484660
:10C74800D8F8001007AA15F022F8054608F10408E1
:10C75800013F9DB3EB68BBF1000F08D0F3B1204651
:10C7680015F0A3F9204615F006F9434AC4E7ABB122
:10C77800AE46A368DDF814A003F1080CBEE80F006C
:10C78800ACE80F00DEF80030CCF80030AB682BB90D
:10C798006B7CFE2B04BF2F7C07F1FF37D5F804C054
:10C7A800BCF1000F08D0AE460CAEBEE80F000FC6B5
:10C7B800DEF8003033606646A94603E0059B53B1B6
:10C7C80001230393069B17B9022B7FF432AF059B15
:10C7D800013305932DE7A368DB6913B1DB68002BF0
:10C7E800EED1264B012100932046119B244A15F0D7
:10C7F80000FAE5E7037EA5EB0A05B3B14FF6FF7231
:10C80800417EFF2918BF0A469D4202D313449D4228
:10C818000BD98368012120461A4A15F0EAF9204607
:10C82800FFF73EFE6FF015054BE7012114F07FFD81
:10C83800A06800F53E7014F09EFDA36811AA294671
:10C8480002EB8A0220465B6998470546A0684FF0CC
:10C85800FF324FF0FF3300F53E7014F05CFD00210D
:10C86800A06814F064FD2CE7AB980300BF980300A0
:10C8780020990300FA920300DD9803000C99030045
:10C88800FB9B030044990300022210B58368044609
:10C898001A7183689B6BBBB914F0F3FC8368D3F8F7
:10C8A8006432DB040BD50321084B094A15F0A1F9C2
:10C8B800A0686FF4805100F5197014F0F6FC20465A
:10C8C800BDE8104000F0FABE10BD00BF5F9903003C
:10C8D800A29403002DE9F04F044680680121B1B00D
:10C8E80000F5197014F0D6FCA3681B79022B20D12F
:10C8F80000230993A36860689E6B03681D6909ABF0
:10C908000EB310221BA9A847099B93B10121A06867
:10C9180014F00DFD2046099A1BA9B0470021A06814
:10C9280014F005FDA3689B6B002BE3D12046FFF7AD
:10C93800ABFF6FF00101A06800F5197031B0BDE8D8
:10C94800F04F14F0B2BC01220DF12301A847099B56
:10C95800002BEED09DF923209DF82310002AA36810
:10C96800C8DB5A79032A00F28D82DFE812F004004E
:10C978007A0291028B020D297BD00A2958D0B3F88C
:10C98800642209296FF3CA02A3F86422A06800F0A0
:10C9980085803DD80029ADD0082900F0F1810346F3
:10C9A800D3F860229207A5D501391629A2D801A289
:10C9B80052F821F039CF0100C3CD0100CBCD0100E1
:10C9C800BBCD01002DCF0100E9CD0100FDC801005C
:10C9D800FDC80100FDC80100FDC80100F1CD01003E
:10C9E800F9CD0100FDC8010023CE0100FDC80100FA
:10C9F8002DCE0100FDC80100FDC80100FDC80100E1
:10CA0800FDC8010031CE0100FDC801005BCE010068
:10CA18001B2940D07F2900F0BF81A1F120025E2AA6
:10CA28000346BDD8012114F08DFC9DF82310B1E018
:10CA3800D3F86422C2F3C7022AB1D3F86422C2F33E
:10CA4800C7020A2AACD1B3F8642261F3CA02A3F878
:10CA58006422A568A98FC1B9284614F073FCE06860
:10CA680015F0F8FA6069FFF755FD2046FFF70CFF4F
:10CA780040E7D3F86422C2F3C702002AE3D0D3F810
:10CA88006422C2F3C7020D2ADCE72046FFF79CFDAB
:10CA9800C5F81003E9E7012343712BE7D0F86032AA
:10CAA8009B077FF527AF012114F04CFCA068838F0A
:10CAB800FF2B3FF41FAF0025C28F00F1420100F5A4
:10CAC800A1701AF092F9A3681BA9DA8F0BA8134476
:10CAD80083F84251A268142302F5A17214F060FD94
:10CAE8000B9914293FF606AF30AB03EB810343F8EB
:10CAF800545CA368DA8F134493F84130202B02D09A
:10CB0800093B042B4AD800294BD100250A950A9BDA
:10CB180030AA02EB830353F854AC0026504614F0B5
:10CB2800CFFBB3468146B04637463946284616AA53
:10CB380000F0D8FB034600283FD1012EA76864D136
:10CB48000A9B30AA02EB830353F8540C14F0B8FB89
:10CB58004146064607F10802284600F0C3FB05686F
:10CB6800284614F0ADFB864205D0821B92B22046BF
:10CB7800A91915F07EF8A068C38F034493F84230D2
:10CB8800202B31D0093B042B2ED9D0F86032DF0797
:10CB98002FD42021204600F05BFDABE60129B4D953
:10CBA800013900200CAB009301900AAB1BAA14F0CA
:10CBB80019FE05460028AAD19CE61B684A4651463C
:10CBC8001846039319F04BFE60B9039B1846FCF70F
:10CBD8009FF8584538BF5846002E08BFB8461FFA78
:10CBE80080FB01360137A0E70121204614F0F5FE4D
:10CBF80080E6002114F0B0FB2021204600F028FD3B
:10CC08000121A06814F0A8FB74E604907FF672AEC8
:10CC18000A9A30AB03EB820252F8543CC1461846DC
:10CC2800039314F04DFB049B05903B860496A26881
:10CC380049462846083200F055FB039BD0F800A06F
:10CC480009F101094BB1BAF1000F06D01946504657
:10CC5800059A19F004FE0028E9D1A168BAF1000F7D
:10CC68004DD1A1F830A0049B013B0493DFD160694A
:10CC7800FFF750FC204600F021FD0A9B30AA02EB8A
:10CC8800830353F8540C14F01BFB414611AA814648
:10CC9800284600F027FB0746A0683968FF2200F500
:10CCA800A17019F0EEFD3B684FF6FF7708F1010A15
:10CCB800B84603935146284616AA0AF1010B00F01C
:10CCC80011FB002850D00022A168036801F241112D
:10CCD80011F801EF985C704503D110B1013242455B
:10CCE800F6D1B9F1000F01D04A4506DBBA42A8BF18
:10CCF8003A46013E012E97B236D0DA46DAE798482E
:10CD0800069114F0DDFA069900EB0B074A8DBFB2C5
:10CD1800121A92FBF7F2504692B20791069214F05B
:10CD2800CFFA07993F1A088E069A00F1010CA1F86C
:10CD380030C0B0FBF2F102FB110080B2BFB260B9A3
:10CD480006212046864B874ACDF800A014F051FFF3
:10CD58003946204600F052FB85E753460621204617
:10CD6800814A14F046FFF3E7002F3FF4C3AD03995F
:10CD7800A7EB0902204692B2494414F07AFFB9E5BC
:10CD8800D0F860329E077FF5B5AD012114F0DAFACC
:10CD9800204614F08BFFADE5D0F860329D077FF593
:10CDA800A9AD012114F0CEFAA368D3F860321907AF
:10CDB800EED4204614F05FFF9CE5204614F07CFE7C
:10CDC80098E5204614F071FE204614F0BDFD10B918
:10CDD8006069FFF79FFB0121A06814F0B3FA44E6ED
:10CDE800204614F071FE85E5204614F076FE81E5B4
:10CDF800D3F860329B0603D55C49606914F066FA83
:10CE0800A368D3F860329F0603D55949606914F0C6
:10CE18005DFA204600F052FC6CE500212046FFF741
:10CE28007FFB67E50121F9E7204614F038FE20462C
:10CE380014F027FA0121A06814F084FAA368D3F843
:10CE480060329E067FF556AD4A49606914F03EFA95
:10CE580050E5204600F062FB0121A06814F072FA48
:10CE680048E55B2902D102225A7143E5D3F86032C2
:10CE78009D0706D5622907D14FF0FF31204614F0EF
:10CE8800D0FDA3680022EFE76629FAD10121F5E772
:10CE980000225A71A268D2F8603298077FF52AAD4D
:10CEA800A1F131031B2B3FF625AD01A151F823F069
:10CEB80035CF010041CF010055CF010029CF010036
:10CEC800FDC80100FDC80100FDC80100FDC8010042
:10CED800FDC80100FDC80100FDC80100FDC8010032
:10CEE800FDC80100FDC80100FDC80100FDC8010022
:10CEF8002DCE010023CE0100E9CD0100C3CD0100F4
:10CF0800FDC801002DCF0100FDC8010039CF010087
:10CF1800FDC80100FDC80100FDC8010045CF0100A2
:10CF280003235371204614F0C0FDE3E40323537137
:10CF3800204614F0B4FDDDE403235371A068D0F853
:10CF4800601201F0010181F001015BE603235371D6
:10CF5800A368D3F860329B077FF5CCAC29E700BF04
:10CF6800658D0300A3990300A2940300397603009A
:10CF78003E760300347603002DE9F04304468068CA
:10CF88008846D0F80C1315461F4689B0002967D18A
:10CF98004FF4457219F050FFA36822681A60E068E0
:10CFA80015F0FAF8A06800F53E7018F08FFF4FF4FE
:10CFB8002A794FF41A76A068304419F0A7FBA068C4
:10CFC8000022831901214844103619F075FBB6F583
:10CFD8002A7F09F11409EED10026A36902211E60F7
:10CFE800A06866F3820500F5197014F053F9502211
:10CFF800A3685A851822A3681A85D4F80890D9F826
:10D00800000014F05DF989F82C00A3684146C3F8C4
:10D0180060526068144A03681D682346A84705469D
:10D02800D0B90122A3681A71D4E90A0100220023A9
:10D03800CDE906230E230393109B4FF40062CDE93C
:10D0480001730495094B00940FF0AAFDA368C3F877
:10D058000C03616A0FF0E0FC284609B0BDE8F083D4
:10D068006FF07705F8E700BF23130300CDD0010068
:10D0780010B5044680680379012B1DD14FF0FF32AB
:10D088004FF0FF3300F53E7014F045F920460821B3
:10D0980000F006FA206814F013F918B1084960691D
:10D0A80014F014F92046FFF7EFFBA06800F53E7076
:10D0B80014F061F9002010BD6FF08500FBE700BF98
:10D0C8003F9203002DE9F041044640680E4603688C
:10D0D80000219B681546984700284CD126B12A465E
:10D0E8002146E06914F074FE2046FFF7C1FF0028CE
:10D0F80041D1224E224FDFF89080A06800F52A70B7
:10D108004FF0FF324FF0FF33032110F0A7FC054624
:10D11800A0684FF0FF324FF0FF3300F53E7075B155
:10D1280014F0F9F820462B460121164A14F061FD47
:10D13800A068BDE8F04100F53E7014F01CB914F089
:10D14800EAF832460221204614F017F93A462946F1
:10D15800204614F012F920464246012114F00DF938
:10D16800606803685B6903B19847A06800F53E7082
:10D1780014F001F9C1E7BDE8F08100BFC9C401009E
:10D18800DDC80100A9990300EF12030010B5044699
:10D1980008210C4A14F04CF9204608210A4A14F0D8
:10D1A80047F920460821094A14F042F92046082187
:10D1B800074A14F03DF920460021064A00F09CFA7F
:10D1C800002010BDC0990300FE9903005D9A03007A
:10D1D800B19A03004B9B0300F8B51E4617460B4651
:10D1E8002F4A0821044614F023F96EB3082120467B
:10D1F8003B782C4A14F01CF901256A0704D1082150
:10D208002046294A14F014F9AE4223D908212046B1
:10D218007B5D244A14F00CF90135102DEDD108215D
:10D228002046224A14F004F9D6B9082120461E4A9D
:10D2380014F0FEF80125AE422B4613D808212046EB
:10D24800194A14F0F5F818E008212046184A14F095
:10D25800EFF8012508212046154A14F0E9F8DBE724
:10D2680000252B46FB5C0821A3F120025F2A28BF7A
:10D278002E2320460F4A14F0DBF80135102D07D075
:10D288006B07D8D108212046074A14F0D1F8D2E715
:10D298002046BDE8F8400821074A14F0C9B800BF85
:10D2A800619B03005E8D0300668D0300688D03009B
:10D2B800648D03002E8C0300689B030010B50446A0
:10D2C80013460A460146064801F03CFD23691B79CE
:10D2D80023B12046BDE8104014F002B910BD00BFCC
:10D2E8000115030038B50B46154648B91449154AC7
:10D2F800521AB3EB920F05D251F82350284638BD85
:10D3080084680CB90025F9E70F4A94420AD30F4AFA
:10D31800944207D218462946226890472B68002B6A
:10D32800ECD1EFE70A4A944202D30A4A944205D361
:10D33800246814225343E518E358F0E70133F8E76B
:10D34800A8750300E0750300F4750300F475030085
:10D35800E0750300F47503000023F7B5164602785C
:10D3680004462D2A019305D16FF015030020336080
:10D3780003B0F0BD19F074FE05460B4F0A46C351C1
:10D3880001A9204610F08AFEEB59222B02D16FF03A
:10D398002103EBE7002BE7D1019BA342E4D01B78E4
:10D3A800002BE5D0E0E700BF140000008368D3F845
:10D3B80060329B0603D50249406914F0A6BA70474B
:10D3C80044760300014914F0A0BA00BF409203005C
:10D3D8000A1E0DDC0ED042238168D1F8601289063E
:10D3E80008D5002A04494069B8BF524214F08DBAE2
:10D3F8004123F1E7704700BF849B03000A1E0DDC40
:10D408000ED044238168D1F86012890608D5002A15
:10D4180004494069B8BF524214F077BA4323F1E790
:10D42800704700BF849B03002DE9F04785680446D8
:10D4380005F14200FBF76CFC0023984695F82C7028
:10D44800DFF8589086B2A268558DED1BB54209DB0E
:10D45800002E1FDD423360690F491A44BDE8F047CA
:10D4680014F053BA1D442A4492F842A082F842802C
:10D47800A26842331A444946606914F046FAA36820
:10D488002B4483F842A0A3685B8DDB1BF61A0027A8
:10D498002B46D8E7BDE8F087A2940300FA92030070
:10D4A80008290A4617D8836893F82E10914212D09B
:10D4B80083F82E208368082AD3F8603205D09906AD
:10D4C80009D50549406914F020BA9B0603D50349DC
:10D4D800406914F01ABA70478B9B03004976030021
:10D4E80038B50D4609780446FFF7DAFF6A78072A47
:10D4F80011D8A36893F82F1091420CD083F82F20ED
:10D50800A368D3F860329B0605D560690249BDE877
:10D51800384014F0FAB938BD949B0300F8B5836815
:10D5280004469A8F002A51D0D98F00294ED0413114
:10D5380003F142050B441846A84206D3014611F8E8
:10D548000169202E39D0A84239D286B29DB2AB1BD0
:10D558009BB2591C471CD21A0144384619F052FC98
:10D56800A268711B938F204613FA81F39387A368EF
:10D5780009B29A8F1344002283F8422014F02DFA3E
:10D58800A368D3F860329A0603D51149606914F08C
:10D59800BCF93B46082120460E4A14F02AFB2046D7
:10D5A800FFF704FFA368D3F860329B060ED56069C5
:10D5B8000949BDE8F84014F0A8B90846BCE7014697
:10D5C80011F80169202EC0D00846BCE7F8BD00BF9D
:10D5D8004E760300A2940300527603002DE9F04131
:10D5E80004460D4617460AB1FFF7E0FEA368DA8F36
:10D5F800D3F86012423213444A071FD51846FBF786
:10D6080087FB0646DFF8448096B9A3689A8FDA87C5
:10D61800A06814F087F920B107B115B16069FFF768
:10D62800D1FE69422046BDE8F04109B214F0D5B9EF
:10D638004146606914F069F9013EE5E70821204692
:10D64800014A14F0D6FAE0E7A2940300B9A5030052
:10D6580013B583688DF80710D3F860220446D00705
:10D6680022D5D98F9A8F8A421ED0481C9DF8072050
:10D67800D8870B4483F84220A368D3F8601289073F
:10D6880010D5D3F86032606913F0040F18BF2A224E
:10D69800094914F03AF9204614F056F910B16069B6
:10D6A800FFF790FE02B010BD012220460DF10701E0
:10D6B80014F0ACFAF6E700BF2E8C030010B5044650
:10D6C800836802211B68084A14F093FAA368D3F808
:10D6D80060329B0707D52046FFF7A6FE2046BDE827
:10D6E800104014F057B910BDA2940300014914F07A
:10D6F800A0BB00BF409203002DE9F04F0E46002169
:10D70800044617460D4689B0304603AA01F10108C0
:10D71800FFF7E8FDB0B995B127B13A460821204690
:10D7280014F067FA00211E4FDFF87890DFF878A030
:10D73800304603AA01F10108FFF7D4FD60B909B02A
:10D74800BDE8F08F006810B1FBF7E2FA80B28542BD
:10D7580038BF05464146D7E703688BB11A787AB1D6
:10D76800D0F804B04A46CDE9005308213B4620468C
:10D7780014F03FFABBF1000F04D16069FFF7B6FF60
:10D788004146D5E7524620463B46082114F031FA77
:10D798006A1D5946204692B214F058FBF0E700BFC4
:10D7A800B29B03009D9B0300598D0300F7B50F68DA
:10D7B80005460E46A7B13846FBF7AAFA84B2094BCC
:10D7C8002846009308213B46074A14F012FA2846D7
:10D7D800E21C716892B203B0BDE8F04014F036BBA9
:10D7E8003C46ECE7AE9B0300A499030010B507493B
:10D7F8000446FBF77BFA38B120460549FBF776FA71
:10D80800B0FA80F0400910BD0120FCE7A49B03009A
:10D81800A79B030010B583680446D3F860329B06C3
:10D8280003D50649406914F088FB5022A3680020FC
:10D838005A851822A3681A8510BD00BF56760300C2
:10D8480008B5836908211B68024A13F0F1FD00201E
:10D8580008BD00BFB59B03002DE9F3410F4A08211D
:10D86800054613F0E5FD00230D4C0E4EDFF8388019
:10D87800B44203F1010703D3002002B0BDE8F081F0
:10D888006A6A9BB20192A26808211268284600922F
:10D89800424613F0CDFD30343B46E9E7C59B030013
:10D8A80078750300A8750300DD9B030008B50249DD
:10D8B80013F0E3FD002008BD419203007FB5044644
:10D8C80000250E4EA2680DF10E030121E06802F555
:10D8D800A17214F0C2FBBDF80E00A36850B103F5A5
:10D8E800A173009332462B460821204613F0A0FD71
:10D8F8000135E7E783F8420104B070BDEE9B0300F1
:10D9080010B5044613F0DEFD08210346024A2046FE
:10D9180013F08EFD002010BDF0960300022907B514
:10D928000DD15368012101930C4B009313680C4AE5
:10D9380013F07EFD6FF0150003B05DF804FB8368FB
:10D94800084AD3F86032082113F0020F064B08BFCB
:10D958001346064A13F06CFD0020EDE7019C030016
:10D96800F89B0300B1C7030015AA0300169C030027
:10D9780010B583680446D3F860329A0603D5074980
:10D98800406914F0DAFAA368D3F860329B0603D52D
:10D998000349606914F0D1FA002010BD5D760300D8
:10D9A80062760300F0B50129044685B00CD05368AF
:10D9B800012101935F4B009313685F4A13F038FD10
:10D9C8006FF0150005B0F0BD8368D3F86032990692
:10D9D80003D55A49406914F0B0FA00256FF0F901EF
:10D9E8002046FFF7F5FCFA212046FFF707FDA0685F
:10D9F8004FF48072294600F5A1708DF80B5019F08C
:10DA08001BFA4F49606914F098FA606913F068FDD1
:10DA18004FF47A766068012203680DF10B011F69E3
:10DA280003ABB847039BF3B9013E4FF47A70B6B223
:10DA380018F070F9002EEDD1A368D3F860329B0678
:10DA480003D54049606914F078FA5022A36820464B
:10DA58005A851822A36803211A853B4A13F0E8FC6B
:10DA68006FF00700AEE79DF80B20A3681B2A53D080
:10DA780093F842111B29CDD1522A4DD15A190023AE
:10DA880082F84231A66896F843215B2A2BD10225F9
:10DA980006F2431010F8011F2A463B2905F101053B
:10DAA800ADB223D1FF2AC7D002F5A17216FA82F1CE
:10DAB800002211F8010F18BBFA2A28BFFA22FA2B04
:10DAC80028BFFA2386F84201A1684A85A26813850F
