:020000040000FA
:10000000F80B002011070000E5070000952500000F
:10001000B5250000D525000015260000F5250000B7
:100020000000000000000000000000005D1C000057
:10003000E507000000000000E5070000E5070000FC
:10004000000000000000000000000000A9200000E7
:1000500000000000E50700000000000000000000B4
:10006000E5070000E5070000E5070000E5070000E0
:1000700000000000E5070000E5070000E5070000BC
:10008000E5070000E5070000000000000000000098
:10009000E5070000E5070000000000000000000088
:1000A000E50700000000000000000000E507000078
:1000B000E5070000E5070000E5070000E507000090
:1000C000E5070000E5070000E5070000E507000080
:1000D000E507000000000000E50700000000000048
:1000E000E507000000000000E50700000000000038
:1000F000E507000000000000000000000000000014
:1001000000000000E5070000000000000000000003
:1001100000000000000000000000000000000000DF
:1001200000000000E50700000000000000000000E3
:1001300000000000000000000000000000000000BF
:10014000E507000000015F5F02000000FE0B0000F9
:10015000F11C00008006000000000000000000000C
:100160000000000000000000000000000100FFC3CC
:10017000000000C4002200200000000001015F5FB9
:10018000030100001F010000210200000000000028
:10019000000000000100000001000000000000005D
:1001A000000000000000000000000000000000004F
:1001B0000000000070000000E04B00008000000024
:1001C000000F000001000000FD02000001015F5F60
:1001D000040100001F010000A9060000000000004B
:1001E000000000000000000001000000000000000E
:1001F00000000000000000000000000000000000FF
:1002000000000000EC4B000040000000050700006B
:0802100001000000850500005B
:1002200008B500F065F900B108BD00F08FF900F0E5
:100230009BF90028F8D1BDE8084002F021BD00BFBD
:10024000002310B582B01146CDE90033D0E9002378
:10025000402B4AD1138D84464FEA132EBEF1030F73
:100260003FD0BEF1010F10D0234C1068D4F8042405
:10027000AEF10203CDE90002082B39D8DFE803F024
:100280000E3113181D22272C090000F05BF902B073
:1002900010BD60466A4600F071F9F8E760466A46AC
:1002A00000F04CF9F3E760466A4600F033F9EEE7F8
:1002B00060466A4600F026F9E9E760466A4600F0C3
:1002C0002DF9E4E760466A4600F02CF9DFE7604666
:1002D0006A4600F02BF9DAE760466A4600F02AF930
:1002E000D5E7604600F012F9D1E76FF08000CEE765
:1002F0006FF08500CBE700BF201C00202DE9F04FF8
:100300000468A3B0002C40F0E3800546202221467B
:1003100002A802F0C9F9202221460AA802F0C4F975
:100320004022214612A802F0BFF9EA6905F11C0B30
:100330005B46042662B9032153F8042D4E1E32B9E0
:1003400036B1314653F8042D4E1E002AF8D00E4621
:10035000EA6A042705F12C0362B9032153F8042D3E
:100360004F1E32B937B1394653F8042D4F1E002ABB
:10037000F8D00F46002E00F0A680402300216868C8
:1003800012AA02F015FA402840F09D8012AB012E0F
:10039000CDE9023000F09A804FF00108534C0DF186
:1003A000080905F1100A01975AF8043FD4F800042F
:1003B000D91C21F003011A1D04EB000701EB000C0E
:1003C000C0F5806E60D871455ED8414668683A468F
:1003D000C4F800C402F0ECF908F101084645C9F878
:1003E0000C0049F8087FDFD1019F002F73D0D4F8AB
:1003F00000040DF12808DC460BEB870A4146024653
:100400004FF00009AB4601905CF8040FC2F5806E16
:10041000C31C10F1040F23F0030304EB020543D8BF
:10042000734541D8D445C1E900504FF001091A4441
:1004300001F10801E8D1DBF808303146C4F80024A6
:10044000C4F804340AAA3B4602A8FFF7F9FE5D4649
:10045000002681463146D8F80430686858F8082BE1
:10046000013602F0C3F9B742F4D10025D4F80024D4
:1004700029461E48C4F8045402F016F9C4F8005482
:10048000484623B0BDE8F08F002102461748C4F863
:10049000041402F009F96FF08C0900234846C4F8EF
:1004A000003423B0BDE8F08F0198B9F1000F02D0FD
:1004B0001046C4F80024002102460C48C4F8041475
:1004C00002F0F2F8E7E76FF08309D9E7074C8CE711
:1004D0006FF08509D4E7AB683146C4F804340AAA42
:1004E0003B4602A8FFF7ACFE8146BEE7201C002079
:1004F00008B528220021024802F0D6F8002008BDE5
:10050000282000206FF08500704700BF6FF0850045
:10051000704700BF6FF08500704700BF6FF0850027
:10052000704700BF6FF08500704700BF6FF0850017
:10053000704700BF6FF08500704700BF6FF0850007
:10054000704700BFD1E9000102F05CBB10B5044C5C
:100550000F222046034902F06BF8204610BD00BF71
:1005600054200020AC06000008B50121024802F02A
:10057000BBFA002008BD00BF502000206FF08500AE
:10058000704700BF70B50368A6B0B3F57D7F42D059
:1005900040F2F532934220D1002504463C22294600
:1005A00007A80295049506950395059502F07CF839
:1005B0003C22294617A8169502F076F8E269032135
:1005C000019504F11C03002A5AD153F8042D4E1E44
:1005D000002A58D12EB13146F7E76FF0850026B0DA
:1005E00070BD4FF0FF30E26A042504F12C0362B9BC
:1005F000032153F8042D4D1E32B935B1294653F865
:10060000042D4D1E002AF8D00D462843012807D995
:10061000012026B070BD00F0FDFC002026B070BDAA
:100620000423002160680DEB030202F0C1F80428E6
:1006300033D1022E14D0002145B3236A402B2CD88D
:1006400016A804AA04900198059300F0F5FCDDE9D2
:10065000042305460021606802F0C8F82846BEE77A
:100660006669402E1CD833460121606806AA02F054
:100670009FF8864211D106AB029302A90396DBE7ED
:1006800003200426AFE730460E46ACE72A46019821
:1006900000F0D2FC05462846A1E76FF080009EE7F7
:1006A0006FF089009BE700BF002070474D626564D2
:1006B00020544C5320332E362E3100000000000011
:1006C000A81D0000010000004924000021240000B2
:1006D000407C0000802000203C000000407C0000A6
:1006E000201C002000000000407C0000001C0020B6
:1006F0000000000070210020AF050000201C002039
:1007000018010000001C00200800000000F07EBD61
:1007100008B572B62A492B4A2B4B916083F309889E
:100720002A4B83F30A8883F30B88294B22A1D1E952
:100730000001284CC3E9000100F0CEF8264BA3428B
:1007400038BF9C4614D2DCF808306BB1DCE90012EB
:1007500000230439043A51F8040F013342F8040F1E
:10076000DCF808008342F6D30CF10C0CA445EAD364
:100770001A481B4B98421BD2002403F1FF3CACEB00
:10078000000C00F110032CF0070C08309C4450F8CA
:10079000043C53B1002350F8082C043A42F8044FAB
:1007A00050F8041C01338B42F8D308306045EED179
:1007B00001F05EFEAFF30080A5EDF5FEA5EDF5FEC0
:1007C0000000000000ED00E0F80B00200004002015
:1007D000F80B0020F4060000D0060000F40600002C
:1007E0000C070000EFF30880EFF309812DE9F00F0B
:1007F0006B46724600F0A6F908B0FFF787FFFEE7E8
:10080000EFF31083012B21D04FF47F02D2F8303167
:10081000D2F83421BFF34F8FC3F30B03092B21D040
:10082000114B186ABFF34F8FA0F1FF304FF47F02D6
:10083000B0FA80F0D2F830314009D2F83421BFF359
:100840004F8FC3F30B03092B0AD07047064B186A6E
:10085000BFF34F8FA0F1FF30B0FA80F0400970472E
:1008600062B6704772B6DBE70080FF00EFF31083DB
:10087000012B1ED04FF47F02D2F83031D2F8342150
:10088000BFF34F8FC3F30B03092B1BD0114BD86958
:10089000BFF34F8F00F001004FF47F02D2F83031E8
:1008A000D2F83421BFF34F8FC3F30B03092B07D0CA
:1008B0007047084BD869BFF34F8F00F001007047B5
:1008C00062B6704772B6034BD869BFF34F8F00F022
:1008D0000100E1E70080FF004FF47F028D4908B579
:1008E000D1F8D03043F00203C1F8D030D2F8303123
:1008F000D2F83421BFF34F8FC3F30B03092B00F061
:1009000090804FF47F02D2F83031D2F83421BFF317
:100910004F8FC3F30B03092B7BD04FF47F02D2F828
:100920003031D2F83421BFF34F8FC3F30B03092BBF
:1009300068D04FF47F02D2F83031D2F83421BFF3BF
:100940004F8FC3F30B03092B55D04FF47F02D2F81E
:100950003031D2F83421BFF34F8FC3F30B03092B8F
:1009600067D000226C4907E0D3F80003D3F80433C2
:10097000B2F5807F03600BD00868BFF34F8FD300C0
:10098000013003F57F0302F1010201F10801EBD10F
:10099000EFF31081FFF76AFF002857D1FFF730FF10
:1009A000002853D14FF47F025A49D1F88C3043F4D8
:1009B0004063C1F88C30D2F83031D2F83421BFF323
:1009C0004F8FC3F30B03092B00D008BD013A022A55
:1009D00037D9524852490368524A8B420CBF5A23B6
:1009E0000023C2F8103EC36A8B420CBF5A23002377
:1009F000C2F8003E08BD012AA7D10E224A4BC3F817
:100A0000E42EA2E7012A94D00122484BC3F87825AE
:100A10008FE7012A81D1454BC3F8382AC3F87825DE
:100A20007BE74FF050230022C3F81421C3F81821AC
:100A300067E7002101223D4BC3F80C17C3F81027CC
:100A40008FE73B4B9B5C002BC3D1BEE7BFF34F8FBF
:100A5000344BD3F80024012AFBD13248C3F80425D3
:100A6000D0F80034012BFBD101290BD04FF47F02C9
:100A7000D2F83031D2F83421BFF34F8FC3F30B03D8
:100A8000092B42D0FFF7F2FE58B1244AD36923F074
:100A90000103D361BFF34F8F224BD3F80024012A07
:100AA000FBD1FFF7ADFE68B11C4A136A23F0FF03C8
:100AB00043F020031362BFF34F8F1A4BD3F8002487
:100AC000012AFBD101290BD04FF47F02D2F830313B
:100AD000D2F83421BFF34F8FC3F30B03092B16D089
:100AE0000022104BC3F80425D3F80024012AFBD1BF
:100AF000BFF34F8F07490F4BCA6802F4E0621343FC
:100B0000CB60BFF34F8F00BFFDE772B6BAE762B6A6
:100B1000E6E700BF00ED00E00003FF000080FF00FB
:100B2000FA50FA500090035000A0035000400050CB
:100B3000082300000400FA057C22014901F078BD79
:100B40009C28002038B5244C6568244CC5F3080562
:100B500025601D46EFF3038363655306C4E9012056
:100B6000E1602DD502F00C020C2A08BF08460146B0
:100B7000206120221A4801F05BFD25B12022294680
:100B8000184801F055FD144B9A6AD96A986BC4E96C
:100B90001621206602F400406066586B9A62D962A2
:100BA00002F08002D3F8E410C4E91A02D3F8E80096
:100BB00001F04002C4E91C10A267C3F8E41038BD7C
:100BC000EFF39483990704D5130702D5EFF38980D7
:100BD000CDE7EFF38880CAE700ED00E09C28002015
:100BE000B0280020D0280020003918BF0121003A89
:100BF00018BF012210B40368084C890041EA420181
:100C00001C6359605A6842F001025A60BFF34F8F6B
:100C1000BFF36F8F002010BC704700BF04AAFF0015
:100C20004B68024613F01F0034D1126830B51468C7
:100C30000D68C4F30724A5422AD254685060956019
:100C400091F810C023F01F030CF0010C4CEA030CC8
:100C50008B7CDB0003F018034CEA030C8B68013B30
:100C600023F01F0ECB68497C5B00490003F00E03A4
:100C700043EA0E0301F0060141EA0C0143F00103CF
:100C8000D16013615460BFF34F8FBFF36F8F30BDDE
:100C9000012030BD0120704703681A6812F47F4FAD
:100CA000C2F3072C0AD000221146586859609A6096
:100CB00001329445D96019615860F6D1002070471F
:100CC0000722024BC3F80423704700BF00300050D6
:100CD000094BD3F80801D3F80031003818BF0120C0
:100CE00080000BB140F00100034BD3F804310BB18D
:100CF00040F00200704700BF003000500022074B58
:100D0000C3F80021D3F80011C3F80421D3F804116B
:100D1000C3F80821D3F80831704700BF00300050F5
:100D200000231720094903F5C0720133202B41F835
:100D30002200F8D100231720044903F5E0720133A3
:100D4000202B41F82200F8D1704700BF003000503E
:100D500010B4C90BB1EBD03F9DF8044010D343EA67
:100D60000423084C4FEAD03C43EA02105FFA8CF2AD
:100D700002F5C072614544F822000CF1010CF5D176
:100D800010BC70470030005010B401F1604100F118
:100D900060404FEA513CBCEB503F9DF804400ED3FD
:100DA00043EA0423074C410B43EA0210CAB202F59E
:100DB000E0728C4544F8220001F10101F6D110BC2B
:100DC000704700BF00300050C0F30E03C3F500436E
:100DD000B3FA83F3C3F11B03064AC0F3C730DBB297
:100DE00040F4807043F48073C2F80005C2F8043503
:100DF000704700BF00300050C0037047C00300F5CB
:100E0000FF407F30704700BF002070471F207047B1
:100E10004FF40040704700BF00F57F40C0304003F2
:100E2000704700BF034602485B031844704700BF89
:100E3000FF1FF81F402070475F2070474FF400509D
:100E4000704700BF054BC0F30730090241F0300185
:100E500000F5007043F82010704700BF00300050CC
:100E6000044BC0F30730090200F5007043F820106E
:100E7000704700BF0030005008B5FFF729FF014B55
:100E8000186008BD602F00200C22014901F0D0BB82
:100E9000602F002008B501F0C1F800B108BD01F0D5
:100EA0006BFF50B94FF6F771054AD3680B4043F01A
:100EB000BF6343F40033D36008BD45F2235008BD3F
:100EC00000ED00E00020704708B500F085F872B62C
:100ED00020BFFDE70020704700207047704700BF2B
:100EE00010B40446034A044B00201460196010BC7F
:100EF000704700BF702F00206C2F00202DE9F04FAD
:100F0000D0E90712D0E90565D0E90EBA476A304C3E
:100F10008BB02368D0F828C0D0F82CE0D0F830800F
:100F200001920297426B076DCDF80CC0CDF810E02E
:100F3000CDF81480D0E912ECD0E91098C3E907C7C6
:100F4000C3E9058EC3E9012BC3E903A9C3E9096518
:100F5000019A029FDDF80CC0DDF810E0DDF8148086
:100F6000D9621A635F63C3F838C0C3F83CE0C3F8C2
:100F70004080816ED0F858C0D0E91775D0E91C6266
:100F8000C3E915C7C3E91765C3E91912EFF38882EE
:100F90005A64EFF389814268C3E91212EFF3948136
:100FA000026819651A6707A8FFF76EFF0122236818
:100FB00007980849D8660C681A70640864002046CF
:100FC00021462246234603F0E1FD0BB0BDE8F08F39
:100FD000702F00206C2F002000B5A1B001A8FFF7F2
:100FE000ABFD029B33B15B0604D4019B23F00203EB
:100FF000052B02D021B05DF804FB054B1B68002BCC
:10100000F8D001A8FFF77AFF21B05DF804FB00BF1C
:101010006C2F0020BFF34F8F0549064BCA6802F4BE
:10102000E0621343CB60BFF34F8F00BFFDE700BF0B
:1010300000ED00E00400FA050346012B084604D049
:10104000042B08D023B103207047114600F08CB860
:10105000114600F029B870B5D1E90053082B20D112
:101060005468042C1DD14FF0FF3316682968336093
:10107000B9B16B68ABB126237422012000F096FE53
:1010800078B9224623230120696800F08FFE0446C8
:1010900038B9D5E90001FFF723FF03462046336046
:1010A00070BD022070BD00BF43680C2B25D14B687A
:1010B000042B22D14FF0FF3370B504680D6821680E
:1010C0002B60C1B1A268B2B10623012000F06EFE10
:1010D00088B9234B616803F1200CD3E900028142F7
:1010E00003F10803024404D3A66801EB060E9645FB
:1010F00005D96345F1D1022070BD0220704700F18F
:101100007F4303F50043B3F5805F20681ED241EAB8
:1011100006039B0721D1134B9E451ED8CEB1043147
:10112000021F081A0AE072B68158BFF34F8F62B6E9
:10113000A36842F8041F043BA36053B1EFF310838C
:10114000012BF0D18158BFF34F8FF1E7324601F008
:101150006FFA002318462B6070BD032070BD00BFDE
:101160000C2300000090FF0043680C2B11D14B684A
:10117000042B0ED110B4012400680A6803681460BF
:10118000013303D102238068136020B1022010BC18
:1011900070470220704710BC1060704700000000CC
:1011A000174BD0B51B681C68A36813F4406F1DD0A3
:1011B00011A7D7E9006700F053FF236B22691A4497
:1011C00022F00702A2F1080142E9026781F30988CF
:1011D000073323F0070383F30B88BFF36F8F094BAB
:1011E000E268094901F046F80020D0BD00F00EF891
:1011F000DEE700BFAFF30080A5EDF5FEA5EDF5FE3F
:10120000A4290020F80B0020011B0000FFF75CBEA2
:1012100008B5114B83F30A88104800F0EBFEC0B903
:10122000FFF738FEA8B9FFF74DFE90B9FFF752FE61
:1012300058B9FFF753FE00F059FD00F0F3FF00F03E
:1012400041FD00F0FBF8002008BDFFF745FE002837
:10125000EFD0FFF7DBFFF2E70004002018290020A1
:1012600070B40C4E75689DB101462B46002403E016
:1012700098681C4650B103461A6852688A42F7D1F2
:101280001CB19A687360A2609D60184670BC70477C
:101290002846FBE79C29002038B52AB10B689B68DB
:1012A000DB0514D5002038BD0C4B04461D688DB1FC
:1012B0002A68906958B10023343202E00133834236
:1012C00003D052F8041FA142F8D19842EAD16FF03E
:1012D000FC0038BDFFF79AFFEAE700BFA429002011
:1012E0002DE9F047DFF8B0900746D9F800500C46DA
:1012F0009046002D46D02B689B6813F4406F14BFB6
:1013000001220022002C38D0610036D5234B04F096
:101310001F0153F8215085B32B6829465868FFF701
:10132000BBFF064688BB2B68C4F307249A685205A6
:1013300020D5DB689C4220D1EFF3108A72B600F012
:101340007DFC04468AF3108810B3302200210C3053
:1013500001F0AAF9D9F8003020466360A560C4F80E
:10136000148000F05BFC0023206123603C60304669
:10137000BDE8F087DB689C42DED96FF0800630461E
:10138000BDE8F087FFF742FFB5E76FF08106EEE7B3
:101390006FF08206EBE700BFA42900201C29002083
:1013A00010B500F03FFC044600F050FC70B9094B4A
:1013B0001B6813B11B6803B15868A3685B681B689E
:1013C0005B68834218BF0024204610BD00242046DD
:1013D00010BD00BFA4290020034B186810B100689D
:1013E00000B14068704700BFA4290020074B10B52A
:1013F0001C683CB123689B6813F4406F14BF012044
:10140000002010BDFFF702FFF4E700BFA429002071
:1014100038B5054660B9084B1C683CB124682CB14E
:101420006468B5EBD47F01D0FFF7F0FE204638BDED
:1014300000F0DEFB0446F4E7A42900202DE9F0418A
:1014400000F0FAFB0023144E144FDFF85480736051
:101450007B6000F0D7FB03E02946204600F0AAFBA2
:10146000304600F02FF8044690B1394680234246BA
:1014700000F0C8F80546204600F022F9214651F850
:10148000040B00F04DFC0028E6D0FFF7BFFEE3E7B9
:10149000BDE8F041FFF784BEA82900209C29002068
:1014A0001C290020002300F1280252F8041F29B152
:1014B000C16FD2F840C01944C1F804C00833202BD2
:1014C000F3D17047F8B50646002800F08D80484FEC
:1014D0003C6814F1310F00F28480464A04F1300375
:1014E00011688B427DD2E369A26903EB83030E325C
:1014F0001344226A02EB42021344626AC2EBC20244
:1015000013449B00E31801D2994201D2FFF77EFEFB
:10151000236839491A0C12048A4246D19BB2B3F5AA
:10152000817F49D26368002B4BDBD4E90A239A42BE
:101530004DDCA36813F4406F16D0756815B913E03D
:10154000ED698DB12B689A6812F4406FF8D0E16AAA
:101550009A6A9142F4DBA26ADB6A9A42F0DCFFF7F6
:1015600055FEED69002DEDD1244A254B156819680B
:1015700005F120038B42136030D8E369A26903EBC5
:1015800083030E321344D4E9081201EB41010B44EA
:10159000C2EBC20213443A682C6002EB8302736808
:1015A0002846EB613A607560F8BDFFF72FFE2368AF
:1015B0009BB2B3F5817FB5D3FFF728FE6368002B9C
:1015C000B3DAFFF723FED4E90A239A42B1DDFFF72D
:1015D0001DFEA36813F4406FAFD1C5E7FFF716FEF9
:1015E000CBE700252846F8BDFFF710FE6FE700BFE8
:1015F000882000203423000000005F5F842000204A
:10160000302300002DE9F04F83B08046894617460D
:101610000193002846D0002944D0D8F8002026485D
:1016200002F13805D2E906310468009205EB830522
:10163000A1B3224B01EB41021B6804EB82029A42E8
:10164000026032D84FF0000B44B30023AE680BF1B8
:10165000010B16F4007FC4E90058A36005F11405DE
:101660005FFA86FA11D017B1019B802B01D0FFF7EA
:10167000CDFD16F0E00F02D157F82A200AB1FFF78E
:10168000C5FD009BD96947F82A40D9F8042059457F
:10169000A260C9F8044004F10C04D6D8002003B0BD
:1016A000BDE8F08FFFF7B2FDB7E7FFF7AFFD009B96
:1016B000D9690029C6D1F1E7802000202C23000041
:1016C000704700BF8230012800D9704708B5FFF786
:1016D0008DFE00B108BDBDE80840FFF797BD00BF13
:1016E000F8B505460F46FFF75BFE0446002845D0D7
:1016F000A668002E47D0E368991C16D05A1C18D152
:101700008FBB15F1810F23D0EFF3108672B62946F7
:10171000204600F047FA054686F310882368022B1E
:101720001CD0002328462360F8BD02232360002537
:10173000EAE7002B1FDB2046FFF7B4FE33683D4687
:101740009B689B0544BF0223236015F1810FDBD109
:101750006369002BD8DBFFF759FDD5E7204600F081
:1017600077FA2846F8BD17F1820F0FD017F1830FD3
:1017700001D13D46C8E7FFF749FDD8E7FFF746FD31
:10178000A668002EB7D1FFF741FDB4E702233D461E
:101790002360B9E708B5FFF797FB6FF0830008BD3A
:1017A0002DE9F04F97B0CDE901300B0E714C03934A
:1017B0000BB2002BD4F80080C1F30267C1F30249D9
:1017C000C0F293801646029A8B420D46D36000F019
:1017D000948007EB0903042B00F28780CB0F4FEABC
:1017E000431BFC0031464BF002032246D8F80400AC
:1017F000039300F0DBFA0146002876D1202206A8E8
:1018000000F052FF4FEAC90A3146224606A800F00E
:101810000FFF52460199D8F804004BF0060300F080
:10182000C5FA0646002860D1014620220EA800F025
:101830003BFF524601990EA800F0FAFE2B0E13F062
:10184000060F1ED04FF0010E06AB77451C440DF17C
:10185000200C10D963465CF8080CD3E900120A4446
:10186000904203F1080304D25CF8042C0244914234
:101870003BD3A342F1D10EF1010E77450CF1080CD8
:10188000E8D8029B15F0006403F12C0A4FF0100217
:1018900003F11C00CDF810A033D1214600F004FF65
:1018A00021461022504600F0FFFE002F39D0029B47
:1018B000CDF814B006ACDDF80CB003F1180A0AE05C
:1018C0006368BE424AF8043F54F8083BCAF8300047
:1018D000CAF8203023D25B4662682168D8F8040039
:1018E000013600F063FA0028EAD06FF0800017B0EC
:1018F000BDE8F08FDDE90123DA67002017B0BDE80D
:10190000F08F002100F0D0FE10220021049800F09A
:10191000CBFE3FB322234FF0200B0393C7E7DDF844
:1019200014B0BBF1000F1DD10026B9F1000FE1D0BA
:10193000049D0EAC46F0060605EB890908E06368D5
:1019400045F8043B54F8083BA945E863EB62D1D065
:10195000334662682168D8F8040000F027FA0028AE
:10196000EDD0C2E7002D03DBC5F3C0467601DCE70E
:101970002026DAE7A42900202DE9F04182B098461C
:101980000E4617460546FFF731FDFFF741FD294694
:10199000024601A8FFF7A4FC044618B1204602B095
:1019A000BDE8F08143463A4631460198FFF7F8FE1C
:1019B000044628B16B00F1D5019800F049F9EDE734
:1019C000019800F0C7F80446204602B0BDE8F08157
:1019D00040F20110704700BF70B50546FFF706FDE5
:1019E00006462846FFF73CFC48B10446014632460D
:1019F0002846FFF751FC10B92368D86870BD002055
:101A000070BD00BF2DE9F0411D4C0D46D4F800809B
:101A100016461F46FFF7C4FC044658B3E368002B84
:101A200025DB032D20D804EB8504E569E36CED1A72
:101A300002D12846BDE8F08106233A463146D8F85F
:101A4000040000F0B3F9C0B9BD4228BF3D46E36CC5
:101A5000E16B304619442A4600F0EAFDE36C284663
:101A60002B44E364BDE8F081FFF7D0FBDBE7FFF731
:101A7000CDFBD6E7FFF7CAFBD0E7FFF7C7FBE3E7ED
:101A8000A42900202DE9F0411C4C0F46D4F8008019
:101A900016461D46FFF784FC044660B3E368002B3E
:101AA00026DB032F1BD804EB8704E36AE26E9B1A44
:101AB000AB421AD302232A463146D8F8040000F07C
:101AC00075F978B9E36EE06D31462A46184400F0A6
:101AD000AFFDE36E00202B44E366BDE8F081FFF725
:101AE00095FBE0E7FFF792FBECE7FFF78FFBE1E701
:101AF000FFF78CFBD5E7FFF789FBCFE7A429002090
:101B0000124B2DE9F041DFF848805C680646D8F8B2
:101B100000709CB101252368986810F400700AD108
:101B20006269012A07D0DB68C8F8004013B1984702
:101B3000002808DB6561E469002CECD13046C8F868
:101B40000070BDE8F081FFF761FBF3E7A8290020F2
:101B5000A429002000B338B583680446CBB11A68C5
:101B6000BAB15D68ADB10E4B6869AC611D6048B932
:101B70002B68DB6823B1984700280ADBA3681A6842
:101B800001236B61136904F10C0098470123236062
:101B900038BD6FF0800038BD6FF08000704700BF27
:101BA000A42900204268024B08461A60704700BF13
:101BB000A429002010B5002304460068A3618268B0
:101BC000636112F4406F03D0130502D4044B1C6010
:101BD00010BDD0E90A0100F005F8014B1C60F7E7E1
:101BE000A4290020014BC3E900017047B02900205F
:101BF000034BD3E900308342C8BF0020704700BFC9
:101C0000B029002008B500F01FFA034B986000F0DF
:101C100021FA80F3888808BD00ED02E04FF480507F
:101C2000704700BFB0F5805F03D1EFF30B808038C1
:101C300070470020704700BF704700BFEFF30B8074
:101C400000F1800383F30B88704700BF00207047CA
:101C5000EFF30B83803B83F30B887047EFF308802F
:101C60007146EFF30982EFF30B830CB406B400F076
:101C70000DFB8646009900F0080001F00801401AAB
:101C800002DC12DB04B070471EF020031CBF2DE9FC
:101C9000F00FBDF1080D0A4C254626462746A04602
:101CA000A146A246A34630B4704704B030BC1EF033
:101CB00020031CBF1DF1080DBDE8F00F04B07047F4
:101CC000A5EDF5FE00216020074BDA6882F07F4227
:101CD00082F47F0242F48042DA6019765976D9762E
:101CE000D97783F82200704700ED00E0704700BF0D
:101CF000009A0A4B9A420FD10122904301460246B4
:101D00000346044605460646074680468146824607
:101D10008346844686460447FEE70000A5EDF5FEAF
:101D200000283DD00B4600293AD08268016A12F49F
:101D3000406F14BF0122002242F002022DE9F0415F
:101D400006461A6049B30024DFF85C80254600F19E
:101D5000380703E0A94204F10C041ED9D6E9063283
:101D600002EB820207EB830303EB82031A199268EA
:101D700001351207EED51B59434503D043F6DA303F
:101D8000BDE8F081D8F800000028E3D00121FFF77A
:101D900059F8316A0C34A942E0D80020BDE8F0813E
:101DA00043F6DA30704700BF90200020002A00F090
:101DB000A7802DE9F0410D4621B3144603F0060239
:101DC000062A23D09A071DD508269B0648BF46F051
:101DD0001206870758BF46F00406C10709D5EFF37E
:101DE0009483DA074CBF46F0040626F0040646F05A
:101DF000120632462146284602F048FE40B1002035
:101E0000BDE8F0814CF2DA20BDE8F0810126DCE784
:101E100045E800F32C441F0E1B0204F1FF3141E89A
:101E200000F24FEA126002D46FF07F00E8E713027D
:101E3000FAD58742F8D045E800F841E800F10F0EE6
:101E4000FEF7E2FF4FEA1868804503D3FEF7DEFF96
:101E5000874231D9FEF7EEFF8045E5D3FEF7ECFF70
:101E60008742E1D84046FEF7DDFF0346C5F1010198
:101E700028463246194402F009FE0028D4D008F161
:101E800001050DE02846FEF7C7FF8046FEF7D6FFA6
:101E9000324601464046013502F0F8FD0028C3D025
:101EA000AF42EFD83846FEF7B7FF3246211A02F0AC
:101EB000EDFD0028A3D1B7E74046FEF79FFF03469C
:101EC000C5F1010128463246194402F0DFFD002821
:101ED000AAD008F101050DE02846FEF78DFF8046E7
:101EE000FEF796FF324601464046013502F0CEFD30
:101EF000002899D0AF42EFD83846FEF77DFFD4E7EF
:101F00000020704770B5012586B03148FEF7C4FE49
:101F100000224FF440762F4C8DF8162023682C4871
:101F200001932B4423602C4B01A9DA681B690495AB
:101F3000ADF8146002920393FEF772FE002842D1BE
:101F400023688DF81600019301332360234B20484A
:101F50000293234B01A90495ADF814600393FEF797
:101F60005FFE00282FD123688DF8160001930133FE
:101F700023601C4B164802931B4B01A90495ADF836
:101F800014600393FEF74CFEE8B9236840F2011297
:101F9000019301332360154B8DF816000293144B07
:101FA0000B480393022301A9ADF814200493FEF714
:101FB00037FE044638B92A4629460548FEF714FE7E
:101FC000204606B070BD43F6DA3006B070BD00BFE3
:101FD0008C200020B8290020B0230000E02300005E
:101FE000804D0000C0060000C0060000001C00205C
:101FF000201C002010B5044600F0A0F800F0AEF858
:1020000040B900F0E9F828B9FFF77CFF10B90223C6
:10201000236010BD43F6DA3010BD00BF08B500F0F4
:1020200051F868B900F058F850B900F061F838B9C3
:1020300062B600F05FF818B900F074F800B908BD96
:1020400043F6DA3008BD00BF014B1868704700BF87
:10205000B0230000014B1B6818687047B0230000D4
:10206000014B1B6858687047B023000008B5FEF7A5
:1020700003FFFEF743FE0A4B5B68103B1A060AD4C7
:102080000121DAB25309074802F01F02603301FA56
:1020900002F240F82320BDE80840FFF7B7B800BFC0
:1020A00000ED00E000E100E0EFF30880EFF30981CC
:1020B0002DE9F00F6B467246FEF744FD08B0FFF7BE
:1020C000D5FFFEE70020034BD8765A6A42F470220F
:1020D0005A62704700ED00E00349044BCA680020D3
:1020E00092B21343CB60704700ED00E00800FA05A0
:1020F0000020704700234FF0FF30094903F1A00290
:102100000133102B41F82200F8D1D1F880320020A1
:1021100023F00803C1F88032D1F88032704700BF45
:1021200000E100E008B5FEF7CBFD0822024BC3F842
:1021300080211A60002008BD00E100E0064BD3F8C2
:10214000D02022F00102C3F8D020D3F8D02042F0F2
:102150000202C3F8D020704700ED00E030B5012442
:1021600083B0FEF7DDFD174D2246052347F6FF71CC
:1021700000200094FEF7ECFD224607234FF00050AC
:1021800011490094FEF700FEA96868680723002241
:102190000094FEF7DDFD072300220C490C48009453
:1021A000FEF7F2FDD5E903010139FEF70DFE4FF40C
:1021B00078200623002207490094FEF7C9FD00207D
:1021C00003B030BDB0230000FF7F0020FFFF0320DD
:1021D00000800020FFDF0F0038B50F4C04F17805B8
:1021E00054F8040F0021FEF73BFEAC42F8D100206A
:1021F000012240F201154FF48071084B084CC3F8DE
:102200008004C3F88424C3F8C004C3F8C424C4F809
:102210004055C3F8401438BD34230000003000504E
:10222000009003500122014B1A607047BC29002026
:1022300010B504460B4A062312686168506822896B
:10224000FFF7B4FD18B9084B1B68012B03D06FF0E2
:102250008603236010BDFFF7BFF86FF0860323608D
:1022600010BD00BFA4290020BC29002004460D4653
:10227000A546284783F3088896460222EFF3148385
:10228000134383F31488BFF36F8F0847F8B501F049
:102290000C030C2B0CBF154605464A060C4601F0F4
:1022A00008061FD58B06B6FA86F358BF2835AA69EB
:1022B0005B0912F8026CC6F38012934206F0A00785
:1022C00005D147B16FF083032B602046F8BDFEF7C0
:1022D0009DFF002FF6D166B1032EF3D12846FFF7FC
:1022E000A7FFF2E7FEF792FF002EEBD1FEF78EFF7D
:1022F000E8E7FFF7A3F8044602482146FFF7B6FFD8
:10230000E3E700BFF80B0020000001000002FF001F
:102310002C0000003001FF00080000004001FF0019
:102320000C0000000881FF00F8020000E8210020F6
:10233000D021002018020000004000500050005042
:10234000008000500090005000A0005000B00050ED
:1023500000E0005000F0005000000150001001505B
:1023600000400150005001500070015000800150A9
:1023700000B0015000C0015000D0015000E00150F9
:1023800000F00150000002500010025000200250E6
:1023900000300250004002500060025000800250A5
:1023A00000A00250009003500025845000A003506C
:1023B0000080000000800000FF7F0F00007C000014
:0C23C0000080000000800F00FFDF0F0015
:1023E0000348044B834202D0034B03B118477047A4
:1023F0007021002070210020000000000548064BDD
:102400001B1AD90F01EBA301491002D0034B03B1F2
:102410001847704770210020702100200000000044
:1024200010B5064C237843B9FFF7DAFF044B13B11C
:102430000448AFF300800123237010BD80280020E2
:10244000000000007C4D000008B5044B1BB104499E
:102450000448AFF30080BDE80840CFE7000000006B
:10246000842800207C4D0000A3F5803A704700BF0F
:10247000174B002B08BF134B9D46FFF7F5FF0021BC
:102480008B460F461348144A121A00F00DF90E4BF2
:10249000002B00D098470D4B002B00D09847002010
:1024A000002104000D000D48002802D00C48AFF3B5
:1024B000008002F0C7FA20002900FEF7A9FE02F012
:1024C000ADFA00BF0000080000000000000000009E
:1024D000F80B0020702100202C38002000000000A4
:1024E00000000000002383F300887047009A074B28
:1024F0009A4208D110B500F00BF9FFF7F3FF06BCC4
:1025000096460C46744700F08FF90000A5EDF5FEE5
:10251000009A074B9A4208D110B500F009F9FFF76D
:10252000E1FF06BC96460C46744700F07DF90000BA
:10253000A5EDF5FE0CB4029A084B9A420CD14FF06F
:10254000004319430CBC10B500F006F9FFF7CAFFB1
:1025500006BC96460C46744700F066F9A5EDF5FEFC
:10256000009A044B9A4202D103490868744700F06C
:102570005BF90000A5EDF5FEDC4B0000009A034B73
:102580009A4200D1744700F04FF90000A5EDF5FE26
:10259000FEF73CBEEFF30880EFF309812DE9F00F61
:1025A0006B467246FEF7CEFA08B0FFF7F1FFFEE782
:1025B000FEF72CBEEFF30880EFF309812DE9F00F51
:1025C0006B467246FEF7BEFA08B0FFF7F1FFFEE772
:1025D000FEF71CBEEFF30880EFF309812DE9F00F41
:1025E0006B467246FEF7AEFA08B0FFF7F1FFFEE762
:1025F000FEF70CBEEFF30880EFF309812DE9F00F31
:102600006B467246FEF79EFA08B0FFF7F1FFFEE751
:10261000FEF7FCBDEFF30880EFF309812DE9F00F21
:102620006B467246FEF78EFA08B0FFF7F1FFFEE741
:10263000CAB310B540EA0104A40703460CD004E075
:1026400043EA010C1CF0030F06D011F801CB013A4C
:1026500003F801CBF4D110BD032A17D98C46A2F19F
:10266000040E2EF0030E04318E44A3EB0C03DCF8B1
:10267000004043F80C4003EB0C040CF1040CE6455D
:10268000F5D112F00302E6D06146231D8C461144B9
:10269000A3EB0C039CF8002003F80C200CF1010CB8
:1026A0006145F7D110BD704730B50C0444EA0164B0
:1026B0000C4344EA012472B183070DD084465FFACB
:1026C00081FE02E013F0030F07D06346013A03F8DE
:1026D00001EB9C46F6D130BD0346032A11D9A2F185
:1026E000040E2EF0030E03F1040CE6441D461C609C
:1026F000634673450CF1040CF8D112F00302EAD0E2
:102700002B1DC9B21A4403F8011B9A42FBD130BDFC
:1027100008B5EFF30583C3F308031BB9BDE8084010
:10272000FFF756B9FEF772FDBDE80840FFF750B954
:1027300010B50446EFF30583C3F3080323B920461D
:10274000BDE81040FFF748B9FEF760FD2046BDE840
:102750001040FFF741B900BF2DE9F04104460D4696
:1027600016461F46EFF30583C3F30803ABB9DFF842
:102770003C803B46294620463246D8F80050FFF7B9
:10278000FBF8D8F8003004469D4209D0BDE8F0417E
:102790009B6901461869FEF7A3BFFEF737FDE6E720
:1027A000FEF790FF2046BDE8F08100BFA42900207D
:1027B0002DE9F04104460D4616461F46EFF305830A
:1027C000C3F308033BB93B46324629462046BDE8E1
:1027D000F041FFF717B9FEF719FD3B46324629468F
:1027E0002046BDE8F041FFF70DB900BF2DE9F041EB
:1027F00004460D4616461F46EFF30583C3F3080350
:102800003BB93B46324629462046BDE8F041FFF73A
:1028100039B9FEF7FBFC3B46324629462046BDE867
:10282000F041FFF72FB900BF08B5EFF30583C3F3FD
:1028300008031BB9BDE80840FEF7ACBFFEF7E6FC95
:10284000BDE80840FEF7A6BF0F4B02689A4206D1CA
:10285000C269A3F11023A3F1EF139A4201D0012022
:1028600070478368012BFAD8C36813B10269934299
:10287000F5D043692BB18069C01AB0FA80F04009E5
:1028800070471846704700BF55AA00FFF8B5164BB1
:10289000996829B10846FFF7D7FF08B9CB680BB193
:1028A0000120F8BD0B69002BFBD0104D104E1A68AB
:1028B000AA42F5D1DA69B242F2D19A68012AEFD878
:1028C000DC68002CECD01A699442E9D05F691FB132
:1028D000D3F818C06745E3D08C42E1D11946002AED
:1028E000DFD01346E3E700BFC029002055AA00FF50
:1028F000669911EE002865D070B5374D2B68002B16
:1029000054D0AA68002A51D08342014661D86A682F
:10291000134498425DD2A0F120063046FFF794FFA1
:10292000002856D151F8183C012B52D151F8144CC3
:1029300041F8180C51F8100C002C38D0A368002B6B
:1029400035D151F81C2C6368203213442061636038
:1029500000B1C460202200213046FFF7A5FE2069A7
:10296000F0B18368E3B9264642687368134402698C
:10297000203373603261D6E9051331B38B6103B143
:102980005961416983697161B361E1B18E61B36974
:1029900003B15E6102B1D66020220021FFF784FE00
:1029A0002B699B0702D5FFF771FF90B970BD10B17D
:1029B0008368002BD8D0EB6841F8083C03B15E6116
:1029C000EE60EDE77047EE60E2E7002BD9D0EB60F8
:1029D000D6E7012002F022F8C02900202DE9F84FA7
:1029E0003E4D2B68EC68002B40D0AB68002B3DD0EF
:1029F00000283BD0002939D001FB00F6B6FBF0F0EF
:102A0000884233D1301D31D8B10733D026F00301CD
:102A1000043114B92BE0A4694CB363688B42FAD338
:102A2000D4F808C0BCF1000F55D1A0695B1A232B64
:102A30008146676920D80123A360002F47D0B86181
:102A4000A06900B1476100232A696361D207A361CD
:102A500003D5FFF71BFF00283DD12034324600216B
:102A60002046FFF721FE2046BDE8F88F00242046CF
:102A7000BDE8F88F3146CCE7D4F8108001F1200E84
:102A8000DFF85CB0DFF85CA004EB0E02203BC2E98B
:102A9000013CC2E9034844F80EB0C2F81CA0B8F1EA
:102AA000000F01D0C8F80C20C2F81890576187B108
:102AB000BA61906900B142610023616029692261B5
:102AC0000122C4E90533CB07A260C6D5C1E7E8609F
:102AD000B7E7EA60EEE7012001F0A0FFC02900207F
:102AE00055AA00FF669911EE38B50D461422002153
:102AF00004461148FFF7D8FD1049114800F030F89E
:102B0000232D18D914F0030304D0043DC3F10402AB
:102B10001D4414442A4600212046FFF7C5FD064BFC
:102B2000084A0948A5F12001C3E901541C60E0618D
:102B3000C4E90021DC6038BDC0290020F528000070
:102B4000DD29000055AA00FF669911EE00207047AC
:102B5000704700BF014B1B68184700BF982000203A
:102B600010B40446034A044B00201460196010BCE2
:102B7000704700BF9C2000209820002039B1044BF2
:102B80000A4610B500211B680446984710BD7047DF
:102B9000A020002010B5044628B121B1044B0A46FC
:102BA0001B68002198472046BDE81040FFF7D2BFC0
:102BB000A020002038B50446406A10B1A16AFFF792
:102BC000E9FF0022237FC4E90922012B0FD0023B39
:102BD000012B13D8236A012B0CBF15466FF0960505
:102BE0002C2200212046FFF75FFD284638BD236ACE
:102BF000002B0CBF00256FF09605F1E76FF09605EE
:102C0000EEE700BF074B5A78022A02D06FF0880027
:102C100070471A78072AF9D10A460146181D00F0B4
:102C200097B800BFD429002010B5134C237859075A
:102C300044BF03F0FB0323709A0716D4637883B96B
:102C4000002304210D486370FFF798FF2378DB070A
:102C500000D410BD00F078F8237823F0010323702E
:102C600010BD064800F086F8EAE700F053F8237834
:102C700023F002032370E1E7D4290020D8290020A3
:102C800038B51E4C62782378022A1AD0DD071CD58D
:102C9000980725D562783AB15A075CBF43F0040320
:102CA00023700025284638BDD907F5D5144800F013
:102CB0004DF8022305466370F0B1FFF7B5FF2846D3
:102CC00038BD072BEDD0DD07E2D400F03BF82378C8
:102CD000054643F0010323700028EED19807D9D4AC
:102CE00000F010F82378054643F002032370002813
:102CF000D0D0FFF799FFE2E72378CDE7D429002071
:102D0000D82900200122024B002083F8802570473B
:102D1000DC2900202DE9F041DFF82480012744461A
:102D2000032608F5B0652762267720462C34FFF786
:102D300041FFAC42F7D1002388F88035BDE8F0812F
:102D4000DC29002000207047704700BF002070473A
:102D500010B582B0002001AB144600F05FF830B926
:102D6000019BA34218BF6FF0930002B010BD6FF03B
:102D70009200FAE70020704710B50C4C236813B19D
:102D80000B4B1B682BB900F089FC30B90122084BB2
:102D90001A6001232360002010BD0138062801D9E4
:102DA000044810BD044B53F8200010BD782F0020BC
:102DB000742F0020FE8FFFFF044C0000144B2DE900
:102DC000F043002814BF04461C46124F236883B00A
:102DD000BB4219D016460D4620464FF4147104F13B
:102DE000040900F047F804F58E78484600F0CEF864
:102DF000404600F019FA2B464A46404606490096DE
:102E000000F034FB08B92760002003B0BDE8F08370
:102E10007C2F0020A5BCC95A1130000070B50D4CA4
:102E20001D46002814BF064626460B4B306882B06C
:102E300098420DD106F58E70002633460096144652
:102E400000F03EFB002818BF34462C6002B070BD75
:102E50000248FBE77C2F0020A5BCC95AE88FFFFF82
:102E600038B131B1002201440346013081421A7069
:102E7000FAD1704738B131B1002201440346013024
:102E800088421A70FAD170472DE9F043202B1D4675
:102E90000646884691468BB026D8DBB202AF8DF845
:102EA0000480B04658F8041B8DF8053021B940461F
:102EB00001F038F9044640B901230222404633604C
:102EC00001A901F043F9044638B138462021FFF743
:102ED000D1FF20460BB0BDE8F0832A464946404664
:102EE00001F034F90446F0E702AF1946104600231A
:102EF0003A4601F0B1FA04460028E6D12023B9464B
:102F00001D46CCE72DE9F041D0F8F830A6B0002BF3
:102F1000D8BF02AE31DD05460027D0F80C4102AE25
:102F2000A4F101089022D5F8FC403146D0F8000108
:102F300001AB0197B8FA88F8A0474FEA5818044641
:102F400020B9019B53B9B8F1000F16D0304690213B
:102F5000FFF790FF204626B0BDE8F08101463246DB
:102F60002846FFF791FF58B9D5F80431019A134468
:102F7000C5F80431B8F1000FE8D16FF03C04E5E783
:102F80000446204626B0BDE8F08100BF70B500259C
:102F90000446142204F588762946C0F8F850FC301F
:102FA000FFF782FB082229463046FFF77DFB144BD2
:102FB00030461B689847204640F8045B01F098F8BB
:102FC000104B30461B689847C8B9D4F8F830AB426C
:102FD0000FDC03EB830204EB82022021C2F8000124
:102FE0000120C2E9421008490133C2F8FC10C4F8BC
:102FF000F830064B3046BDE870401B68184770BD7E
:10300000C0200020BC200020F53F0000B820002098
:103010002DE9F047202A88B07AD83F4B00F588790F
:1030200004461B6848461746884698470546F8B93F
:1030300040F20116D4F8F830002B65D02046FFF797
:1030400061FF054638B9D4F8F830002B14DC013E96
:10305000F2D16FF03B056E4620213046FFF70AFFA4
:103060002E4B48461B689847002818BF6FF01D0577
:10307000284608B0BDE8F087D4E94132934203D333
:10308000D4F80C21012A02D0013ED7D1E1E71F2B51
:10309000FAD96E4601462022304604F1040AFFF7B1
:1030A00003FB3146504601F07BF805460028D3D19A
:1030B000504601F031F8504601F01AF829465046C2
:1030C00001F030F805460028C6D15046202231468E
:1030D00001F03CF805460028BED1034632462021C7
:1030E000304601F0B9F905460028B5D1D4F8F830DA
:1030F0003A46002BC8BF002340463146C8BFC4F83B
:103100000431FFF795FAA7E76FF03F056E46A3E796
:103110006FF03B05ACE700BFBC200020B8200020CA
:1031200070B590B000287AD03E4C0D464022362132
:1031300006462046FFF7B8FA40225C21A018FFF7A8
:10314000B3FA2B1DA34203D904F144039D4252D389
:103150002B682268534023602B68226C5340236401
:103160006B686268534063606B68626C5340636471
:10317000AB68A2685340A360AB68A26C5340A364E1
:10318000EB68E2685340E360EB68E26C5340E36451
:103190002B69226953402361226D2B6953402365BB
:1031A00062696B69534063616B69626D534063652B
:1031B000AB69A2695340A361AB69A26D5340A3659B
:1031C000EB69E2695340E361EB69E26D5340E3650B
:1031D0000021304600F0A6FF044628B940223046C0
:1031E000104900F0B3FF044640216846FFF742FE55
:1031F000204610B070BD631E04F13F01013D1F3435
:1032000015F8010F13F8012F42401A7011F8012F21
:103210002878A34282EA00020A70F1D1D8E76FF061
:103220007304E5E7CC31002010B54FF49A72002109
:103230000446FFF739FA42F21072044BC4F8202119
:1032400004F596701B68BDE810401847C0200020A8
:103250002DE9F04F04468846914695B0002900F0CC
:10326000A780002A0CBF0126022600238DF80C300F
:10327000002C00F09F80DFF844A104AF0AF1400B5E
:103280000021204600F04EFF034648B13846202179
:103290000193FFF7EFFD019B184615B0BDE8F08FD5
:1032A00040225146204600F051FF03460028EDD150
:1032B00004F1F40520222946204600F047FF03468A
:1032C0000028E3D10122204603A900F03FFF034676
:1032D0000028DBD1022E62D020460CA900F060FF4E
:1032E00003460028D2D10146204600F01BFF0346CA
:1032F0000028CBD140225946204600F027FF034644
:103300000028C3D1202220460CA900F01FFF03464D
:103310000028BBD13946204600F042FF0346002872
:10332000B4D139462046FFF7FBFE03460028ADD155
:1033300020222946204600F009FF03460028A5D197
:1033400020460CA900F02CFF034600289ED1014620
:10335000204600F0E7FE0346002897D14022594658
:10336000204600F0F3FE034600288FD1202220469D
:103370000CA900F0EBFE0346002887D12946204621
:1033800000F00EFF0346002880D19DF80C2001328A
:10339000D2B2B2428DF80C20FFF472AF76E74A4603
:1033A0004146204600F0D2FE0346002894D06DE747
:1033B00001265AE76FF0730304AF67E7CC310020B2
:1033C0002DE9F0410446884615461F46D0F81801FD
:1033D000E0B013B100EB40004008B5F5807F3ED867
:1033E0002844B0F5C07F3AD84FF4C0720021684637
:1033F000FFF75AF96946D4F82431D4F81821D4F8E3
:103400002801984770BBD4F8186157B1D4E9493006
:1034100072080DEB0601984720BBD4F8183106EB73
:103420005306B8F1000F00D08DB9324669462046E8
:10343000FFF70EFF054610B90123C4F814313146D9
:103440006846FFF717FD284660B0BDE8F0810DEB38
:10345000060041462A462E44FFF7EAF8E5E76FF0FA
:103460000405F0E76FF00805EDE700BF2DE9F04730
:10347000044604F1F4050F4691461E46DDF820800F
:1034800000F036FE29462046FFF74AFE08B1BDE8A7
:10349000F087284620220121FFF706F9D4F81831D9
:1034A000C4F82471C4F8289113B92023C4F8183142
:1034B000424631462046BDE8F0470123FFF780BF72
:1034C000B2F5806F00F295802DE9F04F89B09A46F1
:1034D000129BB3F5807F00F29080D0F8243116461D
:1034E00004460F464BB3D0F81C31012B05D0D0F861
:1034F0001421D0F820319A421FDD51460023204686
:10350000129AFFF75DFF014698B900231293002E2F
:103510005ED0DFF8EC9009F1400B0021204600F06E
:1035200001FE202E3546014628BF202504F1F4086F
:1035300090B1084609B0BDE8F08FBAF1000FE6D0AF
:10354000129B002BE1D051461A462046FFF780FE21
:1035500001460028DBD0ECE749464022204600F037
:10356000F5FD01460028E4D141462022204600F026
:10357000EDFD01460028DCD16946204600F010FE32
:1035800001460028D5D1204600F0CCFD0146002898
:10359000CFD159464022204600F0D8FD01460028F0
:1035A000C7D169462022204600F0D0FD0146002800
:1035B000BFD14146204600F0F3FD01460028B8D1B6
:1035C00038462A464146FFF733F8761B2F44A4D1EC
:1035D00051462046129AFFF73BFE01460028A8D12B
:1035E0000846D4F814310133C4F8143109B0BDE8E9
:1035F000F08F6FF00201084670476FF0040198E702
:10360000CC310020002130B58DB0282202A80191D4
:10361000FFF74AF802A800F047FF044610B1204621
:103620000DB030BD174D4FF0FF31286800F042F962
:10363000044620B1144800F0D3F9012C18D0002022
:1036400000F068F9D0B9114A02A901A800F0C4FC41
:103650000446012000F05EF960B9286800F032F9F4
:103660000028DCD00A4800F0BBF920460DB030BD80
:103670000524F2E7074800F0B3F9EEE7064800F04A
:10368000AFF9E0E7A4200020204C00004C320020DD
:10369000784C0000584C0000384C000030B583B026
:1036A00000F05CF828B100F0ABF80324204603B02A
:1036B00030BD00F077F8D8B900F02CF9E0B9224C11
:1036C000D4F828391B0EF02B0AD1D4F8242A1F4B2A
:1036D0009A4231D000F044F8072400F091F8E5E771
:1036E000062400F03DF800F08BF8204603B030BD12
:1036F0000424204603B030BD00F032F800F080F81A
:10370000FFF780FF044698B9114D2B68002BCDD1EF
:1037100002460146FFF752FB50B968220D4901AB42
:10372000FFF77CFB20B920460B4B2B6003B030BD6C
:103730000524204603B030BD012000F0EBF800283E
:10374000DAD1C4F80C0ADBE7001084500000E02056
:103750006C340020703400205AEA5A5A0020704716
:1037600000207047430504D54FF0FF32034BC3F8E8
:103770000821024BC3F8080A704700BF00108450AC
:10378000014BC3F8040A70470010845008B100F0E0
:103790006BB84FF47500704708B100F04FB84FF4A4
:1037A0007500704710B5114800F070F800B110BDF9
:1037B0000F4800F06BF80028F9D10E4C204600F0BD
:1037C00065F80028F3D10C4B0C481C6000F05EF843
:1037D00001460028EBD100F02DF8044608B1204640
:1037E00010BD00F079F82046FAE700BFB4200020B1
:1037F000B0200020AC200020A4200020A820002021
:1038000008B5084800F04CF8074800F049F80748A8
:1038100000F046F8064800F043F8BDE8084000F024
:103820000BB800BFB4200020B0200020AC20002046
:10383000A820002000207047704700BF024610B447
:10384000084CD4F8003A1342FBD021B1D4F804312B
:103850000B60C4F80831034B0020C3F8082A10BCE1
:10386000704700BF00108450044AD2F8003A184252
:10387000FBD0C2F8080A0020704700BF0010845037
:1038800001F06AB90A460021FEF70EBF08B5034BE6
:1038900002681B6810689847002008BDE0200020DF
:1038A00008B5034B02685B6810689847002008BDA4
:1038B000E0200020024B02689B681068184700BF98
:1038C000E020002008B5034B0268DB6810689847C9
:1038D000002008BDE020002070B5094C094D20698A
:1038E000AB68984718B1084B08485B6898470021B7
:1038F000074AEB6811602069BDE87040184700BFB7
:10390000CC200020E0200020C4200020904C0000AB
:10391000D8340020F8B51A4D1A4E0446B26828690A
:103920009047E8B9184F3B684CB1A3B1012B19D0AF
:10393000013B3B602869F36898470020F8BD43B914
:103940000121124AC2F800151149D1F81029002AA4
:10395000FBD101333B60F368286998470020F8BD2C
:103960000C48F8BD0A4AD2F81039002BFBD1074A9F
:103970006FF07E40C2F80035FFF702FF3B68D7E7E3
:10398000CC200020E0200020D8340020000084500B
:1039900000108450E98FFFFF014B1B68184700BFE0
:1039A000E0200020014B9B68184700BFE02000206A
:1039B000014BDB68184700BFE0200020BFF34F8FAA
:1039C0000549064BCA6802F4E0621343CB60BFF3BB
:1039D0004F8F00BFFDE700BF00ED00E00400FA05D7
:1039E00030B44FF0FE320025074B084C08494968B7
:1039F000C3F80024C3F80424C3F80824C3F80C2433
:103A0000C4F8005530BC08470010845000008450B2
:103A1000C420002010B5044650B1636813F0685FFD
:103A200005D0064A934202D000236260236010BD95
:103A3000034B04485B689847EFE700BF2C5F5CA925
:103A4000C4200020B04C0000C8B143680D4A934226
:103A500013D013F0685F0ED0012350E8002F1946F1
:103A600040E8001C9CF0000FF7D1012AF5D0BFF30D
:103A70005F8F0020704704487047044870476FF418
:103A8000E04070472C5F5CA9E98FFFFFEA8FFFFFE2
:103A9000034680B1426809498A420AD012F0685F41
:103AA00005D0BFF35F8F002210461A6070470448AC
:103AB0007047044870476FF4E04070472C5F5CA982
:103AC000E98FFFFFEA8FFFFF10B5044620B1002306
:103AD000034A2360626010BD0248FFF781FFF6E7EA
:103AE0003A00003AD84C00002DE9F047002878D081
:103AF0000C46002975D01D46002B72D007461AB11E
:103B0000012200232A6003602B68002B64D0294621
:103B1000204600F0B7FD804600285FD12146286886
:103B200000F096FD8046002858D12B68082B6CD0F9
:103B3000042B6DD0A3F10209B9FA89F94FEA59199A
:103B40000121354EC6F8C411C6F84011C6F8C4119B
:103B5000636AC6F83031D6F830219342F6D14FF07F
:103B6000000A4FF0FF30C6F82CA1FFF7FBFD6FF005
:103B70001B035046C6F80031FFF702FEC6F80C9151
:103B8000D6F8040A40F48060FFF7FAFD0A23C6F86D
:103B90003831089B012B29D02369204AA2FB03233B
:103BA0001B09626A404602FB03F303EB43031A4A14
:103BB000DB039B09C2F8D8310123C2F82C313B68E2
:103BC0002A6823F07F4343EA02633B602A6843EAA2
:103BD00002233B60BDE8F087DFF844804046BDE843
:103BE000F087DFF840804046BDE8F0874FF47F0360
:103BF000D3F80C2C013206D0D3F80C3C074AA2FBB8
:103C000003231B09CDE71623CBE74FF0030997E702
:103C10004FF0020994E700BF00108450ABAAAAAA93
:103C2000310CF100350CF10058B34B1EB3F5047F95
:103C300027D230B54FF0000ECD00744671464B09C7
:103C400001F01F0C50F82330BCF11F0F23FA0CF3C6
:103C500006D003F0010319B901211C468E46EEE798
:103C60009C4201F1010106D01C464FF0010EA94211
:103C7000E5D1002030BD0EF1010E9645F7D1024886
:103C800030BD0148704700BF360CF100C0B32DE9CC
:103C9000F0434C1EB4F5047F1DD2E3B1DAB1002528
:103CA0002E46A8462C46CF0003F1FF394FEA541C9C
:103CB00004F01F0E50F82C10BEF11F0F21FA0EFC5D
:103CC0000CD00CF0010C4CB90126E04634463546C8
:103CD000ECE7964216D90C48BDE8F083AB420BD016
:103CE000C44508BF0136A945F3D001350134BC42B3
:103CF000DCD10020BDE8F0830125E0462E46F5E743
:103D0000014870471D46F1E7370CF1002DE9F04FEF
:103D100091B08346DDE91B460D46002E6ED10F693A
:103D20001C6000231A990B60002A00F02F819D4B24
:103D30006A6AD3F83811D3F830319A4269D10A2926
:103D400067D19BF80330089304F108030793042319
:103D50000593954B934CA3FB07239B0803EB43036D
:103D6000A7EB4303039306971A9B069E1E60002E43
:103D700000F0EA8000F096FC00230993BBF1000FED
:103D800000F0D58098464FF0010ADDF81C90002D18
:103D900000F0CD80089B002B3DD0284608A900F0FC
:103DA00071FC002839D0814B984220D0089B082B09
:103DB00000F0E48000225B000893294608AB5846D7
:103DC0000092FFF791FE7A4B984200F0D38070B9D1
:103DD000DBF80020130A03F47F03134323F07F432F
:103DE000CBF80030059B013B0593BDD1002003902B
:103DF00000F058FC039811B0BDE8F08F4FF47F013C
:103E0000D1F80C0C01300CBF4FF40477D1F80C7CC6
:103E100086E76848EBE76648C5E72946089800F05A
:103E200017FC0028BFD1089B082B00F0A980042BA9
:103E300000F0A980A3F10203B3FA83F35B090493B2
:103E4000C4F8C4A1C4F840A1C4F8C4A16B6AC4F802
:103E50003031D4F830219342F6D100234FF0FF30B7
:103E6000C4F82C31FFF77EFC002318466FF01B03CB
:103E7000C4F80031FFF784FC049B4B4FC4F80C31AD
:103E8000D4F8040A40F48060FFF77AFC0A23C4F8EF
:103E900038312B6909A8A7FB03236A6A1B0902FBB7
:103EA00003F303EB4303DB039B09C4F8D831C4F8E5
:103EB0002CA1DBF80030089923F07F420B0243EA83
:103EC00001631343CBF8003000F0B2FB099B03F011
:103ED0001A0303437FF46AAFA7FB0637D4F8143103
:103EE000B8EB970F0A93D4F818310B93D4F81C3120
:103EF0000C93D4F820310D93D4F824310E93D4F8D8
:103F000028310F9301D1039B9BB9484618220AA977
:103F1000183EFFF7B5FC09F1180908F101089EB138
:103F200000F0C0FB00230993002D7FF433AF22483B
:103F300039E748461A46F61A0AA9994408F10108D1
:103F4000FFF79EFC002EEBD1069F079E6A6939465B
:103F50003046FFF769FEAA6940B94FF480633946DD
:103F60003046FFF793FE00283FF440AF00231A9A33
:103F7000136018E72B6A002B3FF439AF0F4836E780
:103F8000032304935CE70223049359E701222946A3
:103F90005846009608ABFFF7A7FD00283FF4D4AEC3
:103FA00025E700BF00108450ABAAAAAA020CF100BA
:103FB000310CF100300CF100350CF100320CF10045
:103FC00010B4DDE9013401940024DDF80CC0CDE922
:103FD00002C410BCFFF79ABE30B51546012487B065
:103FE00005AB00930022CDE9015404ABFFF78EFE30
:103FF00007B030BDF0B587B0002966D01E46002B53
:1040000063D01446002A60D0314F0D4638684FF017
:10401000FF31FFF74FFC00284DD10020FFF77AFC5D
:10402000002844D12B4800F03FFAD8B101204FF0CE
:10403000FF35FFF76FFC002835D14FF40871264893
:10404000FEF70EFF04212548FEF70AFF214828212C
:10405000FEF706FF3868FFF735FC00282FD1284609
:1040600007B0F0BD1C4A0346029205AA019204AAB9
:1040700003900092174902461848FFF7A1FF034634
:104080000028D3D128461D46059B22469C4228BFC6
:104090001A46049932600831FFF7F2FB0120FFF75E
:1040A00039FC0028C9D00E48FFF79AFCC5E70D4837
:1040B000FFF796FCB6E70C48FFF792FCADE70B481C
:1040C000FFF78EFC284607B0F0BD4FF0FF35C6E77E
:1040D000A4200020F034002018350020EC3400200B
:1040E000584C0000384C0000204C0000FC4C0000F4
:1040F00010B5044628B12046BDE81040F421FFF772
:10410000C1BB0448FFF76CFC2046BDE81040F42119
:10411000FFF7B8BB144D000010B1F421FEF7A0BEAC
:10412000704700BF08B521B1012908D06FF03600F3
:1041300008BD012100F058F80028F7D108BD022180
:1041400000F052F80028F9D0F0E700BF30B505467E
:104150008818B0F5801F0B461446A1B001D8802AFC
:104160000CD9B3F5801F17D922461946284600F00E
:104170007DF8044684B9204621B030BD6846FFF77B
:104180007FFB22466946284600F070F880210446ED
:104190006846FFF777FBEDE76FF03604EBE700BF0B
:1041A00070B5E8B10E46D9B1044600F031F80546C5
:1041B000B0B92368012B0BD0022B01D0284670BD6B
:1041C0001C22304604F10801FFF75AFB284670BD57
:1041D0002022304604F10801FFF752FB284670BD4B
:1041E0006FF03605EAE700BF78B138B50D46F0212B
:1041F0000446FFF747FB402320462560E36500F0B7
:1042000091FA003818BF012038BD0120704700BF67
:10421000F0B5056EA5B0044604AEE5B9002301274C
:10422000019330466760294602AA009300F046FADF
:1042300010B1012025B0F0BD2A46204602A900F0A9
:1042400099FA0028F5D1204600F0AAFB0028F0D109
:10425000206625B0F0BD802D2A46304628BF80223A
:1042600004F16401FFF70CFB256ED7E7002800F08E
:10427000AE802DE9F04F1446A5B0002A3DD00F4680
:10428000002949D0B2F5803F0546006E20D34FF695
:10429000FF7805F1640AEB6D1A1AB2FBF3F103FB28
:1042A0001122002A65D18342B9464FF6FF7672D0BB
:1042B000B6FBF3FB03FB0BFBBBF1000F30D1002E71
:1042C00045D1A4F57F44FF3CB4F5803F4744E2D29A
:1042D000EA6D161AB6FBF2F302FB1366A64228BF7C
:1042E0002646002E75D1824200F08D80B4FBF2F696
:1042F00002FB06F62EB9002C79D1002025B0BDE8CE
:10430000F08F002331463846CDE9003302AA00F091
:10431000D5F9002800F09580012025B0BDE8F08F88
:10432000002359464846CDE9003302AA00F0C6F9F9
:104330000028F1D15A46284602A900F01BFA0028AD
:10434000EAD1A6EB0B06286ED944002EB9D019305D
:104350004946324605EB8000FFF792FAA4F57F4408
:10436000286EFF3C3044B4F5803F4744286692D223
:10437000AEE7424528BF4246164639465044FFF74D
:104380007FFA286EEB6D3044834207EB06092866FE
:10439000A8EB06068CD1802B28BF802351461A46F5
:1043A00004A8FFF76DFA0023E96D02AACDE90033F6
:1043B00004A800F083F90028AED12846EA6D02A9CE
:1043C00000F0D8F90028A7D1EB6D286670E701202E
:1043D000704705F16403394632461844FFF750FA36
:1043E000286EEA6D3044A41B374428667BE72B6EA9
:1043F0002246193305EB83003946FFF741FA2B6E4D
:1044000023442B6679E7802A28BF802205F16401C6
:1044100004A8FFF735FA0023E96D04A8CDE90033BD
:1044200002AA00F04BF900287FF476AF2846EA6D27
:1044300002A900F09FF900287FF46EAFEA6D2866AC
:1044400054E73246284602A900F094F900287FF488
:1044500063AF3744A41B4EE7F8B51C460546114828
:1044600016460F46FFF744FE21460E48FFF75AFE58
:10447000044620B10B48FFF74FFE2046F8BD3A46F0
:1044800029460848FFF762FE04460028F2D131466B
:104490000448FFF785FE04460248FFF73DFE20462C
:1044A000F8BD00BF383700201C2370B582B001A9C9
:1044B0000546019300F032F8044638B9019B1C2BE5
:1044C00007D0144C1C212846FFF7DCF9204602B027
:1044D00070BDD5E90112131E18BF0123003918BFA2
:1044E0000121012628689B00EA6843EA410300286D
:1044F00018BF43F00103EE612AB9C5E90834002B67
:10450000E4D1054CDEE7204643F00803C5E9083452
:1045100002B070BD370CF0000E0CF000034600280E
:1045200066D0002964D00A681C2A61D14FF47F024A
:104530003B49D2F8100C88425CD0D2F8101C0131F3
:1045400058D0D2F8101C4FF47F021960D2F8140C26
:104550003449884260D0D2F8141C01315CD0D2F8C2
:10456000141C4FF47F025960D2F8181C11F5947F87
:104570004FD0D2F8181C01314BD0D2F8181C4FF490
:104580007F029960D2F81C0C274988423ED0D2F8AD
:104590001C1C01313AD0D2F81C1C4FF47F02D960A8
:1045A000D2F8001C70312FD0D2F8001C01312BD072
:1045B000D2F8001C4FF47F021961D2F8041CAF310D
:1045C00020D0D2F8041C01311CD0D2F8041C4FF4C6
:1045D0007F025961D2F8080C144988420DD0D2F8F4
:1045E000081C013109D0D2F8082C00209A617047CC
:1045F0000120704740F6FC01A5E740F23732002069
:104600009A6170475121E2E79021D3E742F6041105
:10461000C3E740F6D861B2E742F2D001A1E700BF9C
:10462000FCF8FFFFD020FFFF0429FFFF37F3FFFF57
:10463000014608B54FF48060FFF7AEF80022034B47
:10464000C3F8C821C3F82C2108BD00BF0010845056
:104650000138072805D8DFE800F0100E040A04042A
:10466000040607487047CB6800204B6270478B6890
:1046700000204B6270474B68F6E70B68F4E700BF19
:10468000310CF1000B6802E0082B0B6006D8026ABF
:1046900013424FEA4303F7D00020704700487047A9
:1046A000310CF1000022044B4FF48060C3F82C2140
:1046B000C3F8C421FFF756B800108450F0B50024A9
:1046C00083B0B0F1005F8DF8074025D38C46844459
:1046D000BCF1804F04461FD817461D4601220DF13C
:1046E000070300F097F90646B0B99DF80730099A1C
:1046F0003C603B7192B14DB10246089928460DF1DC
:10470000070300F087F938B99DF807303046099A59
:104710001560137103B0F0BD4FF47506304603B059
:10472000F0BD00BFD8B108B50368012B04D0022B3F
:104730000FD043B10B4808BD20220B490830FFF7CA
:104740009FF8002008BD142208490830FFF798F8A8
:10475000F7E7202206490830FFF792F8F1E74FF417
:10476000730070470100F300244D0000644D000009
:10477000444D00002DE9F843002900F0F98004467B
:10478000002800F0F98003680F469046002B00F0E7
:10479000C380013B012B00F2D7804FF0FF317848F6
:1047A0004FF00209FFF786F8002840F0BF80002094
:1047B000FFF7B0F80646002840F0C280714AD2F8F0
:1047C0001C39002BFBD16F4DD5F8203C002BFBD1C1
:1047D0004FF0FF30FEF7C6FFD5F8040A20F0400086
:1047E000FEF7CEFF01230722C5F81838C5F80029C7
:1047F000C5F8C437A36CC5F8CC37E36CC5F8D0371F
:10480000C5F8C09723685BB1013B012B18D8636AD8
:10481000C5F85C36236AC5F85836E369C5F85436DE
:10482000A269584BC3F850266269C3F84C26226926
:10483000C3F84826E268C3F84426A268C3F84026B5
:10484000504AD2F81039002BFBD1B8F1000F5FD0DD
:1048500063684020012B08BFC2F884363A68494B90
:10486000C3F8282CC3F82C8CFEF790FF0646454A67
:10487000D2F81039002BFBD1424AD2F8203C002B51
:10488000FBD123685BB1013B012B18D8D2F85C3611
:104890006362D2F858362362D2F85436E361394B5A
:1048A000D3F85026A261D3F84C266261D3F848268B
:1048B0002261D3F84426E260D3F84036A360002397
:1048C0000121304AD2F8CC07A064D2F8D007E064C6
:1048D000C2F8C417C2F88436C2F8C837D2F8103903
:1048E000002BFBD1C2F81838002E3BD1254BD3F852
:1048F000040A40F04000FEF743FF0120FFF70AF8EA
:1049000060BB1F48FEF7DEFF10BB3046BDE8F883F2
:104910000423C2F8C837AAE74FF0FF3118484FF018
:104920000109FEF7C7FF00283FF441AF1648FFF723
:1049300057F80020FEF7EEFF064600283FF43EAF92
:104940001248FFF74DF839E7114E3046BDE8F883BD
:104950001048FFF745F83046BDE8F8830E48FFF7EA
:104960003FF8CEE7102104F10800FEF78BFFBDE70A
:104970000A4E3046BDE8F8834FF47306C5E700BF22
:10498000B420002000108450204C0000384C00005F
:104990000100F300784C0000584C00000300F300C5
:1049A000A0B3034670B4D0E90240D3E9041226BA9A
:1049B00005BA0CBA10BAC3E90440D3E90612986AE2
:1049C00009BAC3E9026512BA996100BAD3E908418C
:1049D00025BA0CBAC3E90725D3E90B12C3E909408C
:1049E00009BAD86B12BAD962D3E90D4125BAC3E925
:1049F0000C250CBA00BAD3E9101209BA12BAC3E9ED
:104A00000E40196400205A6470BC70474FF4730064
:104A1000704700BF00201870704700BF08B5074BF3
:104A2000044613B10021AFF30080054B1868836A78
:104A300003B19847204600F08DF800BF0000000049
:104A4000784D000070B50D4D00260D4C641BA41070
:104A5000A64209D10B4D00260B4C00F0B3F8641BA5
:104A6000A410A64205D170BD55F8043B0136984705
:104A7000EEE755F8043B01369847F2E7C806000018
:104A8000C8060000C8060000CC060000431810B598
:104A900001D21F2A01D9002010BD013902F01403F0
:104AA0000144102B80EA01043CD009DC8BB1042BBB
:104AB000F1D11F2C40E840F315D941E840F10EE058
:104AC000142BE8D11F2C40E8C0F30CD941E8C0F109
:104AD00005E01F2C40E800F305D941E800F11C4631
:104AE0000B468C42D7D122F01402013A0A2AD2D8BE
:104AF00001A151F822F000BF474B0000414B0000DC
:104B0000334B0000974A0000974A0000974A000084
:104B1000974A00004D4B0000474B00003B4B000004
:104B2000334B00001F2C40E880F3DCD941E880F1D2
:104B3000D5E713F4001FAFD1ADE713F4801FFAE7F8
:104B40005B02A9D5A7E713F4002FF4E713F4802F35
:104B5000F1E700BFFEE700BF884210B501EB020499
:104B600002D98442234607D8431EA14208D011F837
:104B7000012B03F8012FF8E7024401468A4200D1D5
:104B800010BD13F8014D02F8014DF7E72DE9E04F94
:104B90002746A046A146A246A346A446A2B02DECB5
:104BA000000A84F3008825462646A447EFF31485BF
:104BB00015F0080F18BFB0EE400A3DEC000A22B015
:104BC000BDE8E08FF8B500BFF8BC08BC9E46704752
:104BD000F8B500BFF8BC08BC9E4670477AFFFFFFDF
:104BE00054464D5F43525950544F000054464D5F58
:104BF000504C4154464F524D5F53455256494345E0
:104C000000000000FF8FFFFFFF8FFFFFFE8FFFFF01
:104C1000FE8FFFFFFD8FFFFFFC8FFFFFFC8FFFFF6D
:104C20004661696C20746F206163717569726520DB
:104C30006D757465780A00004661696C20746F2098
:104C4000696E63726561736520504D20636F756E88
:104C50007465720A000000004661696C20746F2060
:104C6000646563726561736520504D20636F756E76
:104C70007465720A000000004661696C20746F2040
:104C800072656C65617365206D757465780A0000E6
:104C9000436F756C64206E6F74206C6F636B207053
:104CA0006F7765722073617665206D757465780025
:104CB0006D757465785F667265652063616C6C659F
:104CC000642077697468204E554C4C207061726185
:104CD0006D6574657200000043616E277420696E13
:104CE000697469616C697A65206D757465782C20CA
:104CF000776173204E554C4C0D0A00004661696C7B
:104D000020746F20756E6C6F636B206D75746578A1
:104D10000A0000000A637478206973204E554C4CD9
:104D20000A00000067E6096A85AE67BB72F36E3C55
:104D30003AF54FA57F520E518C68059BABD9831F66
:104D400019CDE05BD89E05C107D57C3617DD7030E4
:104D500039590EF7310BC0FF11155868A78FF96448
:104D6000A44FFABE0123456789ABCDEFFEDCBA98AC
:104D700076543210F0E1D2C3102100200000000070
:107C00007FE97FE9FAF772BC7FE97FE9FAF780BC88
:107C10007FE97FE9FAF7B2BC7FE97FE9FAF7A0BC18
:107C20007FE97FE9FAF786BC000000000000000051
:107C30000000000000000000000000000000000044
:107C4000D0210020702100204401000090ED00E0D0
:107C500000A003507FA60350512B00004D2B0000C5
:107C6000A9260000AC200020DC200020D420002029
:107C7000D0200020CC200020B1390000A539000020
:107C80009939000000000000BD39000008210020E3
:107C900000210020F820002000000000F02000203B
:107CA000C93A0000153A0000493A0000913A000034
:107CB000DC3400203A00003AE03400203A00003A78
:107CC000E43400203A00003AE83400203A00003A58
:107CD00000000000000000000000000000000000A4
:107CE0000000000000000000000000000000000094
:107CF0000000000000000000000000000000000084
:107D00000000000000000000000000000000000073
:107D10000000000000000000000000000000000063
:107D20000000000000000000000000000000000053
:10800000785C02206D28010089210100012801000F
:1080100001280100012801000128010001280100B8
:10802000000000000000000000000000FD2A010028
:108030000128010000000000B52A0100012801000C
:10804000E92E0100E92E0100E92E0100E92E0100D0
:10805000E92E0100E92E0100E92E0100E92E0100C0
:10806000E92E0100E92E0100E92E0100E92E0100B0
:10807000E92E0100E92E0100E92E0100E92E0100A0
:10808000E92E0100E92E0100E92E0100E92E010090
:10809000E92E0100E92E0100E92E0100E92E010080
:1080A000E92E0100E92E0100E92E0100E92E010070
:1080B000E92E0100E92E0100E92E0100E92E010060
:1080C000E92E0100E92E0100E92E0100E92E010050
:1080D000E92E0100E92E0100E92E0100E92E010040
:1080E000E92E0100E92E0100E92E0100E92E010030
:1080F000E92E0100E92E0100E92E0100E92E010020
:10810000E92E0100E92E0100E92E0100E92E01000F
:10811000E92E0100E92E0100E92E0100E92E0100FF
:10812000E92E0100E92E0100E92E0100E92E0100EF
:10813000E92E0100E92E0100E92E0100E92E0100DF
:04814000E92E010023
:1081480081F0004102E000BF83F0004330B54FEA00
:1081580041044FEA430594EA050F08BF90EA020F6D
:108168001FBF54EA000C55EA020C7FEA645C7FEA00
:10817800655C00F0E2804FEA5454D4EB5555B8BF23
:108188006D420CDD2C4480EA020281EA030382EA94
:10819800000083EA010180EA020281EA0303362D26
:1081A80088BF30BD11F0004F4FEA01314FF4801CF9
:1081B8004CEA113102D0404261EB410113F0004F0B
:1081C8004FEA03334CEA133302D0524263EB4303C2
:1081D80094EA050F00F0A780A4F10104D5F1200E60
:1081E8000DDB02FA0EFC22FA05F2801841F10001BB
:1081F80003FA0EF2801843FA05F359410EE0A5F18F
:1082080020050EF1200E012A03FA0EFC28BF4CF0BF
:10821800020C43FA05F3C01851EBE37101F0004575
:1082280007D54FF0000EDCF1000C7EEB00006EEB82
:108238000101B1F5801F1BD3B1F5001F0CD349080C
:108248005FEA30004FEA3C0C04F101044FEA445263
:1082580012F5800F80F09A80BCF1004F08BF5FEAEA
:10826800500C50F1000041EB045141EA050130BDCA
:108278005FEA4C0C404141EB0101013C28BFB1F5DC
:10828800801FE9D291F0000F04BF01460020B1FA27
:1082980081F308BF2033A3F10B03B3F120020CDAFA
:1082A8000C3208DD02F1140CC2F10C0201FA0CF0D8
:1082B80021FA02F10CE002F11402D8BFC2F1200C3D
:1082C80001FA02F120FA0CFCDCBF41EA0C019040F3
:1082D800E41AA2BF01EB0451294330BD6FEA04043C
:1082E8001F3C1CDA0C340EDC04F11404C4F1200227
:1082F80020FA04F001FA02F340EA030021FA04F339
:1083080045EA030130BDC4F10C04C4F1200220FA8F
:1083180002F001FA04F340EA0300294630BD21FACD
:1083280004F0294630BD94F0000F83F4801306BF93
:1083380081F480110134013D4EE77FEA645C18BF87
:108348007FEA655C29D094EA050F08BF90EA020F1E
:1083580005D054EA000C04BF1946104630BD91EA16
:10836800030F1EBF0021002030BD5FEA545C05D119
:108378004000494128BF41F0004130BD14F5800458
:108388003CBF01F5801130BD01F0004545F0FE41CC
:1083980041F470014FF0000030BD7FEA645C1ABF01
:1083A800194610467FEA655C1CBF0B46024650EA38
:1083B800013406BF52EA033591EA030F41F4002164
:1083C80030BD00BF90F0000F04BF0021704730B5EA
:1083D8004FF4806404F132044FF000054FF00001BF
:1083E80050E700BF90F0000F04BF0021704730B580
:1083F8004FF4806404F1320410F0004548BF404255
:108408004FF000013EE700BF42004FEAE2014FEAA9
:1084180031014FEA02701FBF12F07F4393F07F4F84
:1084280081F06051704732F07F4208BF704793F087
:108438007F4F04BF41F40021704730B54FF460749A
:1084480001F0004521F000411CE700BF50EA01029D
:1084580008BF704730B54FF000050AE050EA010246
:1084680008BF704730B511F0004502D5404261EBB6
:1084780041014FF4806404F132045FEA915C3FF4F7
:10848800D8AE4FF003025FEADC0C18BF03325FEA94
:10849800DC0C18BF033202EBDC02C2F1200300FA45
:1084A80003FC20FA02F001FA03FE40EA0E0021FA6A
:1084B80002F11444BDE600BF70B54FF0FF0C4CF458
:1084C800E06C1CEA11541DBF1CEA135594EA0C0F0A
:1084D80095EA0C0F00F0DEF82C4481EA030621EA45
:1084E8004C5123EA4C5350EA013518BF52EA033580
:1084F80041F4801143F4801338D0A0FB02CE4FF032
:108508000005E1FB02E506F00042E0FB03E54FF061
:108518000006E1FB03569CF0000F18BF4EF0010E59
:10852800A4F1FF04B6F5007F64F5407404D25FEA55
:108538004E0E6D4146EB060642EAC62141EA555108
:108548004FEAC52040EA5E504FEACE2EB4F1FD0C4A
:1085580088BFBCF5E06F1ED8BEF1004F08BF5FEAC8
:10856800500E50F1000041EB045170BD06F000467A
:1085780046EA010140EA020081EA0301B4EB5C0427
:10858800C2BFD4EB0C0541EA045170BD41F480111F
:108598004FF0000E013C00F3AB8014F1360FDEBF44
:1085A800002001F0004170BDC4F10004203C35DA20
:1085B8000C341BDC04F11404C4F1200500FA05F3A3
:1085C80020FA04F001FA05F240EA020001F0004244
:1085D80021F0004110EBD37021FA04F642EB0601BA
:1085E8005EEA430E08BF20EAD37070BDC4F10C04E4
:1085F800C4F1200500FA04F320FA05F001FA04F2A8
:1086080040EA020001F0004110EBD37041F1000193
:108618005EEA430E08BF20EAD37070BDC4F120059E
:1086280000FA05F24EEA020E20FA04F301FA05F206
:1086380043EA020321FA04F001F0004121FA04F2AE
:1086480020EA020000EBD3705EEA430E08BF20EA7E
:10865800D37070BD94F0000F0FD101F000464000B8
:1086680041EB010111F4801F08BF013CF7D041EA3A
:10867800060195F0000F18BF704703F0004652003E
:1086880043EB030313F4801F08BF013DF7D043EA0F
:108698000603704794EA0C0F0CEA135518BF95EAC5
:1086A8000C0F0CD050EA410618BF52EA4306D1D14C
:1086B80081EA030101F000414FF0000070BD50EA6B
:1086C800410606BF1046194652EA430619D094EAF5
:1086D8000C0F02D150EA013613D195EA0C0F05D1DF
:1086E80052EA03361CBF104619460AD181EA030133
:1086F80001F0004141F0FE4141F470014FF00000EB
:1087080070BD41F0FE4141F4780170BD70B54FF085
:10871800FF0C4CF4E06C1CEA11541DBF1CEA135505
:1087280094EA0C0F95EA0C0F00F0A7F8A4EB0504E7
:1087380081EA030E52EA03354FEA013100F08880DE
:108748004FEA03334FF0805545EA131343EA1263A7
:108758004FEA022245EA111545EA10654FEA00265C
:108768000EF000419D4208BF964244F1FD0404F515
:10877800407402D25B084FEA3202B61A65EB030571
:108788005B084FEA32024FF480104FF4002CB6EB2E
:10879800020E75EB030E22BFB61A754640EA0C00AE
:1087A8005B084FEA3202B6EB020E75EB030E22BFEE
:1087B800B61A754640EA5C005B084FEA3202B6EB2F
:1087C800020E75EB030E22BFB61A754640EA9C00EE
:1087D8005B084FEA3202B6EB020E75EB030E22BFBE
:1087E800B61A754640EADC0055EA060E18D04FEA7C
:1087F800051545EA16754FEA06164FEAC30343EA1C
:1088080052734FEAC2025FEA1C1CC0D111F4801FE8
:108818000BD141EA00014FF000004FF0004CB6E7E1
:1088280011F4801F04BF01430020B4F1FD0C88BF80
:10883800BCF5E06F3FF6AFAEB5EB030C04BFB6EB8B
:10884800020C5FEA500C50F1000041EB045170BD7E
:108858000EF0004E4EEA113114EB5C04C2BFD4EBAB
:108868000C0541EA045170BD41F480114FF0000E2F
:10887800013C90E645EA060E8DE60CEA135594EAAB
:108888000C0F08BF95EA0C0F3FF43BAF94EA0C0FAE
:108898000AD150EA01347FF434AF95EA0C0F7FF423
:1088A80025AF104619462CE795EA0C0F06D152EA77
:1088B80003353FF4FDAE1046194622E750EA41065B
:1088C80018BF52EA43067FF4C5AE50EA41047FF46C
:1088D8000DAF52EA43057FF4EBAE12E74FF0FF3CD1
:1088E80006E000BF4FF0010C02E000BF4FF0010CA2
:1088F8004DF804CD4FEA410C7FEA6C5C4FEA430C1B
:1089080018BF7FEA6C5C1BD001B050EA410C0CBF69
:1089180052EA430C91EA030F02BF90EA020F0020CB
:10892800704710F1000F91EA030F58BF994208BF32
:1089380090422CBFD8176FEAE37040F001007047EF
:108948004FEA410C7FEA6C5C02D150EA013C07D146
:108958004FEA430C7FEA6C5CD6D152EA033CD3D091
:108968005DF8040B704700BF8446104662468C468B
:108978001946634600E000BF01B5FFF7B7FF0028BE
:1089880048BF10F1000F01BD4DF808EDFFF7F4FFE7
:108998000CBF012000205DF808FB00BF4DF808ED72
:1089A800FFF7EAFF34BF012000205DF808FB00BF95
:1089B8004DF808EDFFF7E0FF94BF012000205DF8B7
:1089C80008FB00BF4DF808EDFFF7CEFF94BF01206C
:1089D80000205DF808FB00BF4DF808EDFFF7C4FF65
:1089E80034BF012000205DF808FB00BF4FEA410CAE
:1089F8007FEA6C5C02D150EA013C0AD14FEA430C91
:108A08007FEA6C5C02D152EA033C02D14FF00000CD
:108A180070474FF0010070474FEA410212F500120B
:108A280015D211D56FF47873B3EB625212D94FEAAD
:108A3800C12343F0004343EA505311F0004F23FA97
:108A480002F018BF404270474FF00000704750EAEC
:108A5800013005D111F0004008BF6FF000407047A9
:108A68004FF00000704700BF80F0004002E000BFF8
:108A780081F0004142001FBF5FEA410392EA030F01
:108A88007FEA226C7FEA236C6AD04FEA1262D2EB4B
:108A98001363C1BFD218414048404140B8BF5B4250
:108AA800192B88BF704710F0004F40F4000020F0E9
:108AB8007F4018BF404211F0004F41F4000121F0FF
:108AC8007F4118BF494292EA030F3FD0A2F1010249
:108AD80041FA03FC10EB0C00C3F1200301FA03F187
:108AE80000F0004302D5494260EB4000B0F5000FAA
:108AF80013D3B0F1807F06D340084FEA310102F169
:108B08000102FE2A51D2B1F1004F40EBC25008BF1A
:108B180020F0010040EA03007047490040EB0000E4
:108B2800013A28BFB0F5000FEDD2B0FA80FCACF1E5
:108B3800080CB2EB0C0200FA0CF0AABF00EBC25012
:108B480052421843BCBFD0401843704792F0000F00
:108B580081F4000106BF80F400000132013BB5E753
:108B68004FEA41037FEA226C18BF7FEA236C21D0C9
:108B780092EA030F04D092F0000F08BF084670472E
:108B880090EA010F1CBF0020704712F07F4F04D1FC
:108B9800400028BF40F00040704712F100723CBF0F
:108BA80000F50000704700F0004343F0FE4040F439
:108BB800000070477FEA226216BF08467FEA2363F7
:108BC8000146420206BF5FEA412390EA010F40F4E2
:108BD800800070474FF0000304E000BF10F000432E
:108BE80048BF40425FEA000C08BF704743F0964315
:108BF80001464FF000001CE050EA010208BF704730
:108C08004FF000030AE000BF50EA010208BF7047B6
:108C180011F0004302D5404261EB41015FEA010CCB
:108C280002BF84460146002043F0B64308BFA3F1C3
:108C38008053A3F50003BCFA8CF2083AA3EBC253A5
