:10800000A8E80020A5AC00005B43010091AC000093
:1080100091AC000091AC000091AC000091AC00006C
:1080200000000000000000000000000051AE000051
:1080300091AC000000000000DDAD000091AC00003C
:1080400005B0000005B0000005B0000005B000005C
:1080500005B0000005B0000005B0000005B000004C
:1080600005B0000005B0000005B0000005B000003C
:1080700005B0000005B0000005B0000005B000002C
:1080800005B0000005B0000005B0000005B000001C
:1080900005B0000005B0000005B0000005B000000C
:1080A00005B0000005B0000005B0000005B00000FC
:1080B00005B0000005B0000005B0000005B00000EC
:1080C00005B0000005B0000005B0000005B00000DC
:1080D00005B0000005B0000005B0000005B00000CC
:1080E00005B0000005B0000005B0000005B00000BC
:1080F00005B0000005B0000005B0000005B00000AC
:1081000005B0000005B0000005B0000005B000009B
:1081100005B0000005B0000005B0000005B000008B
:1081200005B0000005B0000005B0000005B000007B
:1081300005B0000005B0000005B0000005B000006B
:0481400005B0000086
:04814400FFFFFFFF3B
:108148004FF0FF0C1CEAD0521EBF1CEAD15392EA32
:108158000C0F93EA0C0F6FD01A4480EA010C40020E
:1081680018BF5FEA41211ED04FF0006343EA501068
:1081780043EA5111A0FB01310CF00040B1F5000FAA
:108188003EBF490041EAD3715B0040EA010062F159
:108198007F02FD2A1DD8B3F1004F40EBC25008BF43
:1081A80020F00100704790F0000F0CF0004C08BF61
:1081B80049024CEA502040EA51207F3AC2BFD2F12E
:1081C800FF0340EAC250704740F400004FF000033C
:1081D800013A5DDC12F1190FDCBF00F00040704776
:1081E800C2F10002410021FA02F1C2F1200200FAB4
:1081F80002FC5FEA310040F1000053EA4C0308BF7B
:1082080020EADC70704792F0000F00F0004C02BFCB
:10821800400010F4000F013AF9D040EA0C0093F046
:10822800000F01F0004C02BF490011F4000F013BA0
:10823800F9D041EA0C018FE70CEAD15392EA0C0F0E
:1082480018BF93EA0C0F0AD030F0004C18BF31F079
:10825800004CD8D180EA010000F00040704790F04F
:10826800000F17BF90F0004F084691F0000F91F0F3
:10827800004F14D092EA0C0F01D142020FD193EAB9
:108288000C0F03D14B0218BF084608D180EA010041
:1082980000F0004040F0FE4040F40000704740F01D
:1082A800FE4040F44000704781F0004102E000BF0A
:1082B80083F0004330B54FEA41044FEA430594EA9E
:1082C800050F08BF90EA020F1FBF54EA000C55EAD9
:1082D800020C7FEA645C7FEA655C00F0E2804FEAAA
:1082E8005454D4EB5555B8BF6D420CDD2C4480EA8C
:1082F800020281EA030382EA000083EA010180EABC
:10830800020281EA0303362D88BF30BD11F0004F09
:108318004FEA01314FF4801C4CEA113102D040423F
:1083280061EB410113F0004F4FEA03334CEA13337A
:1083380002D0524263EB430394EA050F00F0A78092
:10834800A4F10104D5F1200E0DDB02FA0EFC22FA8D
:1083580005F2801841F1000103FA0EF2801843FA81
:1083680005F359410EE0A5F120050EF1200E012A72
:1083780003FA0EFC28BF4CF0020C43FA05F3C018B0
:1083880051EBE37101F0004507D54FF0000EDCF129
:10839800000C7EEB00006EEB0101B1F5801F1BD3D2
:1083A800B1F5001F0CD349085FEA30004FEA3C0CD6
:1083B80004F101044FEA445212F5800F80F09A80CC
:1083C800BCF1004F08BF5FEA500C50F1000041EBD0
:1083D800045141EA050130BD5FEA4C0C404141EBD4
:1083E8000101013C28BFB1F5801FE9D291F0000FCF
:1083F80004BF01460020B1FA81F308BF2033A3F17E
:108408000B03B3F120020CDA0C3208DD02F1140C74
:10841800C2F10C0201FA0CF021FA02F10CE002F1AF
:108428001402D8BFC2F1200C01FA02F120FA0CFCA8
:10843800DCBF41EA0C019040E41AA2BF01EB0451F1
:10844800294330BD6FEA04041F3C1CDA0C340EDCEF
:1084580004F11404C4F1200220FA04F001FA02F332
:1084680040EA030021FA04F345EA030130BDC4F1F0
:108478000C04C4F1200220FA02F001FA04F340EAE5
:108488000300294630BD21FA04F0294630BD94F096
:10849800000F83F4801306BF81F480110134013D7D
:1084A8004EE77FEA645C18BF7FEA655C29D094EAEE
:1084B800050F08BF90EA020F05D054EA000C04BF6C
:1084C8001946104630BD91EA030F1EBF0021002057
:1084D80030BD5FEA545C05D14000494128BF41F0F6
:1084E800004130BD14F580043CBF01F5801130BD5A
:1084F80001F0004545F0FE4141F470014FF00000E5
:1085080030BD7FEA645C1ABF194610467FEA655C95
:108518001CBF0B46024650EA013406BF52EA033537
:1085280091EA030F41F4002130BD00BF90F0000F25
:1085380004BF0021704730B54FF4806404F1320461
:108548004FF000054FF0000150E700BF90F0000F1A
:1085580004BF0021704730B54FF4806404F1320441
:1085680010F0004548BF40424FF000013EE700BF11
:1085780042004FEAE2014FEA31014FEA02701FBFA1
:1085880012F07F4393F07F4F81F06051704732F0D3
:108598007F4208BF704793F07F4F04BF41F400212A
:1085A800704730B54FF4607401F0004521F0004188
:1085B8001CE700BF50EA010208BF704730B54FF012
:1085C80000050AE050EA010208BF704730B511F013
:1085D800004502D5404261EB41014FF4806404F14B
:1085E80032045FEA915C3FF4D8AE4FF003025FEAD1
:1085F800DC0C18BF03325FEADC0C18BF033202EB55
:10860800DC02C2F1200300FA03FC20FA02F001FAAE
:1086180003FE40EA0E0021FA02F11444BDE600BF51
:1086280070B54FF0FF0C4CF4E06C1CEA11541DBF00
:108638001CEA135594EA0C0F95EA0C0F00F0DEF8CB
:108648002C4481EA030621EA4C5123EA4C5350EAB0
:10865800013518BF52EA033541F4801143F4801301
:1086680038D0A0FB02CE4FF00005E1FB02E506F092
:108678000042E0FB03E54FF00006E1FB03569CF0E7
:10868800000F18BF4EF0010EA4F1FF04B6F5007FED
:1086980064F5407404D25FEA4E0E6D4146EB06065F
:1086A80042EAC62141EA55514FEAC52040EA5E50E8
:1086B8004FEACE2EB4F1FD0C88BFBCF5E06F1ED892
:1086C800BEF1004F08BF5FEA500E50F1000041EBC9
:1086D800045170BD06F0004646EA010140EA020076
:1086E80081EA0301B4EB5C04C2BFD4EB0C0541EA98
:1086F800045170BD41F480114FF0000E013C00F3AD
:10870800AB8014F1360FDEBF002001F0004170BDD0
:10871800C4F10004203C35DA0C341BDC04F11404E9
:10872800C4F1200500FA05F320FA04F001FA05F275
:1087380040EA020001F0004221F0004110EBD37042
:1087480021FA04F642EB06015EEA430E08BF20EA6E
:10875800D37070BDC4F10C04C4F1200500FA04F311
:1087680020FA05F001FA04F240EA020001F00041A3
:1087780010EBD37041F100015EEA430E08BF20EA16
:10878800D37070BDC4F1200500FA05F24EEA020E5E
:1087980020FA04F301FA05F243EA020321FA04F08D
:1087A80001F0004121FA04F220EA020000EBD37044
:1087B8005EEA430E08BF20EAD37070BD94F0000F44
:1087C8000FD101F00046400041EB010111F4801F78
:1087D80008BF013CF7D041EA060195F0000F18BF29
:1087E800704703F00046520043EB030313F4801F65
:1087F80008BF013DF7D043EA0603704794EA0C0F1F
:108808000CEA135518BF95EA0C0F0CD050EA410634
:1088180018BF52EA4306D1D181EA030101F00041B1
:108828004FF0000070BD50EA410606BF10461946D9
:1088380052EA430619D094EA0C0F02D150EA0136E5
:1088480013D195EA0C0F05D152EA03361CBF104626
:1088580019460AD181EA030101F0004141F0FE41C5
:1088680041F470014FF0000070BD41F0FE4141F449
:10887800780170BD70B54FF0FF0C4CF4E06C1CEA49
:1088880011541DBF1CEA135594EA0C0F95EA0C0FFE
:1088980000F0A7F8A4EB050481EA030E52EA0335B9
:1088A8004FEA013100F088804FEA03334FF08055DA
:1088B80045EA131343EA12634FEA022245EA111507
:1088C80045EA10654FEA00260EF000419D4208BFB8
:1088D800964244F1FD0404F5407402D25B084FEA65
:1088E8003202B61A65EB03055B084FEA32024FF411
:1088F80080104FF4002CB6EB020E75EB030E22BF6E
:10890800B61A754640EA0C005B084FEA3202B6EB2D
:10891800020E75EB030E22BFB61A754640EA5C00DC
:108928005B084FEA3202B6EB020E75EB030E22BF6C
:10893800B61A754640EA9C005B084FEA3202B6EB6D
:10894800020E75EB030E22BFB61A754640EADC002C
:1089580055EA060E18D04FEA051545EA16754FEA8E
:1089680006164FEAC30343EA52734FEAC2025FEAAC
:108978001C1CC0D111F4801F0BD141EA00014FF03B
:1089880000004FF0004CB6E711F4801F04BF01430C
:108998000020B4F1FD0C88BFBCF5E06F3FF6AFAE28
:1089A800B5EB030C04BFB6EB020C5FEA500C50F1B8
:1089B800000041EB045170BD0EF0004E4EEA11313B
:1089C80014EB5C04C2BFD4EB0C0541EA045170BD42
:1089D80041F480114FF0000E013C90E645EA060E86
:1089E8008DE60CEA135594EA0C0F08BF95EA0C0FB4
:1089F8003FF43BAF94EA0C0F0AD150EA01347FF4FC
:108A080034AF95EA0C0F7FF425AF104619462CE7D2
:108A180095EA0C0F06D152EA03353FF4FDAE104635
:108A2800194622E750EA410618BF52EA43067FF486
:108A3800C5AE50EA41047FF40DAF52EA43057FF416
:108A4800EBAE12E74FEA4102B2F1E04324BFB3F5BF
:108A5800001CDCF1FE5C0DD901F0004C4FEAC002AD
:108A68004CEA5070B2F1004F40EB830008BF20F091
:108A78000100704711F0804F21D113F13872BCBF4B
:108A880001F00040704741F480114FEA5252C2F1A0
:108A98001802C2F1200C10FA0CF320FA02F018BFE9
:108AA80040F001004FEAC1234FEAD32303FA0CFC3C
:108AB80040EA0C0023FA02F34FEA4303CCE77FEACB
:108AC800625307D150EA01331EBF4FF0FE4040F415
:108AD8004000704701F0004040F0FE4040F40000C4
:108AE800704700BF80F0004002E000BF81F0004105
:108AF80042001FBF5FEA410392EA030F7FEA226C3C
:108B08007FEA236C6AD04FEA1262D2EB1363C1BFCB
:108B1800D218414048404140B8BF5B42192B88BF3A
:108B2800704710F0004F40F4000020F07F4018BF5D
:108B3800404211F0004F41F4000121F07F4118BF7D
:108B4800494292EA030F3FD0A2F1010241FA03FC25
:108B580010EB0C00C3F1200301FA03F100F000430D
:108B680002D5494260EB4000B0F5000F13D3B0F1D5
:108B7800807F06D340084FEA310102F10102FE2A44
:108B880051D2B1F1004F40EBC25008BF20F00100B4
:108B980040EA03007047490040EB0000013A28BF53
:108BA800B0F5000FEDD2B0FA80FCACF1080CB2EBD6
:108BB8000C0200FA0CF0AABF00EBC2505242184354
:108BC800BCBFD0401843704792F0000F81F40001F9
:108BD80006BF80F400000132013BB5E74FEA4103CC
:108BE8007FEA226C18BF7FEA236C21D092EA030F38
:108BF80004D092F0000F08BF0846704790EA010FB2
:108C08001CBF0020704712F07F4F04D1400028BFDE
:108C180040F00040704712F100723CBF00F50000C0
:108C2800704700F0004343F0FE4040F400007047F6
:108C38007FEA226216BF08467FEA236301464202A2
:108C480006BF5FEA412390EA010F40F480007047B5
:108C58004FF0000304E000BF10F0004348BF40425B
:108C68005FEA000C08BF704743F0964301464FF097
:108C780000001CE050EA010208BF70474FF00003F3
:108C88000AE000BF50EA010208BF704711F0004334
:108C980002D5404261EB41015FEA010C02BF844604
:108CA8000146002043F0B64308BFA3F18053A3F563
:108CB8000003BCFA8CF2083AA3EBC25310DB01FAAA
:108CC80002FC634400FA02FCC2F12002BCF1004F2E
:108CD80020FA02F243EB020008BF20F001007047BF
:108CE80002F1200201FA02FCC2F1200250EA4C0013
:108CF80021FA02F243EB020008BF20EADC70704759
:108D080053B94AB9002908BF00281CBF4FF0FF31EA
:108D18004FF0FF3000F00CB8ADF1080C6DE904CE4F
:108D280000F008F8DDF804E0DDE9022304B070473C
:108D3800704700BF2DE9F04786468C460846089ED6
:108D4800154674461946002B40F0C1808542B2FA98
:108D580082F245D94AB1C2F1200300FA02FC9540DB
:108D680094402EFA03F343EA0C0C4FEA154EA8B2CE
:108D7800230CBCFBFEF80EFB18CC08FB00F943EAF9
:108D88000C43994528D9EB1808F1FF3704D29945C7
:108D980002D9A8F102072B44A3EB0903A4B2B3FB41
:108DA800FEFC0EFB1C330CFB00F044EA0344A0421B
:108DB80014D92C190CF1FF3304D2A04202D9ACF11A
:108DC80002032C44241A43EA07401EB1D44000236E
:108DD80034607360BDE8F0874746DDE76346F1E736
:108DE80092BB431B01214FEA154EAFB2200CB3FBD7
:108DF800FEFC0EFB1C330CFB07F840EA03439845C6
:108E080061D9EB180CF1FF3004D2984502D9ACF1C6
:108E180002002B44A3EB0803A4B2B3FBFEFC0EFB39
:108E28001C330CFB07F744EA0344A7424DD92C191D
:108E38000CF1FF3304D2A74202D9ACF102032C444F
:108E4800E41B43EA0040C0E7C2F120039540944088
:108E580020FA03F12EFA03F34FEA154E9040AFB211
:108E68000343B1FBFEFC0EFB1C10190C0CFB07F8AE
:108E780041EA0041884522D969180CF1FF3004D233
:108E8800884502D9ACF102002944A1EB08019BB244
:108E9800B1FBFEFC0EFB1C110CFB07F743EA014378
:108EA8009F420ED9EB180CF1FF3104D29F4202D930
:108EB800ACF102012B44DB1B41EA004193E7604619
:108EC800E3E76146F7E76046A4E76346B8E783420D
:108ED80006D916B9002108467CE7C6E900E0F9E79B
:108EE800B3FA83F78FB9834201D3724508D8BEEB32
:108EF800020460EB030301209C461EB9002169E7C8
:108F08003846FAE7C6E9004CF8E7C7F1200CBB4041
:108F18000EFA07F522FA0CF42EFA0CF1BA401C43AB
:108F280020FA0CF3B8404FEA144901431FFA84FEB3
:108F3800B3FBF9F809FB18300B0C08FB0EFA43EAEF
:108F480000439A4540D9E31808F1FF3004D29A4506
:108F580002D9A8F102002344A3EB0A0389B2B3FBA8
:108F6800F9F809FB183308FB0EFE41EA03418E4568
:108F78002CD9611808F1FF3304D28E4502D9A8F123
:108F88000203214443EA0040A1EB0E01A0FB029832
:108F98004145CE46434602D306D14D4504D2013859
:108FA800B9EB020E68EB0403002EA7D0B5EB0E0256
:108FB80061EB030101FA0CFC22FA07F3F9404CEAD1
:108FC8000303C6E9003199E74046C5E74346D9E7B8
:108FD80010F8012B11F8013B012A28BF9A42F7D05B
:108FE800D01A7047034611F8012B03F8012B002A09
:108FF800F9D17047034613F8012B002AFBD1181A40
:1090080001387047000000000023F0B587B0CDE9B3
:10901800043304230D4606460193002800F0AC8073
:10902800002900F0A980062104A80BF0F1FB0446F2
:1090380040B103460121544A54480BF038FD2046FC
:1090480007B0F0BD014604AA30460BF0BCFB04464D
:1090580048B103464E4A01214C480BF028FD04A8AC
:109068000BF000FCEBE76A46012104A80BF0ACFC0E
:10907800044610B10346474AEDE7009BB3B1042B01
:109088001AD0052B0CBF0923FF232B70032101AB3A
:1090980002AA04A80BF0C4FC064678B103463E4A6F
:1090A80001213A480BF003FD3446D8E7002300209D
:1090B8002B706860A860D2E70723E6E7019B002BC6
:1090C800F4D018336B4403F8100C0146022202A8AE
:1090D80009F044F82B78C0B2092B06D10F2824D9FF
:1090E8006FF0150423462D4AB5E70F28F8D8072B4B
:1090F80022D12B4B2B4F33F81000D8B1FFF726FAAB
:109108001FA3D3E90023FFF78BFAFFF79BFC042189
:1091180068600DEB010302AA04A801910BF080FC22
:10912800064660B10346204ABAE7204B204F33F881
:109138001000E2E71F48EAE76FF07F04D2E7019BDF
:10914800014618336B4403F8100C022202A809F0F8
:1091580005F8C3B20F2B07D90121174A0B480BF0AA
:10916800A6FC6FF015047AE7581CC0B2FFF774FD2F
:109178003946FEF7E5FF9DE76FF015045FE700BF8E
:109188007B14AE47E17A244027770100A4600100F0
:1091980050770100797701009B770100C7770100BC
:1091A800D06801000AD7A33FEB770100B06801003F
:1091B8000AD723400AD7A340167801002DE9F043C7
:1091C8008FB000AF0024102503212D4A2D480BF045
:1091D80036F82D4B2A46214607F128003B603C71A2
:1091E8000CF009FD11221323C7E9072312237B6220
:1091F800072387F82930FF2387F82A30234B224694
:10920800FB6207F1180123463846BD6106F040FAB3
:109218009F221F4B07F108051A701E4B1E4C0FCBDF
:1092280085E80F001D4E29460022384606F064FAEC
:10923800E8468CB06A4694F8009094F801E094F8F7
:1092480002C0E07821796379D3620823C2E905690D
:10925800C2E907ECC2E9090142F8103F002344F2D1
:10926800C001084800F086FFC5460D480121836803
:109278005B69984700214FF4004008F0BFFBD2E734
:10928800F66801006C6001000090004000127A004E
:10929800C8C600203061010090D600202169010075
:1092A8003C5E01002DE9F04F91B0009302F00403F9
:1092B8000293C2F3C2030133840705460E46DDF864
:1092C80068900392059340F0BB81041D30B10729D3
:1092D80009D86FF01B0011B0BDE8F08F01F0070648
:1092E800341DC6F10806009B4FF000084FF0040A31
:1092F800591E4FF0FF3347460193C3465346CDF8F6
:1093080010800DB1009A22600598002800F3E880CB
:109318009848009A824203D397488242C0F0E0807E
:10932800039AA4EB050E92074FEA9E0000F1038111
:109338000F2F00F2B180002D00F0058107F14002E7
:109348000DEB020C019A0CF8200C0CF8102C049868
:1093580001300490E7E07A285DD84B280ED84728DA
:1093680059D829282DD8252852D054D820287AD041
:109378002338D0F1000B4BEB000B74E04C382E284F
:1093880049D8DFE800F07048484848484848484805
:1093980048484B484848484848484859484B4B591A
:1093A8005959704B6D487048184B184848827F4B84
:1093B80048484B487F0000204FF0000B4FF0040A4C
:1093C80038E001222A38C0B202FA00F010EA0E0F83
:1093D80049D110F0625C2FD110EA020B43D06046ED
:1093E800013C5444B4FBFAF40AFB04F4002D61D0A8
:1093F800A3EB050CA4446645FFF46BAF002868D1C5
:10940800042B47D159F8043B2360042304342AE091
:10941800019A013A01924FF0000B24E011F8010C77
:109428006C2834D1002011F8023C83466C2BC5D13E
:109438004FF0080A5346D3E709F1070929F007094D
:10944800073424F00704F9E802AB35B10698204444
:10945800B0423FF63EAFC4E900AB4FF0000B083412
:109468004FF0080A534611F8010F002878D0BBF1D5
:10947800000F7FF470AF2528F5D14FF0010B019B49
:10948800013301934FF0040AECE7584694E70020B3
:109498008346A5E7082B02D06FF015001BE709F1FA
:1094A800070929F00709F9E80223C4E9002308237A
:1094B8000834D8E768B9042B02D109F10409A4E7F4
:1094C800082BE9D109F1070929F0070909F1080969
:1094D800EDE7059A013A059259F8042B009210E736
:1094E800039A900720D54FF0010CA4EB050E4FEA24
:1094F8009E00BEF5007FCFD20F2FCDD8F5B107F172
:1095080040020DEB020E019AC0B20EF8200C0EF8C4
:10951800102CBCF1000F3FF41AAF60F07F000EF87A
:10952800200C08F101080137C5F108024FF6DA7E70
:109538000434069297E74FF0000CDAE7BCF1000F0D
:1095480001D00136EFE7029802360028EBD10098E7
:10955800CDE90631FFF74EFDDDE906310644E2E7C5
:10956800631BB3F5806F97D245B9A6F10804E018DC
:10957800B1E600BFB05D010018850100029A9B08A2
:1095880028602B709DF81030C2B1EB7085F802800E
:10959800B8F1000F05D0002208A8C5F1010C9742C8
:1095A8000ED14FF0000AC5F101030DF12009019316
:1095B8000DF1300B574512D1601B8CE66B70E5E757
:1095C80010F8013B190608D504EB0C0E764503F09C
:1095D8007F03FFF47EAE04F8013B0132DFE7B8F108
:1095E800000F03D099F90020002A17DB029BD3B1A2
:1095F8001AF80B2004F8012B0022019B981820442C
:109608008642FFF466AE99F80000009904F8010B51
:10961800204603920CF0E2FA039A14440AF1010A74
:1096280009F10109C6E799F8002055F8223000939E
:10963800029B009845F82230FFF7DCFC421CDCE76F
:109648006FF00D0047E600BF2DE9F04F95B000AF71
:10965800BB61BB6F0446C3F3C0038A4690F802B0EF
:109668007A623B6141B9457800780BEB8000204471
:10967800554517D8A0EB040AE3787B61BBF1000FCE
:1096880002D0BB6FD80716D47B6953BB7B6A1BB16A
:1096980051462046BA699847554628465437BD462C
:1096A800BDE8F08F461C3046FFF7A4FC013030447B
:1096B8000AF1010ADCE7237862683B629B00FB60E1
:1096C8003B6AFA6104EB83097B6A002B40F0FF8058
:1096D800C8460026554609EB0B0AD04551D1D94456
:1096E80013E0BB6F9907D1D5237899463B629B005D
:1096F800FB60636804EB8909FB617B6A002B7AD104
:109708005546BBF1000F4FD15E46BB6F13F0050FF6
:109718000CBF4FF0020B4FF0010B7B6909EB430ABA
:10972800BB6F03F002037B62D145B6D019F8021B68
:1097380019F8013C54F82380AB4B984502D3AB4B46
:10974800984538D33B69002B42D0F86909F0D0FE20
:1097580000283DD0E8468AB06A46A54B5361FB69AC
:10976800C2E906314FF400731384A24B42F8103F4C
:1097780000234FF41251A04800F0FCFC023DC546FE
:10978800D2E718F8013B54F82300FFF733FCFB6FCE
:1097980001303BB1D7F880309E423EBFFB6F23F8C3
:1097A80016000136054498E7BB6F13F004061CBF8A
:1097B8007E6AD944A9E73B6923B1F86909F098FEA4
:1097C8000028C7D1BB6FDA0705D4A5EB0B05ABE7BB
:1097D8007B6A002BA8D04046FFF70CFCFB6F43B117
:1097E800D7F880309E423FBFFA6F431C22F81630EC
:1097F8000136054498E7BBF1000F6ED0BB6F13F03C
:1098080004066DD0D846002607F140005A4649465E
:109818000CF0E4F97B69D9445B007B607B6909EB58
:109828004303BB60BB6F03F002033B60BB684B455F
:1098380058D1B96F6378B86F890748BF002106EB24
:10984800030258BF4FEA5801C507D2B200F19A8007
:1098580010F0040F14BF40460020FB616270A07036
:10986800E1702046BA69F9687B6A9847051EFFF6D9
:1098780014AF3B6A41462370FB69BA6963707B6920
:1098880084F802B0E37007F140007B6A9847B0F1B2
:109898000008C0F2A480FB68AAEB0B01C91A7B6818
:1098A8004846C91ABA697B6A98470028C0F2998065
:1098B8004FF0000BA84408EB000507F1300AB34548
:1098C80062D30021BA6908467B6A9847E5E65E4696
:1098D8004FF0000807F1300098E75E46D84699E750
:1098E800B04697E719F8021B3F4B19F8015C54F88A
:1098F8002500984202D33D4B98421DD33B6923B1C2
:10990800F86909F0F5FD002890D13B68FBB908F12A
:10991800280307F1280208F1010003EB020C07F104
:10992800500308F1020853FA80F00CF8101C5FFA93
:1099380088F800F8105C79E73B692BB1F86909F001
:10994800D7FD00287FF472AFBB6FDB0709D506F19E
:10995800280307F12802711C9E1806F8205CCEB275
:1099680064E7BB6F58077FF561AF08F1280307F17B
:10997800280208F1010103EB020808F8105C5FFAFD
:1099880081F853E7002068E71BF80A3054F8239061
:1099980087F82F30FB6FFBB133F81B800121BA69C0
:1099A8007B6A07F12F00984700281ADB0544B8F1B5
:1099B800000F06D14846FFF71DFB00F101081FFA0A
:1099C80088F841464846BA697B6A9847002808DB08
:1099D80005440BF1010B72E7D7F87C80DEE74546BA
:1099E8005BE6054659E600BFB05D01001885010039
:1099F80064690100040000017C600100014B1860EB
:109A0800704700BF80C5002080B505460E46174642
:109A1800984608F00DF803460CF0BCF90446DFF848
:109A28001890424649F8003039463046A84754F85D
:109A3800090001F09FF900BF080000002DE9F04778
:109A4800058B04462807904611D4022905F007051E
:109A580040F0CD8020460AF02CF878B10138218BEF
:109A6800042811D8DFE800F0C3106D85950001299E
:109A78000CBF45F0100545F02005258388F31188B3
:109A8800BFF36F8FBDE8F08701F0070AAA4500F021
:109A9800A6800027B9463E46A368002B00F0BD808B
:109AA80041F00801218388F31188BFF36F8FA16803
:109AB800002900F0BB800D68002900F0B78033460C
:109AC80052462046D1F80480C047002D76D02B6836
:109AD80029461D46F0E701F007035A1F012A1BD843
:109AE800002221F00701062B276889B2C4E9002269
:109AF80009D13B4603E0628B013262831B68002B6D
:109B0800F9D141F002012046218309F0D2FF002853
:109B18007BD041F0200177E0042B0AD121F0070126
:109B280089B22046218309F0C4FF10B141F0200119
:109B38002183218B01F0070AAA4550D00027B94696
:109B4800AAE7236921F0070141F00601062DD3F8A1
:109B5800009021832DD1B9F1000F40D041F00801C8
:109B6800218388F31188BFF36F8F20463949C8478E
:109B780029E021F00701236941F0040189B2042D8D
:109B8800D3F804902183E6D000274FF0040A3E461C
:109B980082E721F00701236941F0050189B2052D0B
:109BA800D3F808902183D6D000274FF0050A3E4607
:109BB80072E700274FF0060A3E466DE72B4687E717
:109BC800B9F1000FD1D14FF02003EFF3118883F3DF
:109BD8001288BFF36F8F238B23F008032383258B11
:109BE800EA062ED525F01003238305F007056669DC
:109BF800218B002EBFF66FAF00232768C4E900331E
:109C080021F0070141F001012183218B4FF0000968
:109C180001F0070AAA457FF43FAF002F9BD041F01F
:109C28000801218388F31188BFF36F8F002FC7D0F5
:109C38003D68394633465246204609F066FF2F46AE
:109C4800F4E7AB067FF51AAF25F02003238305F070
:109C58000705FFE63F3B01002DE9F04704460746AC
:109C68004FF00109DFF8508014B93846BDE8F08795
:109C780094FAA4F5B5FA85F509FA05F32E0108EB6F
:109C880005156FEA030A24EA03042B7B002BEBD0AB
:109C980058F806301B694BB94644736804222846B5
:109CA800196807EA0A0700F051FADDE728469847DD
:109CB8000028D9D1F0E700BFDC60010030B50022F0
:109CC80089B00F490F480BF07CFD002200230024C7
:109CD800CDE906230E230C4DCDE903344FF4407231
:109CE8002846CDE90144094B0949009407F0BAF820
:109CF8000849284607F040F8204609B030BD00BFA3
:109D0800219D0000E8CC002028C80020F99F000011
:109D180068D70020186A0100014807F007BA00BF99
:109D2800F4C700202DE9F04780461F480F460AF087
:109D380004FA0646002830D000252846BDE8F087FA
:109D4800237B73B12368DB680BB1204698472368EF
:109D58001B69D3B9636804222046196800F0F6F934
:109D6800013610344C45EBD3B8F1000FE5D0002D87
:109D7800E2D02846FFF770FF0546002FF7D00021F4
:109D88004FF4A47007F03AFEF1E720469847002800
:109D9800E0D00AFA06F31D43E2E705464FF0010A50
:109DA800024CDFF80C90DDE7E8CF0020DC60010012
:109DB800EC600100014B53F820007047FC63010080
:109DC80008B5034608462BB1044A136000F072FC3C
:109DD800002008BD6FF01500FBE700BF84C5002018
:109DE80010B5044C237813B9034807F09FF90123F1
:109DF800237010BDA5D60020F4C7002010B5044676
:109E080006480AF09AF93CB1054BD3E8EF1F01392F
:109E1800C3E8E21F002AF8D110BD00BFE0CF002040
:109E2800E4CF002000200146034BD3E8EF0FC3E83E
:109E3800E21F002AF9D17047E0CF002070B5FFF784
:109E4800F1FF0546074C084EB44200D370BD636865
:109E58005B792BB123685B6813B129462046984784
:109E68001034F1E7DC600100EC60010010B5044C2F
:109E78000449204609F0F2FF034B1C6010BD00BFE7
:109E880058C70020E8630100D8CF002008B5002398
:109E9800074A4FF400411370064A07481360074AFF
:109EA8001360FFF78DFFBDE80840FFF7DFBF00BF75
:109EB800A6D60020E0CF00203F410100E4CF0020DB
:109EC800014600220023014809F0E9BF58C70020D5
:109ED80001480AF082B800BF58C70020024B01466B
:109EE80018680AF0CCB800BFD8CF002001480AF0A3
:109EF80002B900BF58C7002070B5264B1878002853
:109F080047D0FFF7E5FF054670B1234BD3E8EF1FB5
:109F18000139C3E8E21F002AF8D1204C204EB44290
:109F28002DD32846FFF7DAFF1E4B1F4C1B68002B6A
:109F380019DD0BF0FFFB4FF47A72A0FB020302FB62
:109F48000131C30B43EA4143D4E900209B1A40F294
:109F5800E9324FEAD13161EB0001934271F100011E
:109F680001D3FFF76BFFD4E9003213F57A7342F19E
:109F78000002C4E90032BDE87040FFF7B7BF63686C
:109F88005B7923B12368294620461B68984710341B
:109F9800C5E770BDA5D60020E4CF0020DC60010035
:109FA800EC600100E0CF0020E0CC002070B50D4D42
:109FB800297861B90120FFF7B5FE0B4C0B4EB4426E
:109FC80006D3FFF799FF0028FBD101232B7070BD42
:109FD80063685B791BB1236820469B6898471034F7
:109FE800EDE700BFA6D60020DC600100EC600100B0
:109FF80000212DE9F0470846FFF794FE044658B3C0
:10A0080040F267684FF000090BF0C4FE1B4B1C4A76
:10A018001B58136033B11B4B1B68092B02DD1A4810
:10A0280007F084F80025194FDFF85CA044B12046FA
:10A03800FFF712FE044618B94FF0FF384FF0FF390A
:10A04800FFF75AFF064628B9B5B942464B4650466F
:10A0580007F092F83546E9E74FF0FF384FF0FF393F
:10A06800D2E72B689B691BB1002228461146984706
:10A078001035BD42F5D3E8E7054DFAE708000000C2
:10A08800DCCF0020E4CF0020F4C70020EC60010002
:10A09800DC60010013B518480AF04FF8174B1B781D
:10A0A8007BB14FF02003EFF3118483F31288BFF3E1
:10A0B8006F8FFFF721FF84F31188BFF36F8F02B012
:10A0C80010BD0F4B1B68002BF9D050B9002200239C
:10A0D8000C48CDE900234FF40042002307F08CFE22
:10A0E800EDE70928EBD107480BF077FB064802B0EB
:10A0F800BDE8104007F01AB8E4CF0020A6D600202B
:10A10800DCCF0020E8CC0020F4C7002010B5064BB7
:10A1180004461B6898472146A060044809F03DFFA3
:10A12800BDE81040FFF7B6BF84C5002058C700201F
:10A13800044A054B9B1AB1EBD30F34BF52F83100D8
:10A14800002070476C600100DC600100084B10B40F
:10A15800C31A44681B110133237143689A710122A1
:10A168004368196043685A7110BCFFF739BE00BFD5
:10A17800DC6001002DE9F04F8FB0C1F34A2804AF2D
:10A188000D469146B8607B600C0DB8F1000F63D0A6
:10A1980000264FF0040B4FF00A0A07F11403C7F822
:10A1A8000C80C7E907667E620193CDF808B0CDF848
:10A1B80000A007F11C0332464846F968FFF744FA45
:10A1C800B0F5006F03461CD36C468AB0D9F804106A
:10A1D80004AB26481A46C3E9050140F2FF71D9616C
:10A1E8004FF400711984224B42F8103F4FF412517A
:10A1F80033462048FFF7BEFFA5462C37BD46BDE8CD
:10A20800F08FC0F30A0804F11700184420F0070083
:10A2180080083B60FFF754FE68F35325044690B16D
:10A228003B6800F11001C7E9083607F11403F9612A
:10A23800CDE900A3CDF808B048460F4AF96807F100
:10A248001C03FFF701FA68F353252A4620467B686A
:10A25800B96809F0A4FFD0E704F1170020F007005F
:10A268008008FFF72DFE0446EDE700BF2D6A0100C8
:10A27800040000018C6001007B4101002DE9F04FD2
:10A2880087B00446DDE9105ADDE912690F469346A6
:10A298009846A6B31021334652460020CDF80090C8
:10A2A800CDF81490FEF7FEFF014605F117000844AB
:10A2B800144B04F007040BF0070BE40020F0070030
:10A2C80003EA412344EA8B1480081C430391FFF7F7
:10A2D800F7FD44EA0554054640B13EB133465246BF
:10A2E8000399CDF800901030FEF7DCFF4346224674
:10A2F8003946284607B0BDE8F04F09F050BF31464F
:10A30800D3E700BF00FE0F000EB403B503AB53F84C
:10A31800042B01460448019301F094F802B05DF85B
:10A3280004EB03B0704700BFB9420100CA0605D468
:10A338008B064CBF02490349FFF7E6BF704700BFD1
:10A3480069800100688001002DE9F04F89B09B46C3
:10A35800DDE916769DF84C3004460493DDE9149344
:10A368000593049B0D460692002B00F0878006F0AB
:10A378000803079309F0FBFE06F0020A02460028CC
:10A388004BD020468549FFF7BFFF8046BAF1000F42
:10A3980008D016F0440F42D12A4620468049FFF7DC
:10A3A800B3FF804406F001035BB17E4B049A20465C
:10A3B80053F822207C4B7D49002A08BF1A46FFF734
:10A3C800A3FF06F00803002B55D0794B049A2046CA
:10A3D80053F822207749FFF797FF0546069B2BB1D4
:10A3E8001A4620467449FFF78FFF0544BBF1000F5A
:10A3F80005D05A4620467149FFF786FF0544454473
:10A40800B9F1000F49D1002F4FD1F30700F1C080F7
:10A4180031462046FFF78AFFB4E08046B6E7684B2E
:10A4280018680028BDD0674B4FF47A7E1B684FF43C
:10A438006162B5FBF3F5B5FBF0F300FB13550EFBBA
:10A4480005F5B3FBF2FAB5FBF0FC3C2102FB1A322E
:10A4580000FB1C55B2FBF1F30EFB05F5B5FBF0F55F
:10A4680001FB132220460092CDE901C55246564908
:10A47800FFF74AFF95E706F00805AFE7BBF1010FC4
:10A4880006D1B9F1000F64D1002F7BD000250CE074
:10A49800B9F1000FF8D04D485CE04D484B462246D4
:10A4A8004C4908F0F4FF002F68D0DFF82C91DFF852
:10A4B8002CA1102F31462046B8464FF0000B28BF7C
:10A4C8004FF01008FFF732FF5D4545DC059B51460C
:10A4D80020461A78FFF718FF4FF0010B1BF0070F03
:10A4E80003D149462046FFF70FFFD8453BD9059BC6
:10A4F8005146204613F80B20FFF706FF0BF1010B1E
:10A50800BBF1100FEAD14FF0000B20463449FFF79A
:10A51800FBFE5A46059B20469A5CA2F120015F2962
:10A5280028BF2E222F49FFF7EFFE0BF1010BBBF1DD
:10A53800100F1DD01BF0070F03D149462046FFF727
:10A54800E3FED8455A46E5D849462046FFF7DCFEE3
:10A55800EBE71F48049DA1E749462046FFF7D4FED4
:10A568000BF1010BB0E720461F49FFF7CDFEC5E709
:10A57800059BB7EB0807434405939AD1049B002B2E
:10A588007FF443AF204609B0BDE8F04F09F083BE21
:10A598002046054A0549FFF7B7FE39E7716A010009
:10A5A800756A01000C6401006C6A01008574010081
:10A5B800206401009A6A0100A06A0100A46A0100EF
:10A5C800F0CF0020ECCF00207E6A0100E7420100B6
:10A5D800B94201004DB40000B16A0100A96A010046
:10A5E800B36A0100C8750100AF6A01002DE9F041A6
:10A5F8000F884B6805460C4690468E6886B0C7F3B0
:10A6080082175BB1144A9B1A43F3CF01002920DB60
:10A618002078C0F3C200FFF78BFD0346214651F8AE
:10A62800102B6088C2F34A22002A01EB020408BFFB
:10A6380000210022C0F30B10CDE90408CDE9021473
:10A648002846314601970092FFF77EFE06B0BDE826
:10A65800F0810023E2E700BF6C60010042F20F7353
:10A6680073B58B4228BF0B4605680446052168462A
:10A678000D4A07F041FC0646636828460B225B68D2
:10A688000A4909F0FBFD63683246694628465B685B
:10A6980009F0F4FD63681B2228465B68044909F049
:10A6A800EDFD02B070BD00BFB2750100D16A0100B6
:10A6B800B56A010000210123064A904206D8064ADD
:10A6C80001B901231360054B186070470121400848
:10A6D8005B00F2E740420F00ECCF0020F0CF0020F3
:10A6E800F8B50D460446064F4618B44201D128462F
:10A6F800F8BD14F8011BBB6801485B689847F4E78C
:10A70800505E0100014B036000207047686401003F
:10A718002DE9F04780460C4600AF002936D0D1E934
:10A728000012E9468AB06D46A3684FF0050A2E4626
:10A738001A48C5E90723C5E9050146F810AF002303
:10A7480032464FF421511648FFF714FDD4E903129D
:10A75800CD466369AD461348C5E90723C5E9050138
:10A76800C5F810A0002332464FF421510C48FFF7DA
:10A7780001FDCD46E36901210B4A094809F068FD4E
:10A78800A3690121094A064809F062FD21464046AD
:10A7980006F04EF9BD46BDE8F08700BF176B010013
:10A7A800C4600100466B0100756B0100846B0100F9
:10A7B80030BFFFF7FDBF00BF124B134A2DE9F04130
:10A7C800D518013DB5FBF3F5DFF840805D43104B2C
:10A7D800074608EB0304013CB4FBF3F403FB045401
:10A7E8000E1B30460B490BF0F9F97019424600214F
:10A7F800083E0BF000FAC7F8A46004F10800BDE8B1
:10A80800F08100BF01000000000000000800000007
:10A818000400000030610100044B996858698842BF
:10A8280003D003494FF080520A60704750D6002089
:10A8380004ED00E070B52A4C06460D4629482A4921
:10A8480009F08EFDA36ADB0647D52648274909F09B
:10A8580087FD1120A36A1C0704D52248244909F062
:10A868007FFD12201E4CA36A990712D521491D4865
:10A8780009F076FD636BA26A120609D501211E4A0A
:10A88800184809F0E5FC1EB1A36A23F08003A3620F
:10A898001320134CA36ADE0704D51248174909F0A0
:10A8A8005FFD1420A36A9C0604D50E48144909F0DC
:10A8B80057FD15200A4B9A6AD10658BF9A6A9A6AB8
:10A8C800920642BF5A6A22F400525A629A6A42F0C9
:10A8D800FF029A6200232B7070BD1020BAE700BFF8
:10A8E80000ED00E0C4600100B26B0100C86B01001C
:10A8F800FB6B01000E6C0100266C01003C6C010032
:10A908005B6C010010B5244C2449254809F028FD4A
:10A91800A36A99013ED52248224909F021FD1E204B
:10A92800A36ADA0104D51E481F4909F019FD1F2042
:10A93800194CA36ADB0204D519481C4909F010FD1B
:10A948000220A36A1C0304D51548194909F008FD1B
:10A958002120114CA36A590304D51148154909F05F
:10A96800FFFC2220A36A9A0304D50D48124909F076
:10A97800F7FC2320084CA36ADB0304D508480F49D9
:10A9880009F0EEFC2420A36A6FEA03436FEA13433D
:10A99800A36210BD1D20C3E700ED00E08A6C010032
:10A9A800C4600100A26C0100B56C0100CF6C01000D
:10A9B800F96C0100176D01003C6D0100566D010036
:10A9C80070B5294C06460D462848294909F0C8FCA7
:10A9D800A36AD9043CD52548264909F0C1FC1720AB
:10A9E800A36A1A0504D52148234909F0B9FC18209F
:10A9F8001D4CA36A9B0512D51C48204909F0B0FCE0
:10AA0800A36BA26A100409D501211D4A174809F051
:10AA18001FFC1EB1A36A23F40043A3621920124C41
:10AA2800A36A590504D51148164909F099FC1A205A
:10AA3800A36ADA050ED50D48134909F091FC1B20CD
:10AA4800094A936A43F47F43936200232B7070BDD5
:10AA58001620C5E7A36A9B04F2D504480B4909F000
:10AA68007FFC1C20ECE700BF00ED00E0C4600100A3
:10AA7800816D0100976D0100FB6B0100A86D01005D
:10AA8800C16D0100D66D0100F16D01005B6C010024
:10AA98002DE9F0478AB0694B0446D3F804A08946EB
:10AAA8001646002500AFCAF3080885F31188BFF3DE
:10AAB8006F8F02F07F43B3F17F4F1ED1D3071CD4B1
:10AAC800500603D4110708D4012508E05C495D4805
:10AAD80009F046FC16F0040600D04C460025002379
:10AAE800FB71A8F10303092B00F28680DFE803F06D
:10AAF800077C7F798484848484822C46EFE75249DA
:10AB0800504809F02DFC00234C4EFB71F36A9A075C
:10AB180005D54E494B4809F023FC002329E0F36A88
:10AB2800002B01DA4A49F5E7F36A5B00F5D5494994
:10AB3800444809F015FC7369A26943F48073736192
:10AB4800BFF34F8FBFF36F8F736932F8022C23F472
:10AB580080737361BFF34F8FBFF36F8F4DF602732E
:10AB68009A4228D1236801213B4A364809F070FBF4
:10AB78002368FA79DAB907F1080604F1200C32469D
:10AB880020686168083403C264451646F7D17A6ABA
:10AB9800002D4ED0C2F3080121B96FEA52226FEAA4
:10ABA80042227A62184607F10801FFF7B1FD2837FB
:10ABB800BD46BDE8F087B36ADBB22BB10120F91DB1
:10ABC800FFF738FE0346D4E7B36A13F47F4F04D087
:10ABD8000120F91DFFF7F4FEF4E7B36AB3F5803FEF
:10ABE8009BD3FFF78FFEEDE70020F91DE8E7002073
:10ABF800F91DEFE719498DE7194A6E461AF4F87FEF
:10AC08008AB0184B18BF13466A461749C2E905139C
:10AC1800A8F11003D3614FF400731384134B42F867
:10AC2800103F00234FF411510648FFF7A3FAB54629
:10AC380073E722F4FF7222F00102B2E700ED00E0B0
:10AC4800376E0100C46001005A6E0100716E010088
:10AC5800926E0100A06E0100BF6E0100DB6E010064
:10AC68001E6E0100096E0100FF6E01000400000164
:10AC7800044B5A6942F010025A615A6942F48062E0
:10AC88005A61704700ED00E0EFF30880EFF30981A7
:10AC980001B57246FFF7FCFE01BD00BF0020154953
:10ACA8000870002080F31488BFF36F8F002080F3B2
:10ACB8000A8880F30B8800F011FC00200E49086018
:10ACC800BFF34F8F0D4880F3088800F02DF820203F
:10ACD80080F311880A484FF40061401880F309880E
:10ACE800EFF314800221084380F31488BFF36F8FB9
:10ACF80000F000F966D7002094ED00E0A8E80020F5
:10AD080068DB0020002318460649D1F89020C2F3DA
:10AD18000722934200DB7047C1F89830C1F8A000C1
:10AD28000133F6E700ED00E010B572B6002484F3B5
:10AD38001388FFF7E7FF23464FF0FF300C4A03F173
:10AD480020010133102B42F82100F8D100234FF0E5
:10AD5800FF30074A03F160010133102B42F821004C
:10AD6800F8D162B6BFF34F8FBFF36F8F10BD00BF2E
:10AD780000E100E0084B9B6883420BD1EFF30583A9
:10AD880043B1064B5A6842F080525A605A6A22F41C
:10AD980000425A620AF06FBC50D6002000ED00E075
:10ADA8006FF00A01094A9368C3F8AC100849C3F860
:10ADB800A8004B6843F080534B60002383F311884D
:10ADC800BFF36F8F9368D3F8AC00704750D600205C
:10ADD80000ED00E019498A6882F8B1E04FF03000D0
:10ADE8001044EFF3098C80E8F01F202080F31288CC
:10ADF800BFF36F8F124F4FF000664A698A603E605A
:10AE08004FF0A404141920680E4C206092F9B1E0A8
:10AE1800D2F8A8000023C2F8A83080F3118802F104
:10AE2800300090E8F01F8CF3098802F1000004B5A7
:10AE380009F0A0FABDE804407047000050D6002091
:10AE480004ED00E018D000201EF0040F0CBFEFF353
:10AE58000880EFF30980816911F8021C0229FFD0EC
:10AE680001B509F072FA01BD40B2002807DB0123E1
:10AE78004109034A00F01F00834042F8213070471F
:10AE880000E100E040B200280CDB0122064943093A
:10AE980000F01F008240203341F82320BFF34F8F7A
:10AEA800BFF36F8F704700BF00E100E0054B420918
:10AEB80053F82220012300F01F0003FA00F010408D
:10AEC800704700BF00E100E040B2002801F1010135
:10AED800ACBF00F16040064B4FEA4111C9B2ABBFAD
:10AEE80000F5614000F00F0080F800131954704716
:10AEF80014ED00E00B4A08B50B4B22F07F029A6074
:10AF0800BFF34F8FBFF36F8FD3F8882022F47002FE
:10AF1800C3F8882005F040FE06F0A2FD00F062F8B4
:10AF280005F088FE0080000000ED00E042F8203CBB
:10AF3800009B0D4942F81C3C019B21F0010142F89D
:10AF4800183C029B42F8081C42F8143C4FF08073EE
:10AF580042F8043C0023C0F8A8304FF43C43203AA0
:10AF68000265C0F8B0307047119A00000B4BD0F85A
:10AF7800A44098600A4B1C60D0F8943083F30B8887
:10AF8800104681F30988002163B681F31188BFF365
:10AF98006F8F00220023FEF737FD00BF50D6002038
:10AFA80018D00020014910220A60704710ED00E017
:10AFB80072B6404080F31188BFF36F8FBFF34F8F95
:10AFC80030BF62B6BFF36F8F704700BF72B649409B
:10AFD80081F31188BFF34F8F20BF80F3118862B6C9
:10AFE800704700BF002320210348C2180133412BBA
:10AFF80082F80013F9D1704700E100E001B5EFF3E2
:10B008000580A0F110004FEAC0000449014409C9B5
:10B018009847BDE80140024908470000645E010006
:10B0280021A800001FB5094C094A234601210948F7
:10B0380000F00AF900230393074B0121E41A01A841
:10B048000193029400F00AF904B010BD0000042036
:10B0580080C500206864010028C8002010B50C7A5B
:10B068000B6804F01F0223F01F031A43CB6864091E
:10B0780023F01F03054943EA440343F00103C1F8E1
:10B088009800C1F89C20C1F8A03010BD00ED00E088
:10B098000F2810B508D901210346054A054809F0CB
:10B0A800D7F86FF0150010BDFFF7D8FFFBE700BF1A
:10B0B800166F0100B46001002DE9F04F894614466F
:10B0C80006464FF00008514D85B0C84527DAD6F836
:10B0D80004A0BAF1000F44D0BAF11F0F17D91AF023
:10B0E8001F0F14D1D6F800B01BF01F0F0FD1584610
:10B0F80009F045F907460AEB0B00013809F03FF95A
:10B10800874210D06FF01507414A3B4601E043469D
:10B11800404A0121404809F09BF86FF01504204689
:10B1280005B0BDE8F08F17F1160FEDD0BC42EBDD8E
:10B13800C5F89870D5F89C10C5F89870D5F8A03067
:10B1480021F01F0143F01F0BD6E900321A4499423F
:10B1580002F1FF3A1DD1D34507D13146F8B209F0C3
:10B1680017F908F101080C36AFE73146C5F89870B1
:10B17800D5F89C3022F01F0203F01F031343C5F8D3
:10B188009C30E0B209F004F910F1160FC5D0441C48
:10B19800E7E7C5F89870D5F8A020013B23F01F0316
:10B1A80002F01F021343D3453146E0B2C5F8A03080
:10B1B800E8D009F0EDF810F1160FAED0C5F8987088
:10B1C800D5F89C209DF808300BF1FF3B62F304038F
:10B1D8008DF80830D5F8A0309DF808205B0863F397
:10B1E80047128DF80820D6E900321344009323F063
:10B1F8001F035B44A3EB0A03013023F01F036946D6
:10B20800C0B20393FFF744FFBEE700BF00ED00E0C4
:10B218005F6F01003C6F0100B46001000522044B20
:10B22800C3F89420BFF34F8FBFF36F8F704700BFF1
:10B2380000ED00E0BFF35F8F0022024BC3F89420BB
:10B24800704700BF00ED00E010B5034C2278FFF70F
:10B2580033FF207010BD00BFA8D600202DE9F74F9E
:10B26800294D8A4606464FF00008AB46274FD04581
:10B278001BDAD6F80490B9F1000F3FD031680846C0
:10B28800019109F07CF80199044609EB01000138A5
:10B2980009F075F884424FF014021D4B08D002FBE8
:10B2A80008F36FF015024BF8032003B0BDE8F08FE8
:10B2B80014F1160F2C60F8D01978A142F5DD02FBC5
:10B2C80008B0C7F89840C7F89840D7F89C4000F1F4
:10B2D8000801007B64F304000871D7F8A0000C791A
:10B2E800400860F347140C71D7F89C1021F01F0137
:10B2F8006960D7F8A01021F01F01296108F1010841
:10B3080014350C36B3E700BF1CD0002000ED00E078
:10B31800A8D60020F0B53A4D87B02C68102C6CD810
:10B328000020FFF787FF374B374AC3F8C020844215
:10B338000DD1364D01A82C70FFF7E4F9002406461C
:10B34800334FA6420AD1FFF769FF002053E069682E
:10B3580001EB0011FFF782FE0130E8E701992001B7
:10B3680001EB0413DA683A40B2F5001F22D0B2F5B7
:10B37800800F2CD0B2F5801F36D15A689B680958C7
:10B38800013B22F01F0003440120844623F01F03E1
:10B3980040EA4C10CDE902218DF8100002A9287866
:10B3A8000593FFF775FE002823DB2B780134013362
:10B3B8002B70C6E75A689B680958013B22F01F00AA
:10B3C80003444FF0020C012023F01F03E0E75A6802
:10B3D8009B680958013B22F01F0003444FF0000C02
:10B3E800062023F01F03D3E701210A4A0A4808F080
:10B3F80026FF6FF0150007B0F0BD4FF0FF30FAE7F9
:10B408007464010000ED00E0AAFF4400A8D6002003
:10B418000000F0FF826F0100B460010008B5024B24
:10B428001B689847002008BD30D00020034B044A11
:10B438001860937843F002039370704730D000206F
:10B4480090C50020F0B587B007460E461446002187
:10B45800102268461D460AF0CEFB02238DF8023002
:10B46800054B2A4621466846CDE90476019306F045
:10B4780075FF07B0F0BD00BFCB43010008B5044815
:10B4880008F05DF8404080F311884FF0020002DFB9
:10B49800B36F010008B50649064821F00701C1F15C
:10B4A800005202F5802208F0ACFA002008BD00BF67
:10B4B8002FEF002034D000200122024B0020C3F8D7
:10B4C800402570470090034020B1034B800143F0B2
:10B4D80001031847704700BF5061010009F03EBBE7
:10B4E800084B70B5C31A0D4607499B1004465943CB
:10B4F8004022064808F08CFF2B4601462046BDE84E
:10B508007040184754D00020B76DDBB6285E0100A4
:10B51800402373B50B4C0093041B0B460D460A4998
:10B52800A41061430646094A094808F09DFF011E18
:10B5380005DA30462B4602B0BDE87040184702B025
:10B5480070BD00BF54D00020B76DDBB6DB440100EE
:10B55800285E010070B50022012104460520FFF78E
:10B56800B3FC0F4803F010FA0E4B984215D103F0C4
:10B578001BFA26690C49304608F0EBFA00280BDB69
:10B58800012535642469084904F11C0008F0E1FA32
:10B59800002801DB0020E56470BD6FF00400FBE7C4
:10B5A800E9B500000000AD0B9C64010001460C23C6
:10B5B80000224B4370B50848C41840331844D4E9F6
:10B5C8000E56A26308F011FF2DB132462B46BDE896
:10B5D80070400248184770BD54D00020285E010012
:10B5E80010B1012804D07047034B1B6C5B0701D1D5
:10B5F800FFF7DCBF704700BF54D0002008B54FF0FC
:10B608002003EFF3118183F31288BFF36F8F114A80
:10B61800136843F002001060DA0708D481F3118838
:10B62800BFF36F8FBDE80840012003F0D1B90A4B82
:10B63800D3F80C24D3F80C34DB07EFD5074808F00F
:10B64800D4FE81F31188BFF36F8FBDE80840002056
:10B65800FFF7ACBFA4D000200050004094D00020D9
:10B668001FB500220123CDE902236B46084ACDF815
:10B6780000D0CDF804D008F025FF002805DB4FF4F2
:10B6880080420023684605F077FD05B05DF804FBAD
:10B69800F944010010B54FF02003EFF3118483F350
:10B6A8001288BFF36F8F074A136823F00201DB0784
:10B6B800116002D4012009F05CFA84F31188BFF309
:10B6C8006F8F10BDA4D000202DE9F041012207465C
:10B6D8003549D1E8EF3FC1E8E02F0028F9D133B967
:10B6E800324933484B60CB608A6008F045FA7B1ECC
:10B6F800012B28D8012F06D12E4BD3F81C3403F088
:10B708000303022B1FD009F0CDFD0546E8B92A4BEB
:10B718001B78D3B102220646264BC3F80823254CD2
:10B72800DFF89880D4F81824D4F81834D20316D542
:10B7380003F00303022B01D0012F10D175B386F358
:10B748001188BFF36F8FBDE8F0814FF02003EFF34E
:10B75800118683F31288BFF36F8F0125DFE7C5B128
:10B768003046FFF733FCD4F81835DBB2012BD9D1BA
:10B77800D4F80421002AD5D00022C4F80421D4F832
:10B7880004210222C4F818252022C8F88021A360C9
:10B79800C8E70021212006F031F9E4E70222054B31
:10B7A800C3F80423CFE700BF50D0002040D00020CA
:10B7B80070D000200050004066D7002000E100E073
:10B7C80008B5074809F0E4FC38B10648FFF72EFE33
:10B7D8000448FEF713F9002008BD6FF01200FBE7DC
:10B7E800505E0100F1B700000A2838B50446074D3D
:10B7F80004D1AB680D2128465B689847AB680348BD
:10B808005B68E1B29847204638BD00BF505E010032
:10B8180038B545682B69B3B11035284603F010FDDB
:10B82800044680B90146284603F0CAFC084B9842F2
:10B838000BD122462846074903F098FC22460521E9
:10B848003120FFF741FB002038BD6FF00400FBE713
:10B858000000AD0B61B80000430970B507D10B4B70
:10B86800596821B101250C68094E854001B970BDA0
:10B878008A682A4002D030464B6898471CB1236832
:10B8880021461C46F2E72346FAE700BFA8D000206D
:10B898003C5E01002DE9F04340F206354668D006CB
:10B8A80048BF0320337B02EA050558BFC2F34010A6
:10B8B80087B001F01F07B5F5837F144647EA4317A1
:10B8C8008DF8030041D00FD8062D18D007D8B5B190
:10B8D800022D3CD06FF0150007B0BDE8F083B5F538
:10B8E800807FF7D101250AE040F20222954230D04C
:10B8F800B5F5407F2FD0B5F5007FEBD102252203A7
:10B908002BD5012372688B409360326962BB07F0C4
:10B918001F037F0975D13D4A84F4803102EB83020D
:10B92800D2F80032C1F30041C4F3404423F4E16388
:10B9380044EA410423F007031C4344EA800444EA30
:10B948000524C2F800420020C6E70725D7E70425EA
:10B95800D5E70525D3E70325D1E7630341BF0123D5
:10B9680072688B40D360D0E71036394630460DF107
:10B97800020203F009FC14F4403F80460CD139461A
:10B98800304609F094F9224B9845DCD130469DF8B1
:10B99800021003F063FCD6E74FF0000901AB39460B
:10B9A800304603AACDE90439CDE90199CDF80C90C8
:10B9B80003F048FA164B98428CD114F4003315D092
:10B9C8009DF8033084F48034C4F300448DF80E30BD
:10B9D80039464B46304603AA8DF80C508DF80D4079
:10B9E80003F02CFB0A4B9842CDD073E7CDE9043322
:10B9F80039460DF10303304603AA039303F022FAF4
:10BA0800F0E7803352F82330FFDE00BF0025844082
:10BA18000000AD0BF0B5406801F01F04057B87B04E
:10BA280044EA45140569002D5FD0B2F5001F00F106
:10BA3800100506D12146284609F03BF9002007B039
:10BA4800F0BD0027B2F5800F01AE0197776037D1BE
:10BA5800B3F1007F14BF052304238DF804300023BD
:10BA6800CDE904630393836823FA01F111F001011E
:10BA780018D1B2F1A07F15D104F01F03620903F1B8
:10BA8800800338D11D4A52F82330DB070AD40DF160
:10BA9800030632462146284603F076FB184B9842A7
:10BAA80019D002962146284603AA03F0CBF9154B74
:10BAB80098421DD101222146284603F0E7FBBDE745
:10BAC800B3F1C06F05D0B3F1007F14BF0123022387
:10BAD800C3E70323C1E73146284603F0CBFB094BF4
:10BAE8009842DED06FF00B00A9E76FF08500A6E75B
:10BAF8006FF01500A3E751F82330FFDE00258440DE
:10BB08000400AD0B0000AD0B2DE9F043594D5A4E22
:10BB18005A4F00EB8101814202D10020BDE8F08339
:10BB2800046814F4805FC4F3432C04F07F0340F0EE
:10BB38008F807F2B4FEA144408BF4FF0FF3315F86E
:10BB48000CC0192C00F28780DFE804F00D13191CD3
:10BB58001F251C858585853661858585858585852F
:10BB6800858564797C7FC2F80C355C1C5CD1043017
:10BB7800D1E7C2F814355C1CF9D000245DE0C2F8A6
:10BB88000835F2E7C2F81035F5E75C1CC2F808354D
:10BB9800EDD0002404E05C1CC2F80C35E7D0012489
:10BBA8005FEA531E5AD14FF00108DFF8CCE008FADB
:10BBB80003F9CEF80C900AE0C2F80835BCF1000F82
:10BBC800D9D15C1CD3D000244FF0060CA046D0F885
:10BBD800009009F4005EBEF1000F1CBF4FF0000892
:10BBE800012403F01F0E5B093ED106EB8E0EDEF832
:10BBF8000032C9F3C1193B4043EA890343EA0C23E5
:10BC080043EA080343EA4403CEF80032AFE7C2F838
:10BC18000C35D3E7C2F86035B3F1FF3F0468A6D00E
:10BC2800C4F38034002CBAD05C091AD10124DFF89F
:10BC380048E004FA03F8CEF80880A046C7E7C2F83F
:10BC48006435E9E7C2F86835E6E7C2F86C35E3E73A
:10BC58006FF0150062E76FF085005FE70023DB6097
:10BC6800FFDE00239B60FBE700230EF1800E53F8F4
:10BC78002E30F5E70670010000258440F0F8FCFF3F
:10BC88002DE9F74306464FF000080022012108205D
:10BC9800FFF71AF90820FFF7E7F8776835693C6875
:10BCA8004146C4F800852E60D7F80C9001AA484692
:10BCB80008F06EFC002837DB019BD9F800201979C1
:10BCC8001868FFF721FF00282EDB6B7A3169012BFA
:10BCD80003D0032B26D14FF01008AB7A032B21D1C8
:10BCE80095F80BC0BCF1000F02D0BCF1010F19D1BF
:10BCF8002A7A12B1022A15D10E226B687068B3F540
:10BD0800164F00687BD02DD8B3F5165F7AD016D8B9
:10BD1800B3F5966F78D00AD8B3F5967F77D0B3F598
:10BD2800167F77D06FF0850003B0BDE8F083B3F5D8
:10BD3800166F72D0B3F5965FF4D15C4B3EE0B3F565
:10BD4800E14F6DD007D8B3F5615F6BD0B3F5964F6F
:10BD5800E8D1574B32E047F6122E7345E2D14FF443
:10BD680000032BE0B3F5613F5ED013D8B3F5963FDF
:10BD78005DD009D84DF6C02E73455AD0B3F5614F42
:10BD8800D0D14FF46B0319E0B3F5E13FCAD14FF0BE
:10BD9800EB7313E0B3F5612F4ED009D8DFF814E147
:10BDA80073454CD0B3F5E12FBCD14FF0E86305E003
:10BDB800DFF804E17345B5D14FF08053C0F824355E
:10BDC800736848EA0C081B6842EA0802C3F86C2545
:10BDD8000B1DD5E9010183E803007B6899073DD570
:10BDE80005F1180002F082FE344B98422AD03448FC
:10BDF8000121344A08F023FA6FF0040094E74FF465
:10BE08001D03DBE7304BD9E74FF49E23D6E74FF409
:10BE1800A033D3E74FF41C33D0E74FF41D23CDE70D
:10BE28002A4BCBE72A4BC9E74FF06C73C6E7294B7F
:10BE3800C4E74FF46503C1E74FF07063BEE74FF006
:10BE48008063BBE7287E04F10C0204F5907108F0CA
:10BE580089FE01202B7E984002F038FD0823C4F8A3
:10BE680000353B7A53B9C4F81031D4F810316B69F6
:10BE7800C4F834350123C4F8383523607B680020C2
:10BE88009A075CBF4FF48073C4F804337B68DB0601
:10BE980044BF4FF48003C4F804332B69C4F8443515
:10BEA8000123C4F84805A360E3603DE700B0130030
:10BEB80000A04E0090D0030040420F000000AD0BE0
:10BEC800D46001000E7001000050270000C075000A
:10BED80000F03A0000903A01F8B504460D460769AB
:10BEE80009F0E0F9B0B92E4B1B789BB16426606865
:10BEF80008F07CFB00BB012008F032FE013EF6D1C1
:10BF08000021212005F07AFDF0E786F31188BFF3C0
:10BF18006F8FF5E74FF02003EFF3118683F3128854
:10BF2800BFF36F8F6068314608F060FB90B986F305
:10BF38001188BFF36F8FEDE74FF02003EFF3118601
:10BF480083F31288BFF36F8F6068314608F04EFBA9
:10BF58000028DAD03B691D70626838691368C3F835
:10BF680044050120C3F848050020C3F82001D3F890
:10BF78002051C3F858015268D3F85801D20608D5A1
:10BF8800082062681268C2F800054FF48002C3F8FE
:10BF9800042301229A6081F31188BFF36F8FF8BDE3
:10BFA80066D700200123834070B5DC430B4AD2E8F2
:10BFB800EF1F01EA0405C2E8E65F002EF7D14FF44F
:10BFC800803282400648C0F80823BFF35F8FBFF372
:10BFD8006F8F0B4214BF0120002070BDB8D0002025
:10BFE8000050014070B40E4922F07F46D1E9003478
:10BFF800D01AC31844F10004C1E90034A6F50013AF
:10C00800B3F5400F09D2074B1B681A0A1B069C1987
:10C01800054B42F10005C3E9004570BC05F0F6BDCB
:10C0280030CD0020BCD0002038CD0020D9B101236C
:10C038000D4A8340D2E8EFCF4CEA030CC2E8E1CFC7
:10C048000029F7D14FF48033084A8340C2F80433FB
:10C05800074BD3E8AF3FC340DB0742BF4FF40012A2
:10C06800044BC3F800217047B8D0002000500140AD
:10C07800B4D0002000E100E00D4B1868010A00066A
:10C08800BFF35F8F0B4BD3F80435181841F100014B
:10C09800B3F5801F0AD2084BD3E90023904271EB15
:10C0A800030303D210F1807041F10001704700BF13
:10C0B800BCD000200050014038CD00202DE9F04FC1
:10C0C80085B016461F4604469DF840A0FFF76AFF54
:10C0D8000190FFF7D1FFB04271EB070352D23B4BFF
:10C0E800301A67EB0101984271F100014DD2384BCB
:10C0F80003EB0413D3E902239F4208BF964258D0AA
:10C108004FF48038334908FA04F8204626F07F4B6C
:10C11800C1F8488308F0B3FA4FF00309584604F110
:10C128005005AD00ADB205F1804504F5A87305F5DD
:10C13800A8350293029A20F07F4341F82230C1F8D3
:10C148004483D1F80435244AC01A033820F07F40CC
:10C1580090422ED9286868B1D1F80435A3EB0B00BA
:10C1680020F07F40B0F5000F039322D9204608F055
:10C1780086FA039BBAF1000F07D109EB030009F116
:10C188000109D7E7BAF1000F09D06FF0150520466D
:10C198000199FFF74BFF284605B0BDE8F08F012352
:10C1A8000E4AA340D2E8EF0F1843C2E8E10F002976
:10C1B800F8D107490E982301C8500F9B01EB0412D0
:10C1C8000025C2E902675360E1E700BF0100800073
:10C1D80020CD002000500140FDFF7F00B4D000209A
:10C1E8007FB500254FF0FF304FF0FF31194C1A4B47
:10C1F8000226C4F80833C4F84833184BC4F8085565
:10C20800C3E902014FF480334FF40012C4F8043339
:10C21800134B0121C4F804631520C3F880212A4672
:10C22800FEF752FE1520FEF71FFE01230D4AA360FC
:10C23800236013600C4B0D4A009328460023CDE978
:10C248000155FFF73BFF3046FFF73EFA284604B09A
:10C2580070BD00BF0050014003000F0020CD00203A
:10C2680000E100E0B8D00020EDBF0000FFFF7F0034
:10C278002DE9F7432E4BD3F8042390070BD5D3F8B9
:10C28800042142B10022C3F804212A4AD3F8043118
:10C29800136801331360264AD2F80433D90327D52B
:10C2A800254BD3E8EF1F21F00100C3E8E40F002C71
:10C2B800F7D1CB0702D4D2F84031CBB100251C4CC2
:10C2C800C4F84051D4F84031FFF7D6FE4FF02003B0
:10C2D800EFF3118283F31288BFF36F8F174BD3E903
:10C2E8000267B042B94106D282F31188BFF36F8F5B
:10C2F80003B0BDE8F0834FF0FF38D3E900104FF0EA
:10C30800FF391D60C3E902894FF48033C4F848330C
:10C31800C4F84051D4F8403182F31188BFF36F8FCD
:10C328000029E5D0009032463B4628468847DFE79B
:10C3380000500140BCD00020B4D0002020CD002007
:10C3480030B5431C124C85B005D08442A8BF0446C2
:10C35800012CB8BF0124FFF78FFE0E4B0C4DD3E91B
:10C368000013401AB0F5000F0FD22218AA4228BFB6
:10C378002A46002052180849CDE90100009143F1EE
:10C388000003FFF79BFE05B030BD2A46F1E700BF6A
:10C39800FFFF7F0030CD0020EDBF000008B5FFF79C
:10C3A8006BFE024B1B68C01A08BD00BF30CD0020D1
:10C3B800F0B50F4B01461A680E4B0B2500261846A0
:10C3C8001F46B84201D3013D04D11846013A19600D
:10C3D8005A60F0BD04688C42FBD03CB14468141B21
:10C3E800A642BCBF034626460830EAE70346ECE708
:10C3F80030D100203CD100200020054BC3E90000CB
:10C40800044BD3E8EF2FC3E8E10F0029F9D17047B7
:10C4180034D1002030D100202DE9F04F87B00546F7
:10C428000E4608F0AEFE20B96FF06D0007B0BDE80B
:10C43800F08F09F07FF933680446002B0F4604D1CA
:10C4480005F05AFA6FF00A00F0E7BCBF4FF0FF336F
:10C4580033600122002101A808F0BCFFE8460595D9
:10C468004FF02003EFF3118B83F31288BFF36F8F24
:10C4780009F090FCDFF828A1DFF828915AF80000AD
:10C48800FFF796FFD9F8003042689A426FD100232F
:10C49800454D00936B68002B70D1C5E900888BF37C
:10C4A8001188BFF36F8F33685A1C6CD04FF4004E5D
:10C4B80040F2E730002123EAE37C4FF47A7200234C
:10C4C800CCFB0E01FCF71CFC02460B4601A804F04D
:10C4D80053FE4FF02003EFF3118B83F31288BFF361
:10C4E8006F8F00222B685BB1434556D10099002A13
:10C4F8004DD16A6829609A4200D16960002300938F
:10C5080009F048FC5AF80000FFF752FFD9F800304C
:10C5180043608BF31188BFF36F8F08F032FE002859
:10C5280082D035686B1C27D009F004F94FF47A7E65
:10C53800A0FB0E320EFB0121A4FB0E420EFB0722CC
:10C54800DB0BE40B43EA414344EA42441B1B4FEA3A
:10C55800D1314FEAE57C61EBD231ED1A6CEB010C7D
:10C56800BCF1000FB8BF002535602DB96AE74360FC
:10C578008BF31188BFF36F8F002057E7C3F8008053
:10C58800C5F804808BE74FF0FF3213469EE7116031
:10C598006968994208BF6A60B0E71A461B68A2E753
:10C5A8000800000030D1002034D10020024600B538
:10C5B80009F0F0FB014B1A505DF804FB0C00000079
:10C5C80030B404682CB10C4B9C4202D370339C42AB
:10C5D80009D30A4B1C78062C09D8651C1D70064B1C
:10C5E80003EB04130360006830BC08F0F3BE6FF07F
:10C5F8000B0030BC704700BFC0D00020ABD6002075
:10C6080038B505460A4BD3E8EF1F0131C3E8E21FEE
:10C61800002AF8D1074B1C6804B938BD6369AB42DE
:10C6280001D005B113B9201D04F080FD2468F3E79B
:10C6380030D1002034D100200146002200230148D7
:10C6480008F009BE8CD100200146014808F00DBE53
:10C658008CD10020014600220023014808F0FBBDD0
:10C66800A0D100200146014808F0FFBDA0D100205C
:10C6780070B50546054C064EB44200D370BDD4E9EA
:10C688000031284698470834F6E700BFF8840100CF
:10C698000085010008B5024803F062FC002008BDCF
:10C6A80079C6000008B5064803F054FC034620B1DB
:10C6B8000121044A044807F0CBFD002008BD00BF53
:10C6C800D5C6000051700100746001002DE9F843DF
:10C6D80004460026244DDFF8949000AF4D4521D341
:10C6E800EEB12046FCF786FC0022411D00232048BD
:10C6F80008F0B1FD054650BB6E4688B06A461D4B32
:10C70800C2E905344FF4007393831B4B42F8103F82
:10C718004FF4E45103461948FDF72CFDB546BD46D4
:10C72800BDE8F88395F8088018F0010F0BD1296847
:10C7380019B1204609F021F928B118F0020F04D0E8
:10C7480020466B6898470C35C8E70126FBE7214669
:10C758000430FCF747FC2946094808F030FE094830
:10C7680004F028FEDBE700BFFCC6002050C700200D
:10C77800A8C700207E70010003000001746001005A
:10C7880014C80020BCC500202DE9F843134E144FEF
:10C79800DFF8508000220023304604F093FC054661
:10C7A800B8B9BDE8F883237ADA070AD49B0708D416
:10C7B800216819B1484609F0E0F810B148466368A5
:10C7C80098470C34BC42EED32946404608F04DFD4C
:10C7D800E0E7054C05F10409F4E700BF14C80020A0
:10C7E80050C70020A8C70020FCC60020A0F12C03D9
:10C7F800DBB2112B9DBF0348D84000F00100002098
:10C80800704700BF01400200F8B505460024094EF4
:10C8180056F8047B3846FCF7EDFB394602462846B5
:10C8280009F07DF820B10134042CF1D10020F8BDC5
:10C838000120FCE7586501002DE9F0430468A3B026
:10C84800237880460F4616460094002B00F0DD80C2
:10C858006F4B1B78062B1BD10021621C00921078AD
:10C868001346A0F16105192D02F101020ED9A0F1BC
:10C878004105192D0AD95F2808D001B10093224635
:10C88800394630461B1B08F025F850E00121E6E741
:10C89800013B082B4BD8DFE803F06C5162AA0E4A23
:10C8A8001F47050022460021134612F8010B0028F5
:10C8B800E3D00121F8E72046002102780346A2F1DF
:10C8C8003005092D00F1010004D922F02002413A77
:10C8D800052AD2D80121F0E7684607F03DFF00227B
:10C8E80000980378054623F020014139192900F101
:10C8F800010013D9303B092B10D902B100952B1B2D
:10C9080022463946304607F0E5FF2B783D2B07D104
:10C918006B783F2B0BD10235009508E00122E0E748
:10C928003F2B04D10135F7E7304607F0A9FF002077
:10C93800009BC8F8003023B0BDE8F08325462A786C
:10C94800104607F000FF2B46013508B9002AF6D13A
:10C958002246394630461B1B07F0BCFFDCE725465C
:10C968002A782B46222A05F10105F1D0002AF7D1B1
:10C97800EEE720460A2201A905F0F0FB0124019BFD
:10C9880002900093009B1878292825D020B303F142
:10C998000109FFF72BFFCDF8009008B9254619E0EB
:10C9A8000A2201A9484605F0D9FB22AB651C03EB16
:10C9B800840444F8800C4846FCF71CFBDDF804901E
:10C9C80004464846FCF716FB844206D0202DCDF8D5
:10C9D800009002D02C46D5E72546AB0039463046B4
:10C9E80002AA07F09AFF009B013300939FE70A22EF
:10C9F800204602A905F022FB0B4602990246009147
:10CA08003046394607F051FF91E74FF0FF3092E783
:10CA1800ADD600202DE9F04107460468DFF888818B
:10CA280000293DD1207807F082FE604E054660B3AC
:10CA38000623052220465E49337008F070FFF8B1DE
:10CA4800052220465B4908F06AFFC8B10B22204640
:10CA5800594908F064FF98B10A222046574908F05E
:10CA68005EFF68B10B222046554908F058FF38B1DF
:10CA780007222046534908F052FFB0FA80F56D09A5
:10CA880088F8005000203C6048E098F8003053B91E
:10CA9800204607F06FFE002842D007233370F1E7E5
:10CAA80098F800301BB10222404B1A70EAE70029BF
:10CAB8003DDD2246157816462846013207F043FE2A
:10CAC8000028F7D13046FCF795FA03282AD92B46D7
:10CAD800A5F16102192A98BFA5F12003412B21D1A4
:10CAE8007378A3F16102192A98BF203B542B19D1FE
:10CAF800B378A3F16102192A14D92B2B09D0252B5D
:10CB080010D1F378A3F16102192A98BF203B582B62
:10CB180008D009226FF00100244B1A70BDE8F0819B
:10CB28000223BBE7207807F002FE002839D12278DB
:10CB3800A2F12B03DBB20E2B18D847F6E57121FAC8
:10CB480003F3DB0719D4104607F0FDFD10B31749AE
:10CB58000B78042B1BD12246144612F8010B07F060
:10CB6800F2FD0028F8D105230B708BE7222A07D1A4
:10CB780003220E4B01341A7084E704220B4B94E70E
:10CB8800282AE0D10122094B14441A707AE7082BAD
:10CB98003FF478AF1046FFF729FE10B10822034B87
:10CBA80083E74FF0FF30B9E7ACD60020ADD60020C0
:10CBB800B5700100BB700100C1700100CD700100AB
:10CBC800D8700100E47001002DE9F3478946164644
:10CBD8001F468046002800F09780002A00F09480C5
:10CBE8005368002B00F090800024104607F023FEC5
:10CBF80042463368CDF804809F4228BF1F46444B05
:10CC08001C70444B1C701146087807F09CFD2546A3
:10CC1800013204460028F6D105B101910025019A98
:10CC28001378002B50D0AF424ED9202B02D0093BAD
:10CC3800042B01D801320192294601A8FFF7EAFE28
:10CC4800431C41D0023008BF00253246294601A8BE
:10CC580008BFCDF80480FFF7EFFD013034D0019A0A
:10CC68001078FFF7C3FDB0B1507807F06CFD78B1CC
:10CC78000135BD4241D0294601A8FFF7CBFE01305E
:10CC880022D03246294601A8FFF7D6FD01301BD035
:10CC9800019B01330193019A107807F054FD38B3D2
:10CCA8000132117892460846013207F04CFD0028FF
:10CCB800F7D139B1084607F03AFD18B95046FFF7E1
:10CCC800A3FDA8B1CDF804A0019DC4B92B78CBB1C0
:10CCD8002846FFF799FD002814BF00206FF00A00CE
:10CCE800B9F1000F01D0C9F8005002B0BDE8F087D3
:10CCF8000135BD4208BF012491E70446E4E76FF01F
:10CD08000600EDE72046EBE76FF01500EDE700BF02
:10CD1800ADD60020ACD6002010B5044692B048220B
:10CD28000021684608F067FF0122204602A900F0AA
:10CD380023FD034630B10121064A074807F0AAFE41
:10CD480012B010BD032368468DF8003000F01EFCB9
:10CD5800F6E700BF0F710100A460010010B504469A
:10CD680092B048220021684608F045FF204602A9F3
:10CD7800FCF74AF9034630B10121064A064807F094
:10CD880089FE12B010BD022368468DF8003000F00D
:10CD9800FDFBF6E736710100A460010010B50446FA
:10CDA80092B048220021684608F025FF204602A9D3
:10CDB80000F000FE034630B101210A4A0A4807F094
:10CDC80069FE12B010BD029B039AA3F59C53083B61
:10CDD8001343F6D1062368468DF8003000F0D6FBE1
:10CDE800EFE700BF52710100A460010030B5A5B0A3
:10CDF800002148220546684608F0FDFE00F0BEFB0B
:10CE08000146A0B9374C2378032B3AD948220DEBB9
:10CE1800020008F0F0FE607870B1302108F018FDCB
:10CE2800044650B9304A0121304807F031FE3048F5
:10CE380004F07CF925B030BD04462946294814AAD7
:10CE4800239400F087FFC11D034607D001280BD9A2
:10CE58000121284A254807F01DFE0BE00A2302217C
:10CE6800254A224807F016FE072312A88DF84830F5
:10CE780000F08CFB204608F0E0FC219808F0DDFC6F
:10CE8800D5E7284600F0EAFD044630B1102108F045
:10CE9800DFFC044608B9194AC5E7284602A90F94D9
:10CEA80000F0FCFDC21D034607D0012810D901215E
:10CEB800104A0E4807F0EEFD10E00221104A0B4818
:10CEC80007F0E6FD0A2302210E4A084807F0E2FDB2
:10CED800072368468DF8003000F058FB002CA6D0D8
:10CEE8002046CBE750D7002086710100A4600100DE
:10CEF80004C8002014720100B27101003E720100E2
:10CF08006B720100DA71010010B5044692B0482234
:10CF18000021684608F06FFE204602A901F098F942
:10CF2800034630B10121104A104807F0B3FD12B092
:10CF380010BD9DF808305A1E032A01D9072BF6D1D7
:10CF4800DDE90421A2F59C53083B0B4308D00A43B2
:10CF580008D00A2368468DF8003000F017FBE6E792
:10CF68000823F7E70923F5E792720100A46001009E
:10CF780010B5044692B048220021684608F03BFEEE
:10CF8800204602A901F0C2F9034630B10121064A40
:10CF9800064807F07FFD12B010BD0B2368468DF8D8
:10CFA800003000F0F3FAF6E7CE720100A460010049
:10CFB80008B50B4802F0DAFF034638B10121094AE7
:10CFC800094807F067FD6FF00D0008BD074802F03B
:10CFD800CDFF0028F9D003460221054AF0E700BF3B
:10CFE800FE72010009730100A4600100ED760100E2
:10CFF8003F73010038B50C46054640B949B30846A9
:10D00800FBF7F8FF082818D06FF0150014E0FBF7BD
:10D01800F1FF0828F8D19CB12046FBF7EBFF082860
:10D02800F2D1092229460C4808F023FC092221469E
:10D038000A4808F01EFC002038BD074B1D70F5E7B4
:10D0480009222946044808F014FC0022034B1A70F0
:10D05800F1E7014B1970F8E7DFC60020E8C60020A9
:10D0680010B538B31448FBF7C5FF04461348FBF75F
:10D07800C1FF082C15D108280ED1104A0E491048B6
:10D0880002F074FF38B1034601210E480E4A07F03A
:10D0980001FD6FF00D0010BD07490C4802F066FF56
:10D0A800F0E7082802D105490948F7E7094802F0DE
:10D0B8005DFFE7E70848FAE7DFC60020E8C600207A
:10D0C80075730100A4600100BC7301008C7301003A
:10D0D8009E730100B1730100F87601000023F0B5DA
:10D0E8008DB00D460646CDE90333CDE90633CDE9CB
:10D0F80009338DF814308DF820308DF82C30002845
:10D108005ED000295CD0304CA02120462F4A2370E5
:10D1180002F090FF034648B101212D4A2D4807F03F
:10D12800B9FC6FF00D0420460DB0F0BD20462C214F
:10D1380008F0CBFB044648B96FF04C04F3E734B968
:10D148000121254A234807F0A3FCF5E70C27601CBA
:10D158002C2108F0BAFB013F0446F0D10028EFD09B
:10D16800811C082203A808F0ECFB601C2C2108F0A5
:10D17800ACFB04460028E3D0811C082206A808F06E
:10D18800E0FB2C21601C08F0A0FB0028D8D0811CF3
:10D19800082209A808F0D5FB01AB09AA06A903A82B
:10D1A80000F05CFA044630B1034601210B4A0948F5
:10D1B80007F070FCB7E7019B3360029B2B60B2E776
:10D1C8006FF01504AFE700BFAED60020EB73010087
:10D1D800F8730100A4600100157401002F740100A8
:10D1E8002DE9F04100240546A4B002AF48220021F1
:10D1F80007F1400008F0FFFC3022214607F110003B
:10D20800BC7107F1080808F0F6FCFB1DBC60C8F803
:10D21800044001210093284607F11003BA1D00F0CD
:10D22800F7FAB8B16E468AB002AA4C4BD561C2E98A
:10D23800053040F201331384494B42F8103F4FF454
:10D24800115123464748FCF795FFB5468837BD4638
:10D25800BDE8F081BB7903F0FB03012B04D1BB6966
:10D2680001335CD10423BB7100F088F90028EDD1AB
:10D278003D4ABB791178994208D087F8400007F1F8
:10D288004000137087F8483000F080F9374BB969CF
:10D298009A68914203D1DB68FA699A421DD0042347
:10D2A800324D07F1100487F840300FCC0FC50FCC72
:10D2B8000FC594E80F0085E80F0007F1480607F14D
:10D2C80010050FCD0FC60FCD0FC694E80F0086E8E6
:10D2D8000F0007F1400000F059F9254AFB79117851
:10D2E800994209D01370052207F1400087F84020C1
:10D2F80087F8483000F04AF9BC7904F0FB04012CA7
:10D30800A4D1404607F10C01FFF7E8FE58B14D30B3
:10D318009CD02146174A134807F0BAFB96E71648EF
:10D3280003F004FFA0E7154BB9681A6891421A4642
:10D3380003D15B68F968994288D098E80300012313
:10D3480087F8403007F1480382E8030083E80300C8
:10D3580007F1400000F01AF978E700BF5C7401009B
:10D3680004000001A46001004FD7002040CD002038
:10D378004ED7002088740100E4C70020B4D10020F3
:10D38800002208B511460346034802F0EFFD0028C5
:10D3980018BF6FF00D0008BDA67401002DE9F74F06
:10D3A80005230422CDE9002378B9244802F0DEFDE4
:10D3B800034600283FD0224A2248012107F06AFB91
:10D3C8006FF00D0003B0BDE8F08F6F460026DFF860
:10D3D8007880DFF87890DFF878A057F8044B1D4D77
:10D3E800042C14BFC346CB46584618BF5546FBF716
:10D3F80001FE04280AD15A462146174802F0B6FD14
:10D40800034640B1154AD7E70126E6E72146144806
:10D4180002F0ACFDF4E72846FBF7ECFD042808D140
:10D428002A4621460F4802F0A1FD034608B10E4ADC
:10D43800C2E7002EE8D00020C4E700BF0277010051
:10D44800BB740100A4600100F1C60020F6C60020EC
:10D4580052D7002057D70020E67401000975010053
:10D46800FA740100337501004475010038B5431E94
:10D47800062B05460C4608D90346124A12480121D4
:10D4880007F008FB6FF0150038BD042902D90B46D8
:10D498000E4AF3E70E4B5A5C0E4B53F820100E4819
:10D4A80002F064FD40B10346012107480B4A07F02A
:10D4B800F1FA6FF00D00E7E7094B1D70094B1C707E
:10D4C800E2E700BF6E750100A460010090750100DD
:10D4D800E876010068650100B5750100CB750100AB
:10D4E800DEC60020DDC60020042838B5044619D859
:10D4F80004281CD8DFE800F0240A241B2400012398
:10D50800154AAB4013421BD1012D10D1FFF750FD36
:10D518000346A8B10121114A114807F0BBFA6FF080
:10D528000D0038BDA0F11405EDB2182DE7D90C484F
:10D53800234601210B4A07F0ADFA6FF01500F0E71A
:10D548002146094802F012FD0028EAD00121074AC5
:10D55800034807F09DFAE2E7010C3001F07501007D
:10D56800A46001001A7601003676010041760100B8
:10D57800014803F0EFBC00BFBCC70020024B18688D
:10D58800B0FA80F040097047BCD1002038B50F4C84
:10D5980005462368C3B14FF0FF334FF0FF320C4804
:10D5A80003F016FD23680BB11C681BB9BDE83840B1
:10D5B800FFF7DEBF28465B6898471CB12268234600
:10D5C8001446F2E72246FAE738BD00BFBCD1002076
:10D5D800BCC7002070B50E461446054600B132B9E6
:10D5E80001210A4A0A4807F060FA002070BD104677
:10D5F800FBF700FDB042F8D832462146284608F02D
:10D6080054F9B0FA80F04009F0E700BF0E77010046
:10D61800A4600100F7B50023054608F0BBFB0E4FD8
:10D628001646C3510A46044601A9284604F090FC50
:10D63800019AAA420DD012785AB900F10042013A73
:10D64800033202D9E259222A03D03060002003B005
:10D65800F0BD6FF03C00FAE70C0000002DE9F7433D
:10D668004FF0000807460E4615461C46CDF80480C4
:10D67800FBF7C0FC08281BD13046FBF7BBFC082889
:10D6880016D12846FBF7B6FC082811D13288B378A2
:10D69800ADF804204146022201A88DF8063004F0B6
:10D6A8005DFD072809D92C4A01212C4807F0FDF90E
:10D6B8006FF0150003B0BDE8F083294B022253F840
:10D6C80020904146F01C04F049FDB9F1000F11D13A
:10D6D8004FF0FF3323602A88AB78ADF8042000218F
:10D6E800022201A88DF8063004F038FD072815D964
:10D6F8001C4AD9E709FB00F020600130EBD03A88DA
:10D70800BB78ADF804200021022201A88DF806306C
:10D7180004F024FD07280FD9134AC5E7134B53F823
:10D7280020600EB9124ABFE702220021E81C04F06B
:10D7380015FD70432060E2E70E4B022253F820509B
:10D748000021F81C04F00AFD1DB145430020656066
:10D75800B0E74FF0FF35F9E733780100A460010026
:10D76800B065010068780100B4780100D065010057
:10D7780094780100D06501000023F0B585B0074614
:10D788000D4602A804211646CDE9023307F040F8F9
:10D79800044640B103460121184A194807F087F9A1
:10D7A800204605B0F0BD014602AA384607F00BF83E
:10D7B800044648B10346134A0121114807F077F996
:10D7C80002A807F04FF8EBE7314601AA02A807F0D4
:10D7D800FBF8044610B103460B4AEDE7019B1BB169
:10D7E800012B03D12B70EBE70346FBE70121074A26
:10D7F800034807F05CF96FF01504E1E727770100AB
:10D80800A4600100D7780100027901002B7901009A
:10D818002DE9F0431D4600238BB00393ADF810307B
:10D828008DF8123090460923072281460E4605A836
:10D838000B21CDE90023129F06F0EAFF044648B108
:10D8480003460121544A554807F031F920460BB0E8
:10D85800BDE8F083014605AA484606F0B4FF044631
:10D8680048B103464E4A01214C4807F020F905A863
:10D8780006F0F8FFEAE701466B4603AA05A807F099
:10D88800CFF8044610B10346464AECE7464A0099E9
:10D8980003A8FFF79FFEF8B107AAC6F1020105A881
:10D8A80007F092F8041E34D1079B052B19DC002BD6
:10D8B80025DBB8F1000F11D1002D34D10024002F41
:10D8C800D5D002AAC6F1050105A807F07DF8002801
:10D8D8005FD19DF808303B700024C8E788F8003015
:10D8E800EAE75A2B0BD1B8F1000F01D088F80030C5
:10D8F800002DE3D04FF0FF33C5E90233DEE7012105
:10D908002A4A264807F0D3F86FF015042346284A18
:10D91800A9E7FBDBB8F1000F01D088F80040002D23
:10D92800CCD05A2CE6D005A807F09DF80328E1D9F9
:10D93800C6F1030101AB07AA05A807F071F8014673
:10D94800C0B9019B102228336B4403F80C0C07A8BC
:10D9580004F004FC0923E860019307AA01ABC6F1AF
:10D96800040105A807F05CF8044630B14FF0FF3316
:10D97800AB60A4E74FF0FF30ECE7019B014628338A
:10D988006B4403F80C0C102207A804F0E7FBA8600E
:10D9980094E700239FE700BF27770100A4600100F8
:10D9A8004779010074790100B07601009D79010082
:10D9B800C5790100002373B506460D46CDE900334D
:10D9C80000293BD0002839D00421684606F020FF02
:10D9D800044640B1034601211A4A1B4807F067F87C
:10D9E800204602B070BD01466A46304606F0EBFE9E
:10D9F800044648B10346154A0121134807F057F871
:10DA0800684606F02FFFEBE72A460221684606F033
:10DA1800F3FF044610B103460D4AEDE70D49D5E979
:10DA2800003299424FF008039341E9D202210A4A91
:10DA3800054807F03AF86FF01504E1E76FF01504B0
:10DA4800CEE700BF27770100A4600100F27901004A
:10DA58001F7A010000E099504C7A010008B530B9EE
:10DA680001210C4A0C4807F020F8002008BD0023CB
:10DA7800013810F8012F2C2A01D10133F9E7002AC7
:10DA8800F7D10A2BF1D9A3F109000523B0FBF3F074
:10DA9800ECE700BF797A0100A46001002DE9F043AA
:10DAA8000B230D46002107468DB0CDE909110493DB
:10DAB800CDF82B10421E12F8013F2C2B01D1013159
:10DAC800F9E7002BF7D185F830304FF0FF330331F9
